:020000040800F2
:100000006805002005010008831600082312000877
:100010008116000871010008E71A000800000000BE
:10002000000000000000000000000000811A00082D
:100030008D0100080000000087190008831A0008DD
:100040001F0100081F0100081F0100081F01000810
:100050001F0100081F0100081F0100081F01000800
:100060001F0100081F0100081F0100081F010008F0
:1000700075010008810100081F0100081F01000828
:100080001F0100081F0100081F0100081F010008D0
:100090001F0100081F0100081F0100081F010008C0
:1000A0001F0100081F0100081F0100081F010008B0
:1000B0001F0100081F0100081F0100081F010008A0
:1000C0001F0100081F0100081F0100081F01000890
:1000D0001F0100081F0100081F0100081F01000880
:1000E0001F0100081F0100081F010008DFF810D0E1
:1000F00000F02CF800480047291B0008AFF30080EF
:10010000680500200648804706480047FEE7FEE7EE
:10011000FEE7FEE7FEE7FEE7FEE7FEE7FEE7FEE7B7
:10012000E51A0008ED000008D2B201E000F8012B4A
:10013000491EFBD270470022F6E710B513460A4667
:1001400004461946FFF7F0FF204610BD064C074D48
:1001500006E0E06840F0010394E807009847103497
:10016000AC42F6D3FFF7C6FFAC220008CC22000851
:10017000FEE70000014800F00DB80000DC000020A0
:10018000014800F007B8000020010020704772B657
:10019000FEE700002DE9F05FC16B0C6801680B6899
:1001A000D0F840C0042202FA0CF2494DDFF824A135
:1001B000494E4A4FDFF828B1DFF828E122422CD01F
:1001C0005A072AD50A68920603D40A6822F0040264
:1001D0000A600168A94201D1042219E0514501D108
:1001E000402215E0B14202D14FF4806210E0B942E2
:1001F00002D14FF480420BE0594502D14FF48022E6
:1002000006E0714502D14FF4800201E04FF08062B8
:100210002F4908394A60C16A3BE04FF0020808FAEA
:100220000CF818EA040F4FF000094FF0010235D026
:100230005FEA837832D50B689B0605D40B6823F000
:100240000A030B6080F821200168A94201D1022233
:1002500019E0514501D1202215E0B14202D14FF4FD
:10026000007210E0B94202D14FF400520BE0594540
:1002700002D14FF4003206E0714502D14FF4001272
:1002800001E04FF00072124908394A6080F820906E
:10029000816A00291AD0BDE8F05F0847082505FAF1
:1002A0000CF5254212D01B0710D50B6823F00E0366
:1002B0000B6090F84010C36B02FA01F15960826341
:1002C00080F8212080F82090016BE2E7BDE8F09FE4
:1002D000080002401C00024030000240440002407E
:1002E000580002406C00024030B528B308C81349DA
:1002F00014221944B1FBF2F18900C16310498163F2
:10030000022141771A6843F6F0718A43D0E900145C
:100310002143D0E902452C43214304692143446928
:100320002143846921431143196000214163012263
:1003300042770177084630BD012030BDF8FFFDBF90
:100340000000024070B5044600F010F90546601C3C
:1003500002D004480078044400F008F9401BA04291
:10036000FAD370BD240000202DE9F84FDFF8B891D2
:100370000024A9F1040B23460F2709F1040AABF16D
:10038000040EC9E00125A5402A40AA427DD1674E4E
:10039000D1F804C0ACEB0608B44532D014DCBCF193
:1003A000030F3AD009DCBCF1000F2AD0BCF1010FD9
:1003B0001CD0BCF1020F31D11DE0BCF1110F17D0E0
:1003C000BCF1120F2AD119E0B8F5881F19D006DC4C
:1003D000B8F5803F15D0B8F5801F1FD111E0B8F5F2
:1003E000001F0ED0B8F5041F18D10AE0CB6815E045
:1003F000CB681B1D12E0CB6808330FE0CB680C33D1
:100400000CE08B682BB1012B4FF0080303D0456142
:1004100004E0042302E0056100E00023FF2A01D884
:10042000064601E000F104064FEA840501D9A5F172
:100430002005D6F8008007FA05FC28EA0C0803FA24
:1004400005F548EA0508C6F800804D68ED0062D55C
:10045000374DAE6946F00106AE61AD6924F0030682
:1004600005F001050095334D06EB050CDCF808504E
:10047000A607360F07FA06F825EA0805DFF8B88060
:10048000404503D14FF0000817E044E0DFF8AC80AE
:10049000404502D14FF001080FE0DFF8A48040454D
:1004A00002D14FF0020808E0DFF89880404502D101
:1004B0004FF0030801E04FF0040808FA06F848EA94
:1004C0000508CCF808804D68D9F80060ED024D466B
:1004D00001D5164300E096432E604D68DAF80060BF
:1004E000AD02554601D5164300E096432E604D6897
:1004F000DBF80060AD035D4601D5164300E096438E
:100500002E604D68DEF80060ED03754601D5164398
:1005100000E096432E60641C0D682A46E5407FF497
:1005200031AFBDE8F88F0000080401400000111051
:10053000001002400000014000080140000C014092
:1005400000100140001401408068084000D00120E4
:100550007047C26821EA02030A4043EA024101618E
:1005600070470AB1016170470904FBE701488068E0
:10057000704700002400002070B5040025D094F8D6
:100580003D00002520B984F83C50204600F04EF98B
:10059000242084F83D002068016821F001010160F9
:1005A0002068016841F4004101602068016821F47D
:1005B0000041016000F0A6FA4D4A6168914201D8FD
:1005C0004C4900E04C49884201D2012070BD4B49A2
:1005D0002368B0FBF1F15E6826F03F060E435E60D3
:1005E0006368934206D94FF4967359434FF47A7374
:1005F000B1FBF3F12368491C1E6A26F03F06314324
:1006000019626168914210D84900401EB0FBF1F2B6
:10061000521CC2F30B02042A01D2042022E0B0FBD8
:10062000F1F0401CC0F30B001CE0A268F2B301EB38
:10063000C10303EB0116431EB3FBF6F35B1C43F44B
:1006400080431B0549D092B301EBC10202EB0111BB
:10065000401EB0FBF1F0401CC0F30B0040F48040A2
:1006600040F400402168CA694CF6FF739A43104376
:10067000C861D4E9071001432068026822F0C00273
:1006800011430160D4E9030101432068826848F204
:10069000FF339A4311438160D4E90501084321687F
:1006A000CA6822F0FF021043C86001E00EE016E0C5
:1006B0002068016841F0010101602564202084F870
:1006C0003D00256384F83E50002070BD01EB4106DB
:1006D000431EB3FBF6F35B1CB3E70120C2E701EB5B
:1006E0004101401EB0FBF1F0401CC0F30B00B7E726
:1006F000A086010080841E0000093D0040420F00DA
:100700002DE9F84F1F4690468A460446DDF82890AA
:10071000FFF72CFF054694F83D0020287FD11923D0
:10072000012240492046009500F00EFE002876D1B7
:1007300094F83C00012872D0012084F83C00206825
:100740000168C90703D1016841F001010160206817
:10075000016821F400610160212084F83D0010202F
:1007600084F83E0000262664C4F824806785608DE6
:1007700020852D48E0622B464A465146204600F02F
:1007800069FD90B9206841698069009036E02A4689
:100790004946204600F07EFE50B1206C042804D16A
:1007A0002068016841F4007101600120BDE8F88F04
:1007B000606A216800780861606A401C6062618D2F
:1007C000491E6185218D491E89B2218522685369A0
:1007D000DB435B070BD451B100781061606A401CA9
:1007E0006062608D401E6085208D401E20852A46F7
:1007F0004946204600F07CFD0028CED1208D0028FF
:10080000C5D154F83D0B016841F40071016020200E
:1008100004F81E09E67766770020C7E7FFE70220A5
:10082000C4E70000020010000000FFFF10B586B012
:100830000021009101910291039100680F498842C3
:100840001AD10F4CA06940F00800A061A069694668
:1008500000F008000490C0200090122001900320B6
:1008600003900848FFF780FDE06940F40010E06164
:10087000E06900F40010049006B010BD0054004080
:1008800000100240000C01401CB502238DF804004A
:100890000A208DF80510009001AA78210148FFF781
:1008A0002FFF1CBD300000200248816802781144EF
:1008B0008160704724000020074810B5016841F0AE
:1008C00010010160032000F075F80F2000F006F819
:1008D00000F024F8002010BD0020024070B50D4D3E
:1008E00004464FF47A712878B1FBF0F00A490968A0
:1008F000B1FBF0F000F081FC48B9102C07D20022C7
:100900002146501E00F036F800206C6070BD0120BA
:1009100070BD000024000020200000200C4808B515
:10092000816941F001018161816901F0010100915A
:10093000C16941F08051C161C06900F080500090F0
:100940000448416821F0E06141F00071416008BD58
:100950000010024000000140002809DB00F01F02E7
:10096000012191404009800000F1E020C0F8001111
:1009700070470000F0B40E4B1B680C46C3F3022313
:10098000C3F10705042D00D90425191D072901D23B
:10099000002300E0DB1E012606FA05F1491E214076
:1009A00099409E40761E16403143F0BC01F09CB841
:1009B0000CED00E0064900F0070208684FF6FF035F
:1009C000184040EA0220034A1043086070470000C4
:1009D0000CED00E00000FA052DE9F0470F46050098
:1009E00061D0434E306800F00700B84209D2306849
:1009F00020F0070038433060306800F00700B8424C
:100A000051D128683B4C810712D5400703D5606857
:100A100040F4E06060602878000703D5606840F427
:100A2000605060606068A96820F0F0000843606072
:100A30002878C00728D06868012810D021680228CB
:100A400010D0890700292EDA616821F003010143E3
:100A50006160FFF78BFD804641F288390DE0216827
:100A60008903EFE78901EDE7FFF780FDA0EB0801BF
:100A7000494502D90320BDE8F0876068696800F045
:100A80000C00B0EB810FEFD1306800F00700B842E6
:100A90000BD9306820F0070038433060306800F030
:100AA0000700B84201D00120E5E72878400705D5C6
:100AB0006068E96820F4E060084360602878000717
:100AC00006D56068296920F4605040EAC100606082
:100AD00000F028F86168084AC1F30311515CC8406E
:100AE0000649086006480068FFF7F8FE0020C2E7E4
:100AF0000020024000100240E81B000820000020F7
:100B0000280000200448054900684968044AC1F3E8
:100B10000221515CC84070472000002000100240B4
:100B2000F81B00080E4A51680E4801F00C03042B14
:100B300011D0082B0FD10C48C1F38343C903C05C0B
:100B40000AD55168084AC1F34041921E515C054ADA
:100B50005043B0FBF1F07047044948437047000030
:100B60000010024000127A00021C000800093D003B
:100B70002DE9F84F040070D02078C04DC00749D04F
:100B80006868C0F38100012807D06868C0F381005D
:100B9000022809D16868C00306D52868800339D5C2
:100BA00060680028E7D035E06068B0F5803F0BD082
:100BB00010B1B0F5A02F11D0286820F48030286043
:100BC000286820F4802002E0286840F48030286003
:100BD000606890B1FFF7CAFC06460AE0286840F456
:100BE00080202860F0E700BFFFF7C0FC801B64286E
:100BF00073D828688003F7D50CE0FFF7B7FC0646EA
:100C000005E000BFFFF7B2FC801B6428F0D828681D
:100C10008003F7D420789A4E80074FF001094FF0F7
:100C2000000839D5686810F00C0F07D06868C0F369
:100C30008100022809D16868C00306D428688007AB
:100C400014D52069012808D110E02069B0B1C6F898
:100C50000090FFF78BFC074605E00AE1FFF786FCF2
:100C6000C01B0228C4D828688007F7D528686169A6
:100C700020F0F80040EAC10028600DE0C6F80080CE
:100C8000FFF774FC074604E0FFF770FCC01B022866
:100C900023D828688007F7D4207800072CD5794816
:100CA000A169D9B1C0F80090FFF760FC074604E0E5
:100CB000FFF75CFCC01B02280FD8686A8007F7D5D5
:100CC00071484FF4FA510068B0FBF1F0009000BF9A
:100CD0000098411E0091FAD20EE080E0C0F800803A
:100CE000FFF744FC074604E0FFF740FCC01B022866
:100CF00075D8686A8007F7D42078400760D5E8691E
:100D00000027C00008D4E86940F08050E861E86935
:100D1000012700F0805000905C480168C90513D499
:100D20000168834641F480710160FFF71FFC824631
:100D300006E000BFFFF71AFCA0EB0A0064284ED8BB
:100D4000DBF80000C005F5D5E06801280AD008B13D
:100D5000052813D0286A20F001002862286A20F0B4
:100D6000040002E0286A40F001002862E06841F2D5
:100D7000883B98B1FFF7FAFB82460BE0286A40F007
:100D800004002862EEE700BFFFF7F0FBA0EB0A01CA
:100D900059455AD8286A8007F6D50CE0FFF7E6FBDC
:100DA000824605E0FFF7E2FBA0EB0A0159454CD86B
:100DB000286A8007F6D41FB1E86920F08050E86106
:100DC000E06988B36968C1F38101022944D002282F
:100DD000C6F8608004D0FFF7C9FB044638E034E071
:100DE000FFF7C4FB074604E0FFF7C0FBC01B022867
:100DF0002BD828688001F7D4206AB0F5803F05D150
:100E00006868A16820F4003008436860D4E90801EC
:100E10000843696821F4741108436860C6F860905B
:100E2000FFF7A4FB044606E025E000BFFFF79EFBAA
:100E3000001B022809D828688001F7D51BE000BFF5
:100E4000FFF794FB001B022802D90320BDE8F88FAE
:100E500028688001F4D40EE00128F7D06868226A7F
:100E600000F48031914204D1616A00F4701088422C
:100E700001D00120EAE70020E8E70000001002406E
:100E800000004242800442422000002000700040E6
:100E900070B5040009D0606A002540B12561656124
:100EA000A56294F8510040B10CE0012070BD60686B
:100EB000B0F5827FF4D0E561F2E784F85050204627
:100EC00000F040F8022084F851002068016821F009
:100ED00040010160A088218900F4827001F404417E
:100EE0000843A18901F400610843217C01F002015B
:100EF0000843217D01F001010843218B01F40071B9
:100F00000843217F01F03801084394F8201001F0D4
:100F100080010843218D01F40051084321680860D5
:100F2000A069042101EA1040216848602068C16975
:100F300021F40061C1616565012084F85100002041
:100F400070BD0000F0B585B0002406460094019401
:100F5000029403940068284988424BD1274881694C
:100F600041F480518161816901F48051049181696A
:100F700041F0040181618069214D00F0040004907A
:100F8000A02000900220019003200390694628468B
:100F9000FFF7EAF94020CDE90004694628460294AB
:100FA000FFF7E2F9184D17488027C5E90004C5E9A5
:100FB00002472C616C61AC612846EC61FFF794F943
:100FC00008B1FFF7E4F8F5646E620F4D0D48443543
:100FD000143001C5102091C50B4845F81049443024
:100FE0006C61AC61EC61FFF77FF908B1FFF7CFF8F6
:100FF000B5646E6205B0F0BD0030014000100240E3
:10100000000801401C000240DC0000202DE9FF4FD9
:1010100081B0044690F8500000260E9F1D4693466E
:101020004FF0010901280FD04FF0010A84F850A0B9
:10103000FFF79CFA804694F85100616801280DD0B2
:10104000B1F5827F08D103E0022005B0BDE8F08F42
:10105000A16809B9042801D00226C9E00298002835
:1010600065D0BBF1000FFBD0002DF9D094F85100F2
:10107000042802D0052084F8510000206065C4F8DF
:1010800038B0E587A58702992163E586A5862064A7
:10109000606420680168490603D4016841F040019A
:1010A0000160E068B0F5006F606803D0F0B3012D17
:1010B00047D081E008B1012D3CD1206B2168008828
:1010C000C860206B801C2063E08E401EE08631E00B
:1010D0002068816889070FD5E18E69B1B9F1010FE8
:1010E0000AD1216B0988C160206B801C2063E08ECF
:1010F000401EE0864FF0000920688168C9070CD0C7
:10110000E18F51B1C068A16B0880A06B801CA06307
:10111000E08F401EE0874FF00109FFF727FAA0EBB0
:101120000800B84206D3781C04D001E009E05BE077
:1011300003265BE0E08E0028CAD1E08F0028C7D1EB
:1011400040E0206B216800780873206B401C20630E
:10115000E08E401EE0862FE02068816889070FD569
:10116000E18E69B1B9F1010F0AD1216B09780173E0
:10117000206B401C2063E08E401EE0864FF000098B
:1011800020688168C9070CD0E18F51B1C068A16B9C
:101190000870A06B401CA063E08F401EE0874FF0FA
:1011A0000109FFF7E3F9A0EB0800B84202D3781C6D
:1011B00002D0BAE7002FB8D0E08E0028CCD1E08F63
:1011C0000028C9D142463946204600F0EDFB18B14F
:1011D0000126202060650BE0A06818B92068C1686E
:1011E00080680090606D08B1012601E084F851A08C
:1011F000002084F85000304627E710B5401EB0F1BB
:10120000807F01D3012010BD4FF0E02460610F21E9
:10121000601700F069FC0020A06107202061002019
:1012200010BDFEE701684A69D24352050FD46FF43E
:1012300080624A61002140F8301F2022427381738E
:10124000026942F00402026101730120704700202C
:1012500070470000F8B50446C06A1E460D461746A2
:10126000082807D0012805D010F5803F02D0206B58
:10127000122804D12068016841F48071016013468E
:1012800000224FF001112046009600F05DF840B1B9
:1012900020680068C00502D54FF400702064032068
:1012A000F8BD2069B0F5804F0ED00620216800EA15
:1012B000D51040F0F000086133463A460B4920460D
:1012C00000F08AF878B902E005F0FE0000E0E8B22C
:1012D00021680861054933463A46891F204600F0D7
:1012E0007BF80028DCD00120F8BD000008000100D8
:1012F00070B516460D4604461EE02046FFF792FFE5
:1013000008B1012070BD681C16D0FFF72FF9801BB3
:10131000A84200D885B920684069C04340070BD572
:10132000002044F8300F20216173A073216941F03F
:10133000200121612073E4E720684069C043400731
:10134000DBD4002070BD00002DE9F0479846174619
:101350000D460446C1F30746DDF820902AE000BFA1
:10136000B8F1FF3F26D0FFF701F9A0EB0901414595
:1013700002D8B8F1000F1DD12068012E16D0806967
:1013800025EA00000004000C12D00020B84211D160
:10139000002044F8300F20216173A073216941F0CF
:1013A0002001216120730120BDE8F0874069E7E753
:1013B0000120EBE72068012E0AD0806925EA0000B1
:1013C0000004000C06D00020B842C9D00020EBE792
:1013D0004069F3E70120F7E72DE9F0479846164604
:1013E0000D4604464FF000094FF0200AC1F30747AD
:1013F00023E020684069C043400515D42068016897
:1014000041F40071016021686FF480604861C4F8A4
:10141000309084F83DA084F83E90216C41F00401A6
:10142000216484F83C9021E0701C06D0FFF79EF800
:10143000A0EB0800B04203D816B1012F1FD021E065
:101440002068012F15D0806925EA00000004000CF7
:1014500018D000BF44F8309F84F80DA084F80E9097
:10146000216941F02001216184F80C900120BDE840
:10147000F087406925EA00000004000CEAD12068EA
:10148000406901E02068806925EA00000004000C42
:10149000AFD1ECE770B516460D4604461EE0204677
:1014A000FFF7C0FE08B1012070BD681C16D0FFF721
:1014B0005DF8801BA84200D885B920684069C04308
:1014C00000060BD5002044F8300F20216173A07373
:1014D000216941F0200121612073E4E7206840691F
:1014E000C0430006DBD4002070BD00000D4808B5E5
:1014F000416941F0010141614069002200F00100B1
:10150000009011460C20FFF735FA0C20FFF724FA63
:10151000002211460D20FFF72DFABDE808400D20EE
:10152000FFF71ABA001002402DE9F04786B00024F8
:101530002D480094019402940394816941F01001B4
:101540008161816901F010010491816941F02001FC
:101550008161816901F020010491816941F00401F8
:101560008161816901F004010491816941F0080100
:1015700081618069DFF8748000F008004FF4005545
:101580000490002229464046FEF7EBFFDFF860900A
:10159000002210214846FEF7E4FFDFF858A040F291
:1015A0000117002239465046FEF7DBFF0095022660
:1015B00001250396CDE9015469464046FEF7D4FE65
:1015C0001020CDE90005CDE9024669464846FEF700
:1015D000CBFE00970396CDE9015469465046FEF7CD
:1015E000C3FE06B0BDE8F0870010024000100140C5
:1015F00000080140000C01400D4810B50B49016086
:101600000C494FF48042C0E901120021C0E90312E5
:1016100041618161C1610162FEF7AEFF002803D024
:10162000BDE81040FEF7B3BD10BD000000540040FF
:1016300030000020801A0600104810B50E490160E5
:101640004FF48271416000218160C1604FF40072EB
:101650000161C0E905121022C0E9072141628162DF
:101660000A21C162FFF714FC002803D0BDE8104036
:10167000FEF78DBD10BD0000003001408400002049
:10168000FEE7FEE770B50A4D044600221021284609
:10169000FEF767FF204600F077F9FF2000F074F9AD
:1016A0000446012210212846FEF75BFF204670BD4C
:1016B0000008014070B5194D4FF480740022214696
:1016C0002846FEF74EFF05221549302000F05CF851
:1016D00013490522491D2A2000F056F80121212036
:1016E00000F076F80121222000F072F8FF2124207A
:1016F00000F06EF82821252000F06AF80F2126203E
:1017000000F066F80E21202000F062F821462846FD
:10171000BDE870400122FEF724BF0000000C01402C
:10172000121C000870B5174C05464FF48076002255
:1017300031462046FEF715FF20222946A02000F062
:1017400023F8012231462046FEF70BFF01212046F7
:10175000FEF7FAFE0028F9D10720FFF793FF0446B1
:101760000146272000F034F8E00605D5FF21E120EE
:1017700000F02EF8102070BDA00601D5202070BD0D
:10178000FF2070BD000C01402DE9F041DFF83C80E6
:1017900016460D460446002210214046FEF7E1FEA3
:1017A000204600F0F1F80746002405E015F8010B8B
:1017B00000F0EAF8641CE4B2B442F7D3012210212D
:1017C0004046FEF7CEFE3846BDE8F08100080140F5
:1017D00070B50B4D0E460446002210212846FEF738
:1017E000C0FE204600F0D0F80446304600F0CCF8A9
:1017F000012210212846FEF7B4FE204670BD0000ED
:101800000008014070B500240021204600F05BF87C
:101810000025002000F0B3F86D1CEDB2802DF8D348
:10182000641CE4B2082CEFD370BD10B54FF4FA700D
:10183000FEF788FDAE2000F09EF8D52000F09BF862
:10184000802000F098F8A82000F095F83F2000F0E4
:1018500092F8D32000F08FF8002000F08CF84020A0
:1018600000F089F8A12000F086F8C82000F083F885
:10187000DA2000F080F8122000F07DF8812000F0DE
:101880007AF8CF2000F077F8D92000F074F8F12032
:1018900000F071F8DB2000F06EF8302000F06BF8FB
:1018A000A42000F068F8A62000F065F88D2000F074
:1018B00062F8142000F05FF8AF2000F05CF8BDE89B
:1018C0001040FFF79FBF10B50C4640F0B00000F08D
:1018D00052F8102040EA141000F04DF804F00F0008
:1018E000BDE8104000F047B82DE9F0410746CE00B2
:1018F0004000083E801E15464FF0FF38F1B2C0B2DE
:10190000FFF7E1FF1148002400EB05152819A0F5A9
:10191000805090F8000E00F032F8641CE4B2082CFD
:10192000F4D308EB4700F1B2C0B2FFF7CCFF0024BC
:101930002819A0F5805090F8080E00F020F8641CDB
:10194000E4B2082CF4D3BDE8F08100001C1C0008B0
:101950002DE9F04115460E460746002406E03019F1
:10196000C1B23846FFF7C0FF641CE4B22A5D002A0A
:10197000F5D1BDE8F08101460020FEF785BF0146A4
:101980004020FEF781BF704701B582B04FF47A70F6
:101990000090012301AA02A90248FFF737FB9DF836
:1019A00004000EBD8400002038B50B4600920446AA
:1019B0000022802100F008F8002804D0606D40F07B
:1019C00020006065032038BD2DE9F8431E4691468E
:1019D00088460446089DFEF7C9FD401B351AFEF7F0
:1019E000C5FD074625480068C0F3CB30684338E0A2
:1019F000701C37D0FEF7BAFDC01BA84203D215B148
:101A0000009860B32CE02068416821F0E00141605B
:101A10006068B0F5827F0BD1A068B0F5004F02D0AE
:101A2000B0F5806F04D12068016821F040010160A9
:101A3000A06AB0F5005F09D12068016821F4005167
:101A400001602068016841F400510160012084F8C0
:101A50005100002084F850000320BDE8F8830025E1
:101A6000401E00902068816838EA010004D00021FF
:101A70004945BDD10020F0E70121F9E72000002011
:101A80007047FEF711BF30B58FB028216846FEF7CA
:101A900052FB14210AA8FEF74EFB01210804CDE9F0
:101AA00000100024029402250491CDE907504FF460
:101AB000E01009906846FFF75BF808B172B6FEE7E0
:101AC0000F20CDE90A054FF48060CDE90C400221DA
:101AD0000AA80E94FEF780FF002801D072B6FEE738
:101AE0000FB030BD7047FEE70907090E002804DB80
:101AF00000F1E02080F80014704700F00F0000F1C2
:101B0000E02080F8141D704702E008C8121F08C1C9
:101B1000002AFAD170477047002001E001C1121F6E
:101B2000002AFBD170470000FEF7C6FEFFF7ABFFAF
:101B3000FFF7FAFCFFF7DAFCFFF77EFDFFF75CFD2D
:101B400001221B4D540321462846FEF70AFDFFF7EC
:101B50006CFE012117A20846FFF7FAFE4FF4FA6067
:101B6000FEF7F0FBFFF7A6FD0020FEF7EBFB4FF4BE
:101B7000FA761448FFF7D6FD20280FD0FFF742FE73
:101B8000012111A24FEA0100FFF7E2FE214628469B
:101B9000FEF7DFFC3046FEF7D5FBEAE701210EA297
:101BA0000846FFF7D5FE0121064A0220ECE70000B7
:101BB0000010014068656C6C6F20776F726C642157
:101BC000000000000000002053656E64656420661C
:101BD00061696C210000000053656E6465642044F7
:101BE0004154413A000000000000000000000000E5
:101BF00001020304060708090000000001020304B3
:101C0000010202030405060708090A0B0C0D0E0F5A
:101C10001010344310100134431010010000000074
:101C2000000000000000000000000000000000F8BC
:101C300000000000000000333000000000100C061F
:101C4000100C0600000000000000000040C07840BA
:101C5000C0784000043F04043F040400007088FC86
:101C600008300000001820FF211E0000F008F000DE
:101C7000E018000000211C031E211E0000F008884F
:101C8000700000001E2123241927211010160E00B9
:101C9000000000000000000000000000000000E064
:101CA0001804020000000007182040000002041879
:101CB000E00000000040201807000000404080F0D5
:101CC000804040000202010F01020200000000F00B
:101CD000000000000101011F0101010000000000DF
:101CE0000000000080B07000000000000000000054
:101CF00000000000000101010101010100000000DD
:101D00000000000000303000000000000000000073
:101D100080601804006018060100000000E0100850
:101D20000810E000000F102020100F00001010F825
:101D3000000000000020203F202000000070080864
:101D400008887000003028242221300000300888E4
:101D5000884830000018202020110E000000C0200C
:101D600010F8000000070424243F240000F808882D
:101D7000880808000019212020110E0000E01088BA
:101D800088180000000F112020110E0000380808EC
:101D9000C83808000000003F0000000000708808FC
:101DA00008887000001C222121221C0000E010087D
:101DB0000810E0000000312222110F00000000C0D6
:101DC000C000000000000030300000000000008073
:101DD0000000000000008060000000000000804063
:101DE000201008000001020408102000404040407C
:101DF00040404000040404040404040000081020CF
:101E00004080000000201008040201000070480813
:101E10000808F0000000003036010000C030C8287B
:101E2000E810E0000718272423140B000000C03836
:101E3000E0000000203C23020227382008F88888B0
:101E400088700000203F202020110E00C0300808BC
:101E500008083800071820202010080008F8080893
:101E60000810E000203F202020100F0008F888888C
:101E7000E8081000203F20202320180008F8888858
:101E8000E8081000203F200003000000C0300808D0
:101E90000838000007182020221E020008F8080059
:101EA0000008F808203F210101213F20000808F820
:101EB000080800000020203F202000000000080843
:101EC000F8080800C08080807F00000008F888C003
:101ED00028180800203F20012638200008F80800B4
:101EE00000000000203F20202020300008F8F800EB
:101EF000F8F80800203F003F003F200008F830C0FD
:101F00000008F808203F200007183F00E0100808EC
:101F10000810E0000F10202020100F0008F808081B
:101F20000808F000203F210101010000E01008082E
:101F30000810E0000F18242438504F0008F8888853
:101F400088887000203F2000030C30200070880833
:101F5000080838000038202121221C00180808F841
:101F6000080818000000203F2000000008F80800C2
:101F70000008F808001F202020201F000878880093
:101F800000C83808000007380E010000F80800F803
:101F90000008F800033C0700073C030008186880AD
:101FA0008068180820302C03032C30200838C80023
:101FB000C83808000000203F200000001008080872
:101FC000C83808002038262120201800000000FE14
:101FD000020202000000007F40404000000C30C0C0
:101FE00000000000000000010638C00000020202EC
:101FF000FE000000004040407F000000000004029E
:1020000002020400000000000000000000000000C8
:1020100000000000808080808080808000020204B8
:1020200000000000000000000000000000008080B0
:10203000808000000019242222223F2008F800801E
:1020400080000000003F112020110E0000000080E1
:1020500080800000000E1120202011000000008070
:102060008088F800000E112020103F2000008080A2
:1020700080800000001F222222221300008080F0B6
:10208000888888180020203F2020000000008080E1
:1020900080808000006B94949493600008F8008026
:1020A00080800000203F210000203F200080989881
:1020B000000000000020203F2020000000000080E1
:1020C0009898000000C08080807F000008F8000021
:1020D00080808000203F24022D302000000808F876
:1020E000000000000020203F202000008080808031
:1020F00080808000203F20003F20003F80800080C3
:1021000080800000203F210000203F2000008080D0
:1021100080800000001F202020201F008080008081
:102120008000000080FFA12020110E000000008030
:1021300080808000000E112020A0FF808080800021
:102140008080800020203F2120000100000080804E
:10215000808080000033242424241900008080E043
:10216000808000000000001F202000008080000010
:1021700000808000001F202020103F2080808000F1
:102180000080808000010E30080601008080008001
:10219000008080800F300C030C300F000080800026
:1021A000808080000020312E0E3120008080800051
:1021B0000080808080818E70180601000080808001
:1021C000808080000021302C22213000000000009F
:1021D000807C020200000000003F40400000000040
:1021E000FF00000000000000FF0000000002027C71
:1021F000800000000040403F000000000006010198
:102200000202040400000000000000001060028CC4
:102210000000FE9292929292FE00000004047E0161
:10222000407E42427E427E42427E40000000FC24CC
:102230002424FC252624FC242424040040308F8000
:10224000844C55252525554C808080001060028CDB
:1022500000FE929292929292FE00000004047E018F
:102260004448507F40407F50484440000000FC24D8
:102270002424FC252624FC242424040040308F80C0
:10228000844C55252525554C80808000060909E69B
:10229000F80C040202020202041E00000000000703
:1022A0001F3020404040404020100000CC22000859
:1022B0000000002030000000081B0008FC2200087D
:1022C0003000002038050000181B00081F42424261
:1022D00042424242424242424242424242424242DE
:1022E0004242424242424242424242420024F400BE
:0C22F000010000001000000000000000D1
:04000005080000ED02
:00000001FF
