:020000040800F2
:10000000D025002051020008CF350008C133000878
:10001000CD350008651F0008193F000800000000EA
:10002000000000000000000000000000B90100080E
:10003000F31F000800000000FD0100085D39000802
:100040006B0200086B0200086B0200086B020008DC
:100050006B0200086B0200086B0200086B020008CC
:100060006B0200086B0200086B0200086B020008BC
:100070006B0200086B0200086B020008A51F000855
:10008000B11F0008BD1F00086B0200086B020008CA
:100090006B0200086B0200086B0200086B0200088C
:1000A0006B0200086B0200086B0200086B0200087C
:1000B0006B0200086B020008E93900086B020008B7
:1000C0006B0200086B0200086B0200086B0200085C
:1000D0006B020008993E0008D93E00086B02000838
:1000E0006B0200086B0200086B02000800F002F8C7
:1000F00000F052F80AA090E8000C82448344AAF170
:100100000107DA4501D100F047F8AFF2090EBAE86D
:100110000F0013F0010F18BFFB1A43F0010318473B
:10012000B8680000D8680000103A24BF78C878C1C9
:10013000FAD8520724BF30C830C144BF04680C60ED
:10014000704700000023002400250026103A28BF35
:1001500078C1FBD8520728BF30C148BF0B60704739
:10016000662905F09B87732900F04B8400207047B7
:100170001FB59DE8030000F0DBFF00F08BFC0400DE
:100180000020002105F07CFCE06000F083FD1FBD35
:1001900010B500F0E8FD10BD00F050FE1146FFF76D
:1001A000E7FF03F055FF00F055FF03B4FFF7F0FF42
:1001B00003BC01F04FF90000224B19680868B0E851
:1001C000F00F80F30988BFF36F8F4FF0000080F3CA
:1001D00011884EF00D0E70470000000006480068C0
:1001E000006880F3088862B661B6BFF34F8FBFF333
:1001F0006F8F00DF00BF00BF08ED00E0EFF3098064
:10020000BFF36F8F0F4B1A6820E9F00F106008B52D
:100210004FF0500080F31188BFF34F8FBFF36F8F03
:1002200004F03EFF4FF0000080F31188BDE8084065
:1002300019680868B0E8F00F80F30988BFF36F8F82
:10024000704700BF40000020EFF3058070470000BA
:100250000948804709480047FEE7FEE7FEE7FEE75A
:10026000FEE7FEE7FEE7FEE7FEE7FEE70448054996
:10027000054A064B70470000E7390008ED0000080A
:10028000D01F0020D0250020D0210020D021002028
:100290000FB4044910B503AA029800F0B7FB10BCD4
:1002A0005DF814FBC81E00200FB41CB5074B06AA4E
:1002B0007B4469460090059800F079FB0020694670
:1002C00000F088FB1CBC5DF814FB00002107000057
:1002D00070B50C460546012A05D02878800600D561
:1002E000EA69002302E0012305E05B1C934202D28D
:1002F000E05C0028F9D1A869E618C01AA861286A4C
:10030000184428622846AFF3008004E0D5E90121B3
:1003100014F8010B9047B442F8D32846AFF300809D
:1003200070BD2DE9F0474FF0000A89460446C0F839
:1003300020A02046E1688847002876D0252806D0EE
:10034000D4E901219047206A401C2062F1E7E1686E
:10035000204600258847C4F81CA006460027C4F89C
:1003600018A02A2E09D0304603F01EFE38B304EB45
:100370008708303EC8F8186019E059F8041B204679
:1003800004EB87029161E1688847012F064618D186
:10039000E069002820DA25F020051DE0D8F81800D3
:1003A00000EB800006EB40003038C8F8180020460B
:1003B000E1688847064603F0F7FD0028EED1012FDB
:1003C0000AD02E2E08D12046E16888477F1C0646B9
:1003D000022F45F02005C4DBA069002803DA404263
:1003E00045F00105A061E80701D025F01005B6B180
:1003F000A6F14100192802D8203645F400654A4686
:100400003146204625604D46FFF7AAFE58B1012827
:1004100006D0ED1D25F0070000F1080989E704E08A
:1004200005F1040985E730468AE7206ABDE8F087D0
:1004300030B505460B462A4613F8014B12F8010B5E
:1004400008B1A042F8D01CB1002802D06D1CF1E721
:10045000284630BD032A40F2308010F0030C00F033
:10046000158011F8013BBCF1020F624498BF11F8EE
:1004700001CB00F8013B38BF11F8013BA2F10402A7
:1004800098BF00F801CB38BF00F8013B11F003031F
:1004900000F0CE82083AC0F0088051F8043B083AD8
:1004A00051F804CBA0E80810F5E7121D5CBF51F825
:1004B000043B40F8043BAFF30080D20724BF11F89F
:1004C000013B11F801CB48BF11F8012B24BF00F804
:1004D000013B00F801CB48BF00F8012B704702F048
:1004E000FF0343EA032242EA024200F002B84FF05F
:1004F00000020429C0F0128010F0030C00F01B80F1
:10050000CCF1040CBCF1020F18BF00F8012BA8BFFE
:1005100020F8022BA1EB0C0100F00DB85FEAC17CC2
:1005200024BF00F8012B00F8012B48BF00F8012B75
:1005300070474FF0000200B51346944696462039A6
:1005400022BFA0E80C50A0E80C50B1F12001BFF48C
:10055000F7AF090728BFA0E80C5048BF0CC05DF8F2
:1005600004EB890028BF40F8042B08BF704748BF40
:1005700020F8022B11F0804F18BF00F8012B7047B4
:1005800070477047704770472DE9FF4F0C461E4675
:100590004FF0FF378BB0D2E90001DDF860800A90A0
:1005A0008A46C1F30A5505B93D46002108464FF079
:1005B0000000BAF1000F00F4400005DA00EB800003
:1005C0004FF4400101EA50004FEA9059B9F1010F90
:1005D00000DDB9460A9850EA4A000ED044F61050A1
:1005E000A5F2FF3545432F14B8F1000F1ED0754218
:1005F000291E1EDDC9F100021CE0B8F1010F4FF009
:10060000000001D0302103E0F24305E02154401CFA
:10061000B042FBDB30460022002121540B99C1F887
:100620000880C1E900200FB0BDE8F08FBD1B6D1C34
:10063000DEE74A4600DA694206A800F0B5FA06ABE2
:1006400093E8070003AB83E8070050460A9900F0DF
:100650009DFF8DE80700A0F500501F38009003981B
:10066000002D0ADD42F21F014A460844002303A977
:100670000390684601F006FA09E0A0F500504A46EA
:100680001F38002303A90390684601F010FA8DE893
:1006900007000004000C03D04FF0FF30410800E0D9
:1006A0001046B8F1000F03D00022009215461EE05C
:1006B000751E05D400F0F2F9303262556D1EF9D581
:1006C000B3460122084302D000227F1C04E02078B8
:1006D000302801D100227F1E002A099784D01DE016
:1006E000112D07DA00F0DAF9303262556D1C50EA4C
:1006F0000102F5D1084302D00098C8B10EE00021F4
:10070000681E05E0235C625C63542254401E491C51
:100710008142F7DBAB46A81B401E0990002004F87D
:100720000B000B98099AC0F80880C0E9002B7AE703
:1007300011264FF0000857E72DE9F04F8846044690
:10074000D21D22F0070191B0D1E90001CDE90A01E3
:1007500003F006FC02460B98C00F01D02D2007E0E5
:100760002068810701D52B2002E0202101EAC0008A
:10077000032A099001D0072A05DB0346414620469B
:1007800000F0D2F90BE12078800601D5E06900E0A5
:100790000620B8F1650F814606D0B8F1660F18D073
:1007A000B8F1670F70D131E00020B9F1110F00905E
:1007B00001DB112301E009F101030AAA01A90CA838
:1007C000FFF7E2FEDDE90C70002609F10105834622
:1007D00047E001204B4600904FF000470AAA01A9CC
:1007E0000CA8FFF7D1FEDDE90DB00C995D4600269F
:1007F00010B909F101000D18B9EB050003D4C0F1DF
:10080000FF3609F10105A5EB09002BE0B9F1010F55
:1008100001DA4FF001090020B9F1110F00904846AC
:1008200001DD112300E003460AAA01A90CA8FFF785
:10083000ABFEDDE90C704D460026834620780007AC
:100840000AD4AB4500DA5D4601A8012D04DD41194B
:1008500011F8011C302907D04F4502DA17F1040FB7
:1008600004DA012082460FE06D1EEEE7002F02DC65
:10087000ED1B3E4403E0781CA84200DD7D1CB81B44
:1008800000F1010A4FF000472078000703D4AA4581
:1008900001DB4FF0FF3A0021B7F1004F0DF14308A3
:1008A0008DF8431024D002202B23002F01DA7F4241
:1008B0002D230A21021EA0F1010000DC5FB197FB8D
:1008C000F1FC97FBF1F201FB1C7C17460CF1300C9C
:1008D00008F801CDEEE7A8F10100037021880905B1
:1008E00001D5452100E06521A0F1010800F8011CB7
:1008F00009980FA9A1EB0807FF1D00B101204119BC
:1009000001EBEA70A1693844081A401EA061207802
:10091000C00602D42046AFF30080099828B1D4E97C
:1009200001219047206A401C20622078C00622D511
:100930002046AFF300801EE0002E04DBB34502DD4D
:1009400001A8805D00E03020D4E901219047206AB1
:10095000401C2062761CAAF101005FEA000A0AD15D
:1009600000F098F8C0680168405CD4E90121904724
:10097000206A401C2062281EA5F10105DCDC07E08E
:10098000D4E9012118F8010B9047206A401C20622D
:10099000381EA7F10107F3DC2046AFF300800320E7
:1009A00011B041E601694A1C02610878704700B540
:1009B0008FB0CDE901310021059105497944CDE998
:1009C000031011466846FFF7ACFC0FB000BD0000F5
:1009D000E5FFFFFF0A6802F8010B0A60704710B5D7
:1009E000436913B1AFF3008001E0FFF771FC012010
:1009F00010BD127800F124010A7000224A70012211
:100A0000EDE711684FF0FF32E9E70000074B70B5E2
:100A10000D467B44FFF7CBFF0446284600F036F92D
:100A200010B14FF0FF3070BD204670BDE7350000BB
:100A300010B5203AC0F00B80B1E81850203AA0E879
:100A40001850B1E81850A0E81850BFF4F5AF5FEAAD
:100A5000027C24BFB1E81850A0E8185044BF18C960
:100A600018C0BDE810405FEA827C24BF51F8043B07
:100A700040F8043B08BF7047D20728BF31F8023B5B
:100A800048BF11F8012B28BF20F8023B48BF00F8EF
:100A9000012B704700487047901F002030B5B0F11F
:100AA0000A024FEA900E71F100034EEA817EB0EB2C
:100AB0000E0061EB91014FEA101E4EEA017E10EB31
:100AC0000E0041EB11114FEA102E4EEA016E10EBB1
:100AD0000E0041EB11214FEA104E4EEA014E10EB91
:100AE0000E0041EB1141401841F100014FEAD000E6
:100AF00040EA41704FEAD10110EB80054FEA8104D2
:100B000044EA907444EB01046D1944EB0404521B55
:100B1000A3414FF0000348BF0A3200D530BD401C4E
:100B200041F1000130BD00002DE9F0411F460446AF
:100B300003260168072A01F4006004DB08B116A54A
:100B400005E016A503E008B115A500E015A521F004
:100B500010002060A069C01EA0610FB1401EA061FE
:100B60002046AFF300804FB1D4E9012138469047C9
:100B7000206A401C2062C01C206206E0206AFAE75E
:100B8000D4E9012115F8010B9047761EF8D22046D2
:100B9000AFF30080BDE8F0814E414E006E616E0003
:100BA000494E4600696E66002DE9F04781461646BB
:100BB0008AB0354878440DC88DE80D003248784435
:100BC000801C03AC0DC884E80D0041F69B3008443E
:100BD000372190FBF1F290FBF1F5A5F1800501FBC7
:100BE00012041B3C02D56442012000E00020DFF823
:100BF00098A080460027FA44AAF1BE0A0EE0E0075A
:100C00000AD03246684607EB470101230AEB81010F
:100C100000F04DFF8DE8070064107F1C002CEED122
:100C2000194F7F44AE3F19E0E80715D007EB0410D9
:100C30000DF1180A90E80E008AE80E00C068F04234
:100C400001D1981908903246012306A903A800F0A3
:100C50002EFF03AB83E807006D10641C002DE3D169
:100C60004FF0010332466946B8F1000F03A802D0E5
:100C700000F008FF01E000F01AFFC9E90001C9F81F
:100C800008200AB0BDE8F087B05C0000007B00F0EF
:100C90008000704710B542485421FFF74AFC414894
:100CA0005421FFF746FC40485421FFF742FC3F49DE
:100CB0003B483C4A3F4B08603D490A603A4919604D
:100CC000531C0365481C1065012008653B48344AE5
:100CD00039A1784400F022F920B9384878440A381C
:100CE00000F0C1F937482F4A35A1784400F016F9D1
:100CF00020B9344878440A3800F0B5F932482A4A15
:100D00002FA1784400F00AF920B92F4878440A3816
:100D100000F0A9F940232248DC000021224600F01F
:100D2000D9F820B125487844543800F09CF91D4882
:100D300022464023002100F0CDF820B1214878441C
:100D4000543800F090F9184822461023002100F092
:100D5000C1F8002806D01C487844BDE81040563839
:100D600000F081B910BD104870B5006D20F001048D
:100D70000B4800F049F90B4800F046F90A4800F02A
:100D800043F909E0206D20F00105204600F03CF910
:100D9000204600F078F82C46002CF3D170BD0000FE
:100DA000741E0020C81E00201C1F0020C40000204C
:100DB000C8000020CC00002072000000AA5B0000E8
:100DC00077000000965B0000825B00000EB5CDE965
:100DD000000100F01FFB029069460120ABBE0EBD72
:100DE00008B5694600900220ABBE08BD1FB58DE86E
:100DF000070069460520ABBE04B010BD1FB58DE8E5
:100E00000F0069460620ABBEF6E708B569460090BC
:100E10000920ABBE08BD1CB5CDE9000169460A201A
:100E2000ABBE1CBD704708B5694600900C20ABBE38
:100E300008BD000000487047701F00207546FFF78E
:100E4000F9FFAE4605006946534620F00700854687
:100E500018B020B5FFF70AFABDE820404FF00006B1
:100E60004FF000074FF000084FF0000B21F0070192
:100E7000AC46ACE8C009ACE8C009ACE8C009ACE8D5
:100E8000C0098D46704770B50446051F00F034F95F
:100E90000068002C14BF446870BD002C18BFAC4221
:100EA0003CBF20466468F8D301680A18AA4218BFFC
:100EB000456003D12A68054611440160286841193C
:100EC000A1421CBF6C6070BD616869602168084404
:100ED000286070BD70B5C468A50713D0650211D431
:100EE000B2F5807F09D0B2F5007F06D0B2F5806FF1
:100EF00008D1012300F1240106E05D1E6FF07F465A
:100F0000B54201D3012070BD0161C361416024F489
:100F100070611143C160002070BD00002DE9F041F7
:100F20000C4607461646104600F06EF82078611C05
:100F300061280AD0722802D077283CD102E001252E
:100F4000002405E00225042402E0082448F20205FA
:100F500011F8010B2B2806D0622809D011F8010CDA
:100F600074280AD00BE045F0030544F00204EFE7D3
:100F700045F0040544F00104EAE744F01004384663
:100F80002146FFF723FF411C15D00021316171601C
:100F90004FF40071F560F1617061200704D53046AF
:100FA0000222002100F022F9306D40F0010030658E
:100FB0003046BDE8F0810020FBE72DE9F0410D4609
:100FC0000646104C206DC10704D0410804D020F023
:100FD0000104F7E722460EE0542000F0D8F807009D
:100FE0000ED0206D47F0010108435421206538469A
:100FF000FFF79FFA3A4629463046BDE8F0418DE7B3
:101000000020D6E7741E00202DE9F04704464FF07B
:1010100000094FF0FF37C568D4E90486A80707D058
:10102000204600F093F93046FFF7DAFE002802DA96
:101030003846BDE8F087280502D54046FFF723FF74
:101040004C212046FFF775FA206D20F00100206545
:101050004846EEE710B50446AFF300802046BDE8F1
:101060001040FFF7A2B810B500F0BAF9BDE8104083
:1010700000F0B0B94FF0013C50F8042B51F8043B9C
:101080009A4221D1A2EB0C03934313EACC1317D15C
:1010900050F8042B51F8043B9A4215D1A2EB0C03F3
:1010A000934313EACC130BD150F8042B51F8043BB3
:1010B0009A4209D1A2EB0C03934313EACC13DBD081
:1010C0004FF00000704700BFD01A01BAB1FA81F1A9
:1010D00001F0180122FA01F0CB40C1F12001DBB28E
:1010E000C0B2C01A2CFA01F3D11A914311EAC3110C
:1010F000E6D170477047000000487047781F002015
:10110000704770477047704738B504460A4600205C
:101110006946AFF30080002808BF38BD0246009939
:10112000204600F0A4F9012038BD012000F0F3B9F9
:10113000F8B5AFF30080054600200C46102000BF34
:101140000646A819A0420DD9324669460020AFF3E1
:101150000080070008BF00F0DEF90098A04218BF29
:101160000546C419FFF7C8FF05600746F01D20F0CB
:1011700007004619284600F073F9B44208BFF8BDCD
:10118000A21B31463868BDE8F84000F070B970B570
:101190000646FFF7B1FF056806F10B0020F00704D3
:1011A000B4429CBF002070BD2B466A68BAB110687B
:1011B000A04210D304F1080188423CBF5068586037
:1011C00007D35168101941601168091B016058600C
:1011D0001460101D70BD13465268002AE7D12146E5
:1011E0002846FFF791FF0028DED170BD2DE9F041C0
:1011F000044616460D464769007B80072ED03846C8
:10120000FFF703FE50BB3EB3012E02D0022E25D1C4
:1012100004E0204600F045F905441DE03846FFF79C
:1012200002FEE168002841F01001E16005DA204685
:1012300000F058F80120BDE8F081C9030BD56268C1
:10124000E16A914200D81146A26911442269891AC3
:10125000814200DD08460544002D01DA0220EAE75C
:10126000E16A6068E268814206D29103E06203D5D8
:1012700022F4003141F01002A6690027AE4213DCCF
:10128000E16A814201D90B4600E0034603EB060CFC
:101290002369ACEB030CAC4506DD814201D98C46D9
:1012A00000E084469C4505D1A760276042F02000FD
:1012B000A5620DE0AD1BE669AE1B8142A66000D9B8
:1012C0000846C01A281A20605819606022F02000D1
:1012D00003490840E060002084F84870ABE7000054
:1012E000BFCFD7FFC16821F4001141F08001C16078
:1012F00000218160016070472DE9F0478146144666
:101300000E464FF0FF383248D5685769054209D07C
:101310003846A169FFF77FFD002811DB2C48C04348
:101320000540E5602B46324649463846FFF75EFDEC
:10133000A16920F00042B21A11440028A16103D033
:101340002046FFF7CFFF4046BDE8F08770B5044662
:101350000569C06A6168884200D80846E16821F4DE
:101360002011E160C90312D5A84208D02246411BD2
:101370002846FFF7C1FF10B14FF0FF3070BD0020CD
:10138000E562C4E90150E06820F48030E0600020AC
:1013900070BD10B50446C06820F02000E060A16A6E
:1013A000A06988420DD02046FFF7D0FFE06820F406
:1013B000405040F01000E060A06AA0612069E06247
:1013C000606044F24001E0688843E06010BD0000C6
:1013D00010000200002801D000F03CB87047000067
:1013E00010B5014602A000F07DF8012010BD0000FC
:1013F00053494752545245443A20526564697265D4
:1014000063743A2063616E2774206F70656E3A20B2
:101410000000000010B5431C02E010F8011B71B180
:101420008107FAD14FF0013202C88C1A8C4314EABA
:10143000C211F9D0C01A0A0603D0C01E10BDC01ACE
:1014400010BD0A0401D0801E10BD0902FCD0401E50
:1014500010BD000001491820ABBEFEE726000200C7
:1014600000210160C0E90110704710207047034659
:1014700040688C46002818BF88423CBF034640683D
:10148000F8D318681844884207D00CF1030020F004
:101490000700001D411A521A0146081D0A60FFF795
:1014A000F2BC10B50146C268900703D0900607D57C
:1014B000886A0AE000F03EF801210160881E10BD34
:1014C0008B69486818440B69C01A91F848301BB101
:1014D00091F84910401A10BD1103FCD50028FADD1F
:1014E000401E10BD70B505460C460A2000E06D1C7C
:1014F00000F018F835B128780028F8D102E0641C13
:1015000000F010F814B120780028F8D1BDE8704040
:101510000A2000F007B810B500F010F8BDE8104040
:10152000FFF758BF08B569468DF800000320ABBE31
:1015300008BD000000487047701F002010B501284A
:1015400005D0002103A0FFF7CDFF012010BD09A1A8
:10155000F8E7000053494752544D454D3A204F7526
:1015600074206F662068656170206D656D6F72799B
:10157000000000003A2048656170206D656D6F7253
:101580007920636F72727570746564005FEA400C55
:1015900008BF91F0000F4FEA8C234FEAC12243EAC3
:1015A00051514FEA1C5018BF00F5F0404FEA30008F
:1015B00018BF41F000415FEA6C5C00F02980BCF18B
:1015C000FF3F08BF40F080407047130C06BF120475
:1015D0004FF0100C4FF0000C130E04BF12020CF170
:1015E000080C130F04BF12010CF1040C930F04BF7D
:1015F00092000CF1020CD30F04BF52000CF1010C4D
:1016000011464FF00002A0F11F00A0EB0C00704744
:1016100011F0004F08BF704731F000413FF4D5AFE3
:101620000B0C06BF09044FF0100C4FF0000C0B0E12
:1016300004BF09020CF1080C0B0F04BF09010CF1E7
:10164000040C8B0F04BF89000CF1020CCB0F04BFFC
:1016500049000CF1010CCCF12003A0EB0C0022FAA4
:1016600003F302FA0CF241EA030100F101007047B2
:1016700020F07F4C80EA030023F07F47ACEB0703A8
:1016800003F57C5300F0004003F1FF032DE980498E
:101690004FEA154B09B44FEA144325EA0B4E24EAEE
:1016A00003480FF2042606EB132749083E785FEA49
:1016B000320203FB0667C7F5000707FB06F64FEA91
:1016C00054374FEAD64606F1020607FB066CCCF10A
:1016D000005C4FEA1C472CEA074C07FB06F40CFBA6
:1016E00006F504EB15464FEA961634BF00204FF07E
:1016F00000404FEAD13706FB07FC4FEA1C4C0CFBBD
:101700000BF7D21B03FB0CF761EB07010CFB0EF789
:10171000B0EB074072EB17420CFB08F734BFA2EBAB
:101720000742B2EB074261EB17414FEA0C444FEA24
:10173000910706FB07FC4FEA1C4C0CFB0BF7B0EBC8
:10174000C74072EB573203FB0CF734BFA2EBC74222
:10175000B2EBC74261EB57310CFB0EF7B0EBC700A1
:1017600072EB57720CFB08F734BFA2EBC702B2EB67
:10177000C70261EB5771039F4FEA816141EA921101
:1017800004EBCC044FEAD1374FEA826206FB07FC38
:1017900042EA90124FEA80604FEA1C4C0CFB0BF7B8
:1017A000D21B03FB0CF761EB07010CFB0EF7B0EB50
:1017B000074072EB17420CFB08F734BFA2EB07425D
:1017C000B2EB074261EB17414FEA8C554FEA9107A4
:1017D00004EB9C2406FB07FC4FEA1C4C0CFB0BF7AC
:1017E000B0EBC74072EB573203FB0CF734BFA2EBF0
:1017F000C742B2EBC74261EB57310CFB0EF7B0EBBF
:10180000C70072EB57720CFB08F734BFA2EBC7029C
:10181000B2EBC70261EB577115EB4C254FEA8161C2
:1018200041EA92114FEA82624FEAD13742EA9012BE
:1018300006FB07FC44F100044FEA80604FEA1C4CB1
:101840000CFB0BF7D21B03FB0CF761EB07010CFB46
:101850000EF7B0EB074072EB17420CFB08F734BFF2
:10186000A2EB0742B2EB074261EB174115EB1C15E7
:101870004FEA813141EA92414FEA823242EA904294
:101880004FEA80304FEA0C7644F1000448EA034303
:101890004EEA0B484FF0000EB2EB080C71EB030759
:1018A00024BF624639464EEB0E0E4FF0000B001877
:1018B000524149414BEB0B0BB2EB080C71EB0307A8
:1018C0007BF1000B24BF624639464EEB0E0E4FF003
:1018D000000B0018524149414BEB0B0BB2EB080CCB
:1018E00071EB03077BF1000B24BF624639464EEBD8
:1018F0000E0E51EA020718BF46F0010616EB0E76EF
:1019000055F1000254F1000103D5BDE88901BDE89D
:101910000088BDE88901BDE80048B619524141EB95
:101920000101A3F10103704780807F7E7D7C7B7A7B
:101930007978777676757473727171706F6E6E6D7B
:101940006C6C6B6A6A696868676666656464636321
:1019500062616160605F5F5E5E5D5D5C5C5B5B5AA7
:101960005A59595858575756565555555454535314
:1019700052525251515050504F4F4F4E4E4D4D4D6F
:101980004C4C4C4B4B4B4A4A4A49494948484847BA
:1019900047474746464645454544444444434343F8
:1019A0004342424242414141002B9C4630D47700A1
:1019B0002BD01CB54FEA370703B44FF010004FF09F
:1019C0001001BAF1000F06D0BCF1000FDCBF40F0EF
:1019D000080040F008014FF000000FBCBDE81040C7
:1019E0000BF1010BBBF1010F08BF5FEA170722BF24
:1019F00012F1010211F101014FF0004143F1000326
:101A000000F0004043EA00007047F9D35708D0E7E0
:101A100046EA064613F1400F4FEA16461FDD13F162
:101A2000200FDFBF16430A46002120335B42BED0A1
:101A3000C3F1200746EA064602FA07F74FEA1646C0
:101A400046EA0706C3F1200722FA03F201FA07F774
:101A500021FA03F14FF0000342EA0702A7E746EA42
:101A6000020646EA06464FEA164646EA0106BCBFAB
:101A700046EA0646360C4FF000034FF000024FF0E6
:101A8000000194E72DE9804C9A46934670B491E8A2
:101A9000380007C831EA400C48BF34EA430C03D58C
:101AA000FFF7E6FDFFF780FFF0BCBDE8008C2DE9F5
:101AB000804C9A46934670B491E8380007C810F0FD
:101AC000804F08BF13F0804F03D100F005F8FFF7F7
:101AD0006BFFF0BCBDE8008C20F07F4780EA03007C
:101AE00023F07F4C07EB0C03A3F57C5300F0004080
:101AF000A3F1FE0392F0000F00F0B38095F0000F09
:101B000000F077802DE901494FEA11404FEA144671
:101B100021EA004800FB06FC24EA064708FB06F61B
:101B200007FB08F800FB07F718EB06484CEB164CD0
:101B30004FEA124B18EB07484FEA15464CEB17409B
:101B400022EA0B4E0BFB06FC25EA06470EFB06F6C7
:101B500007FB0EFE0BFB07F71EEB064E4CEB164C7D
:101B60004FF000061EEB074E4CEB174B18EB0B0823
:101B700040F1000018EB0E0B58EB000840F100009C
:101B80008F1A4FF000013CBFC943661B14BFB5EB71
:101B9000040C00213CBFC943F61B4FEA17444EEA30
:101BA0008E0E27EA04454FEA1C4704FB07622CEA25
:101BB000074C05FB07F70CFB05F604FB0CFC16EBCA
:101BC000074642EB174216EB0C4642EB1C421BEB5E
:101BD000060658EB0202414146EA9E0601D5BDE8E1
:101BE0000189B619524141EB0101A3F10103BDE89E
:101BF00001894FEA14454FEA114724EA054621EAD4
:101C0000074C05FB07F406FB07F70CFB06F105FB89
:101C10000CFC11EB074144EB17444FEA124711EB60
:101C20000C4144EB1C4422EA074C05FB07F206FB7F
:101C300007F70CFB06F605FB0CFC16EB074642EB20
:101C4000174216EB0C4642EB1C456A1854F1000192
:101C500048BF7047B619524141EB0101A3F101039E
:101C6000704795F0000F37D04FEA11424FEA144702
:101C700021EA024624EA074C02FB07F106FB07F7BC
:101C80000CFB06F402FB0CFC14EB074441EB174180
:101C90004FEA154714EB0C4441EB1C4125EA074C75
:101CA00002FB07F506FB07F70CFB06F602FB0CFC34
:101CB00016EB074645EB174516EB0C4645EB1C4269
:101CC000121951F1000148BF7047B619524141EB5A
:101CD0000101A3F1010370474FEA14454FEA114790
:101CE00024EA054621EA074C05FB07F106FB07F746
:101CF0000CFB06F24FF0000605FB0CFC12EB074252
:101D000041EB174112EB0C4251EB1C4148BF7047AD
:101D1000921841EB0101A3F1010370474FF4FA71EE
:101D20000148FEF7E4BB00008002002010B54FF42C
:101D3000FA7402E0204602F03EF926A126A000F047
:101D4000E9F80028F6D102E0204602F034F924A197
:101D500029A000F0DFF80028F6D102E0204602F0CA
:101D60002AF928A12CA000F0D5F80028F6D102E02D
:101D7000204602F020F92BA12FA000F0CBF800287C
:101D8000F6D107E02FA133A000F0C4F888B12046B7
:101D900002F011F90FA12FA000F0BCF80028F1D13A
:101DA00007E028A12EA000F0B5F860B1204602F0AF
:101DB00002F908A12AA000F0ADF80028F1D102E054
:101DC000204602F0F8F829A129A000F0A3F8002885
:101DD000F6D110BD4F4B000041540D0A0000000029
:101DE0002B4350494E3A2052454144590D0A0D0AA1
:101DF0004F4B0D0A0000000041542B4350494E3F09
:101E00000D0A00002B435245473A20302C310D0A71
:101E10000D0A4F4B0D0A000041542B435245473FDA
:101E20000D0A00002B43474154543A20310D0A0D4E
:101E30000A4F4B0D0A00000041542B4347415454B4
:101E40003F0D0A002B434D45204552524F523A2038
:101E50003300000041542B435354540D0A0000003A
:101E600041542B43494943520D0A00002E00000003
:101E700041542B43494653520D0A000010B54FF40C
:101E8000FA7402E0204602F096F810A110A000F0CB
:101E900041F80028F6D107E011A115A000F03AF8AA
:101EA00060B1204602F087F808A111A000F032F8D6
:101EB0000028F1D102E0204602F07DF810A112A026
:101EC00000F028F80028F6D110BD00004F4B0000AC
:101ED00041542B434E54504349443D310D0A0000B8
:101EE0002B434D45204552524F523A2033000000BB
:101EF00041542B53415042523D312C310D0A0000C8
:101F00002B43434C4B3A000041542B43434C4B3F33
:101F10000D0A000070B50D46C824FEF7B9F90EE0B1
:101F200000F014F840B929460748FEF781FA18B1C5
:101F3000FFF7F4FE002070BD0A2002F03CF8641E9A
:101F4000E4B2EDD2012070BD800200200448017887
:101F500019B1002101700846704701207047000048
:101F600018000020FEE7000010B504A109A0FFF74B
:101F7000D1FF08B1002010BD012010BD2B4D5154E0
:101F8000545354415455203A310D0A0D0A4F4B0D0C
:101F90000A00000041542B4D5154545354415455A0
:101FA0000D0A0000014800F097B800006001002011
:101FB000014800F091B80000A4010020014800F0A1
:101FC0008BB80000E801002030B590F840500124A3
:101FD000AC40C56B6C60046863604368102B036899
:101FE00003D099600068C26030BD9A600068C1602B
:101FF00030BD704772B6FEE710B590F82110002290
:10200000022905D00421816380F82020012010BD21
:1020100001680B6823F00E030B6001680B6823F066
:1020200001030B6090F84030C46B012101FA03F307
:10203000636080F8211080F82020104610BD000059
:1020400010B590F821100024022903D004218163E7
:1020500001243DE001680A6822F00E020A6001686E
:102060000A6822F001020A601A4A0168914201D10D
:10207000012121E0174A1432914201D110211BE0C5
:10208000144A2832914201D1891515E0114A3C3297
:10209000914201D189140FE00E4A5032914202D18F
:1020A0004FF4803108E00B4A6432914202D14FF480
:1020B000801101E04FF08071064A083A5160012119
:1020C00080F82110002180F82010416B01B1884771
:1020D000204610BD080002402DE9F05FC16B0C687E
:1020E00001680B68D0F840C0042202FA0CF2494D96
:1020F000DFF824A1494E4A4FDFF828B1DFF828E184
:1021000022422CD05A072AD50A68920603D40A68BC
:1021100022F004020A600168A94201D1042219E0F8
:10212000514501D1402215E0B14202D14FF4806205
:1021300010E0B94202D14FF480420BE0594502D180
:102140004FF4802206E0714502D14FF4800201E095
:102150004FF080622F4908394A60C16A3BE04FF076
:10216000020808FA0CF818EA040F4FF000094FF0C3
:10217000010235D05FEA837832D50B689B0605D41F
:102180000B6823F00A030B6080F821200168A94244
:1021900001D1022219E0514501D1202215E0B142BE
:1021A00002D14FF4007210E0B94202D14FF4005254
:1021B0000BE0594502D14FF4003206E0714502D1DF
:1021C0004FF4001201E04FF00072124908394A60E2
:1021D00080F82090816A00291AD0BDE8F05F084796
:1021E000082505FA0CF5254212D01B0710D50B68FF
:1021F00023F00E030B6090F84010C36B02FA01F15C
:102200005960826380F8212080F82090016BE2E71A
:10221000BDE8F09F080002401C0002403000024070
:1022200044000240580002406C00024030B528B320
:1022300008C8134914221944B1FBF2F18900C163A3
:1022400010498163022141771A6843F6F0718A438D
:10225000D0E900142143D0E902452C43214304690D
:1022600021434469214384692143114319600021BA
:102270004163012242770177084630BD012030BD1D
:10228000F8FFFDBF0000024070B5044690F8200042
:10229000002501280CD0012084F8200094F821604A
:1022A0000020012E06D084F820000225284670BDAB
:1022B000022070BD022684F82160A06320680668B1
:1022C00026F0010606602046FFF77EFEE06A002841
:1022D0002068016802D041F00E0106E021F00401FF
:1022E00001602068016841F00A010160206801680E
:1022F00041F001010160D9E72DE9F84FDFF8B8910D
:102300000024A9F1040B23460F2709F1040AABF1BD
:10231000040EC9E00125A5402A40AA427DD1674E9E
:10232000D1F804C0ACEB0608B44532D014DCBCF1E3
:10233000030F3AD009DCBCF1000F2AD0BCF1010F29
:102340001CD0BCF1020F31D11DE0BCF1110F17D030
:10235000BCF1120F2AD119E0B8F5881F19D006DC9C
:10236000B8F5803F15D0B8F5801F1FD111E0B8F542
:10237000001F0ED0B8F5041F18D10AE0CB6815E095
:10238000CB681B1D12E0CB6808330FE0CB680C3321
:102390000CE08B682BB1012B4FF0080303D0456193
:1023A00004E0042302E0056100E00023FF2A01D8D5
:1023B000064601E000F104064FEA840501D9A5F1C3
:1023C0002005D6F8008007FA05FC28EA0C0803FA75
:1023D00005F548EA0508C6F800804D68ED0062D5AD
:1023E000374DAE6946F00106AE61AD6924F00306D3
:1023F00005F001050095334D06EB050CDCF808509F
:10240000A607360F07FA06F825EA0805DFF8B880B0
:10241000404503D14FF0000817E044E0DFF8AC80FE
:10242000404502D14FF001080FE0DFF8A48040459D
:1024300002D14FF0020808E0DFF89880404502D151
:102440004FF0030801E04FF0040808FA06F848EAE4
:102450000508CCF808804D68D9F80060ED024D46BB
:1024600001D5164300E096432E604D68DAF800600F
:10247000AD02554601D5164300E096432E604D68E7
:10248000DBF80060AD035D4601D5164300E09643DE
:102490002E604D68DEF80060ED03754601D51643E9
:1024A00000E096432E60641C0D682A46E5407FF4E8
:1024B00031AFBDE8F88F00000804014000001110A2
:1024C000001002400000014000080140000C0140E3
:1024D0000010014000140140C26821EA02030A40D2
:1024E00043EA0241016170470AB101617047090482
:1024F000FBE70000014880687047000008000020EA
:102500000248816802781144816070470800002009
:10251000074810B5016841F010010160032000F088
:10252000A7F80F2000F006F800F050F8002010BDCA
:102530000020024030B505461F4887B0C16941F010
:102540000401C161C06906A900F00400009001A85F
:1025500000F036F90498B0B100F052F94000174984
:10256000174AB0FBF1F11748491E0260416040F282
:10257000E7320021C0E903218160816100F018FB8E
:10258000040003D015E000F03BF9E8E70D4800F047
:102590003DFB04000DD11E2000F03CF8102D07D2A9
:1025A000002229461E2000F043F80748056000E09D
:1025B000012407B0204630BD0010024040420F0009
:1025C00000080040380200200C0000200F4808B529
:1025D000816941F001018161816901F0010100918E
:1025E000C16941F08051C161C069002200F0805092
:1025F00000900F21901E00F01BF80548416821F063
:10260000E06141F00071416008BD0000001002402F
:1026100000000140002809DB00F01F020121914069
:102620004009800000F1E020C0F800117047000070
:10263000F0B40E4B1B680C46C3F30223C3F107052D
:10264000042D00D90425191D072901D2002300E01B
:10265000DB1E012606FA05F1491E214099409E40E5
:10266000761E16403143F0BC01F08EBC0CED00E04C
:10267000064900F0070208684FF6FF03184040EAD9
:102680000220034A10430860704700000CED00E090
:102690000000FA052DE9F0470F46050061D0434ED2
:1026A000306800F00700B84209D2306820F0070017
:1026B00038433060306800F00700B84251D12868D4
:1026C0003B4C810712D5400703D5606840F4E060B9
:1026D00060602878000703D5606840F4605060604F
:1026E0006068A96820F0F000084360602878C0079F
:1026F00028D06868012810D02168022810D08907E6
:1027000000292EDA616821F0030101436160FFF7BF
:10271000F1FE804641F288390DE021688903EFE738
:102720008901EDE7FFF7E6FEA0EB0801494502D974
:102730000320BDE8F0876068696800F00C00B0EB2A
:10274000810FEFD1306800F00700B8420BD9306834
:1027500020F0070038433060306800F00700B842CE
:1027600001D00120E5E72878400705D56068E968D1
:1027700020F4E060084360602878000706D56068B0
:10278000296920F4605040EAC100606000F058F808
:102790006168084AC1F30311515CC84006490860EA
:1027A00006480068FFF7C6FE0020C2E7002002408E
:1027B00000100240D6600008140000200C00002029
:1027C0000F2202600C4A536803F00303436053680E
:1027D00003F0F0038360536803F4E063C36052685E
:1027E0004FF4E06303EAD20202610448006800F09B
:1027F00007000860704700000010024000200240FF
:102800000448054900684968044AC1F30221515C43
:10281000C84070471400002000100240E660000825
:102820000448054900684968044AC1F3C221515C63
:10283000C84070471400002000100240E660000805
:102840000E4A51680E4801F00C03042B11D0082BDE
:102850000FD10C48C1F38343C903C05C0AD551684A
:10286000084AC1F34041921E515C054A5043B0FBF7
:10287000F1F07047044948437047000000100240DF
:1028800000127A00C660000800093D002DE9F84FEB
:10289000040070D02078C04DC00749D06868C0F3EC
:1028A0008100012807D06868C0F38100022809D19F
:1028B0006868C00306D52868800339D56068002899
:1028C000E7D035E06068B0F5803F0BD010B1B0F5CF
:1028D000A02F11D0286820F480302860286820F4C8
:1028E000802002E0286840F480302860606890B161
:1028F000FFF700FE06460AE0286840F480202860C2
:10290000F0E700BFFFF7F6FD801B642873D8286846
:102910008003F7D50CE0FFF7EDFD064605E000BFAC
:10292000FFF7E8FD801B6428F0D828688003F7D4FF
:1029300020789A4E80074FF001094FF0000839D5F2
:10294000686810F00C0F07D06868C0F38100022897
:1029500009D16868C00306D42868800714D52069A7
:10296000012808D110E02069B0B1C6F80090FFF747
:10297000C1FD074605E00AE1FFF7BCFDC01B0228C8
:10298000C4D828688007F7D52868616920F0F80066
:1029900040EAC10028600DE0C6F80080FFF7AAFDFC
:1029A000074604E0FFF7A6FDC01B022823D82868CD
:1029B0008007F7D4207800072CD57948A169D9B1D0
:1029C000C0F80090FFF796FD074604E0FFF792FD80
:1029D000C01B02280FD8686A8007F7D571484FF4EA
:1029E000FA510068B0FBF1F0009000BF0098411E62
:1029F0000091FAD20EE080E0C0F80080FFF77AFD87
:102A0000074604E0FFF776FDC01B022875D8686A08
:102A10008007F7D42078400760D5E8690027C00018
:102A200008D4E86940F08050E861E869012700F0C7
:102A3000805000905C480168C90513D40168834642
:102A400041F480710160FFF755FD824606E000BF4A
:102A5000FFF750FDA0EB0A0064284ED8DBF8000019
:102A6000C005F5D5E06801280AD008B1052813D0C3
:102A7000286A20F001002862286A20F0040002E0A1
:102A8000286A40F001002862E06841F2883B98B172
:102A9000FFF730FD82460BE0286A40F00400286210
:102AA000EEE700BFFFF726FDA0EB0A0159455AD813
:102AB000286A8007F6D50CE0FFF71CFD824605E08A
:102AC000FFF718FDA0EB0A0159454CD8286A80078A
:102AD000F6D41FB1E86920F08050E861E06988B35E
:102AE0006968C1F38101022944D00228C6F86080D8
:102AF00004D0FFF7FFFC044638E034E0FFF7FAFCAF
:102B0000074604E0FFF7F6FCC01B02282BD8286814
:102B10008001F7D4206AB0F5803F05D16868A168CC
:102B200020F4003008436860D4E90801084369686C
:102B300021F4741108436860C6F86090FFF7DAFC6E
:102B4000044606E025E000BFFFF7D4FC001B022886
:102B500009D828688001F7D51BE000BFFFF7CAFC41
:102B6000001B022802D90320BDE8F88F28688001E5
:102B7000F4D40EE00128F7D06868226A00F48031AE
:102B8000914204D1616A00F47010884201D00120A2
:102B9000EAE70020E8E7000000100240000042429F
:102BA00080044242140000200070004070477047CB
:102BB00010B5040003D094F83D0010B107E00120E7
:102BC00010BD002084F83C00204600F01EF80220D2
:102BD00084F83D00211D206800F00CFF012084F8DE
:102BE000460084F83E0084F83F0084F8400084F8F2
:102BF000410084F8420084F8430084F8440084F8DB
:102C0000450084F83D00002010BD704790F83D104D
:102C1000012901D001207047022180F83D10016890
:102C2000CA6842F00102CA6000680B49884208D0B5
:102C3000B0F1804F05D00949884202D00849884246
:102C400004D1816801F00701062903D0016841F031
:102C50000101016000207047002C01400004004089
:102C600000080040704770B50446006801694FF0E5
:102C70000005C943890715D4C168C943890711D420
:102C8000E91E0161012020772068806980072046C5
:102C900002D0FFF7E7FF04E000F098F8204600F0CC
:102CA00096F8257720680169C943490717D4C16898
:102CB000C943490713D46FF0040101610220207752
:102CC0002068806910F4407F204602D0FFF7CAFFD9
:102CD00004E000F07BF8204600F079F825772068C2
:102CE0000169C943090716D4C168C943090712D449
:102CF0006FF008010161042020772068C069800717
:102D0000204602D0FFF7AEFF04E000F05FF8204657
:102D100000F05DF8257720680169C943C90617D41A
:102D2000C168C943C90613D46FF0100101610820BE
:102D300020772068C06910F4407F204602D0FFF75A
:102D400091FF04E000F042F8204600F040F82577BB
:102D500020680169C943C90708D1C168C943C907C7
:102D600004D1891E0161204600F032F82068016913
:102D7000C943090609D4C168C943090605D46FF0DF
:102D8000800101612046FFF711FF20680169C943F6
:102D9000490609D4C168C943490605D46FF040010A
:102DA0000161204600F01EF820680169C9438906C8
:102DB0000BD4C168C943890607D46FF020010161B3
:102DC0002046BDE87040FFF7F2BE70BD7047704707
:102DD00000680349884201D1FFF792BB70470000A9
:102DE000000800407047704710B50446006840690D
:102DF00094F84110C0F3C010212911D180B120688E
:102E0000143050E8001F21F0800140E80012002A31
:102E1000F5D1A06B08B1FFF7EFF8204600F0ECFE0B
:102E20002068406994F84210C0F38010222911D123
:102E300080B12068143050E8001F21F0400140E8C4
:102E40000012002AF5D1E06B08B1FFF7D5F8204653
:102E500000F0ABFE002010BD70470000F8B501681F
:102E600004460868CA684B6910F00F0F4FF0000560
:102E700059D003F0010602F49077374365D0C107BB
:102E800005D0D10503D5616C41F0010161644107B2
:102E900005D5D90703D0616C41F002016164810757
:102EA00005D5D90703D0616C41F0040161640107C5
:102EB00007D502F02001314303D0616C41F00801D5
:102EC0006164616C00293AD0800604D5900602D571
:102ED000204600F09FFE20684069616CC0F38010BE
:102EE000090700D460B3204600F05FFE2068406907
:102EF000400621D52068143050E8001F21F0400121
:102F000040E80012002AF5D1E06BA8B16D49416399
:102F1000E06BFFF795F8002811D0E06B416B01B032
:102F2000BDE8F040084783060FD593060DD520462F
:102F3000BDE8F84000F06EBE2046FFF78DFFF8BDFB
:102F40002046FFF789FF6564F8BD266B2023012E1C
:102F50007CD1C6067AD5D60678D508684868009030
:102F600048694FF00206400640D5E16B08684068AA
:102F70000004000CE8D0A28D8242E5D9E085886982
:102F800020282DD020680C3050E8001F21F48071DB
:102F900040E80012002AF5D12068143050E8001FE4
:102FA00021F0010140E80012002AF5D12068143018
:102FB00050E8001F21F0400140E80012002AF5D13E
:102FC00084F84230256320680C3050E8001F21F05F
:102FD000100140E80012002AF5D1E06BFFF70CF871
:102FE0006663A08DE18D401A81B22AE0A08DE18D4B
:102FF000401A81B2E08D0028A6D00029A4D0226812
:103000000C3252E8000F20F4907042E80007002FC5
:10301000F5D12068143050E8002F22F0010240E87A
:103020000027002FF5D184F84230256320680C304A
:1030300050E8002F22F0100240E80023002BF5D1C9
:1030400066632046FFF7CFFEF8BDFFE705062BD5E8
:10305000150629D594F841002128F5D1A068B0F5CE
:10306000805F01D12069B0B1206A411C21622168D2
:1030700000784860E08C401E0004000CE084E3D13E
:103080002068C16821F08001C1602068C16841F0FA
:103090004001C160D8E7206A0088C0F3080048609A
:1030A000206A801C2062E5E74006CDD55006CBD5CE
:1030B000CA68204622F04002CA6084F8413000F01D
:1030C0007DF9C1E7613A000870B5040004D094F8B6
:1030D0004100002510B106E0012070BD84F8405089
:1030E000204600F023F8242084F841002068C168BD
:1030F00021F40051C160204600F0EEFD2068016916
:1031000021F4904101612068416921F02A01416167
:103110002068C16841F40051C1606564202084F8D2
:10312000410084F842006563002070BDF0B585B0B1
:10313000002400940194029403940646DFF830C101
:1031400003684C48022103224B4D8027634538D148
:10315000836943F480438361836903F48043049368
:10316000836943F0040383618069039200F00400E3
:1031700004900802CDE9000169462846FFF7BCF833
:103180002815CDE90004694628460294FFF7B4F8F3
:103190003B4D3A48C5E90004C5E902472C616C6122
:1031A000AC612846EC61FFF741F808B1FEF722FF59
:1031B000F5630022052125206E62FFF739FA2520EC
:1031C00052E0DFF8C0C0634550D1C36943F4003317
:1031D000C361C36903F400330493836943F00403B8
:1031E00083618069039200F0040004900420CDE91B
:1031F000000169462846FFF77FF80820CDE9000462
:10320000694628460294FFF777F81D4D1B48443560
:103210001430C5E90004C5E902472C616C61AC615A
:103220002846EC61FFF702F808B1FEF7E3FEF5630C
:103230006E62134D11488835283001C5102091C5A4
:103240000F4845F8104988306C61AC61EC61FEF7BD
:10325000EDFF08B1FEF7CEFEB56300220521262062
:103260006E62FFF7E5F92620FFF7D4F905B0F0BD4F
:1032700000380140001002400008014058000240A0
:10328000600100200044004090F84230202B01D023
:103290000220704721B11AB10023036300F078BD0A
:1032A00001207047704770472DE9F843044690F8B5
:1032B00041001F4616460D46202802D00220BDE8D8
:1032C000F8837DB176B100206064212084F841004C
:1032D000FFF710F9A6848046E684A068B0F5805F09
:1032E00002D003E00120EAE7206910B12E46002554
:1032F0000EE000260CE08021204600F091FDA0B9F0
:10330000AEB116F8010B21684860E08C401EE084E5
:10331000E08C43464FF0000200970028EBD14FF0BD
:103320004001204600F07CFD30B10320C7E735F8AE
:10333000020BC0F30800E6E7202084F841000020DB
:10334000BDE7000070B5044690F84100202801D088
:10335000022070BD49B342B32162A284E2840020FE
:103360006064212384F84130A56B114BAB62A56BDF
:10337000104BEB62A56B104B2B63A36B5863256856
:1033800013462A1DA06BFEF77FFF21686FF04000F7
:1033900008602068143050E8001F41F0800140E8C8
:1033A0000012002AF5D1002070BD012070BD000080
:1033B0005F3B0008A13B0008713A00087047704766
:1033C000FEE700004FF47A7401F062FE00F0EEF9BF
:1033D000012118A2084600F085FAFEF7A7FC204656
:1033E00000F0E9FD16A20121022000F07BFAFEF7B1
:1033F00045FD204600F0DFFD13A20121032000F06F
:1034000071FA00F059FE204600F0D5FD00F020F9D9
:1034100001210FA2084600F065FA204600F0CBFD1E
:1034200002F068FA002001F065FD204600F044FF3C
:10343000CAE700004169723732342E2E2E00000098
:103440005044502E2E2E00004D5154542E2E2E003E
:10345000696E692066696E697368656421000000A1
:10346000064D4FF400544FF4FA7621462846FFF7F4
:1034700033F8304600F020FFF7E70000001001406D
:10348000114808B5416941F00101416140690022DC
:1034900000F00100009005210F20FFF7C9F80F2070
:1034A000FFF7B8F8002205211020FFF7C1F810201F
:1034B000FFF7B0F8002205211120FFF7B9F8BDE8A9
:1034C00008401120FFF7A6B80010024010B5044ACA
:1034D0000021044800F046FF0349086010BD0000C9
:1034E000A06000084F3900080000002070B586B0C9
:1034F000002418480094019402940394816941F0D7
:1035000010018161816901F010010491816941F02C
:1035100020018161816901F020010491816941F0FC
:103520000401816180690C4E00F004004FF40055E5
:103530000490002229463046FEF7D6FF0120009570
:10354000CDE901040220039069463046FEF7D4FE1F
:1035500006B070BD00100240001001400C4810B5CC
:103560000A4901604FF416514160002181600C222C
:10357000C160C0E904128161C161FFF7A5FD0028A7
:1035800003D0BDE81040FEF735BD10BD0038014046
:10359000D00000200C4810B50A4901604FF41651C4
:1035A0004160002181600C22C160C0E90412816188
:1035B000C161FFF789FD002803D0BDE81040FEF788
:1035C00019BD10BD0044004018010020FEE7FEE7D1
:1035D0000EB500F03DF84FF47A7500BFFEF7C4FC5D
:1035E00001280AD000F034F812A20121022000F0D4
:1035F00079F9284600F060FEF0E700F00BFD02F0DC
:10360000EFFC044602F0FEFB00220C4B02F04EFAE7
:1036100002460B460AA16846FCF746FE6A460121AF
:10362000022000F05FF92046084902F017FC00F084
:10363000F9FDDEE76572726F720000000000244041
:103640004E6F6973653A252E3166000000002041F7
:1036500070B500240021204600F0FEF8002500206F
:1036600000F064F96D1CEDB2802DF8D3641CE4B257
:10367000082CEFD370BD000070B586B0002415484B
:103680000094019402940394816941F008018161DE
:103690008069114E00F008004FF44045049001226B
:1036A00029463046FEF720FF11200095CDE90104A0
:1036B0000320039069463046FEF71EFE0122910367
:1036C0003046FEF711FF0122D1033046FEF70CFF12
:1036D00006B070BD00100240000C01402DE9F0471B
:1036E000174E074600244FF080084FF400494FF46E
:1036F000804500BF28FA04F23A4049463046FEF7BA
:10370000F3FE012229463046FEF7EEFE002229464E
:103710003046FEF7E9FE641CE4B2082CEAD301222D
:1037200049463046FEF7E0FE012229463046FEF7C4
:10373000DBFE29463046BDE8F0470022FEF7D4BE46
:10374000000C014070B501220B4DD40321462846E0
:10375000FEF7CAFE0122960331462846FEF7C4FE54
:10376000002221462846FEF7BFFE31462846BDE826
:1037700070400022FEF7B8BE000C014070B50A4D43
:103780004FF40044002221462846FEF7ADFE0122F8
:1037900091032846FEF7A8FE21462846BDE8704062
:1037A0000122FEF7A1BE0000000C014010B5002070
:1037B0004FF47A720021491C9142FCD3401C904284
:1037C000F8D3FFF759FFAE2000F09FF8D52000F0A6
:1037D0009CF8802000F099F8A82000F096F83F208F
:1037E00000F093F8D32000F090F8002000F08DF85E
:1037F000402000F08AF8A12000F087F8C82000F0EF
:1038000084F8DA2000F081F8122000F07EF88120A0
:1038100000F07BF8CF2000F078F8D92000F075F8A0
:10382000F12000F072F8DB2000F06FF8302000F09B
:103830006CF8A42000F069F8A62000F066F88D204E
:1038400000F063F8142000F060F8AF2000F05DF89D
:10385000BDE81040FFF7FCBE10B50C4640F0B000CC
:1038600000F053F8102040EA141000F04EF804F075
:103870000F00BDE8104000F048B800002DE9F0410D
:103880000746CE004000083E801E15464FF0FF3828
:10389000F1B2C0B2FFF7E0FF1148002400EB0515BC
:1038A0002819A0F5805090F8000E00F03FF8641C35
:1038B000E4B2082CF4D308EB4700F1B2C0B2FFF732
:1038C000CBFF00242819A0F5805090F8080E00F0D6
:1038D0002DF8641CE4B2082CF4D3BDE8F08100009C
:1038E000EE6000082DE9F04115460E46074600241B
:1038F00006E03019C1B23846FFF7C0FF641CE4B2DD
:103900002A5D002AF5D1BDE8F08110B50446FFF725
:1039100019FF7820FFF7E2FE0020FFF7DFFE2046C8
:10392000FFF7DCFEBDE81040FFF728BF10B50446E6
:10393000FFF708FF7820FFF7D1FE4020FFF7CEFE0B
:103940002046FFF7CBFEBDE81040FFF717BF4FF052
:10395000FF34204600F0B0FCFBE7000010B550201B
:1039600080F31188BFF34F8FBFF36F8F01F0E6FE36
:1039700018B104494FF080500860002080F311888E
:1039800010BD000004ED00E030B58FB0282168467E
:10399000FCF7CFFD14210AA8FCF7CBFD0121080498
:1039A000CDE900100024029402250491CDE90750CE
:1039B0004FF4E01009906846FEF768FF08B172B650
:1039C000FEE70F20CDE90A054FF48060CDE90C40F9
:1039D00002210AA80E94FEF75DFE002801D072B6FF
:1039E000FEE70FB030BD70470148FFF73CB900005B
:1039F00038020020F0B50268164B174C174D4FF0F7
:103A00008047984205D0B84203D0A04201D0A842D6
:103A100003D122F070064A683243984205D0B8427A
:103A200003D0A04201D0A84203D122F44074CA6856
:103A300022434C6922F08002224302608A68C262FB
:103A40000A688262984201D10969016301214161DA
:103A5000F0BD0000002C01400004004000080040C0
:103A600010B5406A0021C185C184FFF7F5F910BD8A
:103A700070B5446A2068406994F84110C0F3C010E2
:103A80000025212904D118B1E584204600F0B4F8BE
:103A90002068406994F84210C0F38010222904D1B4
:103AA00018B1E585204600F080F8606C40F0100009
:103AB00060642046FFF7D0F970BD10B50146406A3A
:103AC000096809684FF0000289062ED4C285016892
:103AD0000C3151E8003F23F4807341E80034002C9E
:103AE000F5D10168143151E8003F23F0010341E8AA
:103AF0000034002CF5D10168143151E8003F23F067
:103B0000400341E80034002CF5D1202180F8421018
:103B1000016B012909D101680C3151E8003F23F004
:103B2000100341E80034002CF5D14263016B0129F8
:103B300002D0FFF7B7FB10BD818DFFF754F910BD20
:103B400010B5406A01214163016B012902D0FFF7E2
:103B5000AAFB10BD818D4908FFF745F910BD10B5CE
:103B60000146406A09680968890616D40021C184A3
:103B70000168143151E8002F22F0800241E800234F
:103B8000002BF5D101680C3151E8002F42F04002C2
:103B900041E80023002BF5D110BDFFF70FFC10BD4D
:103BA00010B5406AFFF70BFC10BD01680C3151E8FD
:103BB000002F22F4907241E80023002BF5D1016818
:103BC000143151E8002F22F0010241E80023002BBC
:103BD000F5D1016B012909D101680C3151E8002FA1
:103BE00022F0100241E80023002BF5D1202180F8BB
:103BF000421000210163704701680C3151E8002F29
:103C000022F0C00241E80023002BF5D1202180F8EA
:103C10004110704708B590F84210222901D00220C7
:103C200008BD82684FF480539A4201D1016921B1E5
:103C3000816A9A421BD04AB10AE00268816A5268DE
:103C4000C2F308020A80816A891C08E0026972B125
:103C50000268526802F07F020A70816A491C816220
:103C6000C18D491E0904090CC18503D01BE00268FF
:103C70005268F1E70168CA6822F02002CA60016850
:103C8000CA6822F48072CA6001684A6922F001029F
:103C90004A61202180F8421000214163026B012A11
:103CA00003D0FFF7FFFA002008BD016301680C3163
:103CB00051E8002F22F0100241E80023002BF5D13B
:103CC00001680A68D20602D50A6849680091818DA8
:103CD000FFF789F8E7E7000070B50446006801695E
:103CE000E26821F44051114301612169A068084351
:103CF000616908432168CA6841F20C639A43024330
:103D0000CA6020684169A26921F440711143416190
:103D10001E492068884202D1FEF782FD01E0FEF7CD
:103D20006FFD00EBC00101EB0012606864218000B0
:103D3000B2FBF0F3B3FBF1F36FF018067343B2FB81
:103D4000F0F5B2FBF0F605EB8305322303EB051526
:103D5000B5FBF1F5B6FBF1F605F0F00505EB061540
:103D6000B2FBF0F6B2FBF0F0B0FBF1F06FF018022E
:103D7000504306EB800003EB0010B0FBF1F021682C
:103D800000F00F002844886070BD0000003801403A
:103D900038B5816204468285002013466064222281
:103DA00084F84220E56B1B4AAA62E56B1A4AEA6274
:103DB000E56B1A4A2A63E26B50630A462168E06B9E
:103DC000091DFEF761FA20680168406800902069CB
:103DD00048B120680C3050E8001F41F4807140E881
:103DE0000012002AF5D12068143050E8001F41F07D
:103DF000010140E80012002AF5D12068143050E893
:103E0000001F41F0400140E80012002AF5D10020D7
:103E100038BD0000BB3A0008413B0008713A000879
:103E20002DE9F041984617460E460446069D27E0C8
:103E3000681C25D02DB1FEF75DFBA0EB0800A84261
:103E40001ED920680C3050E8001F21F4D07140E8E2
:103E50000012002AF5D12068143050E8001F21F02C
:103E6000010140E80012002AF5D1202084F8410029
:103E700084F84200002084F840000320BDE8F0816F
:103E80002068006836EA000004D00020B842CFD095
:103E90000020F3E70120F9E70C4810B5006801683D
:103EA000C943C9060DD40A4A012111706FF01001EF
:103EB00001600648FEF798FFC82206490348FFF74D
:103EC000E3F9BDE810400148FEF7C8BFD00000206C
:103ED00018000020800200200C4810B5006801681E
:103EE000C943C9060DD40A4A012111706FF01001AF
:103EF00001600648FEF778FF0A2206490348FFF7EB
:103F0000C3F9BDE810400148FEF7A8BF1801002022
:103F1000040000202C020020FEE7000010B50B4A30
:103F200000210B4800F01EFA0A4C084A00212060CC
:103F30002432094800F016FA044A60604832002131
:103F4000064800F00FFAA06010BD0000806700086E
:103F5000C5330008B800002061340008D1350008DE
:103F6000490050EAC12018BF04204A0D18BF40F094
:103F7000010040F2FF72B2EB515F08BF40F0020057
:103F8000012808BF052070470907090E002804DB37
:103F900000F1E02080F80014704700F00F0000F1FD
:103FA000E02080F8141D704730380A2801D2012023
:103FB00070470020704770B5054600244FF47A76AC
:103FC00003E0304600F004F8641CAC42F9D370BD45
:103FD00070B54FF0E02300215C699A69850198690A
:103FE0009042FCD002D2A2EB000202E0A4EB000659
:103FF000324411440246A942F1D370BD13B54FF6C5
:10400000FF73012269460248FFF74EF900981CBD74
:10401000D000002010B5082209490A48FFF792F99C
:104020006420FFF7C8FF08480178012906D1002164
:10403000017006480179C07801EB002010BD000036
:104040001900002018010020040000202C0200208C
:10405000FEF75EFAFFF798FCFFF748FAFFF710FA51
:10406000FFF77CFAFFF796FA4FF4FA720E490F4801
:10407000FFF70AF90D480068C16841F01001C160FE
:104080000A220B490B48FFF7FFF80A480068C1688D
:1040900041F01001C16000F029F9FFF73FFFFFF781
:1040A00015FA00F03FF9FEE780020020D000002062
:1040B0002C02002018010020F8B5324D32A12869E9
:1040C000009038482B68EA68FCF7EEF84FF4FA7471
:1040D00002E02046FFF76FFF33A13248FDF71AFFD9
:1040E0000028F6D14FF4967631462E48FCF7FFF9BA
:1040F000D5E901232DA12B48FCF7D6F802E0204694
:10410000FFF759FF28A12748FDF704FF0028F6D143
:1041100031462448FCF7EBF94FF47A701AE0204658
:10412000FFF749FF27A128A0FDF7F4FE88B900F0AA
:10413000ABF8D5E901231DA11A48FCF7B5F802E058
:104140002046FFF738FF18A11648FDF7E3FE0028C8
:10415000F6D12046FFF72FFF20A11BA0FDF7DAFEC6
:104160000028DCD120A06969FCF792F82046FFF70F
:1041700022FF1DA0A969FCF78BF82046BDE8F84096
:10418000FFF719BF2400002041542B4D434F4E46EA
:1041900049473D222573222C222573222C22257388
:1041A000220D0A00740400204F4B000041542B4D97
:1041B000495053544152543D222573222C25730DEE
:1041C0000A0000003736370041542B4D434F4E4E06
:1041D0004543543D312C3132300D0A00434F4E4E91
:1041E00041434B204F4B000041542B4D5355423D12
:1041F000222573222C300D0A0000000002460248DE
:10420000416902A0FCF744B82400002041542B4D22
:104210005055423D222573222C302C302C22257300
:10422000220D0A0010B594B0044650216846FCF7F0
:1042300080F9204601F0E6FD02460B4604A16846DF
:10424000FCF732F86846FFF7D9FF14B010BD000044
:104250007B5C323269645C32323A20312C5C32321F
:1042600064705C32323A207B5C32324E6F69736527
:104270005C32323A205B7B5C3232765C32323A25F9
:104280002E31667D5D7D7D0010B54FF4FA7402E03D
:104290002046FFF790FE03A103A0FDF73BFE002898
:1042A000F6D110BD4F4B000041542B4D4950434CAB
:1042B0004F53450D0A00000010B5EFF3058149B9D1
:1042C000EFF3108131B908490968022905D1EFF3EC
:1042D000118111B16FF0050403E0002408B100F072
:1042E000E3FD204610BD000090000020EFF30580A4
:1042F00058B9EFF3108040B909490868022801D085
:1043000030B109E0EFF3118030B16FF00500704774
:1043100001200860002070474FF0FF307047000018
:104320009000002010B5EFF3058060B9EFF3108026
:1043300048B90B490868022802D0012806D00BE0D2
:10434000EFF3118040B16FF0050010BD022008604E
:1043500000F05AFE002010BD4FF0FF3010BD0000ED
:1043600090000020F0B585B04FEA01034FF0000443
:10437000EFF305810394A1BBEFF3108189BB2149C1
:104380000968022902D1EFF3118151BB48B380269D
:1043900018218DF8104004AD42B3176807B13D46AF
:1043A00097691FB139467F1E382F02D21779FF0750
:1043B00002D0002005B0F0BD576907B1BE08D2F8A1
:1043C00008C0BCF1000F0DD0D4685C2C18D3126962
:1043D0003AB137B18DE806103246294601F06FF93F
:1043E00003900DE0D7685FB912694AB903AACDE915
:1043F0000012B2B2294601F035F9012800D0039429
:104400000398D7E7900000202DE9F041134C0F46A8
:10441000054666692068001D00F016FC681C07D17F
:1044200037B12168BDE8F0410D48091D00F05CBCC2
:1044300020683544B5424560216805D2A068BDE8D2
:10444000F041091D00F038BC6068091D00F034FC23
:10445000206B854200D22563BDE8F081400000203A
:10446000900A00202DE9F041054600F049FC2D4C52
:104470002069401C206120682B4F10B1E06930B3E7
:104480002BE025602069012827D1002606EB860055
:1044900007EB800000F002FC761C382EF6D3234890
:1044A00000F0FCFB2148143000F0F8FB1F482830D6
:1044B00000F0F4FB1D483C3000F0F0FB1B4850308E
:1044C00000F0ECFB194860601430A06005E0206843
:1044D000E96AC06A884200D82560E06A401CE06250
:1044E0006864E86AA169884200D9A06100EB800095
:1044F00007EB8000291D00F0F7FB00F021FCE069CC
:1045000000280CD02068E96AC06A884207D20849AE
:104510004FF080500860BFF34F8FBFF36F8FBDE83F
:10452000F081000040000020E0050020400A00204B
:1045300004ED00E038B500F0E3FB104CA068C8B90A
:104540000F4800F0ABFB0E48143000F0A7FB0C48FE
:104550002060143060600A4B00202833009003F183
:10456000500210210A2000F021FEA06010B105A128
:1045700000F064FCBDE8384000F0E2BB7C000020A5
:10458000A40A0020546D72510000000030B4026C87
:104590000B46002A0BD0C1681144C1604468A14297
:1045A00001D30168C16030BC1846FBF753BF30BC73
:1045B00070472DE9F041856B174604460026026CD2
:1045C00082B1C7B1E068FBF745FFE168206C091ACA
:1045D000E1602268914202D26168081AE060022F0D
:1045E00016D017E02068A8B9606801F00BF90646FC
:1045F000002060600EE0A068FBF72CFF216CA06833
:104600000844A0606168884204D32068A06001E08B
:1046100005B16D1E6D1CA5633046BDE8F08110B577
:10462000044690F8590058B101280CD002280FD048
:10463000502080F31188BFF34F8FBFF36F8FFEE7D9
:10464000206B00F091FB2046BDE8104000F08CBBD1
:1046500010BD000010484FF44061420706D0C01D55
:104660000D4920F00700411AC1F540610B4A0023B3
:104670000144C2E900030839103A21F00701116032
:104680004B600B600B1AC0E9001393604FF00040C1
:104690005360D0607047000074120020A400002016
:1046A000144E154CA6F29C474FF08058DFF84C9002
:1046B00012E000BF00F024FBF068C568281D00F080
:1046C000C3FA2069401E2061E068401EE06000F0EF
:1046D00037FB2846FFF7A3FFE0680028EAD13868D7
:1046E0000128F9D9C9F80080BFF34F8FBFF36F8F4E
:1046F000F2E700007C0A00204000002004ED00E00A
:1047000070B51D46049C51B1C4F80020C4E90F01E6
:104710000121204600F07EFD84F84C5070BD2460DD
:10472000F4E72DE9F0470E46DDE909841746824695
:1047300091009946089DA522206BFBF7D0FE6FF0F3
:104740000301206B01EB8701084420F0070778077D
:1047500007D0502080F31188BFF34F8FBFF36F8FC6
:10476000FEE72218315C82F83410315C11B1401C34
:104770001028F6D3002684F84360382D00D337255F
:10478000E562C4E91356201D00F093FA04F1180005
:1047900000F08FFA2461C5F138006462A06166659B
:1047A00084F858604A465146384600F03BFA20608B
:1047B000B8F1000F01D0C8F80040BDE8F087000054
:1047C00030B5114900E011460A688242FBD34B68BC
:1047D0005C18844203D14068184448600846436826
:1047E0001C18944209D1084C103C2468A24209D0FC
:1047F00052681A4442600A6812680260814200D01E
:10480000086030BD0460F9E7A400002070B5002402
:1048100041600B4D0061914206D8D11A82699142E4
:1048200006D2011D686807E09A4203D2994201D37B
:10483000012403E0011D286800F03EFA204670BD07
:104840007C00002010B5044600F05AFAA06B28B195
:104850005FF0000400F074FA204610BD0124F9E76F
:1048600030B589B0304D55E00498002806DADDE90E
:104870000601059A9047049800284BDB069C606966
:1048800010B1201D00F0E0F902A800F0B9F80246CE
:1048900004980A283ED2DFE800F00505053D2637DA
:1048A00005053D260598A169034601442046FFF70A
:1048B000ADFF00B3616A20468847E069012829D12D
:1048C000002000900598A16900234218194620464F
:1048D00001F0A2F878B9502080F31188BFF34F8F10
:1048E000BFF36F8FFEE70598A06128B181181346CA
:1048F0002046FFF78BFF0DE0502080F31188BFF3B7
:104900004F8FBFF36F8FFEE794F82C0010B920464D
:1049100000F02AFA002204A9A86800F0CDFD0028C2
:10492000A2D109B030BD00007C0000202DE9FC417F
:104930000F46054600F0ACFB01A800F061F8044604
:10494000019818B100F0D6FFBDE8FC81224EAFB14E
:1049500070680068A8B30027291B3A46B06800F0C9
:1049600081FA00F0C7FF0028EED11C494FF08050BB
:104970000860BFF34F8FBFF36F8FE5E7A542EBD819
:1049800000F0B8FF30682746C068C468201D00F0FA
:104990005BF9E069012810D1A0692B4641193A461C
:1049A0002046FFF733FF40B1002003460146009048
:1049B0002A46204601F030F820B1616A2046884737
:1049C000C2E707E0502080F31188BFF34F8FBFF399
:1049D0006F8FFEE70127BFE77C00002004ED00E0B9
:1049E00006484168096829B14168C968C9684968C9
:1049F000016370474FF0FF31FAE7000040000020EC
:104A000070B5054600F094FE064E044630698442B7
:104A100003D200F009F8012000E0002028602046C1
:104A2000346170BD7C000020F8B5194D1FE0C068EE
:104A3000C4680668201D00F007F9616A20468847AF
:104A4000E069012813D1A0693044B04206D924613D
:104A50006060211D286800F02FF908E0002003465F
:104A6000014600903246204600F0D6FF38B1286853
:104A700001680029DBD16968C5E90010F8BD502044
:104A800080F31188BFF34F8FBFF36F8FFEE70000F5
:104A90007C00002008484068401C4FF0500080F324
:104AA000118804D0BFF34F8FBFF36F8FFEE7BFF3C2
:104AB0004F8FBFF36F8FFEE7AC000020074C2068DC
:104AC000016841B1C0680021D0F80000FFF72EFF57
:104AD000FFF7C6FEF3E701210020F7E77C00002086
:104AE0002DE9F041044600F00BF994F9455004F12A
:104AF000240609E0606A48B1304600F0C3FE08B100
:104B000000F048FA6D1E6DB2002DF3DC4FF0FF3659
:104B100084F8456000F014F900F0F2F894F944507C
:104B200004F1100709E0206948B1384600F0AAFEF8
:104B300008B100F02FFA6D1E6DB2002DF3DC84F881
:104B40004460BDE8F04100F0FBB800002DE9F04101
:104B50000546002700F09CFA314E306808B9FFF78F
:104B600079FDF06805424BD1C5B3083568070ED012
:104B700005F00700C0F108000544680707D0502081
:104B800080F31188BFF34F8FBFF36F8FFEE72DB314
:104B90007068854234D82248103001460C6801E024
:104BA00020460C466168A94202D221680029F7D14B
:104BB00031688C4224D0076821680160606808373A
:104BC000411B10290FD96019420708D0502080F3EB
:104BD0001188BFF34F8FBFF36F8FFEE710E0416086
:104BE0006560FFF7EDFD61687068401A7060B2683B
:104BF000904200D2B060F06801430020C4E9000197
:104C000000F078FE780707D0502080F31188BFF3BA
:104C10004F8FBFF36F8FFEE73846BDE8F08100008D
:104C20009400002010B5031F4FF080741C601B1F00
:104C300021F001011960191F024B0B601439403833
:104C40000A6010BD954A0008D0E9013201699A60F6
:104C5000D0E901235A604A68824201D182684A60E1
:104C6000002202610868401E086008687047000062
:104C7000034B036003F15C00086080201060704704
:104C8000BC0B0020044B036003F15C0008604FF490
:104C90008070106070470000180E002000F10801BD
:104CA0004FF0FF32C0E90112C160016100210160D3
:104CB000704700210161704730B50B685A1C02D063
:104CC00000F1080202E0026904E022465468256807
:104CD0009D42FAD953684B6099608A6051600861BF
:104CE0000168491C016030BD42684A6093688B606E
:104CF00093685960916008610168491C01607047C0
:104D0000502080F31188BFF34F8FBFF36F8F0A4994
:104D10004868401C486001280CD10848006810F021
:104D2000FF0F07D0502080F31188BFF34F8FBFF3E0
:104D30006F8FFEE770470000AC00002004ED00E03C
:104D40000849486828B1401E486001D180F31188A5
:104D50007047502080F31188BFF34F8FBFF36F8FE0
:104D6000FEE70000AC00002070B5002827D0144DED
:104D7000A0F108046168E868014207D1502080F37F
:104D80001188BFF34F8FBFF36F8FFEE722683AB1F0
:104D9000502080F31188BFF34F8FBFF36F8FFEE772
:104DA0008143616000F074F9606869680844686074
:104DB0002046FFF705FDBDE8704000F09BBD70BDCB
:104DC000940000204FF0E02000210161816105493D
:104DD0004FF47A720968B1FBF2F1491E4161072173
:104DE000016170471400002010B5FBF72DFA11493E
:104DF00010280ED300F1E02090F8F0030A789042DA
:104E000007D2502080F31188BFF34F8FBFF36F8F0D
:104E1000FEE709480068896800F4E060884207D925
:104E2000502080F31188BFF34F8FBFF36F8FFEE7E1
:104E300010BD0000AC0000200CED00E010B5084BE8
:104E4000002200BF53F832401CB1521C082AF9D38B
:104E500010BD43F8321003EBC201486010BD0000E2
:104E6000A005002070B515460E460446FFF748FF22
:104E700094F944100020491C01D184F8440094F9AD
:104E80004510491C01D184F84500FFF759FFA06B7C
:104E900028B92A46314604F1240000F099F820464A
:104EA000BDE87040FFF71CBE10B5020014D00F48DB
:104EB000806B38B1502080F31188BFF34F8FBFF360
:104EC0006F8FFEE700F0E4F800211046FFF79CFA30
:104ED00000F010FD002807D105494FF08050086010
:104EE000BFF34F8FBFF36F8F10BD00004000002055
:104EF00004ED00E070B50546FFF702FF1E4C05B952
:104F00002568281DFFF7A0FEA86A18B105F1180052
:104F1000FFF79AFEE06A401CE0622068854207D1F4
:104F2000291D1648FFF7E0FEE068401CE06007E03E
:104F30002069401E20612846FFF771FBFFF750FDF6
:104F4000FFF7FEFEE069002814D02068854211D1E9
:104F5000A06B38B1502080F31188BFF34F8FBFF39F
:104F60006F8FFEE706494FF080500860BFF34F8F08
:104F7000BFF36F8F70BD0000400000207C0A00204E
:104F800004ED00E002498A6A0260496941607047A5
:104F90004000002001490120486270474000002085
:104FA00010B50C4650B1094909681831FFF784FE65
:104FB0002046BDE810400121FFF726BA502080F3BB
:104FC0001188BFF34F8FBFF36F8FFEE740000020C3
:104FD00070B514460D4668B10A4909681831FFF7E3
:104FE00083FE0CB14FF0FF3521462846BDE87040E6
:104FF000FFF70ABA502080F31188BFF34F8FBFF339
:105000006F8FFEE74000002030B587B00024039486
:1050100005AA04A903A80494FFF72AFEDDE9030109
:105020000094CDE90110002315A11748059A00F05E
:1050300046FB164D002868631FD000F0BDFC012818
:1050400009D0401C19D1502080F31188BFF34F8F35
:10505000BFF36F8FFEE7502080F31188BFF34F8FAF
:10506000BFF36F8F4FF0FF3028630120E8616C6160
:1050700007B0BDE8304000F045B807B030BD0000D3
:1050800049444C4500000000A146000840000020B3
:105090000248816B491C816370470000400000207A
:1050A000164810B5816B11B10121416210BD00217C
:1050B00041628169124A01E0B9B1491E01EB8103E5
:1050C00052F82330002BF7D001EB810302EB83026F
:1050D00002F1080453685B685360A34201D15B6826
:1050E0005360DA680260816110BD502080F311883E
:1050F000BFF34F8FBFF36F8FFEE70000400000202B
:10510000E00500201CB5264908780190FF200870B2
:1051100008788DF800009DF800009DF8002000F050
:10512000F000904207D0502080F31188BFF34F8FDA
:10513000BFF36F8FFEE79DF800001A4B00F05000A0
:1051400018700720986005E09DF8002052008DF847
:105150000020401E9DF800201206F5D49860032818
:1051600007D0502080F31188BFF34F8FBFF36F8FAC
:10517000FEE74FF440709860019808700A48016893
:1051800041F470010160016841F070410160FFF776
:1051900019FE00205860FBF721F800201CBD00001C
:1051A00000E400E0AC00002020ED00E038B5049DF4
:1051B00018B153B1CAB181B120E0502080F31188F9
:1051C000BFF34F8FBFF36F8FFEE7502080F311883E
:1051D000BFF34F8FBFF36F8FFEE7502080F311882E
:1051E000BFF34F8FBFF36F8FFEE739B1502080F3CD
:1051F0001188BFF34F8FBFF36F8FFEE750241C461B
:10520000012384F846302B460094FFF779FA2046B4
:1052100038BD000070B50D46040025D0FFF770FDC5
:10522000D4E90F20216802FB001161600021A16315
:105230002168A1600A46D4E90F01401E00FB01214C
:10524000E16021464FF0FF3001F8440F487004F14F
:1052500010008DB1FFF722FD04F12400FFF71EFDC1
:10526000FFF76EFD012070BD502080F31188BFF361
:105270004F8FBFF36F8FFEE721690029F0D000F058
:1052800001FB0028ECD004494FF080500860BFF3C8
:105290004F8FBFF36F8FE3E704ED00E02DE9FF4789
:1052A00082B01D468A464FF00008040003D0BAF1D0
:1052B000000F08D011E0502080F31188BFF34F8F0A
:1052C000BFF36F8FFEE7206C38B1502080F3118858
:1052D000BFF34F8FBFF36F8FFEE7022D0AD1E06B54
:1052E000012807D0502080F31188BFF34F8FBFF300
:1052F0006F8FFEE700F00EFA3F4F4FF000094FF0BE
:10530000805648B9049838B1502080F31188BFF313
:105310004F8FBFF36F8FFEE7FFF7F2FCA06BE16BDF
:10532000884207D3022D05D00498D0B1B8F1000F00
:105330001AD01EE02A4651462046FFF73AF9616A24
:1053400019B104F1240000F09DFA20B13E60BFF3D2
:105350004F8FBFF36F8FFFF7F3FC012006B0BDE85E
:10536000F087FFF7EDFC22E06846FFF70BFE4FF0F9
:105370000108FFF7E5FCFFF78BFEFFF7C1FC94F98E
:105380004400401C01D184F8449094F94500401C2D
:1053900001D184F84590FFF7D3FC04A9684600F0DA
:1053A00027F930B12046FFF79BFB00F0A3FA00205D
:1053B000D4E7FFF7A5FCA06BE16B884213D1FFF7A0
:1053C000BFFC04F110000499FFF7EAFD2046FFF747
:1053D00087FB00F08FFA00289ED13E60BFF34F8F0D
:1053E000BFF36F8F98E7FFF7ABFC2046FFF778FB22
:1053F00000F080FA90E7000004ED00E02DE9F047AE
:105400001F4690468946040003D0B9F1000F08D02A
:1054100011E0502080F31188BFF34F8FBFF36F8FDF
:10542000FEE7206C38B1502080F31188BFF34F8F16
:10543000BFF36F8FFEE7022F0AD1E06B012807D080
:10544000502080F31188BFF34F8FBFF36F8FFEE7BB
:10545000FFF7CAFC5020EFF3118680F31188BFF3E9
:105460004F8FBFF36F8FA06BE16B884206D3022F83
:1054700004D0002086F31188BDE8F08794F94550E8
:105480003A4649462046FFF794F8681C04D06D1C44
:1054900084F845500120EDE7606A0028FAD004F155
:1054A000240000F0EFF90028F4D0B8F1000FF1D09B
:1054B0000121C8F80010EDE72DE9F747002683B079
:1054C0008A46040003D0BAF1000F08D011E0502042
:1054D00080F31188BFF34F8FBFF36F8FFEE7206C0F
:1054E00038B1502080F31188BFF34F8FBFF36F8F17
:1054F000FEE700F00FF9DFF8F4804FF000094FF0FD
:10550000805748B9059838B1502080F31188BFF30F
:105510004F8FBFF36F8FFEE7FFF7F2FBA56BC5B1AF
:1055200051462046FFF732F86D1EA563206950B141
:1055300004F1100000F0A6F928B1C8F80070BFF31C
:105540004F8FBFF36F8FFFF7FBFB012006B0BDE865
:10555000F087059808B11EB106E0FFF7F1FB27E0E0
:105560006846FFF70FFD0126FFF7EAFBFFF790FD06
:10557000FFF7C6FB94F94400401C01D184F8449025
:1055800094F94500401C01D184F84590FFF7D8FB01
:1055900005A9684600F02CF8002820460AD0FFF73D
:1055A0009FFA00F0A7F92046FFF74CF90028B3D086
:1055B0000020CBE7FFF746F990B104F124000599EC
:1055C000FFF7EEFC2046FFF78BFA00F093F9002876
:1055D000A2D1C8F80070BFF34F8FBFF36F8F9BE766
:1055E0002046FFF77DFA00F085F995E704ED00E02D
:1055F0002DE9F0410C46050011D0C4B1FFF780FB46
:10560000174B5A696E682068911B471C17D02F688A
:105610009B6A9F4219D0964217D8012410E050206F
:1056200080F31188BFF34F8FBFF36F8FFEE75020D9
:1056300080F31188BFF34F8FBFF36F8FFEE7002415
:10564000FFF77EFB2046BDE8F081884205D9401A6D
:1056500020602846FFF796FCF1E700202060DCE799
:10566000400000202DE9FF5F8346DDE90E87994663
:1056700016468A469000FFF769FA05001CD05C20A8
:10568000FFF764FA040014D00020256384F8590061
:10569000CDE90240CDE900874B4632465146584697
:1056A000FFF73FF82046FEF7DDFE012004B0BDE81D
:1056B000F09F2846FFF758FB4FF0FF30F6E7F0B5B4
:1056C00085B0DDE90B640A9DA6B1DCB15C270097CB
:1056D0002663022684F85960002604AFCDE902460D
:1056E000CDE90057FFF71DF82046FEF7BBFE0498F2
:1056F00005B0F0BD502080F31188BFF34F8FBFF38A
:105700006F8FFEE7502080F31188BFF34F8FBFF3F8
:105710006F8FFEE70548C16919B1806B18B1002091
:1057200070470120704702207047000040000020B1
:105730000148406970470000400000202DE9F04119
:105740002E4C0027A06B40B1206A401C2062606A8A
:1057500000B101273846BDE8F0816669761C6661B4
:1057600013D16068006838B1502080F31188BFF30E
:105770004F8FBFF36F8FFEE76068A1686160A06024
:10578000A06A401CA062FFF72BF9206BDFF8708045
:10579000864209D36068006880B16068C068C568E7
:1057A000686886420DD220632068C06A00EB8001E1
:1057B00058F821000128CAD90127C8E74FF0FF3067
:1057C000F1E7281DFFF740FAA86A18B105F11800A3
:1057D000FFF73AFAE86AA169884200D9A06100EBB4
:1057E000800108EB8100291DFFF77EFAE86A216835
:1057F000C96A8842CED30127CCE7000040000020D0
:10580000E005002070B504004FF0000133D01B4DBF
:105810002868844207D0502080F31188BFF34F8F4F
:10582000BFF36F8FFEE7206D38B1401E2065E36C3B
:10583000E26A9A421FD040B11DE0502080F31188E7
:10584000BFF34F8FBFF36F8FFEE7201DFFF7FCF90B
:10585000E06CE062C0F13800A061E06AA9698842AA
:1058600000D9A861064900EB800001EB8000211DF2
:10587000FFF73AFA0121084670BD00004000002001
:10588000E005002070B5C068C46854B104F1180088
:105890000646FFF7D9F9144DA86B50B131461348AD
:1058A00015E0502080F31188BFF34F8FBFF36F8F47
:1058B000FEE7201DFFF7C8F9E06AA969884200D910
:1058C000A8610B4900EB800001EB8000211DFFF770
:1058D0000BFAE06A2968C96A884202D90120686225
:1058E00070BD002070BD000040000020680A00204C
:1058F000E00500202DE9F0472C4D00242746A86B39
:1059000038B1FFF7FDF9A86B401EA863A86B40B142
:1059100046E0502080F31188BFF34F8FBFF36F8FA5
:10592000FEE72969224E0120D1B3A6F59169804690
:105930003068E0B1F068C46804F11800FFF784F93A
:10594000201DFFF781F9E06AA969884200D9A861A2
:1059500000EB800109EB8100211DFFF7C5F9E06A2A
:105960002968C96A8842E3D3C5F82480E0E70CB10E
:10597000FFF736F82C6A4CB14FEA0806FFF7DEFE57
:1059800000B16E62641EF9D100202862686A38B1E5
:105990000849012738070860BFF34F8FBFF36F8FA7
:1059A000FFF7CEF93846BDE8F08700004000002040
:1059B000680A002004ED00E010B586B0FEF7BAFDDD
:1059C000114CA068B8B100200390049005AA04A966
:1059D00003A8FFF757F9DDE9032102208DE807004E
:1059E00000230AA10B48059AFFF769FEE06010B199
:1059F00006B0012010BD502080F31188BFF34F8FF7
:105A0000BFF36F8FFEE700007C000020546D722012
:105A100053766300BD4A00082DE9FF411E46134638
:105A200002000A9D4FF0000016D0144CA768002F0A
:105A30000FD0CDE900130292062917DAFFF76AFEAC
:105A400002284FF000030FD000226946A068FFF73C
:105A500025FC04B0BDE8F081502080F31188BFF32D
:105A60004F8FBFF36F8FFEE72A46EEE700233246E3
:105A700069463846FFF7C2FCEBE700007C000020D7
:105A800010B500290AD00878002807D005487844C6
:105A9000FBF7F0FA002801D0002010BD024878443E
:105AA00010BD00006A0F0000620F00002DE9C04128
:105AB00030B4DFF8A0C23CEA111418BF3CEA13145A
:105AC00000F0EC8081EA03051CEA111444EAD57465
:105AD00018BF1CEA131500F0C780A4EB05044FF0B3
