:020000040800F2
:10000000600700209D0B0008190300081B0300086F
:100010001F03000823030008270300080000000056
:100020000000000000000000000000002B0300089A
:100030002D030008000000002F0300083103000812
:10004000B70B0008B70B0008B70B0008B70B000888
:10005000B70B0008B70B0008B70B0008B70B000878
:10006000B70B0008B70B0008B70B0008B70B000868
:10007000B70B0008B70B0008B70B0008B70B000858
:10008000B70B0008B70B0008B70B0008B70B000848
:10009000B70B0008B70B0008B70B0008B70B000838
:1000A000B70B0008B70B0008B70B0008B70B000828
:1000B000B70B0008B70B0008B70B0008B70B000818
:1000C000B70B0008B70B0008B70B0008B70B000808
:1000D000B70B0008110B0008B70B0008B70B00089E
:1000E000B70B0008B70B0008B70B0008B70B0008E8
:1000F000B70B0008B70B0008B70B0008B70B0008D8
:10010000B70B0008B70B0008B70B0008B70B0008C7
:10011000B70B0008B70B0008B70B0008B70B0008B7
:10012000B70B0008B70B0008B70B0008B70B0008A7
:1001300000F002F800F042F80AA090E8000C8244B7
:100140008344AAF10107DA4501D100F037F8AFF294
:10015000090EBAE80F0013F0010F18BFFB1A43F0A5
:1001600001031847141D0000341D0000103A24BF7D
:1001700078C878C1FAD8520724BF30C830C144BF0C
:1001800004680C607047000000230024002500264E
:10019000103A28BF78C1FBD8520728BF30C148BFEA
:1001A0000B607047752901F0EF84732901F0118607
:1001B000002070471FB51FBD10B510BD01F024FE13
:1001C0001146FFF7F7FF00F00AF801F042FE03B412
:1001D000FFF7F2FF03BC00F041FC000070478AB05B
:1001E000642400F0D1FB4FF4A06000F0F7FC4FF462
:1001F000E13000F041FC00F011FA02E020A001F033
:1002000067FC00F09DFA0028F8D123A001F060FC03
:1002100034E025480078C8B900F029FB15E001A8B2
:1002200000F008FB30B900208DF8240001A91FA0C0
:1002300001F04EFC0A2000F0E4FB24B9642423A062
:1002400001F046FC01E0601EC4B2E8E700F035FBB7
:1002500013E021A101A801F047FC01A800F0BBFABE
:10026000202803D122A001F033FC02E025A001F0F8
:100270002FFC4FF4FA7000F0C4FBEAE7C9E7000076
:100280004E524632344C30315F436865636B3A20DE
:100290006572726F0A0000004E524632344C3031A3
:1002A000204F4B0A00000000000000204E52463252
:1002B000344C30315F52783A4F4B2C526563206496
:1002C000617461203D202573000000005472792084
:1002D000746F2052780A00004E524632344C30314E
:1002E000502054582D52582054657374210A000030
:1002F0004E524632344C3031205478204F4B210A34
:10030000000000004E524632344C303120547820E8
:100310004641494C210A0000704700BFFEE700BF7C
:10032000FEE700BFFEE700BFFEE77047704770477B
:10033000704700000CB50020019000906C480068E8
:1003400040F480306A49086000BF6948006800F4E2
:10035000003000900198401C0190009818B9019855
:10036000B0F5A06FF1D16248006800F4003010B120
:100370000120009001E0002000900098012843D166
:100380005C48006840F010005A4908600846006860
:1003900020F0030008600846006840F00200086092
:1003A00053484068524948600846406848600846DB
:1003B000406840F4806048600846406820F47C1043
:1003C00048600846406840F4E81048600846006805
:1003D00040F08070086000BF4548006800F0007081
:1003E0000028F9D04248406820F0030040494860A6
:1003F0000846406840F00200486000BF3C48406842
:1004000000F00C000828F9D10CBD10B5FFF792FFE1
:1004100010BD10B53648006840F00100344908604E
:100420000846406834490840314948600846006839
:10043000324908402E4908600846006820F48020B0
:1004400008600846406820F4FE0048604FF41F0032
:100450008860FFF7DAFF4FF000602949086010BD9F
:1004600010B5002100200022214B5B6803F00C0135
:1004700021B1042906D0082928D107E0214B224CBC
:10048000236027E01F4B204C236023E0184B5B6860
:1004900003F47010164B5B6803F48032022303EB05
:1004A000904022B9194B4343174C23600DE0104B89
:1004B0005B6803F4003323B1144B4343124C2360B5
:1004C00003E0104B4343104C236003E00D4B0E4CF4
:1004D000236000BF00BF064B5B68C3F303130C4CE3
:1004E000E15C094B1B68CB40074C236010BD00004A
:1004F00000100240002002400000FFF8FFFFF6FE5F
:1005000008ED00E000127A000400002000093D0020
:100510000800002070B50546002405E0601CC4B248
:10052000C82C01DD002070BD02213A4801F093F88B
:100530000028F3D02946374801F03AF8002405E0B6
:10054000601CC4B2C82C01DD0020ECE70121314859
:1005500001F081F80028F3D02E4801F02BF8C0B24A
:10056000E1E700B587B00121082000F0C1FE0121BC
:10057000880300F0CAFE4FF46040ADF81800182060
:100580008DF81B0003208DF81A0006A9224800F000
:10059000F3FB4FF46041204800F09BFC0020ADF8D5
:1005A00004004FF48270ADF806000020ADF808009A
:1005B0000220ADF80A000120ADF80C004002ADF8B1
:1005C0000E003820ADF810000020ADF81200072012
:1005D000ADF8140001A90F4800F014FF01210D48E7
:1005E00000F0B5FFFF20FFF795FF07B000BD10B585
:1005F0000446084800884FF6C7710840054908803E
:1006000008460088204308800121024800F09FFF2F
:1006100010BD000000380040000C014000B587B05C
:100620000121082000F064FE10208DF81B0003203B
:100630008DF81A004FF41060ADF8180006A9C548EF
:1006400000F09AFB4FF48050ADF8180028208DF888
:100650001B0006A9BF4800F08FFB4FF4C851BD48EE
:1006600000F039FCFFF77DFF0021BB4800F06FFF71
:100670000020ADF804004FF48270ADF806000020B1
:10068000ADF80800ADF80A00ADF80C004FF40070AA
:10069000ADF80E001820ADF810000020ADF81200E3
:1006A0000720ADF8140001A9AB4800F0ABFE012112
:1006B000A94800F04CFF0020A84908600120A84983
:1006C000C1F8A00107B000BD2DE9F04107460D4675
:1006D00016460020A1490C3908603846FFF71AFF7A
:1006E0008046002405E0FF20FFF714FF2855601C1A
:1006F000C4B2B442F7DB012098490C390860404687
:10070000BDE8F0812DE9F04107460C461546002072
:1007100092490C3908603846FFF7FCFE80460026F7
:1007200005E014F8010BFFF7F5FE701CC6B2AE42EF
:10073000F7DB012089490C3908604046BDE8F081AB
:100740001CB588A103C9CDE900010820FFF74FFFC0
:10075000052269463020FFF7D5FF052269461020A3
:10076000FFF7B2FF002406E01DF80400A52800D022
:1007700003E0601CC4B2052CF6DB00BF052C01D0E1
:1007800001201CBD0020FCE770B505460C4600208A
:1007900072490C3908602846FFF7BCFE0646204621
:1007A000FFF7B8FE01206E49C1F8A001304670BDC8
:1007B00070B50446002069490C3908602046FFF7EF
:1007C000A9FEFF20FFF7A6FE054601206449C1F8F7
:1007D000A001284670BD70B505461020FFF707FF41
:1007E00000205E49086020222946A020FFF78AFFEA
:1007F00001205B49C1F8AC0100BF58487C38006853
:100800000028FAD10720FFF7D3FF0446214627200E
:10081000FFF7BAFF04F0100028B1FF21E120FFF735
:10082000B3FF102070BD04F0200008B12020F9E7CC
:10083000FF20F7E770B504461020FFF7D8FE072029
:10084000FFF7B6FF054629462720FFF79DFF05F075
:10085000400050B1202221466120FFF735FFFF21E3
:10086000E220FFF791FF002070BD0120FCE710B5EA
:1008700000203A49086005223C492A20FFF742FF40
:1008800001212120FFF780FF01212220FFF77CFFBB
:1008900028212520FFF778FF20213120FFF774FF62
:1008A0000F212620FFF770FF0F212020FFF76CFF9C
:1008B00001202B49C1F8AC0110BD10B5002027491B
:1008C000086005222A493020FFF71CFF052227492E
:1008D0002A20FFF717FF01212120FFF755FF0121F3
:1008E0002220FFF751FF1A212420FFF74DFF282176
:1008F0002520FFF749FF0F212620FFF745FF0E2196
:100900002020FFF741FF01201549C1F8AC0110BDBF
:1009100000201249086010212420FFF735FF042031
:10092000FFF746FF0446214612A001F0D1F81F212F
:100930002620FFF729FF00212120FFF725FFFF21B7
:10094000E320FFF721FF01200549C1F8AC0100BFFA
:10095000FEE700000008014000380040AC012142E1
:1009600000002142A5A5A5A5A5000000711E000854
:100970006C1E000853455455505F52455452203D5B
:1009800020256868750A000010B56FF0040000F0BB
:1009900074F92E4800682E49B0FBF1F02D4908701B
:1009A0000846007800EB4001C1EBC0104FF6FF7124
:1009B00001EAC0002849088010BD0146254A127886
:1009C0004A434FF0E0235A6100229A611A461269A5
:1009D00042F001021A6100BF4FF0E022106900F0FE
:1009E00001021AB100F48032002AF5D04FF0E02263
:1009F000126922F001024FF0E0231A6100229A618D
:100A000070470146144A12884A434FF0E0235A6166
:100A100000229A611A46126942F001021A6100BF6F
:100A20004FF0E022106900F001021AB100F48032A8
:100A3000002AF5D04FF0E022126922F001024FF0B7
:100A4000E0231A6100229A61704700000400002030
:100A500000127A00180000201A00002000BF704722
:100A600000BF4A4A128802F04002002AF9D0C2B2FE
:100A7000464B1B1D1A80704710B586B004460121F5
:100A800044F2040000F034FC4FF40070ADF81400A0
:100A900003208DF8160018208DF8170005A93C4892
:100AA00000F06AF94FF48060ADF8140004208DF86E
:100AB000170005A9364800F05FF925208DF80000E1
:100AC00003208DF801008DF8020001208DF803004D
:100AD000684600F088F801940020ADF80800ADF8F1
:100AE0000A00ADF80C00ADF810000C20ADF80E00B7
:100AF00001A9264800F029FE012240F22551234891
:100B000000F0BBFE0121214800F0ABFE06B010BD95
:100B100010B540F225511D4800F094FF10B31B485A
:100B200000F010FFC4B21B48008800F40040C8B9B0
:100B30001848008800F4804060B10A2C03D00020DF
:100B40001449088020E01348008840F4004011490F
:100B5000088019E00D2C06D10E48008840F4804032
:100B60000C49088010E00B480088C0F30D000A49CA
:100B70000C5408480088401C064908800846008834
:100B8000C72801DD0020088010BD000000380140AA
:100B9000000801402000002038000020094880475C
:100BA00009480047FEE7FEE7FEE7FEE7FEE7FEE74F
:100BB000FEE7FEE7FEE7FEE704480549054A064B67
:100BC0007047000013040008310100086001002094
:100BD00060070020600300206003002031490143CA
:100BE000314A1160704770B5002100230F22C4788C
:100BF00004B32D4C246804F4E064C4F5E064210AD5
:100C0000C1F10403CA40447804FA03F18478144023
:100C100021430901254C0678A155047804F01F05ED
:100C20000124AC4005786D11AD0005F1E025C5F853
:100C3000004109E0047804F01F050124AC401C4D7C
:100C40000678761145F8264070BD1A4A0A400243DC
:100C5000154B1B1F1A60704739B1134A121D1268D9
:100C60000243114B1B1D1A6006E00F4A121D126849
:100C700082430D4B1B1D1A607047042808D14FF0AA
:100C8000E021096941F004014FF0E022116107E021
:100C90004FF0E021096921F004014FF0E0221161D9
:100CA000704700000000FA050CED00E000E400E0F1
:100CB00080E100E080FFFF1F10B50446CC4884426D
:100CC00008D10121042000F02DFB0021042000F0B8
:100CD00029FB46E0C748844208D10121082000F0E2
:100CE00021FB0021082000F01DFB3AE0C2488442AD
:100CF00008D10121102000F015FB0021102000F088
:100D000011FB2EE0BD48844208D10121202000F0D3
:100D100009FB0021202000F005FB22E0B8488442B6
:100D200008D10121402000F0FDFA0021402000F010
:100D3000F9FA16E0B348844208D10121802000F07E
:100D4000F1FA0021802000F0EDFA0AE0AE4884427A
:100D500007D10121801500F0E5FA0021A01500F06F
:100D6000E1FA10BD10B50121084600F0DBFA0021C0
:100D7000012000F0D7FA10BD2DE9F0410246002510
:100D80000026002000230024002791F803C00CF067
:100D90000F0591F803C00CF0100CBCF1000F03D04C
:100DA00091F802C04CEA050591F800C0BCF1000FB3
:100DB00031D0146800202BE04FF0010C0CFA00F346
:100DC000B1F800C00CEA03069E4220D183004FF028
:100DD0000F0C0CFA03F7BC4305FA03FC4CEA0404BD
:100DE00091F803C0BCF1280F06D14FF0010C0CFAAA
:100DF00000FCC2F814C00AE091F803C0BCF1480F2F
:100E000005D14FF0010C0CFA00FCC2F810C0401CD8
:100E10000828D1D31460B1F800C0BCF1FF0F34DD55
:100E2000546800202EE000F1080C4FF0010808FA89
:100E30000CF3B1F800C00CEA03069E4221D18300F6
:100E40004FF00F0C0CFA03F7BC4305FA03FC4CEA15
:100E5000040491F803C0BCF1280F05D100F1080C7F
:100E600008FA0CF8C2F8148091F803C0BCF1480FDE
:100E700007D100F1080C4FF0010808FA0CF8C2F88D
:100E80001080401C0828CED35460BDE8F0814FF696
:100E9000FF710180022181700421C17070470246F8
:100EA000002093680B400BB1012000E00020704748
:100EB0000146886880B2704702460020D3680B4024
:100EC0000BB1012000E0002070470146C86880B2E5
:100ED000704701617047416170470AB1016100E0EC
:100EE00041617047C16070474FF480320A438261AC
:100EF0008161826182698269704702460020434BAA
:100F000018684FF68073184040EA021008433F4BC0
:100F1000186070473E49C8617047F0B50A46002323
:100F200000240021002500F00046B6F1004F02D158
:100F3000364EF16901E0354E7168C0F3034583B266
:100F400000F44016B6F5401F08D121F070612F4E15
:100F5000766826F070662D4F7E6012E000F48016F1
:100F6000B6F5801F06D1032606FA05F4A14341F029
:100F7000706106E0460D360103FA06F6B14341F012
:100F8000706122B1460D360103FA06F6314300F0D6
:100F90000046B6F1004F02D11C4EF16101E01B4E3C
:100FA0007160F0BD30B500228B071C0F0F2303FAD0
:100FB00004F2164B08338C1053F824309343134C2F
:100FC00008348D1044F8253023468C1053F8243013
:100FD0008C07240F00FA04F423430C4C08348D10C2
:100FE00044F8253030BD0A49DC3108607047000004
:100FF00000080140000C01400010014000140140B5
:1010000000180140001C0140002001400000014088
:1010100000002042DF48006840F00100DD49086020
:1010200008464068DC490840DA49486008460068DC
:10103000DA490840D74908600846006820F4802053
:1010400008600846406820F4FE0048604FF41F0026
:1010500088607047CF49096821F48031CD4A11601A
:101060001146096821F480211160B0F5803F03D05A
:10107000B0F5802F0ED106E0C649096841F48031F1
:10108000C44A116007E0C349096841F4A021C14A7C
:10109000116000E000BF00BF704710B5014600229C
:1010A000002300204A11012A02D1BA4C236806E02D
:1010B000022A02D1B74C236A01E0B64C636A01F000
:1010C0001F02012494401C400CB1012000E00020CC
:1010D00010BD38B5002000900024002500BF31204D
:1010E000FFF7DBFF05460098401C00900098B0F524
:1010F000A06F01D0002DF2D03120FFF7CEFF08B154
:10110000012400E00024204638BD01460020A14A09
:10111000106820F0F80040EAC10010607047A04954
:1011200008607047024600209A4B586820F47C10F3
:1011300042EA01031843974B586070479849086684
:10114000704701460020934A506820F0030008438E
:10115000506070478F48406800F00C0070470146AF
:1011600000208C4A506820F0F0000843506070471F
:1011700001460020874A506820F4E0600843506030
:10118000704701460020834A506820F4605040EACE
:10119000C1005060704729B17E4A527A02437D4BAC
:1011A0005A7204E07B4A527A82437A4B5A727047F1
:1011B0007B49D8310860704701460020754A506865
:1011C00020F440400843506070470021714A2032AB
:1011D0001170704A82F82010012802D004280AD128
:1011E00004E001216B4A2032117005E00521694AB3
:1011F0002032117000E000BF00BF704769490860ED
:1012000070476449096A0143624A1162704765493F
:1012100044390860704730B50021002200240023C3
:101220005C4D6D6805F00C0121B1042905D0082939
:1012300023D105E05C4D056022E05B4D05601FE0B9
:10124000544D6D6805F47012524D6D6805F480348C
:10125000022505EB92421CB9544D554305600BE045
:101260004C4D6D6805F400351DB1504D554305607A
:1012700002E04D4D5543056002E04B4D056000BF57
:1012800000BF444D6D6805F0F0010909484D6B5CE5
:101290000568DD4045603F4D6D6805F4E061090A71
:1012A000434D6B5C4568DD4085603A4D6D6805F4E3
:1012B0006051C90A3E4D6B5C4568DD40C560354DE7
:1012C0006D6805F44041890B3A4D6B5CC568B5FB10
:1012D000F3F5056130BD29B12E4A526902432D4B09
:1012E0005A6104E02B4A526982432A4B5A61704783
:1012F00029B1284A92690243264B9A6104E0254AA3
:1013000092698243234B9A61704729B1214AD2697D
:101310000243204BDA6104E01E4AD26982431D4B2E
:10132000DA61704729B11B4AD2680243194BDA606F
:1013300004E0184AD2688243164BDA60704729B13C
:10134000144A12690243134B1A6104E0114A1269EC
:101350008243104B1A617047124940390860704748
:101360000F49C86470470B49C87170470948406A03
:1013700040F0807007494862704701460020054AE6
:1013800092680A400AB1012000E00020704701493C
:1013900088727047001002400000FFF8FFFFF6FE61
:1013A000000042428004424200127A0000093D00DF
:1013B000220000203200002010B50446BE488442BE
:1013C00008D101218014FFF7ADFF0021A014FFF721
:1013D000A9FF16E0B948844208D101210014FFF7A3
:1013E000AEFF00212014FFF7AAFF0AE0B4488442B0
:1013F00007D10121C013FFF7A2FF0021E013FFF77F
:101400009EFF10BD10B50022028802F441520B88E5
:101410004C8823438C882343CC8823430C89234363
:101420004C8923438C892343CC8923431A4302806C
:10143000838B4FF2FF74234083830B8A038210BD9A
:101440002DE9F04F85B005460C464FF00009022704
:101450004FF000084FF0010B0026B246A88B4FF268
:1014600040010840A88302202884B5F81C90A06899
:10147000022801D100BF38E0A08810B94FF0010B5D
:1014800001E04FF0020B8D48854200D100E000BF23
:101490006846FFF7C0FEDDF800A0E088B0F5007FE9
:1014A0000AD14FEA1A2000EB80004000A168B0FB8F
:1014B000F1F0401D86B20BE04FEA4B10BAFBF0F0A2
:1014C00000EB80004000A168B0FBF1F0401D86B247
:1014D0000A20B6FBF0F606F00108A6EB0800C0F300
:1014E0004F074FF6FF7000EA0828022F01DBFF2F9D
:1014F00002DD02274FF00008E08840EA0800384388
:101500002884A088A189084361880843218808436A
:1015100040F4006040EA0909A5F81C9005B0BDE858
:10152000F08F0021018041808180C1800181418153
:101530008181C181072101827047002101804180A2
:101540008180C1800221816000218181704721B1A9
:10155000028842F04002028004E002884FF6BF7326
:101560001A400280704721B1828B42F480628283EC
:1015700004E0828B4FF6FF331A408283704730B508
:10158000002400230C110125A540ABB21AB18588B7
:101590001D43858002E085889D43858030BD1AB15A
:1015A00083880B43838002E083888B43838070476A
:1015B000818170470146888970474FF6FF629142EA
:1015C00004D0028842F48072028004E002884FF660
:1015D000FF631A400280704721B1828842F0040202
:1015E000828004E082884FF6FB731A408280704745
:1015F00002884FF2FF731A40028002880A43028079
:101600007047018841F480510180704721B1028800
:1016100042F40052028004E002884DF6FF731A4043
:101620000280704702460020012901D0108B00E0A3
:10163000908A70470146088A7047B1F5804F04D1FF
:10164000028842F48042028004E002884BF6FF7375
:101650001A40028070470246002013890B400BB1EC
:10166000012000E000207047CA4302817047F0B5B6
:101670000246002000240023002501F00F07012668
:10168000BE40B4B20B1101269E40B3B2968806EA62
:1016900003051689264016B10DB1012000E0002097
:1016A000F0BD10B5002201F00F040123A3409AB24F
:1016B000D343038110BD00000030014000380040DA
:1016C000003C004010B50446FB48844209D101218A
:1016D0008803FFF727FE00214FF48040FFF722FE2A
:1016E00032E0F648844209D101214804FFF727FE81
:1016F00000214FF40030FFF722FE25E0F04884423D
:1017000009D101218804FFF71AFE00214FF480203F
:10171000FFF715FE18E0EB48844209D10121C80407
:10172000FFF70DFE00214FF40020FFF708FE0BE04D
:10173000E548844208D101210805FFF700FE002199
:101740004FF48010FFF7FBFD10BD2DE9F04786B088
:1017500005460E460024A24600BFA1460027B089D8
:1017600000B100BF2F462C8A4CF6FF700440F08871
:1017700004432C82AC894EF6F3100440B0883189C2
:101780000843718908430443AC81AC8A4FF6FF409B
:101790000440B0890443AC8201A8FFF73CFDC64871
:1017A000874202D1DDF810A001E0DDF80CA0A88985
:1017B00000F4004040B10AEBCA0000EB0A103168A7
:1017C0004900B0FBF1F807E00AEBCA0000EB0A1091
:1017D00031688900B0FBF1F86420B8FBF0F0040137
:1017E0002009642101FB1089A88900F4004040B160
:1017F000322000EBC900B0FBF1F000F00700044319
:1018000008E0322000EB09106421B0FBF1F000F099
:101810000F0004432C8106B0BDE8F0874FF4165149
:10182000016000218180C18001810C214181002162
:101830008181704710B502460020108A4FF2FF03E5
:1018400018400B884C8823438C882343CC8823433F
:101850001843108210BD0021018041808180C18029
:10186000704721B1828942F40052828104E082896A
:101870004DF6FF731A4082817047F0B5034600248D
:1018800000260025002040F66A17B94200D100BFAB
:101890001846C1F3421401F01F06012707FA06F5A6
:1018A000012C01D10C3004E0022C01D1103000E0F9
:1018B00014301AB107682F43076002E00768AF438E
:1018C0000760F0BD1AB1838A0B43838202E0838AEA
:1018D0008B4383827047028A4FF6F0731A4002826C
:1018E000028A0A430282704782894FF2FF731A40CC
:1018F000828182890A438281704721B1828942F0C4
:101900000202828104E082894FF6FD731A408281CF
:101910007047028A4FF6DF731A400282028A0A4336
:101920000282704721B1028A42F48042028204E0BE
:10193000028A4BF6FF731A4002827047C1F3080215
:101940008280704701468888C0F30800704781890B
:1019500041F0010181817047028BD2B20283028B78
:1019600042EA012202837047028B02F47F42028323
:10197000028B0A430283704721B1828A42F020021F
:10198000828204E0828A4FF6DF731A4082827047B7
:1019900021B1828A42F01002828204E0828A4FF6EC
:1019A000EF731A408282704721B1828A42F00802A6
:1019B000828204E0828A4FF6F7731A40828270476F
:1019C00021B1828942F40042828103E08289C2F31C
:1019D0000E028281704721B1828A42F400628282C3
:1019E00004E0828A4FF2FF731A4082827047828A33
:1019F0004FF6FB731A408282828A0A4382827047C2
:101A000021B1828A42F00202828204E0828A4FF689
:101A1000FD731A408282704702460020B1F5007FB4
:101A200000D100BF13880B400BB1012000E0002063
:101A3000704701F40072B2F5007F00D100BFCA43C5
:101A40000280704770B50246002400230025002064
:101A500040F66A16B14200D100BFC1F3421501F051
:101A60001F03012606FA03F3012D02D196893340A4
:101A700006E0022D02D1168A334001E0968A3340F7
:101A80000C12012606FA04F41688344013B10CB186
:101A9000012000E0002070BD10B50022002340F6B8
:101AA0006A14A14200D100BF0A1201249440A3B2DB
:101AB000DC43048010BD00000038014000440040B9
:101AC00000480040004C00400050004070470000BB
:101AD0000FB4044910B503AA029800F07FF910BCB6
:101AE0005DF814FB1C0000200FB41CB5074B06AAC0
:101AF0007B4469460090059800F041F90020694652
:101B000000F050F91CBC5DF814FB0000B1020000AD
:101B100009684A0501D540B27047C905FCD500B235
:101B2000704709684A0501D5C0B27047C905FCD5A0
:101B300080B2704770B50C460546012A05D028785A
:101B4000800600D5EA69002302E0012305E05B1C62
:101B5000934202D2E05C0028F9D1A869E618C01AC5
:101B6000A861286A184428622846AFF3008004E080
:101B7000D5E9012114F8010B9047B442F8D3284667
:101B8000AFF3008070BD00002DE9F041064600244F
:101B900010687529314616A510D0FFF7B9FF002847
:101BA00002DA404213A507E031688A0701D512A581
:101BB00002E0490704D511A5012401E0FFF7B1FFB8
:101BC00000210A2206F1240709E0B0FBF2FCB0FB79
:101BD000F2F302FB1C00303078541846491C0028F0
:101BE000F3D123462A463046BDE8F04100F068B8FC
:101BF000000000002D0000002B000000200000006D
:101C00002DE9F0410F460546002028622846E96884
:101C1000884770B3252805D0D5E901219047286A67
:101C2000401CF2E7E9682846002688476C280446ED
:101C30000AD0682C08D04C2C35D06A2C31D0742CAA
:101C400031D07A2C2FD016E0E9680646284688471E
:101C5000B042044608D16C2E23D04FF4806628464B
:101C6000E9688847044606E06C2E03D04FF480767E
:101C700001E01EE04026E4B1A4F14100192802D899
:101C8000203446F400663A46214628462E60FEF788
:101C900089FA60B1012808D0FF1D27F0070708372F
:101CA000B4E78026DBE70026D9E73F1DAEE72046F4
:101CB000B2E7286ABDE8F081704770477047704707
:101CC0002DE9F0470D4699469246044600F1240856
:101CD0000168880604D5E06921F01001216000E068
:101CE0000120A84201DD471B00E00027A1697A1905
:101CF00002EB0900081AA0612078C00602D4204631
:101D0000AFF30080002608E0D4E901211AF80600AC
:101D10009047206A401C761C20624E45F4DB2078F8
:101D2000C0060AD52046AFF3008006E0D4E90121C1
:101D300030209047206A401C2062381EA7F101071E
:101D4000F4DC07E0D4E9012118F805009047206A87
:101D5000401C2062281EA5F10105F3DC2046AFF3EC
:101D600000802078000602D50220BDE8F08701201F
:101D7000FBE7000001694A1C02610878704700B562
:101D80008FB0CDE901310021059105497944CDE9B4
:101D9000031011466846FFF733FF0FB000BD000087
:101DA000E5FFFFFF0A6802F8010B0A60704710B5F3
:101DB000436913B1AFF3008001E0FFF7BBFE0120E0
:101DC00010BD127800F124010A7000224A7001222D
:101DD000EDE711684FF0FF32E9E70000074B70B5FF
:101DE0000D467B44FFF7CBFF0446284600F008F879
:101DF00010B14FF0FF3070BD204670BD7BECFFFF8F
:101E0000007B00F080007047754600F02BF8AE466E
:101E100005006946534620F00700854618B020B5F6
:101E2000FEF7CAFEBDE820404FF000064FF0000765
:101E30004FF000084FF0000B21F00701AC46ACE872
:101E4000C009ACE8C009ACE8C009ACE8C0098D46DF
:101E5000704710B50446AFF300802046BDE810403F
:101E6000FEF7B5B900487047000100203443101058
:101E70000134431010010000981E000800000020EB
:101E8000380000006C010008D01E00083800002057
:101E900028070000880100080100000000A24A0491
:101EA000000000000000000001020304060708090A
:101EB000000000000000000000000000000001021F
:101EC00003040102030406070809020406080000CF
:0400000508000131BD
:00000001FF
