:020000040800F2
:10000000F8070020D5010008DD5200086719000834
:10001000D95200086D040008215C000800000000AF
:10002000000000000000000000000000235800084D
:100030007104000800000000615600087B580008A9
:10004000EF010008EF010008EF010008EF010008D0
:10005000EF010008EF010008EF010008EF010008C0
:10006000EF010008EF010008EF010008EF010008B0
:10007000EF010008EF010008EF010008EF010008A0
:10008000EF010008EF010008EF010008EF01000890
:10009000EF010008EF010008EF010008EF01000880
:1000A000EF010008EF010008EF010008EF01000870
:1000B000EF010008EF010008EF010008EF01000860
:1000C000EF010008EF010008EF010008EF01000850
:1000D000EF010008E15B0008EF010008EF010008F4
:1000E000EF010008EF010008EF010008EF01000830
:1000F000EF010008EF010008EF010008EF01000820
:10010000EF010008EF010008EF010008EF0100080F
:10011000EF010008EF010008EF010008EF010008FF
:10012000EF010008EF010008EF010008EF010008EF
:1001300000F002F800F03FF80AA090E8000C8244BA
:100140008344AAF10107DA4501D100F034F8AFF297
:10015000090EBAE80F0013F0010F18BFFB1A43F0A5
:1001600001031847C4790000E4790000103A24BF65
:1001700078C878C1FAD8520724BF30C830C144BF0C
:1001800004680C607047000000230024002500264E
:10019000103A28BF78C1FBD8520728BF30C148BFEA
:1001A0000B607047782900F07780002070471FB5FA
:1001B0001FBD10B510BD00F027F91146FFF7F7FF7E
:1001C00005F096FD00F045F903B4FFF7F2FF03BC1C
:1001D00005F044FD0948804709480047FEE7FEE76F
:1001E000FEE7FEE7FEE7FEE7FEE7FEE7FEE7FEE7E7
:1001F00004480549054A064B704700008558000829
:1002000031010008F8010020F8070020F803002061
:10021000F8030020704700000FB4044910B503AA8A
:10022000029800F0C3F810BC5DF814FB1400002025
:100230002DE9F0410E460446002020622046E16888
:10024000884730B3252805D0D4E901219047206A9A
:10025000401CF2E7E168204600278847050018D0D7
:10026000A5F14100192802D820354FF40067324625
:10027000294620462760FFF795FF40B1012804D0AA
:10028000F61D26F007060836D8E7361DD6E72846BD
:10029000DAE7206ABDE8F08170B504460D462146D4
:1002A0001068AFF300802188090502D50F4A7A440F
:1002B00002E00E4A7A440E32002104F1240305E0E4
:1002C00000F00F060009965D5E54491C0028F7D126
:1002D00020780023000704D5702D02D009B1022335
:1002E00011322046BDE8704000F006B84C7800009E
:1002F00070477047704770472DE9F0470D469946A3
:100300009246044600F124080168880604D5E06995
:1003100021F01001216000E00120A84201DD471B0F
:1003200000E00027A1697A1902EB0900081AA06110
:100330002078C00602D42046AFF30080002608E0F3
:10034000D4E901211AF806009047206A401C761C67
:1003500020624E45F4DB2078C0060AD52046AFF374
:10036000008006E0D4E9012130209047206A401C3B
:100370002062381EA7F10107F4DC07E0D4E901216F
:1003800018F805009047206A401C2062281EA5F13D
:100390000105F3DC2046AFF300802078000602D58B
:1003A0000220BDE8F0870120FBE70000074B70B595
:1003B0000D467B4400F011F80446284600F020F872
:1003C00010B14FF0FF3070BD204670BD1F590000C6
:1003D00001694A1C02610878704700B58FB0CDE909
:1003E00001310021059105497944CDE903101146F9
:1003F0006846FFF71DFF0FB000BD0000E5FFFFFFDF
:10040000007B00F080007047754600F02BF8AE4688
:1004100005006946534620F00700854618B020B510
:10042000FFF7E6FEBDE820404FF000064FF0000762
:100430004FF000084FF0000B21F00701AC46ACE88C
:10044000C009ACE8C009ACE8C009ACE8C0098D46F9
:10045000704710B50446AFF300802046BDE8104059
:10046000FFF7B2BE004870479401002000BFFEE7CE
:100470007047000070B50446002594F8210002285A
:1004800003D00420A0630125C1E02068006820F0AB
:100490000E00216808602068006820F001002168D3
:1004A00008605C492068884252D95A4978392068E6
:1004B000884201D1012047E05649643920688842CA
:1004C00001D1102040E0534950392068884201D1C1
:1004D000801539E04F493C392068884201D18014A9
:1004E00032E04C4928392068884202D14FF48030EC
:1004F0002AE0484914392068884202D14FF480101C
:1005000022E044492068884201D140041CE042496D
:100510002068884201D1012016E03F49143120684B
:10052000884201D110200FE03B49283120688842E1
:1005300001D1801508E038493C312068884201D15A
:10054000801401E04FF480303349091F086051E006
:10055000304978392068884201D1012047E02D498F
:1005600064392068884201D1102040E0294950397F
:100570002068884201D1801539E026493C3920683D
:10058000884201D1801432E022492839206888420B
:1005900002D14FF480302AE01E4914392068884285
:1005A00002D14FF4801022E01A492068884201D11C
:1005B00040041CE018492068884201D1012016E05F
:1005C000154914312068884201D110200FE01249EA
:1005D00028312068884201D1801508E00E493C315D
:1005E0002068884201D1801401E04FF4803009492D
:1005F00080394860012084F8210000BF002084F881
:10060000200000BF606B10B12046616B8847284610
:1006100070BD000080000240080402402DE9F84748
:10062000024600239C467BE14FF0010808FA03F4E0
:10063000D1F8008008EA0400A0427DD1DFF8F4A2DE
:10064000D1F80480A8EB0A09D0453AD014DCB8F1FF
:10065000030F50D009DCB8F1000F31D0B8F1010F11
:100660001CD0B8F1020F49D120E0B8F1110F18D019
:10067000B8F1120F42D11EE0B9F5881F25D006DC73
:10068000B9F5803F20D0B9F5801F37D11AE0B9F510
:10069000001F18D0B9F5041F30D117E0D1F80CC0F5
:1006A0002DE0D1F80C8008F1040C28E0D1F80C8082
:1006B00008F1080C23E0D1F80C8008F10C0C1EE0C6
:1006C00000BF00BF00BF00BF00BF00BFD1F808805F
:1006D000B8F1000F02D14FF0040C0BE0D1F8088004
:1006E000B8F1010F03D14FF0080C146102E04FF094
:1006F000080C546103E04FF0000C00E000BF00BFA5
:10070000FF2801D8904601E002F104084646FF2880
:1007100002D84FEA830803E0A3F108084FEA8808EB
:100720004746D6F800804FF00F0909FA07F928EA82
:1007300009080CFA07F900E07AE048EA0908C6F867
:100740000080D1F8048008F08058B8F1805F6FD144
:1007500000BFDFF8E481D8F8188048F00108DFF81E
:10076000D891C9F81880C846D8F8188008F0010850
:10077000CDF8008000BF00BF4FEAB9384FEA9309B7
:1007800058F829504FEA83784FEA18794FF00F084C
:1007900008FA09F825EA0805DFF8A081424502D1E8
:1007A0004FF0000824E0DFF89881424502D14FF075
:1007B00001081DE0DFF88C81424502D14FF00208AC
:1007C00016E0DFF88481424502D14FF003080FE0C4
:1007D000DFF87881424502D14FF0040808E0DFF8E5
:1007E0007081424502D14FF0050801E04FF0060844
:1007F0004FEA83794FEA197908FA09F848EA0505BA
:10080000DFF850814FEA930948F82950D1F8048065
:1008100008F48038B8F5803F0BD1DFF83C81D8F878
:10082000008048EA0008DFF83091C9F800800AE04B
:1008300075E0DFF82481D8F8008028EA0008DFF8A6
:100840001891C9F80080D1F8048008F40038B8F590
:10085000003F0ED1DFF8008108F10408D8F80080CD
:1008600048EA0008DFF8F09009F10409C9F80080AF
:100870000DE0DFF8E48008F10408D8F8008028EAE9
:100880000008DFF8D49009F10409C9F80080D1F814
:10089000048008F48018B8F5801F0ED1DFF8B88006
:1008A00008F10808D8F8008048EA0008DFF8A890A6
:1008B00009F10809C9F800800DE0DFF89C8008F113
:1008C0000808D8F8008028EA0008DFF88C9009F1C1
:1008D0000809C9F80080D1F8048008F40018B8F5B8
:1008E000001F0ED1DFF8708008F10C08D8F80080E6
:1008F00048EA0008DFF8609009F10C09C9F80080A7
:100900000DE0DFF8548008F10C08D8F8008028EAE0
:100910000008DFF8449009F10C09C9F800805B1C5D
:10092000D1F8008028FA03F8B8F1000F7FF47CAE0C
:10093000BDE8F887000011100010024000080140D7
:10094000000C01400010014000140140001801405B
:10095000001C014008000140000401400246936869
:100960000B400BB1012000E0002070470AB101618B
:1009700001E00B0403617047014800687047000004
:10098000040000200348006803490978084401492D
:1009900008607047040000200C00002010B50848D3
:1009A000006840F0100006490860052000F080F85B
:1009B0000F2000F007F800F02BF8002010BD000019
:1009C0000020024070B504460E4800784FF47A715A
:1009D000B1FBF0F00C490968B1FBF0F5284600F0D6
:1009E000ECFD08B1012070BD102C07D20022214679
:1009F000501E00F01EF80548046001E00120F2E7F7
:100A00000020F0E70C00002000000020080000207B
:100A1000704701460846002809DB00F01F03012249
:100A20009A4043099B0003F1E023C3F8002100BF73
:100A300070472DE9F05F80460D461646002705F009
:100A4000F1F8074639462A46334601F00700C0F15F
:100A5000070ABAF1040F02D94FF0040A01E0C0F10D
:100A6000070AD14600F1040ABAF1070F02D24FF08B
:100A7000000A01E0A0F1030AD4464FF0010A0AFA85
:100A800009FAAAF1010A0AEA020A0AFA0CFA4FF074
:100A9000010B0BFA0CFBABF1010B0BEA030B4AEA5F
:100AA0000B042146404605F0C5F8BDE8F09F000064
:100AB00000BF00F00702064B19684FF6FF0319400C
:100AC000044B0B4343EA0221014B196000BF7047FE
:100AD0000CED00E00000FA0570B504460D460CB9B7
:100AE000012070BD5A48006800F00700A8420ED2ED
:100AF0005748006820F00700284355490860084619
:100B0000006800F00700A84201D00120E9E7207842
:100B100000F0020002281DD1207800F00400042813
:100B200005D14C48406840F4E0604A49486020786C
:100B300000F00800082805D14648406840F460509D
:100B4000444948604348406820F0F000A1680843E9
:100B500040494860207800F0010078B360680128BF
:100B600006D13C48006800F4003090B90120B8E795
:100B70006068022806D13748006800F0007040B96C
:100B80000120AEE73348006800F0020008B90120F8
:100B9000A7E73048406820F00300616808432D490A
:100BA0004860FFF7E9FE064609E0FFF7E5FE801B17
:100BB00041F28831884202D9032092E707E02548B4
:100BC000406800F00C006168B0EB810FEDD1204867
:100BD000006800F00700A8420ED91D48006820F008
:100BE000070028431A4908600846006800F007001B
:100BF000A84201D0012074E7207800F00400042806
:100C000007D11448406820F4E060E16808431149C6
:100C10004860207800F00800082808D10D48406896
:100C200020F46050216940EAC1000A49486000F0A0
:100C30003FF808494968C1F30311074A515CC840AD
:100C40000649086006480068FFF7BCFE002048E738
:100C500000200240001002401C6300080000002039
:100C600008000020014800687047000000000020D4
:100C700000B5FFF7F7FF04494968C1F30221034AB1
:100C8000515CC84000BD0000001002402C63000809
:100C900000B5FFF7E7FF04494968C1F3C221034AE1
:100CA000515CC84000BD0000001002402C630008E9
:100CB000F0B585B00FF26C0C9CE8E01001A8A0E83C
:100CC000E0101CA52D6800950021002200230024BF
:100CD0000020194D696801F00C05F5B1042D02D012
:100CE000082D19D101E0154819E001ADC1F3834683
:100CF000AC5D01F4803555B10F4D6D68C5F34045CD
:100D00001DF805200D4D6543B5FBF2F302E00C4DD7
:100D100004FB05F3184602E000BF084800BF00BF0F
:100D200005B0F0BD02030405060708090A0B0C0D07
:100D30000E0F1010010200000010024000127A0095
:100D400000093D00F8B504460CB90120F8BD207833
:100D500000F00100002878D0F848406800F00C004E
:100D600004280CD0F548406800F00C00082811D188
:100D7000F248406800F48030B0F5803F0AD1EF4877
:100D8000006800F4003000285FD0606800285CD163
:100D90000120DBE700BF6068B0F5803F06D1E7487F
:100DA000006840F48030E549086028E0606858B980
:100DB000E248006820F48030E04908600846006896
:100DC00020F4802008601AE06068B0F5A02F0BD1F5
:100DD000DA48006840F48020D84908600846006876
:100DE00040F4803008600AE0D448006820F4803085
:100DF000D24908600846006820F48020086000BFDF
:100E0000606888B1FFF7B8FD054606E0FFF7B4FD5E
:100E1000401B642801D9032098E7C848006800F403
:100E200000300028F2D010E0FFF7A6FD054606E0EE
:100E3000FFF7A2FD401B642801D9032086E7BF48C5
:100E4000006800F400300028F2D1207800F00200A1
:100E5000022857D1B948406800F00C0050B1B7489B
:100E6000406800F00C00082818D1B448406800F42D
:100E7000803098B9B148006800F0020020B12069C4
:100E8000012801D0012061E7AC48006820F0F8009B
:100E9000616940EAC100A949086033E02069E8B10E
:100EA0000120A7490860FFF767FD054606E0FFF748
:100EB00063FD401B022801D9032047E79F480068D3
:100EC00000F002000028F2D09C48006820F0F800F2
:100ED000616940EAC1009949086013E0002098491F
:100EE0000860FFF749FD054606E0FFF745FD401B9A
:100EF000022801D9032029E79048006800F0020089
:100F00000028F2D1207800F0080008282DD1A0692F
:100F1000B8B101208B490860FFF72EFD054606E0B9
:100F2000FFF72AFD401B022801D903200EE7834862
:100F3000406A00F002000028F2D0012004F092FB89
:100F400013E000207F490860FFF716FD054606E024
:100F5000FFF712FD401B022801D90320F6E677486F
:100F6000406A00F002000028F2D1207800F004006E
:100F7000042873D100277148C06900F0805070B90F
:100F800000BF6E48C06940F080506C49C861084697
:100F9000C06900F08050009000BF00BF01276A4880
:100FA000006800F48070B0B96748006840F4807051
:100FB00065490860FFF7E0FC054606E0FFF7DCFC4A
:100FC000401B642801D90320C0E65F48006800F494
:100FD00080700028F2D000BFE068012806D1574891
:100FE000006A40F001005549086227E0E06858B9FE
:100FF0005248006A20F00100504908620846006A21
:1010000020F00400086219E0E06805280BD14B4885
:10101000006A40F00400494908620846006A40F04E
:10102000010008620AE04548006A20F001004349D7
:1010300008620846006A20F00400086200BFE06809
:10104000A0B1FFF799FC054609E0FFF795FC401BAE
:1010500041F28831884202D9032077E622E03748FE
:10106000006A00F002000028EFD012E0FFF784FCD5
:10107000054608E0FFF780FC401B41F288318842BA
:1010800001D9032062E62D48006A00F00200002822
:10109000F0D1012F05D12948C06920F0805027499F
:1010A000C86100BFE069C8B32448406800F00C0084
:1010B000082860D0E069022848D10020204908664D
:1010C000FFF75AFC054606E0FFF756FC401B0228D6
:1010D00001D903203AE61948006800F000700028A2
:1010E000F2D1206AB0F5803F07D11448406820F45F
:1010F0000030A168084311494860D4E90801084359
:101100000E49496821F4741108430C4948600120D4
:101110000B490866FFF730FC054607E03DE0FFF7A6
:101120002BFC401B022801D903200FE6034800686E
:1011300000F000700028F2D02FE000000010024004
:1011400000004242800442420070004000201449E6
:101150000866FFF711FC054606E0FFF70DFC401B93
:10116000022801D90320F1E50E48006800F0007064
:101170000028F2D111E0E069012800D1E6E5094834
:10118000466806F48031206A814204D106F4701169
:10119000606A814201D00120D8E50020D6E5000038
:1011A000000042420010024010B504460CB9012074
:1011B00010BD606A00B900BFA06AB0F5005F00D141
:1011C00000BF94F8510028B9002084F85000204650
:1011D00000F038F8022084F851002068006820F000
:1011E000400021680860D4E901010843E168084330
:1011F0002169084361690843218B01F400710843A8
:10120000E1690843216A0843A16A0843216808602C
:101210000421A06901EA104021684860A06AB0F585
:10122000005F02D12168E06A08612068C06920F48B
:1012300000602168C86100206065012084F85100C9
:101240000020B5E710B586B0044600BF134880699A
:1012500040F00400114988610846806900F00400EC
:10126000019000BF00BF00BF0846806940F4805075
:1012700088610846806900F48050019000BF00BF7B
:10128000E0200290022003900120049003200590AA
:1012900002A90348FFF7C2F906B010BD00100240D2
:1012A000000801402DE9FF5F0446884691461D462F
:1012B0000E9E012002900020019000BF94F8500083
:1012C000012803D1022004B0BDE8F09F012084F87A
:1012D000500000BFFFF750FB074694F851B060681C
:1012E0000390AA46BBF1010F0BD00398B0F5827FA3
:1012F00004D1A06810B9BBF1040F02D00220019004
:101300003DE1B8F1000F03D0B9F1000F00D015B9DD
:101310000120019033E194F85100042802D0052007
:1013200084F8510000206065C4F83890E587A587EF
:10133000C4F83080E586A58620646064A06AB0F5B4
:10134000005F0DD100BF2068006820F400502168C4
:1013500008602068006840F400502168086000BF01
:101360002068006800F04000402805D02068006830
:1013700040F0400021680860E068B0F5006F56D189
:10138000606810B1BAF1010F09D1206B00882168A3
:10139000C860206B801C2063E08E401EE0863FE02A
:1013A0002068806800F0020002281CD1E08ED0B1D5
:1013B0000298012817D1206B00882168C860206B33
:1013C000801C2063E08E401EE08600200290E08EAC
:1013D00048B9A06AB0F5005F05D12068006840F404
:1013E0008050216808602068806800F0010068B1C2
:1013F000E08F58B12068C068A16B0880A06B801C8A
:10140000A063E08F401EE08701200290FFF7B4FA4E
:10141000C01BB04204D3701C10B103200190AEE099
:10142000E08E0028BCD1E08F0028B9D156E060687A
:1014300010B1BAF1010F09D1206B0078216808734F
:10144000206B401C2063E08E401EE08640E0206858
:10145000806800F0020002281CD1E08ED0B1029812
:10146000012817D1206B007821680873206B401C7D
:101470002063E08E401EE08600200290E08E48B996
:10148000A06AB0F5005F05D12068006840F4805084
:10149000216808602068806800F0010068B1E08F72
:1014A00058B12068C068A16B0870A06B401CA06395
:1014B000E08F401EE08701200290FFF75DFAC01B1D
:1014C000B04201D3701C00B916B90320019056E058
:1014D000E08E0028BBD1E08F0028B8D1A06AB0F51B
:1014E000005F10D13346012211462046009704F0D8
:1014F00044F930B1606D40F0020060650320019056
:101500003DE02068C06820688068C0F30010E8B142
:10151000204604F02FF9012814D1606D40F002003C
:10152000606500BF2068006820F4005021680860F2
:101530002068006840F400502168086000BF012066
:10154000019003E04FF6EF70216888603A4631461B
:10155000204604F0FBF820B10120019020206065B6
:101560000DE0A06850B900BF002000902068C0685E
:10157000009020688068009000BF00BF00BF01207D
:1015800084F8510000BF002084F8500000BF01988B
:1015900099E6042808D14FF0E021096941F00401DF
:1015A0004FF0E022116107E04FF0E021096921F0DE
:1015B00004014FF0E0221161704770B504462546E2
:1015C000681EB0F1807F01D301200FE0681E4FF04C
:1015D000E02148610F214FF0FF3004F02BFB002089
:1015E0004FF0E021886107200861002070BD70473E
:1015F00001460022002391F8392091F83A3042EA5E
:10160000030070472DE9F04704462068056820680C
:10161000C668206847694FF00008C14605F00F080A
:10162000B8F1000F0AD105F0200038B106F0200013
:1016300020B1204604F07CF9BDE8F087B8F1000F36
:101640006DD007F0010018B906F49070002866D03C
:1016500005F0010030B106F4807018B1E06B40F085
:101660000100E06305F0040030B107F0010018B19B
:10167000E06B40F00200E06305F0020030B107F0DB
:10168000010018B1E06B40F00400E06305F00800D1
:1016900030B107F0010018B1E06B40F00800E063E2
:1016A000E06B68B305F0200028B106F0200010B10F
:1016B000204604F03DF920684069C0F38019E06BD2
:1016C00000F0080010B9B9F1000F22D0204604F054
:1016D0000FF92068406900F04000B0B1206840690F
:1016E00020F0400021684861606B50B11748616B81
:1016F0004863606BFEF7BEFE10B1606B416B8847BC
:101700000CE02046FFF773FF08E02046FFF76FFF6D
:1017100004E02046FFF76BFF0020E0638CE705F054
:10172000800030B106F0800018B1204604F024FAA1
:1017300082E705F0400030B106F0400018B12046C5
:1017400004F0E6F878E700BF76E70000DD5800080F
:1017500010B504460CB9012010BDA06900B100E02D
:1017600000BF94F8390028B9002084F838002046DA
:1017700000F028F8242084F839002068C06820F49C
:1017800000502168C860204604F026F920680069EE
:1017900020F49040216808612068406920F02A0008
:1017A000216848612068C06840F400502168C86022
:1017B0000020E063202084F8390084F83A000020FB
:1017C000CAE7000010B586B0044625492068884263
:1017D00044D100BF2348806940F00400214988615A
:1017E0000846806900F00400019000BF00BF00BF00
:1017F0000846806940F4804088610846806900F4AA
:101800008040019000BF00BF00BF0846806940F0E3
:10181000010088610846806900F00100019000BF66
:1018200000BF48150290022003900120049003207D
:10183000059002A90C48FEF7F1FE4FF4806002907B
:101840000020039002A90848FEF7E8FE2520FFF7D4
:10185000E0F8032211462520FFF7EBF806B010BD93
:1018600000380140001002400008014010B5034656
:1018700093F83A0020282FD101B10AB9012010BDF8
:1018800000BF93F83800012801D10220F7E70120BA
:1018900083F8380000BF99629A85DA850020D86302
:1018A000222083F83A0000BF002083F8380000BFF0
:1018B0001868C06840F480701C68E060186840696F
:1018C00040F001001C6860611868C06840F02000AA
:1018D0001C68E0600020D2E70220D0E71D4A0168C2
:1018E000914236D11C49098801F4004189BB1A494B
:1018F000098801F4804171B1184909780A2903D097
:101900000021154A118024E01349098841F400415F
:10191000114A11801DE0114909780D2906D10E499F
:10192000098841F480410C4A118012E00B49097882
:10193000094A1288C2F30D02094B995406490988D5
:10194000491C054A118011460988C72901DD00217B
:101950001180704700380140180000201A00002054
:1019600024000020704700BFFEE7000000B585B0EE
:1019700000BF1C48806940F004001A49886108468D
:10198000806900F00400009000BF00BF00BF08465F
:10199000806940F0100088610846806900F01000FE
:1019A000009000BF00BF01200190002002900220A3
:1019B00003900320049001A90B48FEF72FFE4FF47B
:1019C000004001900120039001A90748FEF726FE80
:1019D000202001900120039001A90448FEF71EFE7B
:1019E00005B000BD00100240000801400010014099
:1019F00010B50446012C01D1244908702348007811
:101A000068B320212248FEF7A9FF58B14FF40041E6
:101A10002048FEF7A3FF28B101211E48FEF79EFFD4
:101A200001281CD10A2004F025F90020174908706C
:101A300020211748FEF792FF08B9012010BD4FF48E
:101A400000411448FEF78AFF08B90220F6E7012199
:101A50001048FEF783FF012815D10320EEE720216F
:101A60000B48FEF77BFF01280DD1C1030948FEF7A3
:101A700075FF012807D101210648FEF76FFF10B955
:101A80000120024908700020D8E700002000002053
:101A9000001001400008014070B5044600260E48C1
:101AA0000588408845430021084603F05BF903F0B0
:101AB000B3FB00BF0DE04FF480700849086140009F
:101AC000486107480460802048610861800008611F
:101AD000761CAE42EFD370BD2C01002000100140F7
:101AE0000C0C014010B5044649488471002C45D1C6
:101AF000F020474908804FF4A0704880084680884D
:101B000045F21051884210D14FF4305040490881BD
:101B10004FF4285048814FF42C5088814FF4F070D6
:101B200008804FF4487048801AE03948808841F6B0
:101B3000631188420DD12C20354908812B20488122
:101B40002A2088814FF4F07008804FF44870488054
:101B500006E02C202E4908812A2048812B208881EC
:101B60002B48808845F2103188424CD14FF4A07048
:101B7000274908804FF4F070488044E04FF4A0708B
:101B800023490880F02048800846808845F210519B
:101B9000884210D14FF430501D4908814FF428502D
:101BA00048814FF42C5088814FF4487008804FF4DE
:101BB000F07048801AE01648808841F66311884228
:101BC0000DD12C20124908812A2048812B208881A0
:101BD0004FF4487008804FF4F070488006E02C20E5
:101BE0000B4908812A2048812B2088810848808859
:101BF00045F21031884206D14FF4F0700449088054
:101C00004FF4A0704880002002F0DCFE10BD000000
:101C10002C01002030B503460C4615469B488088B1
:101C200045F21051884250D19849488903F0E2FAB0
:101C30004FF4807096490861400048611812954938
:101C400008608020924948610861800008618F49DE
:101C50004989491C88B203F0CDFA4FF480708C4951
:101C6000086140004861D8B28A49086080208849EC
:101C700048610861800008618449888903F0BAFAE4
:101C80004FF4807082490861400048612012814908
:101C9000086080207E4948610861800008617B49B6
:101CA0008989491C88B203F0A5FA4FF480707849FD
:101CB000086140004861E0B27649086080207449BC
:101CC0004861086180000861C3E07048808841F67F
:101CD000631188427DD16D48807920B96B480088B6
:101CE000401EC01A83B26949488903F083FA4FF451
:101CF00080706749086140004861181265490860B2
:101D000080206349486108618000086140100861D3
:101D100040004861D8B25F49086080205C49486152
:101D20000861800008614010086140004861181295
:101D30005849086080205649486108618000086160
:101D40004010086140004861D8B2524908608020C4
:101D50004F4948610861800008614C49888903F057
:101D600049FA4FF480704A490861400048612012E6
:101D70004849086080204649486108618000086140
:101D80004010086140004861E0B24249086080208C
:101D90003F494861086180000861401008614000C7
:101DA000486120123B490860802039494861086138
:101DB000800008614010086140004861E0B2354988
:101DC000086080203249486108618000086140E075
:101DD000FFE72E49488903F00DFA4FF480702C4933
:101DE00008614000486118122A490860802028498B
:101DF0004861086180000861401008614000486146
:101E0000D8B22449086080202149486108618000D7
:101E100008611E49888903F0EDF94FF480701C4970
:101E200008614000486120121A4908608020184962
:101E30004861086180000861401008614000486105
:101E4000E0B21449086080201149486108618000AF
:101E500008614FF480700E494861400048610B48AA
:101E600000890C49086080200949486108618000A8
:101E70000861401008614000486106480560802004
:101E8000486108618000086130BD00002C0100201D
:101E9000001001400C0C01402DE9F04F05460E46A4
:101EA00017469846DDF824A04FF0000B781B401C25
:101EB0001FFA80FB34461EE02146284602F052FFFE
:101EC00003F0AAF94FF0000911E04FF480700C49BB
:101ED0000861400048610B48C0F800A080204861BC
:101EE00008618000086109F101001FFA80F9D945F5
:101EF000EBDB601C84B24445DEDDBDE8F08F000002
:101F0000001001400C0C014000B585B000BFFE4838
:101F1000806940F00800FC4988610846806900F04B
:101F20000800009000BF00BF00BF0846806940F075
:101F3000100088610846806900F01000009000BF22
:101F400000BF4FF4F860019001200290039003203D
:101F5000049001A9ED48FEF761FB4FF6FF70019078
:101F600001A9EB48FEF75AFB00BFEA49486820F098
:101F7000E06040F08060486000BF322003F07AFEED
:101F80000121002003F050F9322003F073FED3202A
:101F900003F030F902F07CFCDF49888002F078FC25
:101FA000DD49888002F074FCDB498880084680881F
:101FB0004FF6FF7101EA0020D749888002F068FCE3
:101FC000D54989880843D44988800846808849F2E1
:101FD000413188427DD0042003F00CF902F058FC16
:101FE000CD49888002F054FCCB49888002F050FC37
:101FF000C9498880084680884FF6FF7101EA0020B1
:10200000C549888002F044FCC34989880843C24915
:1020100088800846808848F25251884203D147F2AE
:102020008970BD498880BC48808847F289718842A0
:10203000D0D0D42003F0DEF802F02AFCB649888024
:1020400002F026FCB449888002F022FCB249888064
:10205000084680884FF6FF7101EA0020AE4988806B
:1020600002F016FCAC4989880843AB4988800846D1
:10207000808845F21031884262D055214FF470407B
:1020800003F0D2F8AA214FF2010003F0CDF852215B
:102090004FF2020003F0C8F808214FF2030003F0EA
:1020A000C3F801214FF2040003F0BEF84FF445409D
:1020B00003F0A0F802F0ECFB97498880084680887E
:1020C0004FF6FF7101EA0020934988804CF20150DD
:1020D00000E035E003F08EF802F0DAFB8E498988E3
:1020E00008438D498880052003F0C4FD8A48808814
:1020F00045F21051884223D0A12003F07BF802F072
:10210000C7FB8549888002F0C3FB83498880084665
:1021100080884FF6FF7101EA00207F49888002F035
:10212000B7FB7D49898808437B49888008468088B9
:1021300045F26171884203D141F663107649888087
:102140007548818875A0FEF767F87348808849F262
:10215000413188427ED1CF2003F04CF8002003F0BB
:1021600037F8C12003F034F8302003F031F8ED20C7
:1021700003F040F8642003F02BF8032003F028F864
:10218000122003F025F8812003F022F8E82003F064
:1021900031F8852003F01CF8102003F019F87A209C
:1021A00003F016F8CB2003F025F8392003F010F8DF
:1021B0002C2003F00DF8002003F00AF8342003F07F
:1021C00007F8022003F004F8F72003F013F82020AA
:1021D00002F0FEFFEA2003F00DF8002002F0F8FF05
:1021E000002002F0F5FFC02003F004F81B2002F0ED
:1021F000EFFFC12002F0FEFF012002F0E9FFC52041
:1022000002F0F8FF302002F0E3FF302002F0E0FFA0
:10221000C72002F0EFFFB72002F0DAFF362002F00D
:10222000E9FF482002F0D4FF3A2002F0E3FF5520F6
:1022300002F0CEFFB12002F0DDFF002002F0C8FF67
:102240001A2002F0C5FFB62002F0D4FF0A2002F0E7
:10225000BFFF00E0AAE0A22002F0BAFFF22002F0E5
:10226000C9FF002002F0B4FF262002F0C3FF0120C6
:1022700002F0AEFFE02002F0BDFF0F2002F0A8FF49
:102280002A2002F0A5FF282002F0A2FF082002F079
:102290009FFF0E2002F09CFF082002F099FF5420BF
:1022A00002F096FFA92002F093FF432002F090FF76
:1022B0000A2002F08DFF0F2002F08AFF002002F0BA
:1022C00087FF002002F084FF002002F081FF002041
:1022D00002F07EFFE12002F08DFF002002F078FF87
:1022E000152002F075FF172002F072FF072002F0A0
:1022F0006FFF112002F06CFF062002F069FF2B2017
:1023000002F066FF562011E000100240001001406C
:10231000000C0140000001402C010020204C4344EF
:102320002049443A25780D0A0000000002F050FFD1
:102330003C2002F04DFF052002F04AFF102002F081
:1023400047FF0F2002F044FF3F2002F041FF3F20F3
:1023500002F03EFF0F2002F03BFF2B2002F04AFF6D
:10236000002002F035FF002002F032FF012002F0D1
:102370002FFF3F2002F02CFF2A2002F03BFF00201D
:1023800002F026FF002002F023FF002002F020FFD1
:10239000EF2002F01DFF112002F02CFF782003F047
:1023A00069FC292002F026FF02F05FBAFE4880880F
:1023B00047F2897188427CD1112002F01BFF7820FE
:1023C00003F058FC362002F015FF002002F000FF59
:1023D0003A2002F00FFF052002F0FAFEB22002F0D0
:1023E00009FF0C2002F0F4FE0C2002F0F1FE0020A8
:1023F00002F0EEFE332002F0EBFE332002F0E8FEA6
:10240000B72002F0F7FE352002F0E2FEBB2002F01A
:10241000F1FE322002F0DCFEC02002F0EBFE0C20C8
:1024200002F0D6FEC22002F0E5FE012002F0D0FE4E
:10243000C32002F0DFFE102002F0CAFEC42002F02A
:10244000D9FE202002F0C4FEC62002F0D3FE0F20E9
:1024500002F0BEFED02002F0CDFEA42002F0B8FEB5
:10246000A12002F0B5FEE02002F0C4FED02002F070
:10247000AFFE002002F0ACFE022002F0A9FE072011
:1024800002F0A6FE0A2002F0A3FE282002F0A0FE21
:10249000322002F09DFE442002F09AFE422002F01B
:1024A00097FE062002F094FE0E2002F091FE12200C
:1024B00000E056E002F08CFE142002F089FE1720A6
:1024C00002F086FEE12002F095FED02002F080FEB0
:1024D000002002F07DFE022002F07AFE072002F0CA
:1024E00077FE0A2002F074FE282002F071FE3120EF
:1024F00002F06EFE542002F06BFE472002F068FEF0
:102500000E2002F065FE1C2002F062FE172002F091
:102510005FFE1B2002F05CFE1E2002F059FE2A2006
:1025200002F068FE002002F053FE002002F050FE90
:10253000002002F04DFEEF2002F04AFE2B2002F0B8
:1025400059FE002002F044FE002002F041FE01206E
:1025500002F03EFE3F2002F03BFE292002F04AFE40
:1025600022E79148808845F21031884240F07C870C
:10257000ED2002F03FFE012002F02AFEFE2002F0D4
:1025800027FEEE2002F036FEDE2002F021FE2120A2
:1025900002F01EFEF12002F02DFE012002F018FED6
:1025A000DF2002F027FE102002F012FEC42002F00D
:1025B00021FE8F2002F00CFEC62002F01BFE002040
:1025C00002F006FEE22002F003FEE22002F000FE2E
:1025D000E22002F0FDFDBF2002F00CFEAA2002F076
:1025E000F7FDB02002F006FE0D2002F0F1FD002004
:1025F00002F0EEFD0D2002F0EBFD002002F0E8FD00
:10260000112002F0E5FD002002F0E2FD192002F0A9
:10261000DFFD002002F0DCFD212002F0D9FD0020CA
:1026200002F0D6FD2D2002F0D3FD002002F0D0FDF7
:102630003D2002F0CDFD002002F0CAFD5D2002F039
:10264000C7FD002002F0C4FD5D2002F0C1FD0020A6
:1026500002F0BEFDB12002F0CDFD802002F0B8FDF9
:10266000002002F0B5FD8B2002F0B2FD002002F048
:10267000AFFD962002F0ACFD002002F0A9FDB220D3
:1026800002F0B8FD002002F0A3FD002002F0A0FD42
:10269000022002F09DFD002002F09AFD032002F0CE
:1026A00097FD002002F094FDB32002F0A3FD00206E
:1026B00002F08EFD002002F08BFD002002F088FD6C
:1026C000002002F085FD002002F082FD002002F0D3
:1026D0007FFD002002F07CFD002002F079FD00204B
:1026E00002F076FD002002F073FD002002F070FD84
:1026F000002002F06DFD002002F06AFD002002F0D3
:1027000067FD002002F064FD002002F061FD002062
:1027100002F05EFD002002F05BFD002002F058FD9B
:10272000002002F055FD002002F052FD002002F0D2
:102730004FFD002002F04CFD002002F049FDB420C6
:1027400002F058FD8B2002F043FD002002F040FD16
:10275000962002F03DFD002002F03AFDA12002F09B
:1027600037FD002002F034FDB52002F043FD0220C9
:1027700002F02EFD002002F02BFD032002F028FDC8
:10278000002002F025FD042002F022FD002002F0CE
:102790001FFDB62002F02EFD002002F019FD0020E2
:1027A00002F016FDB72001E02C01002002F022FD0E
:1027B000002002F00DFD002002F00AFD3F2002F093
:1027C00007FD002002F004FD5E2002F001FD002064
:1027D00002F0FEFC642002F0FBFC002002F0F8FC9A
:1027E0008C2002F0F5FC002002F0F2FCAC2002F09C
:1027F000EFFC002002F0ECFCDC2002F0E9FC002001
:1028000002F0E6FC702002F0E3FC002002F0E0FCA5
:10281000902002F0DDFC002002F0DAFCEB2002F058
:10282000D7FC002002F0D4FCDC2002F0D1FC002018
:1028300002F0CEFCB82002F0DDFC002002F0C8FC63
:10284000002002F0C5FC002002F0C2FC002002F0D3
:10285000BFFC002002F0BCFC002002F0B9FC00200C
:1028600002F0B6FC002002F0B3FCBA2002F0C2FC79
:10287000242002F0ADFC002002F0AAFC002002F0AF
:10288000A7FC002002F0A4FCC12002F0B3FC202031
:1028900002F09EFC002002F09BFC542002F098FC09
:1028A000002002F095FCFF2002F092FC002002F0D4
:1028B0008FFCC22002F09EFC0A2002F089FC00205E
:1028C00002F086FC042002F083FC002002F080FC71
:1028D000C32002F08FFC3C2002F07AFC002002F0C2
:1028E00077FC3A2002F074FC002002F071FC3920E1
:1028F00002F06EFC002002F06BFC372002F068FC56
:10290000002002F065FC3C2002F062FC002002F096
:102910005FFC362002F05CFC002002F059FC322003
:1029200002F056FC002002F053FC2F2002F050FC75
:10293000002002F04DFC2C2002F04AFC002002F0A6
:1029400047FC292002F044FC002002F041FC262034
:1029500002F03EFC002002F03BFC242002F038FC98
:10296000002002F035FC242002F032FC002002F0AE
:102970002FFC232002F02CFC002002F029FC3C203C
:1029800002F026FC002002F023FC362002F020FC9E
:10299000002002F01DFC322002F01AFC002002F0A0
:1029A00017FC2F2002F014FC002002F011FC2C2058
:1029B00002F00EFC002002F00BFC292002F008FCC3
:1029C000002002F005FC262002F002FC002002F0AC
:1029D000FFFB242002F0FCFB002002F0F9FB242086
:1029E00002F0F6FB002002F0F3FB232002F0F0FBE4
:1029F000002002F0EDFBC42002F0FCFB622002F09C
:102A0000E7FB002002F0E4FB052002F0E1FB0020E0
:102A100002F0DEFB842002F0DBFB002002F0D8FB9A
:102A2000F02002F0D5FB002002F0D2FB182002F0CB
:102A3000CFFB002002F0CCFBA42002F0C9FB002059
:102A400002F0C6FB182002F0C3FB002002F0C0FB1E
:102A5000502002F0BDFB002002F0BAFB0C2002F077
:102A6000B7FB002002F0B4FB172002F0B1FB0020FE
:102A700002F0AEFB952002F0ABFB002002F0A8FBB9
:102A8000F32002F0A5FB002002F0A2FBE62002F0FA
:102A90009FFB002002F09CFBC52002F0ABFB322024
:102AA00002F096FB002002F093FB442002F090FB22
:102AB000002002F08DFB652002F08AFB002002F06E
:102AC00087FB762002F084FB002002F081FB882047
:102AD00002F07EFB002002F07BFBC62002F08AFBA6
:102AE000202002F075FB002002F072FB172002F09C
:102AF0006FFB002002F06CFB012002F069FB00205C
:102B000002F066FBC72002F075FB002002F060FBBC
:102B1000002002F05DFB002002F05AFB002002F0D2
:102B200057FBC82002F066FB002002F051FB00209A
:102B300002F04EFB002002F04BFB002002F048FBAD
:102B4000C92002F057FB002002F042FB002002F0F7
:102B50003FFB002002F03CFB002002F039FB00208C
:102B600002F036FB002002F033FB002002F030FBC5
:102B7000002002F02DFB002002F02AFB002002F0D2
:102B800027FB002002F024FB002002F021FB0020A4
:102B900002F01EFB002002F01BFB002002F018FBDD
:102BA000002002F015FBE02002F024FB162002F0CA
:102BB0000FFB002002F00CFB1C2002F009FB0020A0
:102BC00002F006FB212002F003FB002002F000FBD4
:102BD000362002F0FDFA002002F0FAFA462002F058
:102BE000F7FA002002F0F4FA522002F0F1FA002085
:102BF00002F0EEFA642002F0EBFA002002F0E8FAAC
:102C00007A2002F0E5FA002002F0E2FA8B2002F0CE
:102C1000DFFA002002F0DCFA992002F0D9FA002055
:102C200002F0D6FAA82002F0D3FA002002F0D0FA7F
:102C3000B92002F0CDFA002002F0CAFAC42002F056
:102C4000C7FA002002F0C4FACA2002F0C1FA00203C
:102C500002F0BEFAD22002F0BBFA002002F0B8FA6D
:102C6000D92002F0B5FA002002F0B2FAE02002F01A
:102C7000AFFA002002F0ACFAF32002F0A9FA00202B
:102C800002F0A6FAE12002F0B5FA162002F0A0FA4E
:102C9000002002F09DFA1C2002F09AFA002002F0B7
:102CA00097FA222002F094FA002002F091FA3620DE
:102CB00002F08EFA002002F08BFA452002F088FA2A
:102CC000002002F085FA522002F082FA002002F081
:102CD0007FFA642002F07CFA002002F079FA7A2070
:102CE00002F076FA002002F073FA8B2002F070FAFC
:102CF000002002F06DFA992002F06AFA002002F03A
:102D000067FAA82002F064FA002002F061FAB92004
:102D100002F05EFA002002F05BFAC42002F058FADA
:102D2000002002F055FACA2002F052FA002002F008
:102D30004FFAD22002F04CFA002002F049FAD820D3
:102D400002F046FA002002F043FAE02002F040FAD6
:102D5000002002F03DFAF32002F03AFA002002F0DF
:102D600037FAE22002F046FA052002F031FA00209C
:102D700002F02EFA0B2002F02BFA002002F028FAC3
:102D80001B2002F025FA002002F022FA342002F083
:102D90001FFA002002F01CFA442002F019FA002069
:102DA00002F016FA4F2002F013FA002002F010FA97
:102DB000612002F00DFA002002F00AFA792002F0F8
:102DC00007FA002002F004FA882002F001FA00203D
:102DD00002F0FEF9972002F0FBF9002002F0F8F96A
:102DE000A62002F0F5F9002002F0F2F9B72002F077
:102DF000EFF9002002F0ECF9C22002F0E9F900201E
:102E000002F0E6F9C72002F0E3F9002002F0E0F951
:102E1000D12002F0DDF9002002F0DAF9D62002F02C
:102E2000D7F9002002F0D4F9DD2002F0D1F900201A
:102E300002F0CEF9F32002F0CBF9002002F0C8F93D
:102E4000E32002F0D7F9052002F0C2F9002002F0D9
:102E5000BFF90A2002F0BCF9002002F0B9F91C20E9
:102E600002F0B6F9002002F0B3F9332002F0B0F915
:102E7000002002F0ADF9442002F0AAF9002002F08F
:102E8000A7F9502002F0A4F9002002F0A1F9622075
:102E900002F09EF9002002F09BF9782002F098F9E8
:102EA000002002F095F9882002F092F9002002F04B
:102EB0008FF9972002F08CF9002002F089F9A62002
:102EC00002F086F9002002F083F9B72002F080F9C1
:102ED000002002F07DF9C22002F07AF9002002F011
:102EE00077F9C72002F074F9002002F071F9D120BF
:102EF00002F06EF9002002F06BF9D52002F068F9BB
:102F0000002002F065F9DD2002F062F9002002F0F5
:102F10005FF9F32002F05CF9002002F059F9E42097
:102F200002F068F9012002F053F9002002F050F994
:102F3000012002F04DF9002002F04AF9022002F0CF
:102F400047F9002002F044F92A2002F041F900205C
:102F500002F03EF93C2002F03BF9002002F038F983
:102F60004B2002F035F9002002F032F95D2002F02A
:102F70002FF9002002F02CF9742002F029F900202A
:102F800002F026F9842002F023F9002002F020F953
:102F9000932002F01DF9002002F01AF9A22002F09D
:102FA00017F9002002F014F9B32002F011F9002003
:102FB00002F00EF9BE2002F00BF9002002F008F931
:102FC000C42002F005F9002002F002F9CD2002F041
:102FD000FFF8002002F0FCF8D32002F0F9F80020FE
:102FE00002F0F6F8DD2002F0F3F8002002F0F0F82D
:102FF000F32002F0EDF8002002F0EAF8E52002F0FC
:10300000F9F8002002F0E4F8002002F0E1F80020D6
:1030100002F0DEF8002002F0DBF8022002F0D8F81F
:10302000002002F0D5F8292002F0D2F8002002F0AA
:10303000CFF83C2002F0CCF8002002F0C9F84B2079
:1030400002F0C6F8002002F0C3F85D2002F0C0F8DC
:10305000002002F0BDF8742002F0BAF8002002F05F
:10306000B7F8842002F0B4F8002002F0B1F8932001
:1030700002F0AEF8002002F0ABF8A22002F0A8F8AF
:10308000002002F0A5F8B32002F0A2F8002002F020
:103090009FF8BE2002F09CF8002002F099F8C420AE
:1030A00002F096F8002002F093F8CD2002F090F89C
:1030B000002002F08DF8D32002F08AF8002002F000
:1030C00087F8DC2002F084F8002002F081F8F32079
:1030D00002F07EF8002002F07BF8E62002F08AF889
:1030E000112002F075F8002002F072F8342002F08E
:1030F0006FF8002002F06CF8562002F069F800200A
:1031000002F066F8762002F063F8002002F060F822
:10311000772002F05DF8002002F05AF8662002F0F5
:1031200057F8002002F054F8882002F051F80020EF
:1031300002F04EF8992002F04BF8002002F048F817
:10314000BB2002F045F8002002F042F8992002F07E
:103150003FF8002002F03CF8662002F039F8002029
:1031600002F036F8552002F033F8002002F030F873
:10317000552002F02DF8002002F02AF8452002F038
:1031800027F8002002F024F8432002F021F8002064
:1031900002F01EF8442002F01BF8002002F018F89C
:1031A000E72002F027F8322002F012F8002002F0A7
:1031B0000FF8552002F00CF8002002F009F87620F4
:1031C00002F006F8002002F003F8662002F000F892
:1031D000002001F0FDFF672001F0FAFF002001F060
:1031E000F7FF672001F0F4FF002001F0F1FF8720D6
:1031F00001F0EEFF002001F0EBFF992001F0E8FF65
:10320000002001F0E5FFBB2001F0E2FF002001F00B
:10321000DFFF992001F0DCFF002001F0D9FF7720CB
:1032200001F0D6FF002001F0D3FF442001F0D0FFD1
:10323000002001F0CDFF562001F0CAFF002001F070
:10324000C7FF232001F0C4FF002001F0C1FF33209D
:1032500001F0BEFF002001F0BBFF452001F0B8FFE8
:10326000002001F0B5FFE82001F0C4FF002001F0CC
:10327000AFFF002001F0ACFF992001F0A9FF002072
:1032800001F0A6FF872001F0A3FF002001F0A0FFBE
:10329000882001F09DFF002001F09AFF772001F0C7
:1032A00097FF002001F094FF662001F091FF0020BD
:1032B00001F08EFF882001F08BFF002001F088FFD5
:1032C000AA2001F085FF002001F082FFBB2001F061
:1032D0007FFF002001F07CFF992001F079FF0020A2
:1032E00001F076FF662001F073FF002001F070FF0F
:1032F000552001F06DFF002001F06AFF552001F01C
:1033000067FF002001F064FF442001F061FF00200E
:1033100001F05EFF442001F05BFF002001F058FF48
:10332000552001F055FF002001F052FFE92001F087
:1033300061FFAA2001F04CFF002001F049FF0020AE
:1033400001F046FF002001F043FF002001F052FF92
:10335000AA2001F03DFFCF2001F04CFF002001F03A
:1033600037FF002001F034FF002001F031FF002082
:1033700001F02EFF002001F02BFF002001F028FFBC
:10338000002001F025FF002001F022FF002001F0C5
:103390001FFF002001F01CFF002001F019FF00209A
:1033A00001F016FF002001F013FF002001F010FFD4
:1033B000002001F00DFF002001F00AFF002001F0C5
:1033C00007FFF02001F016FF002001F001FF502060
:1033D00001F0FEFE002001F0FBFE002001F0F8FEEF
:1033E000002001F0F5FEF32001F004FF002001F0C1
:1033F000EFFEF92001F0FEFE062001F0E9FE1020AC
:1034000001F0E6FE292001F0E3FE002001F0E0FEDD
:103410003A2001F0EFFE552001F0DAFE112001F014
:10342000E9FE642002F026FC292001F0E3FE3520AD
:1034300001F0E0FE002001F0CBFE512001F0DAFEA9
:10344000FF2001F0C5FE532001F0D4FE2C2001F036
:10345000BFFE552001F0CEFE822001F0B9FE2C20E7
:1034600001F0C8FE01F001BAFE48808845F2105113
:1034700088427DD155214FF4704001F0D5FEAA213C
:103480004FF2010001F0D0FE52214FF2020001F094
:10349000CBFE08214FF2030001F0C6FE01214FF2DE
:1034A000040001F0C1FE0D214FF4304001F0BCFEDC
:1034B0000D214BF2010001F0B7FE0D214BF202008D
:1034C00001F0B2FE34214FF4364001F0ADFE34215C
:1034D0004BF2016001F0A8FE34214BF2026001F0D2
:1034E000A3FE0D214FF4314001F09EFE0D214BF261
:1034F000011001F099FE0D214BF2021001F094FE33
:1035000034214FF4374001F08FFE34214BF201702B
:1035100001F08AFE34214BF2027001F085FE002199
:103520004FF4324001F080FE00214BF2012001F007
:103530007BFE00214BF2022001F076FE24214FF4A5
:10354000384001F071FE24214BF6010001F06CFEC1
:1035500024214BF6020001F067FE01214FF43F40A9
:1035600001F062FE0F214FF4334001F05DFE00E0F8
:10357000FDE30F214BF2013001F056FE0F214BF21B
:10358000023001F051FE34214FF4394001F04CFE7D
:1035900034214BF6011001F047FE34214BF60210A6
:1035A00001F042FE08214FF4354001F03DFE0821B4
:1035B0004BF2015001F038FE08214BF2025001F0AD
:1035C00033FE03214FF4424001F02EFE24214FF43C
:1035D0003A4001F029FE24214BF6012001F024FE9F
:1035E00024214BF6022001F01FFE00214FF43C4045
:1035F00001F01AFE78214BF6014001F015FE002182
:103600004BF6024001F010FE00214FF43D4001F066
:103610000BFE78214BF6015001F006FE00214BF61F
:10362000025001F001FE00214FF43E4001F0FCFD8C
:1036300064214BF6016001F0F7FD00214FF4514089
:1036400001F0F2FD33214DF2011001F0EDFD0021FA
:103650004DF2021001F0E8FD34214DF2031001F0AB
:10366000E3FD00214DF2041001F0DEFD3A214DF2A0
:10367000051001F0D9FD00214DF2061001F0D4FD36
:103680004A214DF2071001F0CFFD00214DF2081044
:1036900001F0CAFD5C214DF2091001F0C5FD0021C9
:1036A0004DF20A1001F0C0FD81214DF20B1001F026
:1036B000BBFD00214DF20C1001F0B6FDA6214DF22C
:1036C0000D1001F0B1FD00214DF20E1001F0ACFD26
:1036D000E5214DF20F1001F0A7FD01214DF2101070
:1036E00001F0A2FD13214DF2111001F09DFD012109
:1036F0004DF2121001F098FD54214DF2131001F01B
:1037000093FD01214DF2141001F08EFD82214DF246
:10371000151001F089FD01214DF2161001F084FD14
:10372000CA214DF2171001F07FFD02214DF2181051
:1037300001F07AFD00214DF2191001F075FD022112
:103740004DF21A1001F070FD01214DF21B1001F035
:103750006BFD02214DF21C1001F066FD34214DF28B
:103760001D1001F061FD02214DF21E1001F05CFD03
:1037700067214DF21F1001F057FD02214DF220107C
:1037800001F052FD84214DF2211001F04DFD022186
:103790004DF2221001F048FDA4214DF2231001F05A
:1037A00043FD02214DF2241001F03EFDB7214DF200
:1037B000251001F039FD02214DF2261001F034FDF3
:1037C000CF214DF2271001F02FFD02214DF22810DC
:1037D00001F02AFDDE214DF2291001F025FD022124
:1037E0004DF22A1001F020FDF2214DF22B1001F0D4
:1037F0001BFD02214DF22C1001F016FDFE214DF2B1
:103800002D1001F011FD03214DF22E1001F00CFDE1
:1038100010214DF22F1001F007FD03214DF2301061
:1038200001F002FD33214DF2311001F0FDFC0321C6
:103830004DF2321001F0F8FC6D214DF2331001F021
:10384000F3FC00214FF4524001F0EEFC33214DF225
:10385000012001F0E9FC00214DF2022001F0E4FC1E
:10386000342101E02C0100204DF2032001F0DCFCAA
:1038700000214DF2042001F0D7FC3A214DF2052041
:1038800001F0D2FC00214DF2062001F0CDFC4A21CE
:103890004DF2072001F0C8FC00214DF2082001F094
:1038A000C3FC5C214DF2092001F0BEFC00214DF269
:1038B0000A2001F0B9FC81214DF20B2001F0B4FC8B
:1038C00000214DF20C2001F0AFFCA6214DF20D209D
:1038D00001F0AAFC00214DF20E2001F0A5FCE5212B
:1038E0004DF20F2001F0A0FC01214DF2102001F05B
:1038F0009BFC13214DF2112001F096FC01214DF2A9
:10390000122001F091FC54214DF2132001F08CFCA7
:1039100001214DF2142001F087FC82214DF2152087
:1039200001F082FC01214DF2162001F07DFCCA213C
:103930004DF2172001F078FC02214DF2182001F021
:1039400073FC00214DF2192001F06EFC02214DF2B2
:103950001A2001F069FC01214DF21B2001F064FCEA
:1039600002214DF21C2001F05FFC34214DF21D209C
:1039700001F05AFC02214DF21E2001F055FC672196
:103980004DF21F2001F050FC02214DF2202001F0E9
:103990004BFC84214DF2212001F046FC02214DF226
:1039A000222001F041FCA4214DF2232001F03CFC37
:1039B00002214DF2242001F037FCB7214DF22520E1
:1039C00001F032FC02214DF2262001F02DFCCF2126
:1039D0004DF2272001F028FC02214DF2282001F0B1
:1039E00023FCDE214DF2292001F01EFC02214DF2C4
:1039F0002A2001F019FCF2214DF22B2001F014FCD9
:103A000002214DF22C2001F00FFCFE214DF22D2061
:103A100001F00AFC03214DF22E2001F005FC1021DB
:103A20004DF22F2001F000FC03214DF2302001F077
:103A3000FBFB33214DF2312001F0F6FB03214DF267
:103A4000322001F0F1FB6D214DF2332001F0ECFB4F
:103A500000214FF4534001F0E7FB33214DF20130D8
:103A600001F0E2FB00214DF2023001F0DDFB3421D8
:103A70004DF2033001F0D8FB00214DF2043001F08B
:103A8000D3FB3A214DF2053001F0CEFB00214DF27F
:103A9000063001F0C9FB4A214DF2073001F0C4FBAA
:103AA00000214DF2083001F0BFFB5C214DF20930DE
:103AB00001F0BAFB00214DF20A3001F0B5FB812183
:103AC0004DF20B3001F0B0FB00214DF20C3001F053
:103AD000ABFBA6214DF20D3001F0A6FB00214DF20B
:103AE0000E3001F0A1FBE5214DF20F3001F09CFBFF
:103AF00001214DF2103001F097FB13214DF21130EE
:103B000001F092FB01214DF2123001F08DFB5421A6
:103B10004DF2133001F088FB01214DF2143001F019
:103B200083FB82214DF2153001F07EFB01214DF225
:103B3000163001F079FBCA214DF2173001F074FB09
:103B400002214DF2183001F06FFB00214DF21930C7
:103B500001F06AFB02214DF21A3001F065FB0121F0
:103B60004DF21B3001F060FB02214DF21C3001F0E0
:103B70005BFB34214DF21D3001F056FB02214DF26A
:103B80001E3001F051FB67214DF21F3001F04CFB5C
:103B900002214DF2203001F047FB84214DF221300B
:103BA00001F042FB02214DF2223001F03DFBA42145
:103BB0004DF2233001F038FB02214DF2243001F0A8
:103BC00033FBB7214DF2253001F02EFB02214DF2DF
:103BD000263001F029FBCF214DF2273001F024FBE4
:103BE00002214DF2283001F01FFBDE214DF2293079
:103BF00001F01AFB02214DF22A3001F015FBF221EF
:103C00004DF22B3001F010FB02214DF22C3001F06F
:103C10000BFBFE214DF22D3001F006FB03214DF28E
:103C20002E3001F001FB10214DF22F3001F0FCFA93
:103C300003214DF2303001F0F7FA33214DF23130EB
:103C400001F0F2FA03214DF2323001F0EDFA6D216C
:103C50004DF2333001F0E8FA00214FF4544001F006
:103C6000E3FA33214DF2014001F0DEFA00214DF27A
:103C7000024001F0D9FA34214DF2034001F0D4FAA8
:103C800000214DF2044001F0CFFA3A214DF20540F7
:103C900001F0CAFA00214DF2064001F0C5FA4A21AE
:103CA0004DF2074001F0C0FA00214DF2084001F04A
:103CB000BBFA5C214DF2094001F0B6FA00214DF249
:103CC0000A4001F0B1FA81214DF20B4001F0ACFA4B
:103CD00000214DF20C4001F0A7FAA6214DF20D4053
:103CE00001F0A2FA00214DF20E4001F09DFAE5210B
:103CF0004DF20F4001F098FA01214DF2104001F011
:103D000093FA13214DF2114001F08EFA01214DF288
:103D1000124001F089FA54214DF2134001F084FA67
:103D200001214DF2144001F07FFA82214DF215403D
:103D300001F07AFA01214DF2164001F075FACA211C
:103D40004DF2174001F070FA02214DF2184001F0D7
:103D50006BFA00214DF2194001F066FA02214DF292
:103D60001A4001F061FA01214DF21B4000E005E329
:103D700001F05AFA02214DF21C4001F055FA3421AB
:103D80004DF21D4001F050FA02214DF21E4001F0AB
:103D90004BFA67214DF21F4001F046FA02214DF225
:103DA000204001F041FA84214DF2214001F03CFA1B
:103DB00002214DF2224001F037FAA4214DF22340B6
:103DC00001F032FA02214DF2244001F02DFAB72120
:103DD0004DF2254001F028FA02214DF2264001F073
:103DE00023FACF214DF2274001F01EFA02214DF2B5
:103DF000284001F019FADE214DF2294001F014FAB1
:103E000002214DF22A4001F00FFAF2214DF22B402F
:103E100001F00AFA02214DF22C4001F005FAFE21D0
:103E20004DF22D4001F000FA03214DF22E4001F039
:103E3000FBF910214DF22F4001F0F6F903214DF26C
:103E4000304001F0F1F933214DF2314001F0ECF94D
:103E500003214DF2324001F0E7F96D214DF233407C
:103E600001F0E2F900214FF4554001F0DDF9332172
:103E70004DF2015001F0D8F900214DF2025001F04D
:103E8000D3F934214DF2035001F0CEF900214DF267
:103E9000045001F0C9F93A214DF2055001F0C4F97E
:103EA00000214DF2065001F0BFF94A214DF20750B2
:103EB00001F0BAF900214DF2085001F0B5F95C218A
:103EC0004DF2095001F0B0F900214DF20A5001F015
:103ED000ABF981214DF20B5001F0A6F900214DF212
:103EE0000C5001F0A1F9A6214DF20D5001F09CF902
:103EF00000214DF20E5001F097F9E5214DF20F50DF
:103F000001F092F901214DF2105001F08DF91321C9
:103F10004DF2115001F088F901214DF2125001F0DB
:103F200083F954214DF2135001F07EF901214DF235
:103F3000145001F079F982214DF2155001F074F915
:103F400001214DF2165001F06FF9CA214DF21750C0
:103F500001F06AF902214DF2185001F065F90021D3
:103F60004DF2195001F060F902214DF21A5001F0A2
:103F70005BF901214DF21B5001F056F902214DF27F
:103F80001C5001F051F934214DF21D5001F04CF953
:103F900002214DF21E5001F047F967214DF21F50EA
:103FA00001F042F902214DF2205001F03DF9842147
:103FB0004DF2215001F038F902214DF2225001F06A
:103FC00033F9A4214DF2235001F02EF902214DF2D4
:103FD000245001F029F9B7214DF2255001F024F9C0
:103FE00002214DF2265001F01FF9CF214DF227504A
:103FF00001F01AF902214DF2285001F015F9DE21E5
:104000004DF2295001F010F902214DF22A5001F031
:104010000BF9F2214DF22B5001F006F902214DF27D
:104020002C5001F001F9FE214DF22D5001F0FCF869
:1040300003214DF22E5001F0F7F810214DF22F50D0
:1040400001F0F2F803214DF2305001F0EDF8332188
:104050004DF2315001F0E8F803214DF2325001F0F9
:10406000E3F86D214DF2335001F0DEF800214FF4FA
:10407000564001F0D9F833214DF2016001F0D4F837
:1040800000214DF2026001F0CFF834214DF20360BF
:1040900001F0CAF800214DF2046001F0C5F83A21A0
:1040A0004DF2056001F0C0F800214DF2066001F00C
:1040B000BBF84A214DF2076001F0B6F800214DF23D
:1040C000086001F0B1F85C214DF2096001F0ACF834
:1040D00000214DF20A6001F0A7F881214DF20B603A
:1040E00001F0A2F800214DF20C6001F09DF8A6212C
:1040F0004DF20D6001F098F800214DF20E6001F0D4
:1041000093F8E5214DF20F6001F08EF801214DF298
:10411000106001F089F813214DF2116001F084F86C
:1041200001214DF2126001F07FF854214DF213602D
:1041300001F07AF801214DF2146001F075F8822146
:104140004DF2156001F070F801214DF2166001F09A
:104150006BF8CA214DF2176001F066F802214DF2AA
:10416000186001F061F800214DF2196001F05CF86F
:1041700002214DF21A6001F057F801214DF21B6047
:1041800001F052F802214DF21C6001F04DF834218B
:104190004DF21D6001F048F802214DF21E6001F061
:1041A00043F867214DF21F6001F03EF802214DF205
:1041B000206001F039F884214DF2216001F034F8DB
:1041C00002214DF2226001F02FF8A4214DF223606C
:1041D00001F02AF802214DF2246001F025F8B72100
:1041E0004DF2256001F020F802214DF2266001F029
:1041F0001BF8CF214DF2276001F016F802214DF295
:10420000286001F011F8DE214DF2296001F00CF870
:1042100002214DF22A6001F007F8F2214DF22B60E5
:1042200001F002F802214DF22C6000F0FDFFFE21AA
:104230004DF22D6000F0F8FF03214DF22E6000F0EA
:10424000F3FF10214DF22F6000F0EEFF03214DF23D
:10425000306000F0E9FF33214DF2316000F0E4FFFF
:1042600003214DF2326000F0DFFF6D214DF233602B
:1042700000F0DAFF55214FF4704000F0D5FFAA217D
:104280004FF2010000F0D0FF52214FF2020000F087
:10429000CBFF08214FF2030000F0C6FF00214FF2D0
:1042A000040000F0C1FFCC214FF4314000F0BCFF0E
:1042B00000214BF2011000F0B7FF05214FF436400A
:1042C00000F0B2FF70214FF4374000F0ADFF7021D5
:1042D0004BF2017000F0A8FF01214FF4384000F0CC
:1042E000A3FF03214BF6010000F09EFF03214BF6D4
:1042F000020000F099FF03214BF6030000F094FF49
:1043000002214FF43C4000F08FFF00214BF60140AA
:1043100000F08AFF00214BF6024000F085FFD0211B
:104320004FF4494000F080FF02214CF6011000F0EC
:104330007BFF50214CF6021000F076FF50214CF626
:10434000031000F071FF50214CF6041000F06CFFD8
:1043500000214FF4545000F067FF55214FF468508E
:1043600000F062FF4FF4885000F044FF782001F025
:104370008DFC4FF4245000F03DFF76E2FE4880882B
:1043800041F663118842F8D1E22000F033FF4FF488
:104390008070FA490861400048611D20F8490860B2
:1043A0008020F6494861086180000861401008617A
:1043B000400048610220F24908608020EF494861CE
:1043C00008618000086140100861400048610420D5
:1043D000EB4908608020E949486108618000086174
:1043E000642001F053FCE02000F004FF4FF48070E3
:1043F000E2490861400048610120E14908608020ED
:10440000DE4948610861800008610A2001F032FC41
:10441000E02000F0EFFE4FF48070D84908614000C2
:1044200048610320D64908608020D449486108616A
:10443000800008610C2001F01DFC012000F0DAFE74
:104440000A2001F017FCE62000F0D4FE4FF4807043
:10445000CA490861400048612F20C949086080208E
:10446000C649486108618000086140100861400049
:104470004861FF20C24908608020C0494861086146
:10448000800008614010086140004861FF20BC497D
:1044900008608020B9494861086180000861B02047
:1044A00000F0A8FE4FF48070B449086140004861F4
:1044B0002020B34908608020B0494861086180002D
:1044C000086140100861400048610020AC49086064
:1044D0008020AA4948610861800008614010086195
:1044E000400048610320A64908608020A349486134
:1044F000086180000861401008614000486140F296
:104500001F309F49086080209C49486108618000F5
:104510000861401008614000486101209849086026
:104520008020964948610861800008614010086158
:104530004000486140F2DF109149086080208F49B7
:1045400048610861800008614010086140004861CE
:1045500000208B49086080208849486108618000FC
:104560000861B42000F046FE4FF480708349086172
:104570004000486104208249086080207F494861EA
:10458000086180000861401008614000486140F205
:104590001F407B490860802078494861086180009D
:1045A00008614010086140004861002074490860BB
:1045B00080207249486108618000086140100861EC
:1045C000400048612E206E49086080206B49486198
:1045D00008618000086140100861400048610020C7
:1045E000674908608020654948610861800008616A
:1045F0004010086140004861002061490860802047
:104600005E4948610861800008614010086140000F
:10461000486100205A490860802058494861086173
:104620008000086140100861400048610020544942
:104630000860802051494861086180000861B62007
:1046400000F0D8FD4FF480704C490861400048618B
:1046500002204B4908608020484948610861800079
:10466000086140100861400048614FF403704449FC
:10467000086080204149486108618000086140105D
:1046800008614000486100203D49086080203B49A6
:10469000486108618000086140100861400048617D
:1046A000172037490860802034494861086180003C
:1046B00008614010086140004861152030490860D9
:1046C00080202E494861086180000861401008611F
:1046D0004000486100202A4908608020274948613D
:1046E00008618000086140100861400048610020B6
:1046F00023490860802021494861086180000861E1
:10470000F02000F077FD4FF480701C4908614000F4
:10471000486103201A4908608020184948610861EF
:1047200080000861292000F065FDD02000F062FDC6
:104730004FF4807011490861400048610020104921
:10474000086080200D494861086180000861BE2032
:1047500000F050FD4FF48070084908614000486146
:1047600005200749086080200449486108618000ED
:1047700008614010086105E02C0100200010014094
:104780000C0C014040004861FE203E49086080203A
:104790003D4948610861800008614010086140009F
:1047A0004861012037490860802037494861086125
:1047B00080000861401008614000486100203149D4
:1047C000086080203049486108618000086140101D
:1047D00008614000486100202A49086080202A4979
:1047E000486108618000086140100861400048612C
:1047F0000020244908608020234948610861800026
:104800000861B82000F0F6FC4FF480701E49086182
:104810004000486103201B49086080201A49486114
:104820000861800008614010086140004861012073
:1048300014490860802014494861086180000861BB
:10484000BA2000F0D7FC4FF480700F490861400097
:10485000486101200B49086080200B4948610861CC
:1048600080000861642000F043F80020FDF73AF969
:104870000120064908604FF6FF70FDF70DF905B0FD
:1048800000BD00000C0C014000100140A8012242B4
:1048900000B54FF0883014490860091D08600020F9
:1048A00011490C31086088151049086140004861C1
:1048B00040204861022001F0CFFB0B48083000681F
:1048C00083B2402009490861C00008614FF03330CD
:1048D00005490860091D08604FF6FF7002490C3158
:1048E0000860184600BD0000000C014000100140A7
:1048F0002DE9F0410446BE2000F07CFC4FF48070AE
:104900002D4908614000486105202C49086080203D
:104910002949486108618000086140100861400031
:104920004861204601F0E9FB05464FF06632244B12
:1049300001F0F6FB074601F0B3FB20490860802038
:104940001D4948610861800008614010086140000D
:1049500048610120194908608020174948610861B1
:10496000800008614010086140004861FF20134941
:10497000086080201049486108618000086140108B
:1049800008614000486100200C49086080200A4905
:10499000486108618000086140100861400048617A
:1049A00000200649086080200349486108618000B2
:1049B0000861BDE8F0810000001001400C0C0140CE
:1049C00066660440F0B5054600240027E248807979
:1049D000012805D1E048808841F66311884208D15A
:1049E000DD488079F0B9DC48808841F6631188425F
:1049F00018D1082D15D2DFE805F00406080A0C0EC0
:104A0000101206250DE007250BE0042509E0052519
:104A100007E0012505E0002503E0032501E002256C
:104A200000BF00BF082D1CD2DFE805F00406090C0A
:104A30000F12151800BF14E044F0800411E044F098
:104A400040040EE044F0C0040BE044F0200408E011
:104A500044F0600405E044F0A00402E044F0E00407
:104A600000BF00BFBC48808845F21051884202D187
:104A70004FF4585700E03627B748808849F2413153
:104A8000884205D0B448808847F28971884201D1B4
:104A900044F008042146384600F0C6FBAE48808842
:104AA00041F6631188421DD004F0200068B1AA4885
:104AB0000088A9494988884214DAA74806884088AE
:104AC000A5490880084646800CE0A3480088A24912
:104AD0004988884206DDA048068840889E490880AB
:104AE000084646809C48808845F2105188427DD116
:104AF0009949488900F07EFB4FF48070974908611E
:104B00004000486100209649086080209349486130
:104B100008618000086190494989491C88B200F009
:104B200069FB4FF480708D490861400048610020A6
:104B30008B490860802089494861086180000861CC
:104B400085494989891C88B200F054FB4FF4807074
:104B500082490861400048617F480088401E001279
:104B60007F49086080207D494861086180000861B4
:104B700079494989C91C88B200F03CFB4FF4807028
:104B8000764908614000486173480078401EC0B211
:104B9000734908608020714948610861800008619C
:104BA0006D49888900F026FB4FF480706B490861DD
:104BB0004000486100206A490860802067494861D8
:104BC00008618000086164498989491C88B200F045
:104BD00011FB4FF48070614908614000486100207A
:104BE0005F49086080205D49486100E033E008616A
:104BF0008000086158498989891C88B200F0FAFA56
:104C00004FF480705549086140004861524840881F
:104C1000401E0012524908608020504948610861D6
:104C2000800008614C498989C91C88B200F0E2FA09
:104C30004FF48070494908614000486146488078D7
:104C4000401EC0B24649086080204449486108615E
:104C5000800008617FE04049488900F0CBFA4FF4BA
:104C600080703E4908614000486100203C4908606E
:104C700080203A494861086180000861401008615D
:104C8000400048610020364908608020334948616F
:104C900008618000086140100861400048612E48AA
:104CA0000088401E00122E49086080202B49486170
:104CB0000861800008614010086140004861264892
:104CC0000078401EC0B22649086080202349486110
:104CD0000861800008612049888900F08BFA4FF450
:104CE00080701E4908614000486100201C4908602E
:104CF00080201A49486108618000086140100861FD
:104D0000400048610020164908608020134948612E
:104D100008618000086140100861400048610E4849
:104D20004088401E00120E49086080200B494861EF
:104D30000861800008614010086140004861064831
:104D40008078401EC0B2064908608020034948614F
:104D5000086180000861F0BD2C01002000100140B6
:104D60000C0C014010B503460C46B248808841F651
:104D7000631188427ED1AF48807900283FD1AD4889
:104D80000088401EC01A83B2AA49488900F032FA4E
:104D90004FF48070A8490861400048610020A7498D
:104DA00008608020A44948610861800008614010C3
:104DB0000861400048610020A049086080209E49A9
:104DC0004861086180000861401008614000486146
:104DD00018129A490860802097494861086180004C
:104DE00008614010086140004861D8B293490860EA
:104DF00080209149486108618000086141E08D4947
:104E0000488900F0F7F94FF480708B490861400041
:104E10004861181289490860802087494861086103
:104E2000800008614010086140004861D8B28349A1
:104E30000860802080494861086180000861401056
:104E40000861400048617B480088401E00127B4991
:104E5000086080207849486108618000086140103E
:104E600008614000486173480078401EC0B2734931
:104E7000086000E046E080206F49486108618000DA
:104E800008616C49888900F0B5F94FF480706A496F
:104E90000861400048612012684908608020664926
:104EA0004861086180000861401008614000486165
:104EB000E0B26249086080205F4948610861800073
:104EC000086140100861400048615A484088401E0F
:104ED00000125A49086080205749486108618000E3
:104EE0000861401008614000486152488078401EC7
:104EF000C0B25249086080204F4948610861800073
:104F0000086196E04B48808845F21051884250D1A4
:104F10004849488900F06EF94FF4807046490861AD
:104F200040004861181245490860802042494861A4
:104F30000861800008613F494989491C88B200F036
:104F400059F94FF480703C49086140004861D8B27B
:104F50003A4908608020384948610861800008614A
:104F60003449888900F046F94FF48070324908616D
:104F70004000486120123149086080202E49486174
:104F80000861800008612B498989491C88B200F0BA
:104F900031F94FF480702849086140004861E0B25F
:104FA0002649086080202449486108618000086122
:104FB0003FE02049488900F01DF94FF480701E49F8
:104FC00008614000486118121C49086080201A4995
:104FD0004861086180000861401008614000486134
:104FE000D8B21649086080201349486108618000E2
:104FF00008611049888900F0FDF84FF480700E496F
:1050000008614000486120120C49086080200A496C
:1050100048610861800008614010086140004861F3
:10502000E0B20649086080200349486108618000B9
:10503000086110BD2C010020001001400C0C014043
:105040002DE9F84F80460E4617461C46B3462046CB
:10505000E31704EB5373DB1021464FEAE47C04EBC7
:105060005C7C4FEAEC0CA4EBCC0CBCF1000F02D042
:105070004FF0010C01E04FF0000C6344224604EBBA
:10508000D27C4FEA6C0C03FB0CF3DBB20093A7F16C
:105090002000C7B2002556E00C2C07D107EB4700D3
:1050A0002B4901EB800010F8059013E0102C05D17E
:1050B000284800EB071010F805900BE0182C07D1DA
:1050C00007EBC700244901EB800010F8059001E0D0
:1050D000BDE8F88F4FF0000A2FE009F0800030B1F2
:1050E0001E48028831464046FCF794FD07E00A98C6
:1050F00028B91B48028831464046FCF78BFD4FEA31
:1051000049604FEA1069701C86B216484088B04268
:1051100000DCDDE7A6EB0B00A0420AD15E4608F1F9
:1051200001001FFA80F80F480088404500DCCFE7F7
:1051300006E00AF1010000F0FF0ABAF1080FCCDB2B
:1051400000BF681CC5B200988542A5DB00BFBFE761
:1051500034630008A8670008986D00081C00002050
:105160001E0000202C0100202DE9F84704460D46C2
:1051700090469946DDE9096704F0FF0A08EB040050
:105180001FFA80F809EB05001FFA80F916E0444584
:1051900002DB5446A81985B24D4500DB14E000201F
:1051A00000903A78334629462046FFF749FF3046BB
:1051B00006EBD07104EB61018CB27F1C38787E283D
:1051C00002DC38782028E2DA00BFBDE8F88700006A
:1051D0004FF48071054A116149005161044908602A
:1051E00080215161116189001161704700100140F7
:1051F0000C0C01404FF48071054A51614900516126
:105200000449086080215161116189001161704772
:10521000001001400C0C014000B502490889FFF75D
:10522000E9FF00BD2C01002010B504460B462046C6
:10523000FFF7E0FF4FF480700549086140004861C6
:10524000044803608020486108618000086110BD47
:10525000001001400C0C014000B585B000BF1B4898
:10526000806940F00400194988610846806900F0AF
:105270000400009000BF00BF00BF0846806940F0F6
:10528000200088610846806900F02000009000BF7F
:1052900000BF881501900120029003900320049024
:1052A00001A90B48FBF7BAF90420019001A90948AC
:1052B000FBF7B4F9012211020548FBF757FB012265
:1052C00004210448FBF752FB05B000BD001002406A
:1052D000000801400014014000BFFEE770470000D5
:1052E0001CB511A103C9CDE90001102000F00AFA94
:1052F00005226946302000F07DF90522694610201C
:1053000000F0A4F8002406E01DF80400A52800D051
:1053100003E0601CC4B2052CF6DB00BF052C01D0F5
:1053200001201CBD0020FCE7A5A5A5A5A500000047
:1053300000B585B000BF2A48806940F004002849C4
:1053400088610846806900F00400009000BF00BF3B
:1053500000BF0846806940F01000886108468069F7
:1053600000F01000009000BF00BF1C200190012041
:10537000029003900320049001A91A48FBF74EF90C
:105380001020019001A91848FBF748F9022001906C
:105390000020029001A91348FBF740F901220221E5
:1053A0001048FBF7E3FA012204210E48FBF7DEFA6E
:1053B000012208210B48FBF7D9FA012210210948E4
:1053C000FBF7D4FA00F062F900F092F800200749E8
:1053D000086001200649C1F8900105B000BD000039
:1053E00000100240000801400010014090012142DD
:1053F0000000224210B50020114908600522114921
:105400002A2000F0F7F80121212000F011F90121F4
:10541000222000F00DF92821252000F009F9202193
:10542000312000F005F90F21262000F001F90F21AD
:10543000202000F0FDF801200349C1F8900110BDC3
:1054400090012142F97A0008000021422DE9F04143
:1054500007460D46164600200A490860384600F007
:1054600041F98046002405E0FF2000F03BF9285573
:10547000601CC4B2B442F7DB012002490860404618
:10548000BDE8F0819001224270B504460020074932
:105490000860204600F026F9FF2000F023F90546B9
:1054A00001200349C1F89001284670BD90012242B5
:1054B0000000224270B50446102000F023F90720B6
:1054C000FFF7E2FF05462946272000F0B1F805F076
:1054D000400050B1202221466120FFF7B7FFFF2195
:1054E000E22000F0A5F8002070BD0120FCE70000DC
:1054F00010B50B480068006820F0400008490968B2
:1055000008600021064801614161FBF74DFE044837
:105510000068006840F0400001490968086010BD5B
:105520003C01002010B500201449086005221449F0
:10553000302000F05FF8052212492A2000F05AF8C6
:105540000121212000F074F80121222000F070F8E0
:105550001A21242000F06CF82821252000F068F89A
:105560000F21262000F064F80E21202000F060F8C2
:1055700001200549C1F8900110BD000090012142B1
:10558000F47A0008F97A00080000214270B5054657
:10559000102000F0B7F800201449086020222946A6
:1055A000A02000F027F801201149C1F8900100BFA8
:1055B0000E488C3800680028FAD10720FFF764FFF6
:1055C00004462146272000F033F804F0100028B1EB
:1055D000FF21E12000F02CF8102070BD04F0200025
:1055E00008B12020F9E7FF20F7E7000090012142F1
:1055F000000021422DE9F04107460C4615460020E7
:105600000A490860384600F06DF88046002605E03B
:1056100014F8010B00F066F8701CC6B2AE42F7DB5E
:105620000120024908604046BDE8F0819001224215
:1056300070B505460C46002007490860284600F072
:1056400051F80646204600F04DF801200349C1F804
:105650009001304670BD00009001224200002242BD
:105660007047000008B508490968C9084FF47A7204
:10567000B1FBF2F14143009100BF00BF00994A1E07
:1056800000920029F9D108BD0000002010B5134890
:10569000134908604FF4827048600021104881600F
:1056A000C16002210161012141614902816138210A
:1056B000C16100210162416281620721C162FBF781
:1056C00073FD07480068006840F04000044909681D
:1056D0000860FF2000F006F810BD00000030014017
:1056E0003C01002001B582B04FF47A70012301AA79
:1056F00002A900900248FBF7D5FD9DF804000EBDFD
:105700003C01002010490968096821F040010E4A57
:10571000126811600C49096809684FF6C772114098
:10572000094A126811600849096809680143064A74
:105730001268116004490968096841F04001024A91
:1057400012681160704700003C010020F8B5044663
:105750000D4616462B46002280212046009600F07A
:105760000CF828B1606D40F0200060650320F8BDA2
:105770000020FCE70146012070472DE9F041044676
:105780000E4617461D46DDF818803EE0681CD8B36B
:10579000FBF7F2F8A0EB0800A84200D2A5BB2068F6
:1057A000406820F0E000216848606068B0F5827FC2
:1057B0000DD1A068B0F5004F03D0A068B0F5806FA0
:1057C00005D12068006820F0400021680860A06AC8
:1057D000B0F5005F0DD100BF2068006820F40050D4
:1057E000216808602068006840F400502168086063
:1057F00000BF012084F8510000BF002084F8500051
:1058000000BF0320BDE8F081FFE7206880683040DA
:10581000B04201D1012000E00020B842B6D1002002
:10582000F0E7704730B58FB00546002401200590A1
:10583000000406900020079002200C90C1030D91F7
:105840000E9505A8FBF77EFA04460CB100BFFEE7F3
:105850000F20009002200190002002904FF4806001
:1058600003900020049002216846FBF735F90446B6
:105870000CB100BFFEE70FB030BD10B5FBF782F8EA
:1058800010BD00001148006840F001000F49086099
:10589000084640680E4908400C49486008460068C0
:1058A0000C490840094908600846006820F4802037
:1058B00008600846406820F4FE0048604FF41F006E
:1058C0008860C80304490860704700000010024067
:1058D0000000FFF8FFFFF6FE08ED00E070B505469A
:1058E0006C6A0020E085E0842046FBF780FE70BDF6
:1058F0000168C96821F490710268D1600168496942
:1059000021F0010102685161202180F83A107047AE
:1059100010B504462068C06820F040002168C860C7
:10592000202084F839002046FCF71CF8002010BD28
:1059300070B5044694F83A0022284AD1A068B0F520
:10594000805F13D1A56A206940B920684068C0F320
:1059500008002880A06A801CA06219E020684068C6
:10596000C0B22880A06A401CA06211E0206938B94A
:1059700020684068C1B2A26A501CA062117007E0A2
:105980002068406800F07F01A26A501CA06211707C
:10599000E08D401E80B2E085C8B92068C06820F064
:1059A00020002168C8602068C06820F480702168E9
:1059B000C8602068406920F001002168486120200B
:1059C00084F83A002046FBF789FF002070BD0020D4
:1059D000FCE70220FAE7000070B504462168096977
:1059E00021F44051E2681143226811612269A168E3
:1059F0001143626941EA02052168C96841F20C62FB
:105A0000914329432268D1602168496921F440719A
:105A1000A269114322685161564A2168914254D1CA
:105A2000FBF736F900EBC00101EB00116268920050
:105A3000B1FBF2F100EBC00202EB001263689B00C5
:105A4000B2FBF3F26423B2FBF3F202EBC20303EB0B
:105A50000212A1EB8201322202EB01116422B1FB9E
:105A6000F2F101F0F00100EBC00202EB00126368FA
:105A70009B00B2FBF3F26423B2FBF3F201EB0212E0
:105A800000EBC00101EB001163689B00B1FBF3F177
:105A900000EBC00303EB00136668B600B3FBF6F33C
:105AA0006426B3FBF6F303EBC30606EB0313A1EB8B
:105AB0008301322303EB01116423B1FBF3F101F005
:105AC0000F0111442268916053E0FBF7D1F800EB1D
:105AD000C00101EB001162689200B1FBF2F100EB32
