:020000040800F2
:10000000D0410020DD020008BF4F00087149000800
:10001000BD4F0008012D0008355B000800000000FE
:100020000000000000000000000000004502000881
:100030003B2D000800000000890200089D550008C3
:10004000F7020008F7020008F7020008F7020008AC
:10005000F7020008F7020008F7020008F70200089C
:10006000F7020008F7020008F7020008F70200088C
:10007000F7020008052D0008F7020008F702000843
:10008000F7020008F7020008F7020008F70200086C
:10009000F7020008F7020008F7020008F70200085C
:1000A000F7020008F7020008F7020008F70200084C
:1000B000F7020008F702000829560008F7020008B6
:1000C000F7020008F7020008F7020008F70200082C
:1000D000F7020008F7020008F7020008F95A0008C2
:1000E000F7020008F7020008F702000800F002F823
:1000F00000F099F80AA090E8000C82448344AAF129
:100100000107DA4501D100F08EF8AFF2090EBAE826
:100110000F0013F0010F18BFFB1A43F0010318473B
:10012000A0800000C0800000103A24BF78C878C1C9
:10013000FAD8520724BF30C830C144BF04680C60ED
:10014000704700000023002400250026103A28BF35
:1001500078C1FBD8520728BF30C148BF0B60704739
:100160006E2900F0A987702901F00981662907F03E
:10017000A783652907F0A483672907F0A183612974
:1001800007F0A08303681B0A28BF41F0800169299A
:1001900000F05687642900F05387752900F05087D6
:1001A0006F2901F09680782901F0D580E92901F0C6
:1001B0003180E42901F02E80F52901F02B80EF2910
:1001C00001F09380F82901F0D4800368DB0928BF8F
:1001D00041F08001632900F0B287732900F0B787EE
:1001E000E32901F00586F32901F00A860020704713
:1001F0001FB59DE8030000F0B3FE00F095FE04007B
:100200000020002107F046FB401C60600020002118
:1002100007F02AFBE0600020002107F00FFB2061BF
:100220001FBD10B510BD02F012F81146FFF7E0FF38
:1002300005F0D8FC02F0EAF803B4FFF7F2FF03BCC4
:1002400002F01AF9224B19680868B0E8F00F80F341
:100250000988BFF36F8F4FF0000080F311884EF0D4
:100260000D0E70470000000006480068006880F32B
:10027000088862B661B6BFF34F8FBFF36F8F00DFA0
:1002800000BF00BF08ED00E0EFF30980BFF36F8F00
:100290000F4B1A6820E9F00F106008B54FF05000BE
:1002A00080F31188BFF34F8FBFF36F8F06F076FC9A
:1002B0004FF0000080F31188BDE808401968086815
:1002C000B0E8F00F80F30988BFF36F8F704700BF6D
:1002D00018000020EFF305807047000009488047B0
:1002E00009480047FEE7FEE7FEE7FEE7FEE7FEE718
:1002F000FEE7FEE7FEE7FEE704480549054A064B30
:100300007047000027560008ED000008D03B002091
:10031000D0410020D03D0020D03D002070B50646E1
:1003200000F0FEFD056806F10B0020F00704B44262
:100330009CBF002070BD2B466A68BAB11068A0420D
:1003400010D304F1080188423CBF5068586007D3BD
:100350005168101941601168091B016058601460F0
:10036000101D70BD13465268002AE7D12146284669
:1003700000F0E2FD0028DED170BD70B50446051F17
:1003800000F0CEFD0068002C14BF446870BD002C46
:1003900018BFAC423CBF20466468F8D301680A1815
:1003A000AA4218BF456003D12A680546114401607E
:1003B00028684119A1421CBF6C6070BD616869600A
:1003C00021680844286070BD0FB41CB5084B06AA0C
:1003D0007B4469460090059800F087FE04460020A3
:1003E000694600F095FE20461CBC5DF814FB000039
:1003F0003D0D00000FB47CB50C0009AA009001D09F
:100400002044401E084B7B4469460190089800F048
:100410006CFE05461CB10020694600F079FE2846B6
:100420007CBC5DF814FB0000110D000070B50C469B
:100430000546012A05D02878800600D5EA69002300
:1004400002E0012305E05B1C934202D2E05C00283D
:10045000F9D1A869E618C01AA861286A1844286268
:10046000284600F0B3FD04E0D5E9012114F8010BA2
:100470009047B442F8D3284600F0BEFD70BD00009E
:100480002DE9F05F894604464FF0000ADFF874B1A9
:10049000FB44C0F820A02046E1688847002874D0BB
:1004A000252806D0D4E901219047206A401C20620B
:1004B000F1E700265F462046E16888472028054688
:1004C00007DB312D05D2781910F8200C08B106434E
:1004D000F1E7B00701D526F00406C4F81CA00027F8
:1004E000C4F818A02A2D09D0284605F073FB38B3AC
:1004F00004EB8708303DC8F8185019E059F8041B80
:10050000204604EB87029161E1688847012F054688
:1005100018D1E069002820DA26F020061DE0D8F87E
:10052000180000EB800005EB40003038C8F81800D8
:100530002046E1688847054605F04CFB0028EED1CF
:10054000012F0AD02E2D08D12046E16888477F1C54
:100550000546022F46F02006C4DBA069002803DA16
:10056000404246F00106A061F00701D026F01006D7
:100570006C2D0BD0682D09D04C2D39D06A2D35D07B
:10058000742D35D07A2D33D016E038E0E1682F464F
:1005900020468847B842054609D16C2F26D04FF433
:1005A0008060E168064320468847054604E06C2FDA
:1005B0001AD04FF4807006430DB3A5F141001928FD
:1005C00002D8203546F400664A4629462046266071
:1005D0004E46FFF7C5FD80B101280BD0F61D26F071
:1005E000070000F1080956E74020E4E78020D8E73B
:1005F0000020D6E706F104094DE7284652E7206AB5
:10060000BDE8F09FDC7B00000FB400B58DB010A9F1
:10061000099000910B904FF0FF300A9000200C9051
:10062000064878440690064878446A4607900F9931
:1006300009A800F0C3FE0DB05DF814FBB70D000073
:10064000CF0D00002DE9FF5F1D464FF0FF3B9146A7
:100650004FF000085F46D5E90146A96901987F1C63
:100660008847296A824688470028F6D1BAF1FF3FB9
:100670000CD0002E24F4C06419DD600614D5BAF144
:100680002B0F09D0BAF12D0F0ED103E0584604B05C
:10069000BDE8F09F44F48064A96901987F1C8847F5
:1006A000761E8246002E02DDBAF1300F03D0B9F17A
:1006B000000F26D032E0A969761E01987F1C44F411
:1006C00000748847002E824605DDBAF1780F06D007
:1006D000BAF1580F03D0B9F1000F10D01EE0B9F1F4
:1006E000000F02D0B9F1100F18D1A969761E019838
:1006F0007F1C24F4007488478246102002E0082002
:1007000000E00A20814609E0A96908FB0908761E75
:1007100001987F1C44F4007488478246002E05DD52
:100720004946504600F036FE0028EDDAE9690198A6
:100730008847A00502D46FF00100A8E7E00725D1A3
:10074000600613D5600502D5C8F1000000E0404600
:1007500029680A1D2A600968220501D5087015E07C
:10076000220701D5088011E008600FE02868011D0C
:1007700029600068210502D580F8008006E0210785
:1007800002D5A0F8008001E0C0F8008038467EE77E
:100790002DE9FF5F4FF000089946144646469169DF
:1007A000D2E901A7DDF838B001988847054659EA33
:1007B0000B0005D009E0A1690198761C8847054621
:1007C000216A284688470028F5D1681C03D05FEAD3
:1007D000CA7005D015E04FF0FF3004B0BDE8F09FBF
:1007E0002068011D2160D0F800800AE05FEACA702D
:1007F00001D108F8015BA169761C01987F1E88472A
:100800000546002F1ADD681C18D0B9F1000F0DD075
:10081000E81705EBD060421120F01F0059F82210B4
:100820002A1A012090400142E0D107E0BBF1000FFD
:10083000DCD12846216A88470028D7D0E169019891
:100840008847BBF1000F07D1002E05DD5FEACA70B3
:1008500002D1002188F80010A068B84203DDBBF186
:10086000000F03D017B16FF00100B6E73046B4E7D0
:1008700030B505460B462A4613F8014B12F8010B1A
:1008800008B1A042F8D01CB1002802D06D1CF1E7DD
:10089000284630BD10B5431C02E010F8011B71B1B1
:1008A0008107FAD14FF0013202C88C1A8C4314EA46
:1008B000C211F9D0C01A0A0603D0C01E10BDC01A5A
:1008C00010BD0A0401D0801E10BD0902FCD0401EDC
:1008D00010BD032A40F2308010F0030C00F01580A8
:1008E00011F8013BBCF1020F624498BF11F801CB33
:1008F00000F8013B38BF11F8013BA2F1040298BF98
:1009000000F801CB38BF00F8013B11F0030300F001
:100910008585083AC0F0088051F8043B083A51F840
:1009200004CBA0E80810F5E7121D5CBF51F8043BAA
:1009300040F8043BAFF30080D20724BF11F8013B1D
:1009400011F801CB48BF11F8012B24BF00F8013B7F
:1009500000F801CB48BF00F8012B704702F0FF03FD
:1009600043EA032242EA024200F002B84FF00002DA
:100970000429C0F0128010F0030C00F01B80CCF1B1
:10098000040CBCF1020F18BF00F8012BA8BF20F81F
:10099000022BA1EB0C0100F00DB85FEAC17C24BF73
:1009A00000F8012B00F8012B48BF00F8012B70471D
:1009B0004FF0000200B5134694469646203922BFF8
:1009C000A0E80C50A0E80C50B1F12001BFF4F7AF43
:1009D000090728BFA0E80C5048BF0CC05DF804EB25
:1009E000890028BF40F8042B08BF704748BF20F893
:1009F000022B11F0804F18BF00F8012B7047000048
:100A0000014900F03DBD0000403B002010B50368E7
:100A10001C1404EB21449BB289B2194494FBF2F3F9
:100A200002FB134394FBF2F401EB034393FBF2F15B
:100A300002FB113193FBF2F301E05B1E114400292C
:100A4000FBDB016003EB044010BDF0B504464FF042
:100A5000FF3585B00068049060680290A06803903C
:100A6000E068019020690090666906F18040B0F16D
:100A7000004F7CD83C22002104A8FFF7C7FF3C228E
:100A8000014602A8FFF7C2FF1822014603A8FFF79C
:100A9000BDFF411E40F2B55201A8FFF7B7FF0C227F
:100AA000074668460021FFF7B1FF414B00EB870086
:100AB000304400267B4411E0511A01910099491CF1
:100AC0000229009102D00C2908D105E0810705D048
:100AD0000199491C019101E0401C00960099019A7E
:100AE000595C9142E8DD0099012906D11C2A04D104
:100AF000810702D00221CDE90016A0F146018B2921
:100B00003CD2DDE90061002202E09F5C521C3944C6
:100B1000B242FADB012E02DD820700D0491E40F20C
:100B2000B55340F26D16C21700EB927292105A4301
:100B300000F0030303FB062283070A4400D1521E80
:100B4000039E02EB4203049F06EBC303029EC3EB2A
:100B5000031306EB8303174E33441E149BB2C6EBFC
:100B60000616C3EB0313B60007EB830300E005E0B2
:100B700006EB134666F31F43360C02D0284605B039
:100B8000F0BD80C4029E40C4039E40C4019E761CFA
:100B900044F80C6B009E44E902600720521C92FB53
:100BA000F0F600FB162084E823001846E7E7000073
:100BB000FC750000A039CEFD70B5054601B90721CE
:100BC000541A241DB4F5B67F09DD286800F05DF9DC
:100BD000A04204DC2868401C2860012070BD002C65
:100BE00005DA2868401E286000F04FF90444072009
:100BF00094FBF0F0401C70BD2DE9F04F1F461546E8
:100C00008B468246002689B000F08EF9D0F810801D
:100C10000024BBF1000F70D015F8010B10B125288E
:100C20000DD10FE024B1641E06A850F82450F3E75C
:100C3000002130460AF8061009B0BDE8F08F0AF826
:100C40000600C7E0E94615F8010B592870D023DCEF
:100C500049286ED014DC44286DD008DC2528EED05D
:100C600041283ED0422849D043282CD156E045287F
:100C7000E9D0462869D0472876D0482823D17AE0A1
:100C80004D380C281FD2DFE800F0881E061E1E9B80
:100C9000A0A9B3B5C1CFD6E75A38212813D2DFE8CF
:100CA00000F0111212121212121A26374550125960
:100CB0002612741212797E128012891296A212B331
:100CC000BDCB1100A8E725200AF80600761C5E457A
:100CD00013D26D1EA0E7D8F80010BA69D8F8240026
:100CE00011E0D8F80410BA69D8F828000BE0D8F859
:100CF00008103A69D8F82C0005E0B2E0D8F80C10DA
:100D00003A69D8F8300002FB001101EB0809AAE0AB
:100D100006A840F82450D8F818108AE079696420B1
:100D200091FBF0F21332484668A192E0FA6889E03C
:100D30008AE022E0FFE706A840F8245065A5641C7D
:100D40006AE7FA6866A1484683E006A840F824509E
:100D500064A5F4E7384600F0ADF8642190FBF1F2A9
:100D600001FB120258E0FFE7384600F0A3F8024604
:100D70005FA168466DE0BA6864E0B8680C210B308A
:100D800090FBF1F201FB120205E0FA6959A1484615
:100D9000521C5EE03A694DA1F9E77A6852E00A21F7
:100DA00016E0B8680C2802DAD8F81010ADE7D8F8C9
:100DB0001410AAE706A840F82450D8F8341038E0F8
:100DC00006A840F824504DA5B9E73A683AE0092151
:100DD0000AF80610761C5E45B2D342E006A840F839
:100DE000245048A5ABE7BA6902B9072248A1AAE78F
:100DF00000210CE0786900F26C700890D7E90612C7
:100E000008A8FFF7D9FE06E0BA69EFE70121D7E9A4
:100E1000062000F02EF802462CA1AAE706A840F80A
:100E20002450D8F81C1004E006A840F82450D8F844
:100E3000201001EB080582E77969642091FBF0F24C
:100E400000FB121221A17EE77A69484628A102F22E
:100E50006C72FFF7B9FA06E00AF80600761C5E45E8
:100E600001D30020E8E619F8010B00283FF4DFAEBB
:100E7000F2E7511A00D5C91D401A01D5002070476C
:100E8000072190FBF1F0401C704781070CD16421D1
:100E900090FBF1F201FB120151B94FF4C87190FBC4
:100EA000F1F201FB120018B1002000F26D10704742
:100EB0000120FAE708B5416901F26C710091D0E9AF
:100EC00006126846FFF778FE009808BD252E3264AA
:100ED00000000000256D2F25642F257900000000FB
:100EE0002532640025592D256D2D25640000000054
:100EF00025640000252E33640000000025483A25B3
:100F00004D00000025483A254D3A255300000000C9
:100F1000252E3164000000007047704770470000C4
:100F200000487047743B0020004870478C3B00200D
:100F3000704770477047704738B504460A4600202E
:100F40006946AFF30080002808BF38BD024600990B
:100F5000204600F0F5FA012038BD012001F02EB93D
:100F6000F8B5AFF30080054600200C46102000BF06
:100F70000646A819A0420DD9324669460020AFF3B3
:100F80000080070008BF01F019F90098A04218BFBF
:100F90000546C419FFF7C4FF05600746F01D20F0A1
:100FA00007004619284600F00AF8B44208BFF8BD09
:100FB000A21B31463868BDE8F84000F0C1BA0021F4
:100FC0000160C0E9011070471020704770B50446F9
:100FD00085690068C10601D5302600E02026C007DB
:100FE00007D070BDD4E9012130469047206A401CEB
:100FF00020626D1EF6D570BD70B504468569007817
:10100000C00707D170BDD4E9012120209047206A94
:10101000401C20626D1EF6D570BD09684A0501D5D9
:1010200040B27047C905FCD500B2704709684A054F
:1010300001D5C0B27047C905FCD580B27047000029
:101040002DE9F0410646002410687529314616A5A1
:1010500010D0FFF7E2FF002802DA404213A507E0B4
:1010600031688A0701D512A502E0490704D511A508
:10107000012401E0FFF7DAFF00210A2206F124072C
:1010800009E0B0FBF2FCB0FBF2F302FB1C003030D5
:1010900078541846491C0028F3D123462A46304686
:1010A000BDE8F04100F0B4BA000000002D000000DF
:1010B0002B0000002000000011680268006A530540
:1010C00001D508700AE0D30501D5088006E01306B3
:1010D00003D5C217C1E9000200E008600120704793
:1010E00001694A1C02610878704700B58FB0CDE9EC
:1010F00001310021059105497944CDE903101146DC
:101100006846FFF7BDF90FB000BD0000E5FFFFFF27
:101110000A6802F8010B0A607047D1E900239A427D
:1011200002D2531C0B601070704710B5436913B1A5
:10113000AFF3008001E0FFF779F9012010BD1278CC
:1011400000F124010A7000224A700122EDE71168C3
:101150004FF0FF32E9E700002DE9FF5F15468A46B0
:101160000446DFF8AC80F8440027D8E900103E467A
:10117000CDE9001010E03AF816106A4602A800F017
:10118000FDFF411C07D02178890603D5E269391893
:1011900091420DD80744761C2078800602D5E0697C
:1011A000B84205DDAE42E6DB3AF816000028E2D18F
:1011B000A069C01BA0612046FFF708FFD8E9001016
:1011C000CDE90010002017E03AF818106A4602A88E
:1011D00000F0D4FFB0F1FF3F81460BD000250DF1A8
:1011E000080B05E0D4E901211BF8050090476D1CB0
:1011F0004D45F7D308F10100B0428046E4DB206A98
:10120000384420622046FFF7F7FEBDE8FF9F00004C
:101210001A6F00002DE9F0418046D21D22F007022E
:101220000025D2E90002F52915A614D0011E72F19D
:10123000000106DA0023D0EB030063EB020211A6E3
:1012400008E0D8F800108B0701D50FA602E0490787
:1012500001D50EA601251146002408F1240704E05B
:1012600000F088F930323A55641C50EA0102F7D197
:101270002B46324621464046BDE8F04100F0C8B951
:10128000000000002D0000002B00000020000000E6
:1012900030B4002100F1240408E002F00705D20870
:1012A000303542EA4372DB086554491C52EA0305B3
:1012B000F3D10468002310A2250707D5A40600D4A3
:1012C00021B1C46901230DA2641EC46130BC00F0C9
:1012D0009FB910B5044621461068FFF7A7FE0246E5
:1012E0002046BDE810400023D2E7D21D22F00701BE
:1012F000D1E90023CCE7000000000000300000002E
:10130000F0B40D460188090502D5214C7C4402E069
:101310001F4C7C440E34002100F1240608E002F04A
:101320000F071209E75D42EA03721B097754491C53
:1013300052EA0307F3D102780023120704D5702D77
:1013400006D009B1022311342246F0BC00F060B986
:1013500001231034F8E770B504460D4621461068A5
:10136000FFF764FE024629462046BDE87040002390
:10137000C6E7D21D22F00703D3E90023C0E70368C4
:10138000126843F0200303600823C3610023B7E71A
:101390007C6D00003A2800D2303820F02002412A2B
:1013A00001D3A2F13700884201D34FF0FF307047DC
:1013B000026811441378016018467047D1600549EE
:1013C0007944516104497944116200211161114647
:1013D00000F01ABDEDFFFFFF35020000426842B188
:1013E000016811F8013B23B1521EC0E900121846F2
:1013F00070470121C160881E704742685AB1C368B6
:10140000016843B983688B4205D0491E521CC0E96C
:101410000012002070474FF0FF30704710B5203A9F
:10142000C0F00B80B1E81850203AA0E81850B1E89D
:101430001850A0E81850BFF4F5AF5FEA027C24BF53
:10144000B1E81850A0E8185044BF18C918C0BDE84A
:1014500010405FEA827C24BF51F8043B40F8043B13
:1014600008BF7047D20728BF31F8023B48BF11F8C8
:10147000012B28BF20F8023B48BF00F8012B704722
:1014800070B50C46016800204A1C3ED03C22B1FBDE
:10149000F2F302FB1313B1FBF2F12360B1FBF2F3A1
:1014A00002FB1313B1FBF2F118226360B1FBF2F3FC
:1014B00002FB1313B1FBF2F146F2E0320A440721BA
:1014C000A360B2FBF1F301FB132140F2B553B2FB71
:1014D000F3F5A161B2FBF3F103FB15228900B2F52C
:1014E000B77F08D39B10521EB2FBF3F52944B2FB21
:1014F000F3F503FB15220F4BE261616189077B4421
:101500000CD03B2A0AD3521C08E02C212046FFF7BE
:101510004FFA0120E0600AE0521A401C195C914227
:10152000FAD9521CC4E903204FF0FF302062204654
:1015300070BD0000B26B0000004870476C3B00209B
:10154000034640688C46002818BF88423CBF0346CB
:101550004068F8D318681844884207D00CF103009B
:1015600020F00700001D411A521A0146081D0A60AA
:10157000FEF703BF30B5B0F10A024FEA900E71F1E9
:1015800000034EEA817EB0EB0E0061EB91014FEA61
:10159000101E4EEA017E10EB0E0041EB11114FEAD6
:1015A000102E4EEA016E10EB0E0041EB11214FEAB6
:1015B000104E4EEA014E10EB0E0041EB1141401867
:1015C00041F100014FEAD00040EA41704FEAD101F9
:1015D00010EB80054FEA810444EA907444EB010467
:1015E0006D1944EB0404521BA3414FF0000348BFA4
:1015F0000A3200D530BD401C41F1000130BD10B5AC
:10160000044600F049FE0068005D00F0010010BDD6
:101610002DE9F0470D4699469246044600F124080C
:101620000168880604D5E06921F01001216000E01E
:101630000120A84201DD471B00E00027A1697A19BB
:1016400002EB0900081AA0612078C00602D42046E7
:10165000FFF7BCFC002608E0D4E901211AF80600D7
:101660009047206A401C761C20624E45F4DB2078AF
:10167000C0060AD52046FFF7A9FC06E0D4E90121FF
:1016800030209047206A401C2062381EA7F10107D5
:10169000F4DC07E0D4E9012118F805009047206A3E
:1016A000401C2062281EA5F10105F3DC2046FFF74F
:1016B000A3FC2078000602D50220BDE8F0870120B7
:1016C000FBE770472DE9FF4F0C461E464FF0FF37F2
:1016D0008BB0D2E90001DDF860800A908A46C1F340
:1016E0000A5505B93D46002108464FF00000BAF101
:1016F000000F00F4400005DA00EB80004FF44001D9
:1017000001EA50004FEA9059B9F1010F00DDB946E6
:101710000A9850EA4A000ED044F61050A5F2FF3560
:1017200045432F14B8F1000F1ED07542291E1EDD4F
:10173000C9F100021CE0B8F1010F4FF0000001D028
:10174000302103E0F24305E02154401CB042FBDBB2
:1017500030460022002121540B99C1F80880C1E9CC
:1017600000200FB0BDE8F08FBD1B6D1CDEE74A46C0
:1017700000DA694206A800F0D7FD06AB93E807003F
:1017800003AB83E8070050460A9900F09BFE8DE802
:101790000700A0F500501F3800900398002D0ADDC7
:1017A00042F21F014A460844002303A903906846F9
:1017B00001F004F909E0A0F500504A461F38002363
:1017C00003A90390684601F00EF98DE807000004B4
:1017D000000C03D04FF0FF30410800E01046B8F194
:1017E000000F03D00022009215461EE0751E05D49E
:1017F000FFF7C0FE303262556D1EF9D5B3460122A7
:10180000084302D000227F1C04E02078302801D158
:1018100000227F1E002A099784D01DE0112D07DACF
:10182000FFF7A8FE303262556D1C50EA0102F5D177
:10183000084302D00098C8B10EE00021681E05E000
:10184000235C625C63542254401E491C8142F7DBD6
:10185000AB46A81B401E0990002004F80B000B9813
:10186000099AC0F80880C0E9002B7AE711264FF0EA
:10187000000857E72DE9F04F88460446D21D22F0B4
:10188000070191B0D1E90001CDE90A0104F07EF928
:1018900002460B98C00F01D02D2007E02068810779
:1018A00001D52B2002E0202101EAC000032A099083
:1018B00001D0072A05DB03464146204600F0F4FC30
:1018C0000BE12078800601D5E06900E00620B8F140
:1018D000650F814606D0B8F1660F18D0B8F1670FD2
:1018E00070D131E00020B9F1110F009001DB11231C
:1018F00001E009F101030AAA01A90CA8FFF7E2FE21
:10190000DDE90C70002609F10105834647E001205E
:101910004B4600904FF000470AAA01A90CA8FFF718
:10192000D1FEDDE90DB00C995D46002610B909F134
:1019300001000D18B9EB050003D4C0F1FF3609F121
:101940000105A5EB09002BE0B9F1010F01DA4FF019
:1019500001090020B9F1110F0090484601DD112363
:1019600000E003460AAA01A90CA8FFF7ABFEDDE9D7
:101970000C704D4600268346207800070AD4AB45FC
:1019800000DA5D4601A8012D04DD411911F8011CA2
:10199000302907D04F4502DA17F1040F04DA01208D
:1019A00082460FE06D1EEEE7002F02DCED1B3E4489
:1019B00003E0781CA84200DD7D1CB81B00F1010A81
:1019C0004FF000472078000703D4AA4501DB4FF011
:1019D000FF3A0021B7F1004F0DF143088DF8431095
:1019E00024D002202B23002F01DA7F422D230A214D
:1019F000021EA0F1010000DC5FB197FBF1FC97FB38
:101A0000F1F201FB1C7C17460CF1300C08F801CDFB
:101A1000EEE7A8F1010003702188090501D54521F1
:101A200000E06521A0F1010800F8011C09980FA948
:101A3000A1EB0807FF1D00B10120411901EBEA707D
:101A4000A1693844081A401EA0612078C00602D45B
:101A50002046FFF7BBFA099828B1D4E90121904745
:101A6000206A401C20622078C00622D52046FFF75D
:101A7000ADFA1EE0002E04DBB34502DD01A8805D57
:101A800000E03020D4E901219047206A401C206208
:101A9000761CAAF101005FEA000A0AD1FFF744FAB6
:101AA000C0680168405CD4E901219047206A401C6D
:101AB0002062281EA5F10105DCDC07E0D4E9012144
:101AC00018F8010B9047206A401C2062381EA7F1CD
:101AD0000107F3DC2046FFF78FFA032011B041E63F
:101AE0002DE9F04F04460D46D21D22F0070089B0C3
:101AF000D0E900974846394604F048F80246F80F06
:101B000001D02D2307E02068810701D52B2302E0B7
:101B1000202101EAC0038DF820300BB1012000E044
:101B20000020032A824601D0072A04DB29462046EA
:101B300000F0BAFB3FE12078800601D40D2500E0DB
:101B4000E569C7F30A560D2D49DA00214FEA175B04
:101B500008464FF00000002F00F4400007DA00EBC9
:101B600080004FF4400100EBD07001EA6000811565
:101B7000012901DD4FF0FF3100224FEA850CBCF155
:101B8000180F06D31346ACF118004FF08052C24034
:101B900003E04FF4801323FA0CF30CF10C0CBCF1AE
:101BA000200F04D3ACF1200C09FA0CF001E007FA85
:101BB0000CF000294FF0004801DD18B90FE00ED1FC
:101BC00040450CD319EB02095F4121B9404502D1D0
:101BD0009F4329EA0209BBEB175F00D0761C2088DF
:101BE000000502D57B48784402E07A4878441938E9
:101BF00008AA302302F80A30037C0AF10101002E02
:101C00000AF1020A53546A4602DC4FF0300101E047
:101C10004FF031014FF001088DF8001002D0A6F20C
:101C2000FF3603E059EA470100D06B4E002D02DC7D
:101C30002178090704D54FF002082E218DF80110F4
:101C4000C44600210BE0C7F303433F01C35C491CBA
:101C50006D1E02F80830052908F1010801DA002D8F
:101C6000F1DC00210CE000EB1973491C1B786D1EA0
:101C7000082902F808304FEA091908F1010801DAC9
:101C8000002DF0DC21688B0602D516E0A8F10108D2
:101C9000E04505DD02EB080313F8013C302BF5D0DD
:101CA000B8F1000F09DD02EB080313F8013C2E2BFD
:101CB00003D1090701D4A8F10108002D05DD3E215B
:101CC00002F808106D1E08F10108407C002E02F891
:101CD000080008F1010804DA2D20764202F8080015
:101CE00002E02B2002F808000A214FF47A708642A5
:101CF00008F101080BDB96FBF0F3303302F80830F3
:101D000096FBF0F308F1010800FB136601E0642E76
:101D10000CDB642096FBF0F3303302F8083096FBBE
:101D2000F0F308F1010800FB136601E00A2E06DB60
:101D300096FBF1F0303002F8080008F1010896FB3C
:101D4000F1F001FB1060303002F80800A16908F1E1
:101D5000010808EB050202EB0A00081AA0612078CE
:101D6000C00602D42046FFF731F9216A08AE01EB24
:101D70000A00206204E0D4E9012116F8010B904723
:101D8000BAF1010AF7D22078C00602D52046FFF743
:101D90001DF96E4609E016F8010B3E280FD0D4E974
:101DA00001219047206A401C2062B8F10108F2D25C
:101DB0002046FFF721F909B00320BDE8F08F206A23
:101DC0002844206203E0D4E90121302090476D1EB1
:101DD000EBD3F8E7E964000002FCFFFF10B54369AC
:101DE00013B1AFF3008001E0FFF7B6F9012010BD99
:101DF000128800F1240182840022C2840122EDE7CE
:101E000011684FF0FF32E9E72DE9F34F4FF0000A78
:101E10000C4656468DB001200C9001F10C000B9041
:101E200062690B9801219047051E2DD0252D2CD0DD
:101E3000216A8847C0B162690B9801219047216AE5
:101E400088470028F7D16269411E0B98904700E04F
:101E5000761CA1690D988847216A88470028F7D128
:101E6000E1690D988847DBE7A1690D988847A8428A
:101E7000074601D1761CD3E7E1690D9888477F1C9E
:101E800002D1BAF1000F6FD06CE162690B980027A4
:101E90003D46394690472A2804D162690B980121B2
:101EA00090470125DFF8D08262690B9801219047A5
:101EB000A0F130010A290AD24745E5DC07EB87018A
:101EC00000EB4107303FDFD445F01005ECE7E906B1
:101ED00001D46FF000476C280AD04C2814D0682831
:101EE00015D06A280DD074281CD07A281AD01DE08D
:101EF00062690B98012190476C2802D045F00405D7
:101F000014E045F002050DE045F020050AE06269A5
:101F10000B9801219047682802D045F0080505E09C
:101F200045F4006562690B9801219047C4E90157A7
:101F300065283DD019DC58287AD00CDC452837D0EC
:101F400004DC252826D041289ED131E046282FD018
:101F5000472899D12CE05B2877D0612828D06328C6
:101F60007CD0642823D15AE0F7E06F2848D008DC01
:101F700066281DD067281BD0692821D06E2816D16D
:101F800027E0702845D0732868D0752847D0782876
:101F90000DD14DE0A1690D988847252805463FF4ED
:101FA00069AFE1690D9888476D1C3FF46AAFD9E0CD
:101FB0000D9923466A466FF00100AFF30080C6E03A
:101FC00045F0400023464FF000026060A80736D479
:101FD0003EE0E8077FF447AF2068011D21600068FC
:101FE000290501D506701BE7290701D5068017E7EB
:101FF000A90703D5F117C0E9006111E706600FE7F3
:1020000045F0400023464FF008026060A80716D450
:102010001EE040F60E0125EA0100606016E045F082
:10202000400023464FF00A026060A80707D40FE083
:1020300045F040006060A80708D5234610220D999E
:102040006FF00100AFF3008081E007E0102223462B
:102050000D996FF00100FEF7F5FA78E04FF00009F6
:1020600063284F46C8464B46CB4602D05B2807D074
:1020700039E02079C00601D40120A060012732E0B8
:102080006269D4F80CB00B98012190475E2807D103
:102090004FF0010949466269D4F80CB00B9890479B
:1020A000216939B900210A4603AB43F82120491CB4
:1020B0000829FADBD8B3216949B308F1010862693C
:1020C0000B98012190475D28F4D1B9F1000F09D098
:1020D000002003A951F82020D24341F82020401CC1
:1020E0000828F7DB03AB2069002820794FEA40700D
:1020F0001ED05B462246CDF80080CDE901970D99B0
:1021000000286FF0010020DAAFF300801FE0C11754
:1021100003AA00EBD1614B1121F01F0102EB8302F6
:10212000411A13680120884003431360C7E719E090
:102130000D99224600286FF00100009702DAAFF3F4
:10214000008004E0FEF724FB01E0AFF300800028EC
:102150000ADA401C06D10C9820B14FF0FF300FB0C6
:10216000BDE8F08F5046FAE7E90701D10AF1010A0C
:10217000064400200C9053E6CCCCCC0C70B516462F
:102180000C46054600F088F8036893F80101012821
:1021900006D0FF2C0FD8185D68B101202C7070BDDF
:1021A000D3F807013246214603F2071303442846B9
:1021B000BDE8704018474FF0FF3070BD10B500F01B
:1021C00033F9BDE8104000F02AB900004FF0013C9F
:1021D00050F8042B51F8043B9A4221D1A2EB0C0396
:1021E000934313EACC1317D150F8042B51F8043B56
:1021F0009A4215D1A2EB0C03934313EACC130BD1F3
:1022000050F8042B51F8043B9A4209D1A2EB0C037D
:10221000934313EACC13DBD04FF00000704700BFAC
:10222000D01A01BAB1FA81F101F0180122FA01F0D5
:10223000CB40C1F12001DBB2C0B2C01A2CFA01F3CD
:10224000D11A914311EAC311E6D170477047754620
:10225000FFF772F9AE4605006946534620F00700C5
:10226000854618B020B5FEF747F8BDE820404FF08E
:1022700000064FF000074FF000084FF0000B21F070
:102280000701AC46ACE8C009ACE8C009ACE8C0093D
:10229000ACE8C0098D46704710B5FEF745FE001D3D
:1022A00010BD00BFF15500002DE9F0411F46044666
:1022B00003260168072A01F4006004DB08B116A5B3
:1022C00005E016A503E008B115A500E015A521F06D
:1022D00010002060A069C01EA0610FB1401EA06167
:1022E0002046FEF773FE4FB1D4E9012138469047EE
:1022F000206A401C2062C01C206206E0206AFAE7C7
:10230000D4E9012115F8010B9047761EF8D220463A
:10231000FEF772FEBDE8F0814E414E006E616E0028
:10232000494E4600696E66002DE9F0478146164623
:102330008AB0354878440DC88DE80D00324878449D
:10234000801C03AC0DC884E80D0041F69B300844A6
:10235000372190FBF1F290FBF1F5A5F1800501FB2F
:1023600012041B3C02D56442012000E00020DFF88B
:1023700098A080460027FA44AAF1BE0A0EE0E007C2
:102380000AD03246684607EB470101230AEB810178
:1023900000F029FB8DE8070064107F1C002CEED1B3
:1023A000194F7F44AE3F19E0E80715D007EB041042
:1023B0000DF1180A90E80E008AE80E00C068F0429D
:1023C00001D1981908903246012306A903A800F00C
:1023D0000AFB03AB83E807006D10641C002DE3D1FA
:1023E0004FF0010332466946B8F1000F03A802D04E
:1023F00000F0E4FA01E000F0F6FAC9E90001C9F8DA
:1024000008200AB0BDE8F0872C5E000010B5044635
:10241000AFF300802046BDE81040FDF70DBF002857
:1024200001D000F029B8704710B5012805D000216F
:1024300003A000F027F8012010BD09A1F8E7000073
:1024400053494752544D454D3A204F7574206F669D
:102450002068656170206D656D6F72790000000005
:102460003A2048656170206D656D6F727920636FE9
:10247000727275707465640001491820ABBEFEE786
:102480002600020070B505460C460A2000E06D1CCF
:1024900000F011F835B128780028F8D102E0641C6A
:1024A00000F009F814B120780028F8D1BDE8704098
:1024B0000A20AFF3008008B569468DF800000320BC
:1024C000ABBE08BD5FEA400C08BF91F0000F4FEAB9
:1024D0008C234FEAC12243EA51514FEA1C5018BFE6
:1024E00000F5F0404FEA300018BF41F000415FEACC
:1024F0006C5C00F02980BCF1FF3F08BF40F08040D9
:102500007047130C06BF12044FF0100C4FF0000C74
:10251000130E04BF12020CF1080C130F04BF1201BA
:102520000CF1040C930F04BF92000CF1020CD30FBA
:1025300004BF52000CF1010C11464FF00002A0F153
:102540001F00A0EB0C00704711F0004F08BF704750
:1025500031F000413FF4D5AF0B0C06BF09044FF03A
:10256000100C4FF0000C0B0E04BF09020CF1080C0C
:102570000B0F04BF09010CF1040C8B0F04BF890081
:102580000CF1020CCB0F04BF49000CF1010CCCF193
:102590002003A0EB0C0022FA03F302FA0CF241EA4A
:1025A000030100F10100704720F07F4C80EA030036
:1025B00023F07F47ACEB070303F57C5300F00040AA
:1025C00003F1FF032DE980494FEA154B09B44FEAA7
:1025D000144325EA0B4E24EA03480FF2042606EBC7
:1025E000132749083E785FEA320203FB0667C7F506
:1025F000000707FB06F64FEA54374FEAD64606F1C6
:10260000020607FB066CCCF1005C4FEA1C472CEA83
:10261000074C07FB06F40CFB06F504EB15464FEAE6
:10262000961634BF00204FF000404FEAD13706FB2A
:1026300007FC4FEA1C4C0CFB0BF7D21B03FB0CF7FF
:1026400061EB07010CFB0EF7B0EB074072EB174292
:102650000CFB08F734BFA2EB0742B2EB074261EB79
:1026600017414FEA0C444FEA910706FB07FC4FEA7B
:102670001C4C0CFB0BF7B0EBC74072EB573203FB63
:102680000CF734BFA2EBC742B2EBC74261EB573144
:102690000CFB0EF7B0EBC70072EB57720CFB08F7A0
:1026A00034BFA2EBC702B2EBC70261EB5771039FC5
:1026B0004FEA816141EA921104EBCC044FEAD13731
:1026C0004FEA826206FB07FC42EA90124FEA806002
:1026D0004FEA1C4C0CFB0BF7D21B03FB0CF761EB16
:1026E00007010CFB0EF7B0EB074072EB17420CFB37
:1026F00008F734BFA2EB0742B2EB074261EB174188
:102700004FEA8C554FEA910704EB9C2406FB07FC2B
:102710004FEA1C4C0CFB0BF7B0EBC74072EB573287
:1027200003FB0CF734BFA2EBC742B2EBC74261EB2D
:1027300057310CFB0EF7B0EBC70072EB57720CFB76
:1027400008F734BFA2EBC702B2EBC70261EB5771C7
:1027500015EB4C254FEA816141EA92114FEA826202
:102760004FEAD13742EA901206FB07FC44F100041D
:102770004FEA80604FEA1C4C0CFB0BF7D21B03FBAB
:102780000CF761EB07010CFB0EF7B0EB074072EBA7
:1027900017420CFB08F734BFA2EB0742B2EB07422B
:1027A00061EB174115EB1C154FEA813141EA92416B
:1027B0004FEA823242EA90424FEA80304FEA0C768A
:1027C00044F1000448EA03434EEA0B484FF0000E80
:1027D000B2EB080C71EB030724BF624639464EEB9F
:1027E0000E0E4FF0000B0018524149414BEB0B0B02
:1027F000B2EB080C71EB03077BF1000B24BF6246C0
:1028000039464EEB0E0E4FF0000B00185241494175
:102810004BEB0B0BB2EB080C71EB03077BF1000BDE
:1028200024BF624639464EEB0E0E51EA020718BF2E
:1028300046F0010616EB0E7655F1000254F1000148
:1028400003D5BDE88901BDE80088BDE88901BDE880
:102850000048B619524141EB0101A3F10103704751
:1028600080807F7E7D7C7B7A7978777676757473CD
:10287000727171706F6E6E6D6C6C6B6A6A6968688C
:10288000676666656464636362616160605F5F5E22
:102890005E5D5D5C5C5B5B5A5A5959585857575698
:1028A00056555555545453535252525151505050FD
:1028B0004F4F4F4E4E4D4D4D4C4C4C4B4B4B4A4A4F
:1028C0004A49494948484847474747464646454593
:1028D00045444444444343434342424242414141CC
:1028E000002B9C4630D477002BD01CB54FEA37071D
:1028F00003B44FF010004FF01001BAF1000F06D0F2
:10290000BCF1000FDCBF40F0080040F008014FF0C0
:1029100000000FBCBDE810400BF1010BBBF1010F33
:1029200008BF5FEA170722BF12F1010211F101018E
:102930004FF0004143F1000300F0004043EA000083
:102940007047F9D35708D0E746EA064613F1400F1F
:102950004FEA16461FDD13F1200FDFBF16430A466C
:10296000002120335B42BED0C3F1200746EA064671
:1029700002FA07F74FEA164646EA0706C3F12007B0
:1029800022FA03F201FA07F721FA03F14FF00003EC
:1029900042EA0702A7E746EA020646EA06464FEA87
:1029A000164646EA0106BCBF46EA0646360C4FF01C
:1029B00000034FF000024FF0000194E72DE9804C36
:1029C0009A46934670B491E8380007C831EA400C43
:1029D00048BF34EA430C03D5FFF7E6FDFFF780FF5D
:1029E000F0BCBDE8008C2DE9804C9A46934670B44B
:1029F00091E8380007C810F0804F08BF13F0804FEF
:102A000003D100F005F8FFF76BFFF0BCBDE8008CC8
:102A100020F07F4780EA030023F07F4C07EB0C0394
:102A2000A3F57C5300F00040A3F1FE0392F0000FE9
:102A300000F0B38095F0000F00F077802DE9014998
:102A40004FEA11404FEA144621EA004800FB06FC19
:102A500024EA064708FB06F607FB08F800FB07F721
:102A600018EB06484CEB164C4FEA124B18EB074894
:102A70004FEA15464CEB174022EA0B4E0BFB06FCC7
:102A800025EA06470EFB06F607FB0EFE0BFB07F7D3
:102A90001EEB064E4CEB164C4FF000061EEB074E9D
:102AA0004CEB174B18EB0B0840F1000018EB0E0B2A
:102AB00058EB000840F100008F1A4FF000013CBFB6
:102AC000C943661B14BFB5EB040C00213CBFC943CE
:102AD000F61B4FEA17444EEA8E0E27EA04454FEAEA
:102AE0001C4704FB07622CEA074C05FB07F70CFBAD
:102AF00005F604FB0CFC16EB074642EB174216EBFF
:102B00000C4642EB1C421BEB060658EB020241410D
:102B100046EA9E0601D5BDE80189B619524141EB4E
:102B20000101A3F10103BDE801894FEA14454FEA11
:102B3000114724EA054621EA074C05FB07F406FB8A
:102B400007F70CFB06F105FB0CFC11EB074144EB0E
:102B500017444FEA124711EB0C4144EB1C4422EAA4
:102B6000074C05FB07F206FB07F70CFB06F605FB17
:102B70000CFC16EB074642EB174216EB0C4642EBF9
:102B80001C456A1854F1000148BF7047B6195241FC
:102B900041EB0101A3F10103704795F0000F37D01D
:102BA0004FEA11424FEA144721EA024624EA074C51
:102BB00002FB07F106FB07F70CFB06F402FB0CFC1B
:102BC00014EB074441EB17414FEA154714EB0C4453
:102BD00041EB1C4125EA074C02FB07F506FB07F712
:102BE0000CFB06F602FB0CFC16EB074645EB174503
:102BF00016EB0C4645EB1C42121951F1000148BF7F
:102C00007047B619524141EB0101A3F1010370472E
:102C10004FEA14454FEA114724EA054621EA074CDA
:102C200005FB07F106FB07F70CFB06F24FF0000669
:102C300005FB0CFC12EB074241EB174112EB0C4277
:102C400051EB1C4148BF7047921841EB0101A3F1C1
:102C5000010370470149012008707047D00000202F
:102C600064210148FDF782BEA03A002070B50E46EF
:102C70000546C824FDF70EFE82B24FF0FF33294609
:102C80000A4801F027FE0CE000F014F830B9314694
:102C90000748FDF7EDFD08B1002070BD0A2000F0E7
:102CA0009BFA641EE4B2EFD2012070BDF80400204C
:102CB000A03A00200448017819B1002101700846AB
:102CC0007047012070470000D000002010B509A116
:102CD0000948FFF7CBFF0028F9D1FFF7C1FF0648ED
:102CE00006A1401DFFF7C2FF0028F8D1BDE8104043
:102CF000FFF7B6BF4F4B00002079000841542B006E
:102D0000FEE70000014800F057B900004005002030
:102D100030B590F840500124AC40C56B6C6004683D
:102D200063604368102B036803D099600068C26039
:102D300030BD9A600068C16030BD704772B6FEE772
:102D400008B508480090084B08A21D210948FDF766
:102D500051FB02F095F90748BDE80840C01E02F09B
:102D6000C7B90000183B0020043B002025732C2528
:102D700073000000B300002000B593B00FA80090CE
:102D800010AB11AA13A11648FDF73EFC0CA8009049
:102D900013480DAB0EAA13A10B30FDF735FC2C2107
:102DA00001A8FDF705FE1198A0F26C70069010982E
:102DB000401E05900F9804900E9803900D98029075
:102DC0000C98019001A8FDF740FE0949486013B036
:102DD00000BD000025642F25642F2564000000003D
:102DE0002C3B002025643A25643A2564000000004D
:102DF000D00000201CB510A11048FFF737FF08B124
:102E000002201CBD0E49A1F10B00CDE90001A0F18B
:102E10001403A0F128020BA18C38FDF7F5FB042860
:102E200003D0FFF71DFF01201CBDFFF7A5FFFFF733
:102E300017FF00201CBD00004F4B00003479000834
:102E4000373B00200D0A2B43495047534D4C4F430D
:102E50003A20302C2531395B5E2C5D2C2531395BD5
:102E60005E2C5D2C2531305B5E2C5D2C253873008B
:102E700010B503F08BFE4FF47A74234608221149F3
:102E8000114801F027FD2346072210490E4801F0A2
:102E9000BBFC0E490E48CA78C270097901710D4910
:102EA000096841710A0A82710A0CC271090E017225
:102EB00003F00AFD03F01AFD03F00EFDBDE810401B
:102EC00004F0F6BB47790008B0040020D8000020C9
:102ED00090000020D400002010B590F821100022AE
:102EE000022905D00421816380F82020012010BD33
:102EF00001680B6823F00E030B6001680B6823F078
:102F000001030B6090F84030C46B012101FA03F318
:102F1000636080F8211080F82020104610BD00006A
:102F200010B590F821100024022903D004218163F8
:102F300001243DE001680A6822F00E020A6001687F
:102F40000A6822F001020A601A4A0168914201D11E
:102F5000012121E0174A1432914201D110211BE0D6
:102F6000144A2832914201D1891515E0114A3C32A8
:102F7000914201D189140FE00E4A5032914202D1A0
:102F80004FF4803108E00B4A6432914202D14FF491
:102F9000801101E04FF08071064A083A516001212A
:102FA00080F82110002180F82010416B01B1884782
:102FB000204610BD080002402DE9F05FC16B0C688F
:102FC00001680B68D0F840C0042202FA0CF2494DA7
:102FD000DFF824A1494E4A4FDFF828B1DFF828E195
:102FE00022422CD05A072AD50A68920603D40A68CE
:102FF00022F004020A600168A94201D1042219E00A
:10300000514501D1402215E0B14202D14FF4806216
:1030100010E0B94202D14FF480420BE0594502D191
:103020004FF4802206E0714502D14FF4800201E0A6
:103030004FF080622F4908394A60C16A3BE04FF087
:10304000020808FA0CF818EA040F4FF000094FF0D4
:10305000010235D05FEA837832D50B689B0605D430
:103060000B6823F00A030B6080F821200168A94255
:1030700001D1022219E0514501D1202215E0B142CF
:1030800002D14FF4007210E0B94202D14FF4005265
:103090000BE0594502D14FF4003206E0714502D1F0
:1030A0004FF4001201E04FF00072124908394A60F3
:1030B00080F82090816A00291AD0BDE8F05F0847A7
:1030C000082505FA0CF5254212D01B0710D50B6810
:1030D00023F00E030B6090F84010C36B02FA01F16D
:1030E0005960826380F8212080F82090016BE2E72C
:1030F000BDE8F09F080002401C0002403000024082
:1031000044000240580002406C00024030B528B331
:1031100008C8134914221944B1FBF2F18900C163B4
:1031200010498163022141771A6843F6F0718A439E
:10313000D0E900142143D0E902452C43214304691E
:1031400021434469214384692143114319600021CB
:103150004163012242770177084630BD012030BD2E
:10316000F8FFFDBF0000024070B5044690F8200053
:10317000002501280CD0012084F8200094F821605B
:103180000020012E06D084F820000225284670BDBC
:10319000022070BD022684F82160A06320680668C2
:1031A00026F0010606602046FFF7B2FDE06A00281F
:1031B0002068016802D041F00E0106E021F0040110
:1031C00001602068016841F00A010160206801681F
:1031D00041F001010160D9E770B5044600F010F933
:1031E0000546601C02D004480078044400F008F949
:1031F000401BA042FAD370BD080000202DE9F84F13
:10320000DFF8B8910024A9F1040B23460F2709F138
:10321000040AABF1040EC9E00125A5402A40AA42E8
:103220007DD1674ED1F804C0ACEB0608B44532D06E
:1032300014DCBCF1030F3AD009DCBCF1000F2AD03A
:10324000BCF1010F1CD0BCF1020F31D11DE0BCF16B
:10325000110F17D0BCF1120F2AD119E0B8F5881F51
:1032600019D006DCB8F5803F15D0B8F5801F1FD106
:1032700011E0B8F5001F0ED0B8F5041F18D10AE010
:10328000CB6815E0CB681B1D12E0CB6808330FE05C
:10329000CB680C330CE08B682BB1012B4FF008038B
:1032A00003D0456104E0042302E0056100E000234F
:1032B000FF2A01D8064601E000F104064FEA840522
:1032C00001D9A5F12005D6F8008007FA05FC28EA07
:1032D0000C0803FA05F548EA0508C6F800804D68B1
:1032E000ED0062D5374DAE6946F00106AE61AD69BD
:1032F00024F0030605F001050095334D06EB050C9F
:10330000DCF80850A607360F07FA06F825EA080584
:10331000DFF8B880404503D14FF0000817E044E0E3
:10332000DFF8AC80404502D14FF001080FE0DFF834
:10333000A480404502D14FF0020808E0DFF89880F1
:10334000404502D14FF0030801E04FF0040808FAAD
:1033500006F848EA0508CCF808804D68D9F80060FE
:10336000ED024D4601D5164300E096432E604D68B0
:10337000DAF80060AD02554601D5164300E09643E9
:103380002E604D68DBF80060AD035D4601D5164345
:1033900000E096432E604D68DEF80060ED03754650
:1033A00001D5164300E096432E60641C0D682A4642
:1033B000E5407FF431AFBDE8F88F0000080401401C
:1033C0000000111000100240000001400008014000
:1033D000000C0140001001400014014080680840CA
:1033E00000D001207047C26821EA02030A4043EA84
:1033F0000241016170470AB1016170470904FBE7AE
:1034000001488068704700000800002070B5040083
:1034100025D094F83D00002520B984F83C50204682
:1034200000F04EF9242084F83D002068016821F066
:10343000010101602068016841F4004101602068D9
:10344000016821F40041016000F0F8FA4D4A61681A
:10345000914201D84C4900E04C49884201D20120F8
:1034600070BD4B492368B0FBF1F15E6826F03F0662
:103470000E435E606368934206D94FF496735943D6
:103480004FF47A73B1FBF3F12368491C1E6A26F0EE
:103490003F06314319626168914210D84900401ECD
:1034A000B0FBF1F2521CC2F30B02042A01D2042039
:1034B00022E0B0FBF1F0401CC0F30B001CE0A2685E
:1034C000F2B301EBC10303EB0116431EB3FBF6F3AA
:1034D0005B1C43F480431B0549D092B301EBC1024E
:1034E00002EB0111401EB0FBF1F0401CC0F30B00D9
:1034F00040F4804040F400402168CA694CF6FF73F4
:103500009A431043C861D4E9071001432068026858
:1035100022F0C00211430160D4E903010143206895
:10352000826848F2FF339A4311438160D4E9050170
:1035300008432168CA6822F0FF021043C86001E016
:103540000EE016E02068016841F001010160256489
:10355000202084F83D00256384F83E50002070BD93
:1035600001EB4106431EB3FBF6F35B1CB3E70120FE
:10357000C2E701EB4101401EB0FBF1F0401CC0F37B
:103580000B00B7E7A086010080841E0000093D0003
:1035900040420F002DE9F84F1F4690468A460446E8
:1035A000DDF82890FFF72CFF054694F83D00202811
:1035B0007FD11923012240492046009501F0C8FA25
:1035C000002876D194F83C00012872D0012084F8BC
:1035D0003C0020680168C90703D1016841F001017E
:1035E00001602068016821F400610160212084F8F5
:1035F0003D00102084F83E0000262664C4F8248094
:103600006785608D20852D48E0622B464A465146ED
:10361000204601F023FA90B9206841698069009042
:1036200036E02A464946204601F038FB50B1206C6E
:10363000042804D12068016841F400710160012070
:10364000BDE8F88F606A216800780861606A401CF4
:103650006062618D491E6185218D491E89B2218577
:1036600022685369DB435B070BD451B100781061CA
:10367000606A401C6062608D401E6085208D401E27
:1036800020852A464946204601F036FA0028CED148
:10369000208D0028C5D154F83D0B016841F400711C
:1036A0000160202004F81E09E67766770020C7E74E
:1036B000FFE70220C4E70000020010000000FFFF47
:1036C00010B586B00021009101910291039100682C
:1036D0000F4988421AD10F4CA06940F00800A06140
:1036E000A069694600F008000490C02000901220F4
:1036F0000190032003900848FFF780FDE06940F443
:103700000010E061E06900F40010049006B010BD04
:103710000054004000100240000C01401CB5022380
:103720008DF804000A208DF80510009001AA782178
:103730000148FFF72FFF1CBD640300200248816889
:10374000027811448160704708000020074810B5D6
:10375000016841F010010160032000F0A7F80F207C
:1037600000F006F800F050F8002010BD00200240E4
:1037700030B505461F4887B0C16941F00401C161F9
:10378000C06906A900F00400009001A800F036F915
:103790000498B0B100F052F940001749174AB0FB45
:1037A000F1F11748491E0260416040F2E732002102
:1037B000C0E903218160816100F0C5FC040003D0F1
:1037C00015E000F03BF9E8E70D4800F0EBFC0400E1
:1037D0000DD11E2000F03CF8102D07D20022294602
:1037E0001E2000F043F80748056000E0012407B000
:1037F000204630BD0010024040420F00000800404B
:10380000840500200C0000200F4808B5816941F0B4
:1038100001018161816901F001010091C16941F0FB
:103820008051C161C069002200F0805000900F21DA
:10383000901E00F01BF80548416821F0E06141F05E
:103840000071416008BD000000100240000001400E
:10385000002809DB00F01F0201219140400980008F
:1038600000F1E020C0F8001170470000F0B40E4BEA
:103870001B680C46C3F30223C3F10705042D00D9CE
:103880000425191D072901D2002300E0DB1E0126B3
:1038900006FA05F1491E214099409E40761E1640C9
:1038A0003143F0BC02F086B90CED00E0064900F0AF
:1038B000070208684FF6FF03184040EA0220034A57
:1038C00010430860704700000CED00E00000FA05AE
:1038D0002DE9F0470F46050061D0434E306800F0F7
:1038E0000700B84209D2306820F007003843306042
:1038F000306800F00700B84251D128683B4C81077E
:1039000012D5400703D5606840F4E0606060287815
:10391000000703D5606840F4605060606068A96883
:1039200020F0F000084360602878C00728D068685D
:10393000012810D02168022810D0890700292EDA2A
:10394000616821F0030101436160FFF759FD804682
:1039500041F288390DE021688903EFE78901EDE73D
:10396000FFF74EFDA0EB0801494502D90320BDE851
:10397000F0876068696800F00C00B0EB810FEFD150
:10398000306800F00700B8420BD9306820F007001B
:1039900038433060306800F00700B84201D00120A1
:1039A000E5E72878400705D56068E96820F4E0601D
:1039B000084360602878000706D56068296920F40C
:1039C000605040EAC100606000F058F86168084A41
:1039D000C1F30311515CC8400649086006480068FD
:1039E000FFF7C6FE0020C2E70020024000100240A0
:1039F000FE780008140000200C0000200F22026056
:103A00000C4A536803F003034360536803F0F00368
:103A10008360536803F4E063C36052684FF4E0636B
:103A200003EAD20202610448006800F0070008605F
:103A30007047000000100240002002400448054981
:103A400000684968044AC1F30221515CC8407047CC
:103A500014000020001002400E79000804480549B7
:103A600000684968044AC1F3C221515CC8407047EC
:103A700014000020001002400E7900080E4A516820
:103A80000E4801F00C03042B11D0082B0FD10C4869
:103A9000C1F38343C903C05C0AD55168084AC1F326
:103AA0004041921E515C054A5043B0FBF1F0704713
:103AB00004494843704700000010024000127A0099
:103AC000EE78000800093D002DE9F84F040070D0A1
:103AD0002078C04DC00749D06868C0F38100012834
:103AE00007D06868C0F38100022809D16868C00364
:103AF00006D52868800339D560680028E7D035E00E
:103B00006068B0F5803F0BD010B1B0F5A02F11D098
:103B1000286820F480302860286820F4802002E0A3
:103B2000286840F480302860606890B1FFF768FC36
:103B300006460AE0286840F480202860F0E700BFCD
:103B4000FFF75EFC801B642873D828688003F7D5D4
:103B50000CE0FFF755FC064605E000BFFFF750FC00
:103B6000801B6428F0D828688003F7D420789A4E08
:103B700080074FF001094FF0000839D5686810F050
:103B80000C0F07D06868C0F38100022809D168686B
:103B9000C00306D42868800714D52069012808D1FD
:103BA00010E02069B0B1C6F80090FFF729FC074685
:103BB00005E00AE1FFF724FCC01B0228C4D82868EE
:103BC0008007F7D52868616920F0F80040EAC10055
:103BD00028600DE0C6F80080FFF712FC074604E0FD
:103BE000FFF70EFCC01B022823D828688007F7D4F3
:103BF000207800072CD57948A169D9B1C0F8009088
:103C0000FFF7FEFB074604E0FFF7FAFBC01B0228A4
:103C10000FD8686A8007F7D571484FF4FA510068E9
:103C2000B0FBF1F0009000BF0098411E0091FAD265
:103C30000EE080E0C0F80080FFF7E2FB074604E0FA
:103C4000FFF7DEFBC01B022875D8686A8007F7D42F
:103C50002078400760D5E8690027C00008D4E869EB
:103C600040F08050E861E869012700F08050009042
:103C70005C480168C90513D40168834641F480712A
:103C80000160FFF7BDFB824606E000BFFFF7B8FB0F
:103C9000A0EB0A0064284ED8DBF80000C005F5D57B
:103CA000E06801280AD008B1052813D0286A20F05E
:103CB00001002862286A20F0040002E0286A40F02F
:103CC00001002862E06841F2883B98B1FFF798FB59
:103CD00082460BE0286A40F004002862EEE700BF4D
:103CE000FFF78EFBA0EB0A0159455AD8286A8007D6
:103CF000F6D50CE0FFF784FB824605E0FFF780FB7A
:103D0000A0EB0A0159454CD8286A8007F6D41FB1A8
:103D1000E86920F08050E861E06988B36968C1F320
:103D20008101022944D00228C6F8608004D0FFF740
:103D300067FB044638E034E0FFF762FB074604E027
:103D4000FFF75EFBC01B02282BD828688001F7D440
:103D5000206AB0F5803F05D16868A16820F4003082
:103D600008436860D4E908010843696821F47411C4
:103D700008436860C6F86090FFF742FB044606E01F
:103D800025E000BFFFF73CFB001B022809D828688C
:103D90008001F7D51BE000BFFFF732FB001B0228B4
:103DA00002D90320BDE8F88F28688001F4D40EE022
:103DB0000128F7D06868226A00F48031914204D16A
:103DC000616A00F47010884201D00120EAE7002007
:103DD000E8E7000000100240000042428004424236
:103DE000140000200070004070B5040009D0606A23
:103DF000002540B125616561A56294F8510040B18C
:103E00000CE0012070BD6068B0F5827FF4D0E56100
:103E1000F2E784F85050204600F040F8022084F881
:103E200051002068016821F040010160A0882189CB
:103E300000F4827001F404410843A18901F4006197
:103E40000843217C01F002010843217D01F00101BA
:103E50000843218B01F400710843217F01F03801F0
:103E6000084394F8201001F080010843218D01F4EB
:103E70000051084321680860A069042101EA10404C
:103E8000216848602068C16921F40061C1616565ED
:103E9000012084F85100002070BD000030B585B0CD
:103EA00000240094019402940394254D036825484E
:103EB00002210322AB421AD1836943F48053836108
:103EC000836903F480530493836943F0040383619B
:103ED00080691D4D00F004000490A020CDE9000190
:103EE000039269462846FFF789F940201EE0174DE6
:103EF000AB4222D1C36943F48043C361C36903F475
:103F000080430493836943F0080383618069104D03
:103F100000F0080004904FF42040CDE90001039226
:103F200069462846FFF76AF94FF48040CDE900045E
:103F3000694628460294FFF761F905B030BD0000DC
:103F400000300140001002400008014000380040ED
:103F5000000C01402DE9FF4F81B0044690F850005D
:103F600000260E9F1D4693464FF0010901280FD0F1
:103F70004FF0010A84F850A0FFF742FA804694F807
:103F80005100616801280DD0B1F5827F08D103E0AE
:103F9000022005B0BDE8F08FA16809B9042801D05E
:103FA0000226C9E00298002865D0BBF1000FFBD0C3
:103FB000002DF9D094F85100042802D0052084F88F
:103FC000510000206065C4F838B0E587A5870299E4
:103FD0002163E586A586206460642068016849063F
:103FE00003D4016841F040010160E068B0F5006F62
:103FF000606803D0F0B3012D47D081E008B1012DF6
:104000003CD1206B21680088C860206B801C206335
:10401000E08E401EE08631E02068816889070FD578
:10402000E18E69B1B9F1010F0AD1216B0988C16034
:10403000206B801C2063E08E401EE0864FF000095C
:1040400020688168C9070CD0E18F51B1C068A16BAD
:104050000880A06B801CA063E08F401EE0874FF0BB
:104060000109FFF7CDF9A0EB0800B84206D3781C90
:1040700004D001E009E05BE003265BE0E08E00286D
:10408000CAD1E08F0028C7D140E0206B21680078BA
:104090000873206B401C2063E08E401EE0862FE0FA
:1040A0002068816889070FD5E18E69B1B9F1010FE8
:1040B0000AD1216B09780173206B401C2063E08ECC
:1040C000401EE0864FF0000920688168C9070CD0C7
:1040D000E18F51B1C068A16B0870A06B401CA06358
:1040E000E08F401EE0874FF00109FFF789F9A0EB50
:1040F0000800B84202D3781C02D0BAE7002FB8D02B
:10410000E08E0028CCD1E08F0028C9D14246394644
:10411000204601F0D1F918B10126202060650BE09E
:10412000A06818B92068C16880680090606D08B107
:10413000012601E084F851A0002084F850003046A8
:1041400027E77047704710B5040003D094F83D008E
:1041500010B107E0012010BD002084F83C0020468B
:1041600000F01EF8022084F83D00211D206801F0B7
:1041700075FA012084F8460084F83E0084F83F0078
:1041800084F8400084F8410084F8420084F8430039
:1041900084F8440084F8450084F83D00002010BDF8
:1041A0007047000090F83D10012901D001207047B0
:1041B000022180F83D100168CA6842F00102CA601D
:1041C00000680B49884208D0B0F1804F05D00949FA
:1041D000884202D00849884204D1816801F0070171
:1041E000062903D0016841F00101016000207047F9
:1041F000002C01400004004000080040704770B5EA
:104200000446006801694FF00005C943890715D4C9
:10421000C168C943890711D4E91E016101202077D3
:10422000206880698007204602D0FFF7E7FF04E09E
:1042300000F098F8204600F096F82577206801698C
:10424000C943490717D4C168C943490713D46FF05C
:1042500004010161022020772068806910F4407F0A
:10426000204602D0FFF7CAFF04E000F07BF82046AA
:1042700000F079F8257720680169C943090716D449
:10428000C168C943090712D46FF008010161042015
:1042900020772068C0698007204602D0FFF7AEFF74
:1042A00004E000F05FF8204600F05DF82577206814
:1042B0000169C943C90617D4C168C943C90613D4E3
:1042C0006FF010010161082020772068C06910F4A8
:1042D000407F204602D0FFF791FF04E000F042F853
:1042E000204600F040F8257720680169C943C907D6
:1042F00008D1C168C943C90704D1891E016120469C
:1043000000F032F820680169C943090609D4C16880
:10431000C943090605D46FF0800101612046FFF70B
:1043200010FF20680169C943490609D4C168C9431F
:10433000490605D46FF040010161204600F01EF8E7
:1043400020680169C94389060BD4C168C94389063D
:1043500007D46FF0200101612046BDE87040FFF7EF
:10436000F1BE70BD7047704700680349884201D1B3
:10437000FFF7E4B97047000000080040704770473D
:1043800010B504460068406994F84110C0F3C010AD
:10439000212911D180B12068143050E8001F21F08C
:1043A000800140E80012002AF5D1A06B08B1FEF7A9
:1043B00093FD204601F050FA2068406994F84210BD
:1043C000C0F38010222911D180B12068143050E848
:1043D000001F21F0400140E80012002AF5D1E06BF7
:1043E00008B1FEF779FD204601F00FFA002010BD5C
:1043F00070470000F8B5016804460868CA684B6950
:1044000010F00F0F4FF0000559D003F0010602F431
:104410009077374365D0C10705D0D10503D5616CCE
:1044200041F001016164410705D5D90703D0616CF2
:1044300041F002016164810705D5D90703D0616CA1
:1044400041F004016164010707D502F02001314306
:1044500003D0616C41F008016164616C00293AD0BD
:10446000800604D5900602D5204601F003FA2068A4
:104470004069616CC0F38010090700D460B3204626
:1044800001F0C3F920684069400621D52068143046
:1044900050E8001F21F0400140E80012002AF5D149
:1044A000E06BA8B16D494163E06BFEF739FD002870
:1044B00011D0E06B416B01B0BDE8F04008478306C6
:1044C0000FD593060DD52046BDE8F84001F0D2B9CE
:1044D0002046FFF78DFFF8BD2046FFF789FF656492
:1044E000F8BD266B2023012E7CD1C6067AD5D606D0
:1044F00078D508684868009048694FF00206400681
:1045000040D5E16B086840680004000CE8D0A28D3B
:104510008242E5D9E085886920282DD020680C30BA
:1045200050E8001F21F4807140E80012002AF5D104
:104530002068143050E8001F21F0010140E800120B
:10454000002AF5D12068143050E8001F21F0400106
:1045500040E80012002AF5D184F842302563206833
:104560000C3050E8001F21F0100140E80012002A32
:10457000F5D1E06BFEF7B0FC6663A08DE18D401ACB
:1045800081B22AE0A08DE18D401A81B2E08D002831
:10459000A6D00029A4D022680C3252E8000F20F4E3
:1045A000907042E80007002FF5D12068143050E8E1
:1045B000002F22F0010240E80027002FF5D184F8F7
:1045C0004230256320680C3050E8002F22F01002A2
:1045D00040E80023002BF5D166632046FFF7CFFEAD
:1045E000F8BDFFE705062BD5150629D594F841003F
:1045F0002128F5D1A068B0F5805F01D12069B0B164
:10460000206A411C2162216800784860E08C401ECD
:104610000004000CE084E3D12068C16821F080012F
:10462000C1602068C16841F04001C160D8E7206ADC
:104630000088C0F308004860206A801C2062E5E71B
:104640004006CDD55006CBD5CA68204622F04002A0
:10465000CA6084F8413000F08AF9C1E70D570008BC
:1046600070B5040004D094F84100002510B106E0B4
:10467000012070BD84F84050204600F023F824202B
:1046800084F841002068C16821F40051C1602046CF
:1046900001F052F92068016921F49041016120681C
:1046A000416921F02A0141612068C16841F400514B
:1046B000C1606564202084F8410084F8420065638D
:1046C000002070BDF0B585B00024009401940294E0
:1046D0000394054602684548DFF80CC10221032314
:1046E000434E071562451AD1826942F480428261C5
:1046F000826902F480420492826942F0040282617B
:104700008069039300F0040004900802CDE90001E1
:1047100069463046FEF772FDCDE900741EE0DFF811
:10472000D4C0624521D1C26942F40032C261C2697B
:1047300002F400320492826942F0040282618069CC
:10474000039300F0040004900420CDE900016946C1
:104750003046FEF753FD0820CDE900046946304697
:104760000294FEF74BFD05B0F0BD234EB242FAD1E4
:10477000C26942F48022C261C26902F480220492BA
:10478000826942F0080282618069CDE9007100F01F
:104790000800CDE90330194E69463046FEF72EFD7C
:1047A000F014CDE90004694630460294FEF726FD78
:1047B000144E1348C6E900048020C6E90240346163
:1047C0007461B4613046F461FEF7A0FC08B1FEF7F5
:1047D000B5FAEE630022052127207562FFF746F83F
:1047E0002720FFF735F8BEE70038014000100240EF
:1047F000000801400044004000480040000C014017
:1048000030000240400500202DE9F843044690F8AE
:104810004200994616460D46202802D00220BDE8E7
:10482000F883ADB1A6B100206064222184F8421063
:104830002063FEF7E5FDA6858046E685A0684FF477
:104840008057B84201D1206920B12E46002526E0CC
:104850000120E4E7002622E04346002220212046F2
:10486000CDF8009001F00CF908B10320D7E726B18C
:10487000A068B8421BD038B108E020684068C0F397
:10488000080025F8020B07E0206980B12068406825
:1048900000F07F0006F8010BE08D401EE085E08D02
:1048A0000028D9D1202084F842000020B7E72068F2
:1048B0004068EFE790F84230202B01D0022070478B
:1048C00021B11AB10023036301F092B801207047AF
:1048D000704770472DE9F843044690F841001F46A1
:1048E00016460D46202802D00220BDE8F8837DB18F
:1048F00076B100206064212084F84100FEF780FD3D
:10490000A6848046E684A068B0F5805F02D003E00C
:104910000120EAE7206910B12E4600250EE00026AE
:104920000CE08021204601F0ABF8A0B9AEB116F83A
:10493000010B21684860E08C401EE084E08C434617
:104940004FF0000200970028EBD14FF040012046C5
:1049500001F096F830B10320C7E735F8020BC0F339
:104960000800E6E7202084F841000020BDE77047FA
:10497000FEE700004FF47A7402F008F900F0B5FC8D
:1049800001211BA2084600F06CFD00BF02F058F99F
:104990000028FBD000F03CFC002002F031F920465A
:1049A000FEF71AFC16A20121022000F05AFD02E0D7
:1049B0000120FEF711FC00F003FB0028F8D114A23F
:1049C0000121032000F04DFDFEF752FA14A201214F
:1049D000042000F046FDFEF779F900F073FC02F0C8
:1049E00067FE002002F004F8204601F025F9C3E735
:1049F000464C41534820496E69742E2E2E0000000B
:104A0000322E344720496E69742E2E2E000000008D
:104A10004E6F6973656E20496E69742E2E2E0000EC
:104A200047505320496E69742E2E2E0001684A6942
:104A3000D24352050FD46FF480624A61002140F8DE
:104A4000301F202242738173026942F00402026126
:104A5000017301207047002070470000F8B504463C
:104A6000C06A1E460D461746082807D0012805D003
:104A700010F5803F02D0206B122804D12068016815
:104A800041F480710160134600224FF0011120466D
:104A9000009600F05DF840B120680068C00502D5BE
:104AA0004FF4007020640320F8BD2069B0F5804FFA
:104AB0000ED00620216800EAD51040F0F000086111
:104AC00033463A460B49204600F08AF878B902E0AE
:104AD00005F0FE0000E0E8B22168086105493346B0
:104AE0003A46891F204600F07BF80028DCD00120E0
:104AF000F8BD00000800010070B516460D460446DA
:104B00001EE02046FFF792FF08B1012070BD681C2F
:104B100016D0FEF775FC801BA84200D885B9206826
:104B20004069C04340070BD5002044F8300F2021D6
:104B30006173A073216941F0200121612073E4E7D2
:104B400020684069C0434007DBD4002070BD0000EE
:104B50002DE9F047984617460D460446C1F307462F
:104B6000DDF820902AE000BFB8F1FF3F26D0FEF725
:104B700047FCA0EB0901414502D8B8F1000F1DD157
:104B80002068012E16D0806925EA00000004000C80
:104B900012D00020B84211D1002044F8300F20215B
:104BA0006173A073216941F020012161207301200C
:104BB000BDE8F0874069E7E70120EBE72068012EB8
:104BC0000AD0806925EA00000004000C06D000200D
:104BD000B842C9D00020EBE74069F3E70120F7E7CE
:104BE0002DE9F047984616460D4604464FF0000959
:104BF0004FF0200AC1F3074723E020684069C04313
:104C0000400515D42068016841F4007101602168F5
:104C10006FF480604861C4F8309084F83DA084F857
:104C20003E90216C41F00401216484F83C9021E025
:104C3000701C06D0FEF7E4FBA0EB0800B04203D8DE
:104C400016B1012F1FD021E02068012F15D08069F7
:104C500025EA00000004000C18D000BF44F8309F83
:104C600084F80DA084F80E90216941F020012161A3
:104C700084F80C900120BDE8F087406925EA000027
:104C80000004000CEAD12068406901E020688069D6
:104C900025EA00000004000CAFD1ECE770B5164621
:104CA0000D4604461EE02046FFF7C0FE08B1012075
:104CB00070BD681C16D0FEF7A3FB801BA84200D86D
:104CC00085B920684069C04300060BD5002044F830
:104CD000300F20216173A073216941F0200121610F
:104CE0002073E4E720684069C0430006DBD400205D
:104CF00070BD0000074D4FF4005400BF00F0D4FF1A
:104D0000064621462846FEF76EFB06F5FA7000F0CF
:104D1000ADFFF3E700100140094808B5416941F0D3
:104D2000010141614069002200F00100009005216D
:104D30000D20FEF79BFDBDE808400D20FEF788BD65
:104D40000010024010B500F0F7FE044A00210448AC
:104D500000F0FAFF0349086010BD0000C8780008A1
:104D600091550008000000202DE9F04786B000248E
:104D700031480094019402940394816941F0100138
:104D80008161816901F010010491816941F0200184
:104D90008161816901F020010491816941F0040180
:104DA0008161816901F004010491816941F0080188
:104DB00081618069DFF8848000F008004FF40055BD
:104DC0000490002229464046FEF715FBDFF870905C
:104DD000002210214846FEF70EFBDFF868A04FF4D2
:104DE0008857002239465046FEF705FB00950226FB
:104DF00001250396CDE9015469464046FEF7FEF9C8
:104E00001020CDE90005CDE9024669464846FEF787
:104E1000F5F9CDE90054694650460295FEF7EEF9E2
:104E200000970396CDE9015469465046FEF7E6F92E
:104E300006B0BDE8F08700000010024000100140FD
:104E400000080140000C01400D4810B50B490160FD
:104E50000C49416000214FF480428160C0E9031297
:104E600041618161C1610162FEF7D0FA002803D07F
:104E7000BDE81040FDF762BF10BD000000540040C7
:104E800064030020A0860100104810B50E4901609F
:104E90004FF48271416000218160C1604FF4007263
:104EA0000161C0E905121022C0E907214162816257
:104EB0000A21C162FEF798FF002803D0BDE8104028
:104EC000FDF73CBF10BD000000300140B8030020DA
:104ED0000F4810B50D4901604FF482714160002107
:104EE0008160C1604FF400720161C0E90512C161C7
:104EF0000162416281620A21C162FEF775FF0028EA
:104F000003D0BDE81040FDF719BF10BD00380040C8
:104F1000100400200C4810B50A4901604FF4E1313B
:104F20004160002181600C22C160C0E904128161EE
:104F3000C161FFF795FB002803D0BDE81040FDF7E5
:104F4000FDBE10BD00380140680400200C4810B5BB
:104F50000A4901604FF416514160002181600C2222
:104F6000C160C0E904128161C161FFF779FB0028CB
:104F700003D0BDE81040FDF7E1BE10BD0044004085
:104F8000B00400200C4810B50A4901604FF4E1312B
:104F90004160002181600C22C160C0E9041281617E
:104FA000C161FFF75DFB002803D0BDE81040FDF7AD
:104FB000C5BE10BD00480040F8040020FEE7FEE733
:104FC0001CB50FA10522D1E90001CDE90001694618
:104FD000302000F0BFF805226946102000F014F8D8
:104FE000002069460A5CA52A03D1401CC0B20528EE
:104FF000F8D3052801D001201CBD00201CBD0000F5
:10500000A5A5A5A5A50000002DE9F041DFF83C808D
:1050100015460F460446002210214046FEF7EBF9E4
:10502000204600F039FA0646002405E0FF2000F093
:1050300033FA3855641CE4B2AC42F7D30122102194
:105040004046FEF7D8F93046BDE8F081000801403F
:1050500070B50A4D0446002210212846FEF7CBF910
:10506000204600F019FAFF2000F016FA044601224B
:1050700010212846FEF7BFF9204670BD0008014008
:1050800070B5194D4FF48074002221462846FEF772
:10509000B2F905221549302000F05CF813490522C9
:1050A000491D2A2000F056F80121212000F076F851
:1050B0000121222000F072F81A21242000F06EF85D
:1050C0002821252000F06AF80F21262000F066F83C
:1050D0000E21202000F062F821462846BDE87040ED
:1050E0000122FEF788B90000000C01401679000883
:1050F00070B5174C05464FF48076002231462046A5
:10510000FEF779F920222946A02000F023F8012299
:1051100031462046FEF76FF901212046FEF75EF981
:105120000028F9D10720FFF793FF04460146272006
:1051300000F034F8E00605D5FF21E12000F02EF85C
:10514000102070BDA00601D5202070BDFF2070BDCD
:10515000000C01402DE9F041DFF83C8016460D4679
:105160000446002210214046FEF745F9204600F093
:1051700093F90746002405E015F8010B00F08CF9BF
:10518000641CE4B2B442F7D3012210214046FEF77A
:1051900032F93846BDE8F0810008014070B50B4D8A
:1051A0000E460446002210212846FEF724F9204628
:1051B00000F072F90446304600F06EF90122102129
:1051C0002846FEF718F9204670BD0000000801408F
:1051D0000D4C207848B900BFFDF70CFE0028FBD12C
:1051E0002078401C2070FDF7ABFD00F05DFD04460B
:1051F000FDF73EFEFFF744FF0448FFF779FF04F593
:10520000FA6000F033FDF0E7EC0000209000002091
:1052100070B501F049FAFFF733FF074C074D04E082
:105220000748FFF765FF1028FAD06068801D6060AE
:1052300029688842F4D970BDEC000020E00000200D
:1052400090000020164E174D00F02EFD0446012060
:1052500030702868D0B10121134A084600F001F9E6
:10526000124A0121022000F0FCF8114804230179C0
:10527000C07801EB00220121032000F0D1F828685A
:1052800000F022FA01210B4A042002E001210AA2C7
:10529000084600F0E6F804F57A7000F0E7FCD3E782
:1052A000F4000020D4000020043B0020183B002024
:1052B00090000020373B00206C6F636174696F6E53
:1052C0002E2E2E0070B500240021204600F062F83A
:1052D0000025002000F0DCF86D1CEDB2802DF8D325
:1052E000641CE4B2082CEFD370BD10B54FF4FA7013
:1052F000FDF772FFAE2000F0C7F8D52000F0C4F82B
:10530000802000F0C1F8A82000F0BEF83F2000F097
:10531000BBF8D32000F0B8F8002000F0B5F840202A
:1053200000F0B2F8A12000F0AFF8C82000F0ACF80F
:10533000DA2000F0A9F8122000F0A6F8812000F091
:10534000A3F8CF2000F0A0F8D92000F09DF8F120BC
:1053500000F09AF8DB2000F097F8302000F094F885
:10536000A42000F091F8A62000F08EF88D2000F027
:105370008BF8142000F088F8AF2000F085F8BDE825
:105380001040FFF79FBF0246012000E05043491E36
:10539000FCD2704710B50C4640F0B00000F074F835
:1053A000102040EA141000F06FF804F00F00BDE880
:1053B000104000F069B800002DE9F0410746CE002A
:1053C0004000083E801E15464FF0FF38F1B2C0B2D3
:1053D000FFF7E0FF1148002400EB05152819A0F5A0
:1053E000805090F8000E00F053F8641CE4B2082CD2
:1053F000F4D308EB4700F1B2C0B2FFF7CBFF0024B3
:105400002819A0F5805090F8080E00F041F8641CAF
:10541000E4B2082CF4D3BDE8F08100004F79000815
:105420002DE9F04700241D461646884681460A2786
:1054300013E0291B0A20491EFFF7A5FFB6FBF0F079
:10544000B0FBF7F107FB110208EB0400C1B24846BC
:105450003032FFF7B1FF641CE4B2AC42E9D3BDE8DF
:10546000F0872DE9F04115460E460746002406E078
:105470003019C1B23846FFF79FFF641CE4B22A5DC1
:10548000002AF5D1BDE8F08101460020FEF746B9BB
:1054900001464020FEF742B901B582B04FF47A7060
:1054A0000090012301AA02A90248FEF753FD9DF8CE
:1054B00004000EBDB803002038B50B460092044628
:1054C0000022802100F008F8002804D0606D40F030
:1054D00020006065032038BD2DE9F8431E46914643
:1054E00088460446089DFDF78BFF401B351AFDF7E3
:1054F00087FF074625480068C0F3CB30684338E093
:10550000701C37D0FDF77CFFC01BA84203D215B139
:10551000009860B32CE02068416821F0E001416010
:105520006068B0F5827F0BD1A068B0F5004F02D063
:10553000B0F5806F04D12068016821F0400101605E
:10554000A06AB0F5005F09D12068016821F400511C
:1055500001602068016841F400510160012084F875
:105560005100002084F850000320BDE8F883002596
:10557000401E00902068816838EA010004D00021B4
:105580004945BDD10020F0E70121F9E714000020D2
:105590004FF0FF34204600F04FFBFBE710B55020E2
:1055A00080F31188BFF34F8FBFF36F8F01F0A4FF1B
:1055B00018B104494FF080500860002080F3118832
:1055C00010BD000004ED00E030B58FB02821684622
:1055D000FBF7EEF914210AA8FBF7EAF90121080408
:1055E000CDE900100024029402250491CDE9075072
:1055F0004FF4E01009906846FEF766FA08B172B6FB
:10560000FEE70F20CDE90A054FF48060CDE90C409C
:1056100002210AA80E94FEF75BF9002801D072B6A9
:10562000FEE70FB030BD7047094B30B41A6852B175
:1056300008490888441C0C80B0F57A7F03D9002003
:105640000880521C1A6030BC0348FEF7D8BD000029
:10565000D40000200400002084050020F0B502687A
:10566000164B174C174D4FF08047984205D0B84263
:1056700003D0A04201D0A84203D122F070064A68AC
:105680003243984205D0B84203D0A04201D0A8428C
:1056900003D122F44074CA6822434C6922F080028C
:1056A000224302608A68C2620A688262984201D11B
:1056B0000969016301214161F0BD0000002C014036
:1056C000000400400008004031B56846FBF798F937
:1056D0000446034606A214210848FBF78DFA074842
:1056E000234607A214210B30FBF786FA38BD0000D1
:1056F00025592F256D2F2564000000002C3B00202C
:1057000025483A254D3A25530000000010B5406A5F
:105710000021C185C184FEF76BFE10BD70B5446ADF
:105720002068406994F84110C0F3C0100025212979
:1057300004D118B1E584204600F08EF82068406955
:1057400094F84210C0F38010222904D118B1E585E5
:10575000204600F05AF8606C40F01000606420466B
:10576000FEF746FE70BD10B50146406A096809683B
:105770004FF0000289062ED4C28501680C3151E831
:10578000003F23F4807341E80034002CF5D1016818
:10579000143151E8003F23F0010341E80034002CAC
:1057A000F5D10168143151E8003F23F0400341E88E
:1057B0000034002CF5D1202180F84210016B012922
:1057C00009D101680C3151E8003F23F0100341E892
:1057D0000034002CF5D14263016B012902D0FFF7A0
:1057E00077F810BD818DFEF7CAFD10BD10B5406A77
:1057F00001214163016B012902D0FFF76AF810BD56
:10580000818D4908FEF7BBFD10BD01680C3151E8E0
:10581000002F22F4907241E80023002BF5D101689B
:10582000143151E8002F22F0010241E80023002B3F
:10583000F5D1016B012909D101680C3151E8002F24
:1058400022F0100241E80023002BF5D1202180F83E
:10585000421000210163704701680C3151E8002FAC
:1058600022F0C00241E80023002BF5D1202180F86E
:105870004110704708B590F84210222901D002204B
:1058800008BD82684FF480539A4201D1016921B169
:10589000816A9A421BD04AB10AE00268816A526862
:1058A000C2F308020A80816A891C08E0026972B1A9
:1058B0000268526802F07F020A70816A491C8162A4
:1058C000C18D491E0904090CC18503D01BE0026883
:1058D0005268F1E70168CA6822F02002CA600168D4
:1058E000CA6822F48072CA6001684A6922F0010223
:1058F0004A61202180F8421000214163026B012A95
:1059000003D0FEF7E5FF002008BD016301680C31FC
:1059100051E8002F22F0100241E80023002BF5D1BE
:1059200001680A68D20602D50A6849680091818D2B
:10593000FEF725FDE7E7000070B504460068016941
:10594000E26821F44051114301612169A0680843D4
:10595000616908432168CA6841F20C639A430243B3
:10596000CA6020684169A26921F440711143416114
:105970001E492068884202D1FEF770F801E0FEF768
:105980005DF800EBC00101EB00126068642180004B
:10599000B2FBF0F3B3FBF1F36FF018067343B2FB05
:1059A000F0F5B2FBF0F605EB8305322303EB0515AA
:1059B000B5FBF1F5B6FBF1F605F0F00505EB0615C4
:1059C000B2FBF0F6B2FBF0F0B0FBF1F06FF01802B2
:1059D000504306EB800003EB0010B0FBF1F02168B0
:1059E00000F00F002844886070BD000000380140BE
:1059F00038B5816204468285002013466064222205
:105A000084F84220E56B1B4AAA62E56B1A4AEA62F7
:105A1000E56B1A4A2A63E26B50630A462168E06B21
:105A2000091DFDF7A1FB206801684068009020690E
:105A300048B120680C3050E8001F41F4807140E804
:105A40000012002AF5D12068143050E8001F41F000
:105A5000010140E80012002AF5D12068143050E816
:105A6000001F41F0400140E80012002AF5D100205B
:105A700038BD000067570008ED5700081D570008A3
:105A80002DE9F041984617460E460446069D27E04C
:105A9000681C25D02DB1FDF7B3FCA0EB0800A8428F
:105AA0001ED920680C3050E8001F21F4D07140E866
:105AB0000012002AF5D12068143050E8001F21F0B0
:105AC000010140E80012002AF5D1202084F84100AD
:105AD00084F84200002084F840000320BDE8F081F3
