:020000040800F2
:10000000904100203D0200080F320008F12B00084B
:100010000D3200088D0F0008053D000800000000AB
:10002000000000000000000000000000A501000822
:10003000C70F000800000000E9010008B137000800
:10004000570200085702000857020008570200082C
:10005000570200085702000857020008570200081C
:10006000570200085702000857020008570200080C
:1000700057020008910F00085702000857020008B5
:1000800057020008570200085702000857020008EC
:1000900057020008570200085702000857020008DC
:1000A00057020008570200085702000857020008CC
:1000B00057020008570200083D38000857020008A0
:1000C00057020008570200085702000857020008AC
:1000D000570200085702000857020008C93C0008F0
:1000E00057020008570200085702000800F002F803
:1000F00000F048F80AA090E8000C82448344AAF17A
:100100000107DA4501D100F03DF8AFF2090EBAE877
:100110000F0013F0010F18BFFB1A43F0010318473B
:100120009C5D0000BC5D0000103A24BF78C878C117
:10013000FAD8520724BF30C830C144BF04680C60ED
:10014000704700000023002400250026103A28BF35
:1001500078C1FBD8520728BF30C148BF0B60704739
:10016000732900F01084002070471FB500F086FE50
:1001700004000020002105F08FFA401C60601FBDC4
:1001800010B510BD00F03EFE1146FFF7EEFF03F084
:10019000F5FD00F065FE03B4FFF7F2FF03BC00F0CD
:1001A000B1FE0000224B19680868B0E8F00F80F338
:1001B0000988BFF36F8F4FF0000080F311884EF075
:1001C0000D0E70470000000006480068006880F3CC
:1001D000088862B661B6BFF34F8FBFF36F8F00DF41
:1001E00000BF00BF08ED00E0EFF30980BFF36F8FA1
:1001F0000F4B1A6820E9F00F106008B54FF050005F
:1002000080F31188BFF34F8FBFF36F8F04F04CFD65
:100210004FF0000080F31188BDE8084019680868B5
:10022000B0E8F00F80F30988BFF36F8F704700BF0D
:1002300018000020EFF30580704700000948804750
:1002400009480047FEE7FEE7FEE7FEE7FEE7FEE7B8
:10025000FEE7FEE7FEE7FEE704480549054A064BD0
:10026000704700003B380008ED000008903B00207C
:1002700090410020903D0020903D00200FB41CB51F
:100280000C0007AA009001D02044401E074B7B447D
:1002900069460190069800F044FB002C03D06946A3
:1002A000002000F051FB1CBC5DF814FBC1060000EF
:1002B0002DE9F0410E460446002020622046E16808
:1002C000884730B3252805D0D4E901219047206A1A
:1002D000401CF2E7E168204600278847050018D057
:1002E000A5F14100192802D820354FF400673246A5
:1002F000294620462760FFF733FF40B1012804D08C
:10030000F61D26F007060836D8E7361DD6E728463C
:10031000DAE7206ABDE8F08170B50C460546012A8F
:1003200005D02878800600D5EA69002302E0012381
:1003300005E05B1C934202D2E05C0028F9D1A86979
:10034000E618C01AA861286A184428622846AFF344
:10035000008004E0D5E9012114F8010B9047B44274
:10036000F8D32846AFF3008070BD00000FB400B58D
:100370008DB010A9099000910B904FF0FF300A90BA
:1003800000200C90064878440690064878446A4657
:1003900007900F9909A800F00FFB0DB05DF814FB52
:1003A0004F060000670600002DE9FF5F1D464FF075
:1003B000FF3B91464FF000085F46D5E90146A96929
:1003C00001987F1C8847296A824688470028F6D111
:1003D000BAF1FF3F0CD0002E24F4C06419DD600692
:1003E00014D5BAF12B0F09D0BAF12D0F0ED103E0BD
:1003F000584604B0BDE8F09F44F48064A9690198B0
:100400007F1C8847761E8246002E02DDBAF1300F2F
:1004100003D0B9F1000F26D032E0A969761E019809
:100420007F1C44F400748847002E824605DDBAF133
:10043000780F06D0BAF1580F03D0B9F1000F10D0E1
:100440001EE0B9F1000F02D0B9F1100F18D1A9695F
:10045000761E01987F1C24F4007488478246102081
:1004600002E0082000E00A20814609E0A96908FBB3
:100470000908761E01987F1C44F400748847824660
:10048000002E05DD4946504600F081FA0028EDDADD
:10049000E96901988847A00502D46FF00100A8E738
:1004A000E00725D1600613D5600502D5C8F100002C
:1004B00000E0404629680A1D2A600968220501D526
:1004C000087015E0220701D5088011E008600FE0F0
:1004D0002868011D29600068210502D580F8008088
:1004E00006E0210702D5A0F8008001E0C0F80080F6
:1004F00038467EE72DE9FF5F4FF000089946144625
:1005000046469169D2E901A7DDF838B001988847DD
:10051000054659EA0B0005D009E0A1690198761C4F
:1005200088470546216A284688470028F5D1681C77
:1005300003D05FEACA7005D015E04FF0FF3004B079
:10054000BDE8F09F2068011D2160D0F800800AE01E
:100550005FEACA7001D108F8015BA169761C0198B5
:100560007F1E88470546002F1ADD681C18D0B9F198
:10057000000F0DD0E81705EBD060421120F01F00EE
:1005800059F822102A1A012090400142E0D107E0D8
:10059000BBF1000FDCD12846216A88470028D7D05C
:1005A000E16901988847BBF1000F07D1002E05DDF6
:1005B0005FEACA7002D1002188F80010A068B84232
:1005C00003DDBBF1000F03D017B16FF00100B6E7F8
:1005D0003046B4E730B505460B462A4613F8014BC2
:1005E00012F8010B08B1A042F8D01CB1002802D0CB
:1005F0006D1CF1E7284630BD10B5431C02E010F831
:10060000011B71B18107FAD14FF0013202C88C1A77
:100610008C4314EAC211F9D0C01A0A0603D0C01ED6
:1006200010BDC01A10BD0A0401D0801E10BD090201
:10063000FCD0401E10BD032A40F2308010F0030CA5
:1006400000F0158011F8013BBCF1020F624498BF25
:1006500011F801CB00F8013B38BF11F8013BA2F1C2
:10066000040298BF00F801CB38BF00F8013B11F03D
:10067000030300F0D181083AC0F0088051F8043B30
:10068000083A51F804CBA0E80810F5E7121D5CBF4A
:1006900051F8043B40F8043BAFF30080D20724BF7D
:1006A00011F8013B11F801CB48BF11F8012B24BF11
:1006B00000F8013B00F801CB48BF00F8012B704760
:1006C00002F0FF0343EA032242EA024200F002B8CA
:1006D0004FF000020429C0F0128010F0030C00F06B
:1006E0001B80CCF1040CBCF1020F18BF00F8012BE9
:1006F000A8BF20F8022BA1EB0C0100F00DB85FEAB7
:10070000C17C24BF00F8012B00F8012B48BF00F882
:10071000012B70474FF0000200B5134694469646F1
:10072000203922BFA0E80C50A0E80C50B1F1200104
:10073000BFF4F7AF090728BFA0E80C5048BF0CC0B2
:100740005DF804EB890028BF40F8042B08BF704710
:1007500048BF20F8022B11F0804F18BF00F8012B82
:100760007047000010B503681C1404EB21449BB2D1
:1007700089B2194494FBF2F302FB134394FBF2F4A5
:1007800001EB034393FBF2F102FB113193FBF2F314
:1007900001E05B1E11440029FBDB016003EB044018
:1007A00010BDF0B504464FF0FF3585B000680490E9
:1007B00060680290A0680390E06801902069009052
:1007C000666906F18040B0F1004F7CD83C220021E0
:1007D00004A8FFF7C7FF3C22014602A8FFF7C2FFAB
:1007E0001822014603A8FFF7BDFF411E40F2B55293
:1007F00001A8FFF7B7FF0C22074668460021FFF764
:10080000B1FF414B00EB8700304400267B4411E0F0
:10081000511A01910099491C0229009102D00C291A
:1008200008D105E0810705D00199491C019101E03B
:10083000401C00960099019A595C9142E8DD0099AC
:10084000012906D11C2A04D1810702D00221CDE959
:100850000016A0F146018B293CD2DDE9006100229F
:1008600002E09F5C521C3944B242FADB012E02DDE9
:10087000820700D0491E40F2B55340F26D16C217F0
:1008800000EB927292105A4300F0030303FB06221E
:1008900083070A4400D1521E039E02EB4203049FC9
:1008A00006EBC303029EC3EB031306EB8303174E51
:1008B00033441E149BB2C6EB0616C3EB0313B600FB
:1008C00007EB830300E005E006EB134666F31F43E6
:1008D000360C02D0284605B0F0BD80C4029E40C44C
:1008E000039E40C4019E761C44F80C6B009E44E9B4
:1008F00002600720521C92FBF0F600FB162084E8F1
:1009000023001846E7E700005C560000A039CEFD42
:10091000704770477047000001694A1C02610878FF
:10092000704700B58FB0CDE901310021059105492F
:100930007944CDE9031011466846FFF7B9FC0FB0C2
:1009400000BD0000E5FFFFFF0A6802F8010B0A6026
:100950007047D1E900239A4202D2531C0B601070F9
:10096000704710B5436913B1AFF3008001E0FFF7A2
:10097000D3FC012010BD127800F124010A7000227E
:100980004A700122EDE711684FF0FF32E9E73A289B
:1009900000D2303820F02002412A01D3A2F13700E2
:1009A000884201D34FF0FF307047000002681144C5
:1009B0001378016018467047D16005497944516148
:1009C00004497944116200211161114600F060B8B8
:1009D000EDFFFFFFB7000000426842B1016811F867
:1009E000013B23B1521EC0E9001218467047012195
:1009F000C160881E704742685AB1C368016843B934
:100A000083688B4205D0491E521CC0E900120020A9
:100A100070474FF0FF30704710B5203AC0F00B80A0
:100A2000B1E81850203AA0E81850B1E81850A0E8F2
:100A30001850BFF4F5AF5FEA027C24BFB1E818504C
:100A4000A0E8185044BF18C918C0BDE810405FEABC
:100A5000827C24BF51F8043B40F8043B08BF704738
:100A6000D20728BF31F8023B48BF11F8012B28BF3D
:100A700020F8023B48BF00F8012B704710B5044630
:100A800000F0E6F90068005D00F0010010BD000014
:100A90002DE9F34F4FF0000A0C4656468DB0012069
:100AA0000C9001F10C000B9062690B9801219047AA
:100AB000051E2DD0252D2CD0216A8847C0B1626932
:100AC0000B9801219047216A88470028F7D1626975
:100AD000411E0B98904700E0761CA1690D9888474D
:100AE000216A88470028F7D1E1690D988847DBE73C
:100AF000A1690D988847A842074601D1761CD3E723
:100B0000E1690D9888477F1C02D1BAF1000F6FD0C0
:100B10006CE162690B9800273D46394690472A28C8
:100B200004D162690B98012190470125DFF8D0823A
:100B300062690B9801219047A0F130010A290AD27D
:100B40004745E5DC07EB870100EB4107303FDFD489
:100B500045F01005ECE7E90601D46FF000476C287A
:100B60000AD04C2814D0682815D06A280DD07428D3
:100B70001CD07A281AD01DE062690B980121904799
:100B80006C2802D045F0040514E045F002050DE0A4
:100B900045F020050AE062690B980121904768281A
:100BA00002D045F0080505E045F4006562690B9840
:100BB00001219047C4E9015765283DD019DC582828
:100BC0007AD00CDC452837D004DC252826D04128F3
:100BD0009ED131E046282FD0472899D12CE05B28C0
:100BE00077D0612828D063287CD0642823D15AE0AC
:100BF000F7E06F2848D008DC66281DD067281BD096
:100C0000692821D06E2816D127E0702845D0732896
:100C100068D0752847D078280DD14DE0A1690D988E
:100C20008847252805463FF469AFE1690D98884754
:100C30006D1C3FF46AAFD9E00D9923466A466FF008
:100C40000100AFF30080C6E045F0400023464FF0BE
:100C500000026060A80736D43EE0E8077FF447AFA3
:100C60002068011D21600068290501D506701BE779
:100C7000290701D5068017E7A90703D5F117C0E9B1
:100C8000006111E706600FE745F0400023464FF092
:100C900008026060A80716D41EE040F60E0125EA9F
:100CA0000100606016E045F0400023464FF00A0264
:100CB0006060A80707D40FE045F040006060A80717
:100CC00008D5234610220D996FF00100AFF3008084
:100CD00081E007E0102223460D996FF00100FFF735
:100CE00063FB78E04FF0000963284F46C8464B4647
:100CF000CB4602D05B2807D039E02079C00601D46A
:100D00000120A060012732E06269D4F80CB00B9892
:100D1000012190475E2807D14FF0010949466269D9
:100D2000D4F80CB00B989047216939B900210A46D4
:100D300003AB43F82120491C0829FADBD8B3216909
:100D400049B308F1010862690B98012190475D28B9
:100D5000F4D1B9F1000F09D0002003A951F82020E7
:100D6000D24341F82020401C0828F7DB03AB206960
:100D7000002820794FEA40701ED05B462246CDF80D
:100D80000080CDE901970D9900286FF0010020DA6D
:100D9000AFF300801FE0C11703AA00EBD1614B1134
:100DA00021F01F0102EB8302411A136801208840E1
:100DB00003431360C7E719E00D99224600286FF03E
:100DC0000100009702DAAFF3008004E0FFF792FB26
:100DD00001E0AFF3008000280ADA401C06D10C982D
:100DE00020B14FF0FF300FB0BDE8F08F5046FAE76A
:100DF000E90701D10AF1010A064400200C9053E6EC
:100E0000CCCCCC0C754600F035F8AE4605006946F2
:100E1000534620F00700854618B020B5FFF71CFAAE
:100E2000BDE820404FF000064FF000074FF00008EB
:100E30004FF0000B21F00701AC46ACE8C009ACE86C
:100E4000C009ACE8C009ACE8C0098D467047000095
:100E500010B500F013F8001D10BD00BF3D480000A4
:100E600010B50446AFF300802046BDE81040FFF700
:100E700092B90000004870472C3B002000487047A2
:100E80004C3B00204FF0013C50F8042B51F8043B40
:100E90009A4221D1A2EB0C03934313EACC1317D14E
:100EA00050F8042B51F8043B9A4215D1A2EB0C03E5
:100EB000934313EACC130BD150F8042B51F8043BA5
:100EC0009A4209D1A2EB0C03934313EACC13DBD073
:100ED0004FF00000704700BFD01A01BAB1FA81F19B
:100EE00001F0180122FA01F0CB40C1F12001DBB280
:100EF000C0B2C01A2CFA01F3D11A914311EAC311FE
:100F0000E6D1704701491820ABBEFEE7260002007B
:100F1000704700000149012008707047D000002090
:100F200064210148FFF7D4BB8C3A002070B50E460F
:100F30000546C824FFF760FB82B24FF0FF33294615
:100F40000A4801F007FE0CE000F014F830B9314611
:100F50000748FFF73FFB08B1002070BD0A2000F0F2
:100F60007BFA641EE4B2EFD2012070BDE4040020DD
:100F70008C3A00200448017819B10021017008461C
:100F80007047012070470000D0000020FEE70000FD
:100F9000014800F051B900002C05002030B590F850
:100FA00040500124AC40C56B6C60046863604368CA
:100FB000102B036803D099600068C26030BD9A604E
:100FC0000068C16030BD704772B6FEE708B50848DA
:100FD0000090084B08A21D210948FFF74FF902F0C5
:100FE00077F90748BDE80840C01E02F0A9B9000023
:100FF000043B0020F03A002025732C2573000000EC
:10100000B300002000B593B00FA8009010AB11AA58
:1010100013A11648FFF7AAF90CA8009013480DABCE
:101020000EAA13A10B30FFF7A1F92C2101A8FFF79D
:1010300071FB1198A0F26C7006901098401E0590FC
:101040000F9804900E9803900D9802900C980190C0
:1010500001A8FFF7A6FB0949486013B000BD0000D6
:1010600025642F25642F256400000000183B002014
:1010700025643A25643A256400000000D000002071
:101080001CB510A11048FFF751FF08B102201CBD8C
:101090000E49A1F10B00CDE90001A0F11403A0F16C
:1010A00028020BA18C38FFF761F9042803D0FFF761
:1010B00037FF01201CBDFFF7A5FFFFF731FF002020
:1010C0001CBD00004F4B000030570008233B0020A0
:1010D0000D0A2B43495047534D4C4F433A20302C77
:1010E0002531395B5E2C5D2C2531395B5E2C5D2C06
:1010F0002531305B5E2C5D2C2538730010B503F074
:10110000CBFD4FF47A74234608220E490E4801F0B5
:1011100021FD234607220D490B4801F0B5FC0B4980
:101120000B48CA78C270097901710A49096841718E
:101130000A0A82710A0CC271090E0172BDE81040E0
:1011400004F0E4B9435700089C040020D8000020B4
:1011500090000020D400002010B590F8211000224B
:10116000022905D00421816380F82020012010BDD0
:1011700001680B6823F00E030B6001680B6823F015
:1011800001030B6090F84030C46B012101FA03F3B6
:10119000636080F8211080F82020104610BD000008
:1011A00010B590F821100024022903D00421816396
:1011B00001243DE001680A6822F00E020A6001681D
:1011C0000A6822F001020A601A4A0168914201D1BC
:1011D000012121E0174A1432914201D110211BE074
:1011E000144A2832914201D1891515E0114A3C3246
:1011F000914201D189140FE00E4A5032914202D13E
:101200004FF4803108E00B4A6432914202D14FF42E
:10121000801101E04FF08071064A083A51600121C7
:1012200080F82110002180F82010416B01B188471F
:10123000204610BD080002402DE9F05FC16B0C682C
:1012400001680B68D0F840C0042202FA0CF2494D44
:10125000DFF824A1494E4A4FDFF828B1DFF828E132
:1012600022422CD05A072AD50A68920603D40A686B
:1012700022F004020A600168A94201D1042219E0A7
:10128000514501D1402215E0B14202D14FF48062B4
:1012900010E0B94202D14FF480420BE0594502D12F
:1012A0004FF4802206E0714502D14FF4800201E044
:1012B0004FF080622F4908394A60C16A3BE04FF025
:1012C000020808FA0CF818EA040F4FF000094FF072
:1012D000010235D05FEA837832D50B689B0605D4CE
:1012E0000B6823F00A030B6080F821200168A942F3
:1012F00001D1022219E0514501D1202215E0B1426D
:1013000002D14FF4007210E0B94202D14FF4005202
:101310000BE0594502D14FF4003206E0714502D18D
:101320004FF4001201E04FF00072124908394A6090
:1013300080F82090816A00291AD0BDE8F05F084744
:10134000082505FA0CF5254212D01B0710D50B68AD
:1013500023F00E030B6090F84010C36B02FA01F10A
:101360005960826380F8212080F82090016BE2E7C9
:10137000BDE8F09F080002401C000240300002401F
:1013800044000240580002406C00024030B528B3CF
:1013900008C8134914221944B1FBF2F18900C16352
:1013A00010498163022141771A6843F6F0718A433C
:1013B000D0E900142143D0E902452C4321430469BC
:1013C0002143446921438469214311431960002169
:1013D0004163012242770177084630BD012030BDCC
:1013E000F8FFFDBF0000024070B5044690F82000F1
:1013F000002501280CD0012084F8200094F82160F9
:101400000020012E06D084F820000225284670BD59
:10141000022070BD022684F82160A063206806685F
:1014200026F0010606602046FFF7B8FDE06A0028B6
:101430002068016802D041F00E0106E021F00401AD
:1014400001602068016841F00A01016020680168BC
:1014500041F001010160D9E770B5044600F010F9D0
:101460000546601C02D004480078044400F008F9E6
:10147000401BA042FAD370BD080000202DE9F84FB0
:10148000DFF8B8910024A9F1040B23460F2709F1D6
:10149000040AABF1040EC9E00125A5402A40AA4286
:1014A0007DD1674ED1F804C0ACEB0608B44532D00C
:1014B00014DCBCF1030F3AD009DCBCF1000F2AD0D8
:1014C000BCF1010F1CD0BCF1020F31D11DE0BCF109
:1014D000110F17D0BCF1120F2AD119E0B8F5881FEF
:1014E00019D006DCB8F5803F15D0B8F5801F1FD1A4
:1014F00011E0B8F5001F0ED0B8F5041F18D10AE0AE
:10150000CB6815E0CB681B1D12E0CB6808330FE0F9
:10151000CB680C330CE08B682BB1012B4FF0080328
:1015200003D0456104E0042302E0056100E00023EC
:10153000FF2A01D8064601E000F104064FEA8405BF
:1015400001D9A5F12005D6F8008007FA05FC28EAA4
:101550000C0803FA05F548EA0508C6F800804D684E
:10156000ED0062D5374DAE6946F00106AE61AD695A
:1015700024F0030605F001050095334D06EB050C3C
:10158000DCF80850A607360F07FA06F825EA080522
:10159000DFF8B880404503D14FF0000817E044E081
:1015A000DFF8AC80404502D14FF001080FE0DFF8D2
:1015B000A480404502D14FF0020808E0DFF898808F
:1015C000404502D14FF0030801E04FF0040808FA4B
:1015D00006F848EA0508CCF808804D68D9F800609C
:1015E000ED024D4601D5164300E096432E604D684E
:1015F000DAF80060AD02554601D5164300E0964387
:101600002E604D68DBF80060AD035D4601D51643E2
:1016100000E096432E604D68DEF80060ED037546ED
:1016200001D5164300E096432E60641C0D682A46DF
:10163000E5407FF431AFBDE8F88F000008040140B9
:10164000000011100010024000000140000801409D
:10165000000C014000100140001401408068084067
:1016600000D001207047C26821EA02030A4043EA21
:101670000241016170470AB1016170470904FBE74B
:1016800001488068704700000800002070B5040021
:1016900025D094F83D00002520B984F83C50204620
:1016A00000F04EF9242084F83D002068016821F004
:1016B000010101602068016841F400410160206877
:1016C000016821F40041016000F0F8FA4D4A6168B8
:1016D000914201D84C4900E04C49884201D2012096
:1016E00070BD4B492368B0FBF1F15E6826F03F0600
:1016F0000E435E606368934206D94FF49673594374
:101700004FF47A73B1FBF3F12368491C1E6A26F08B
:101710003F06314319626168914210D84900401E6A
:10172000B0FBF1F2521CC2F30B02042A01D20420D6
:1017300022E0B0FBF1F0401CC0F30B001CE0A268FB
:10174000F2B301EBC10303EB0116431EB3FBF6F347
:101750005B1C43F480431B0549D092B301EBC102EB
:1017600002EB0111401EB0FBF1F0401CC0F30B0076
:1017700040F4804040F400402168CA694CF6FF7391
:101780009A431043C861D4E90710014320680268F6
:1017900022F0C00211430160D4E903010143206833
:1017A000826848F2FF339A4311438160D4E905010E
:1017B00008432168CA6822F0FF021043C86001E0B4
:1017C0000EE016E02068016841F001010160256427
:1017D000202084F83D00256384F83E50002070BD31
:1017E00001EB4106431EB3FBF6F35B1CB3E701209C
:1017F000C2E701EB4101401EB0FBF1F0401CC0F319
:101800000B00B7E7A086010080841E0000093D00A0
:1018100040420F002DE9F84F1F4690468A46044685
:10182000DDF82890FFF72CFF054694F83D002028AE
:101830007FD11923012240492046009501F0B0FADA
:10184000002876D194F83C00012872D0012084F859
:101850003C0020680168C90703D1016841F001011B
:1018600001602068016821F400610160212084F892
:101870003D00102084F83E0000262664C4F8248031
:101880006785608D20852D48E0622B464A4651468B
:10189000204601F00BFA90B92068416980690090F8
:1018A00036E02A464946204601F020FB50B1206C24
:1018B000042804D12068016841F40071016001200E
:1018C000BDE8F88F606A216800780861606A401C92
:1018D0006062618D491E6185218D491E89B2218515
:1018E00022685369DB435B070BD451B10078106168
:1018F000606A401C6062608D401E6085208D401EC5
:1019000020852A464946204601F01EFA0028CED1FD
:10191000208D0028C5D154F83D0B016841F40071B9
:101920000160202004F81E09E67766770020C7E7EB
:10193000FFE70220C4E70000020010000000FFFFE4
:1019400010B586B0002100910191029103910068C9
:101950000F4988421AD10F4CA06940F00800A061DD
:10196000A069694600F008000490C0200090122091
:101970000190032003900848FFF780FDE06940F4E0
:101980000010E061E06900F40010049006B010BDA2
:101990000054004000100240000C01401CB502231E
:1019A0008DF804000A208DF80510009001AA782116
:1019B0000148FFF72FFF1CBD50030020024881683B
:1019C000027811448160704708000020074810B574
:1019D000016841F010010160032000F0A7F80F201A
:1019E00000F006F800F050F8002010BD0020024082
:1019F00030B505461F4887B0C16941F00401C16197
:101A0000C06906A900F00400009001A800F036F9B2
:101A10000498B0B100F052F940001749174AB0FBE2
:101A2000F1F11748491E0260416040F2E73200219F
:101A3000C0E903218160816100F0C5FC040003D08E
:101A400015E000F03BF9E8E70D4800F0EBFC04007E
:101A50000DD11E2000F03CF8102D07D2002229469F
:101A60001E2000F043F80748056000E0012407B09D
:101A7000204630BD0010024040420F0000080040E8
:101A8000700500200C0000200F4808B5816941F066
:101A900001018161816901F001010091C16941F099
:101AA0008051C161C069002200F0805000900F2178
:101AB000901E00F01BF80548416821F0E06141F0FC
:101AC0000071416008BD00000010024000000140AC
:101AD000002809DB00F01F0201219140400980002D
:101AE00000F1E020C0F8001170470000F0B40E4B88
:101AF0001B680C46C3F30223C3F10705042D00D96C
:101B00000425191D072901D2002300E0DB1E012650
:101B100006FA05F1491E214099409E40761E164066
:101B20003143F0BC02F01AB90CED00E0064900F0B8
:101B3000070208684FF6FF03184040EA0220034AF4
:101B400010430860704700000CED00E00000FA054B
:101B50002DE9F0470F46050061D0434E306800F094
:101B60000700B84209D2306820F0070038433060DF
:101B7000306800F00700B84251D128683B4C81071B
:101B800012D5400703D5606840F4E06060602878B3
:101B9000000703D5606840F4605060606068A96821
:101BA00020F0F000084360602878C00728D06868FB
:101BB000012810D02168022810D0890700292EDAC8
:101BC000616821F0030101436160FFF759FD804620
:101BD00041F288390DE021688903EFE78901EDE7DB
:101BE000FFF74EFDA0EB0801494502D90320BDE8EF
:101BF000F0876068696800F00C00B0EB810FEFD1EE
:101C0000306800F00700B8420BD9306820F00700B8
:101C100038433060306800F00700B84201D001203E
:101C2000E5E72878400705D56068E96820F4E060BA
:101C3000084360602878000706D56068296920F4A9
:101C4000605040EAC100606000F058F86168084ADE
:101C5000C1F30311515CC84006490860064800689A
:101C6000FFF7C6FE0020C2E700200240001002403D
:101C7000FA560008140000200C0000200F22026019
:101C80000C4A536803F003034360536803F0F00306
:101C90008360536803F4E063C36052684FF4E06309
:101CA00003EAD20202610448006800F007000860FD
:101CB000704700000010024000200240044805491F
:101CC00000684968044AC1F30221515CC84070476A
:101CD00014000020001002400A570008044805497B
:101CE00000684968044AC1F3C221515CC84070478A
:101CF00014000020001002400A5700080E4A5168E4
:101D00000E4801F00C03042B11D0082B0FD10C4806
:101D1000C1F38343C903C05C0AD55168084AC1F3C3
:101D20004041921E515C054A5043B0FBF1F07047B0
:101D300004494843704700000010024000127A0036
:101D4000EA56000800093D002DE9F84F040070D064
:101D50002078C04DC00749D06868C0F381000128D1
:101D600007D06868C0F38100022809D16868C00301
:101D700006D52868800339D560680028E7D035E0AB
:101D80006068B0F5803F0BD010B1B0F5A02F11D036
:101D9000286820F480302860286820F4802002E041
:101DA000286840F480302860606890B1FFF768FCD4
:101DB00006460AE0286840F480202860F0E700BF6B
:101DC000FFF75EFC801B642873D828688003F7D572
:101DD0000CE0FFF755FC064605E000BFFFF750FC9E
:101DE000801B6428F0D828688003F7D420789A4EA6
:101DF00080074FF001094FF0000839D5686810F0EE
:101E00000C0F07D06868C0F38100022809D1686808
:101E1000C00306D42868800714D52069012808D19A
:101E200010E02069B0B1C6F80090FFF729FC074622
:101E300005E00AE1FFF724FCC01B0228C4D828688B
:101E40008007F7D52868616920F0F80040EAC100F2
:101E500028600DE0C6F80080FFF712FC074604E09A
:101E6000FFF70EFCC01B022823D828688007F7D490
:101E7000207800072CD57948A169D9B1C0F8009025
:101E8000FFF7FEFB074604E0FFF7FAFBC01B022842
:101E90000FD8686A8007F7D571484FF4FA51006887
:101EA000B0FBF1F0009000BF0098411E0091FAD203
:101EB0000EE080E0C0F80080FFF7E2FB074604E098
:101EC000FFF7DEFBC01B022875D8686A8007F7D4CD
:101ED0002078400760D5E8690027C00008D4E86989
:101EE00040F08050E861E869012700F080500090E0
:101EF0005C480168C90513D40168834641F48071C8
:101F00000160FFF7BDFB824606E000BFFFF7B8FBAC
:101F1000A0EB0A0064284ED8DBF80000C005F5D518
:101F2000E06801280AD008B1052813D0286A20F0FB
:101F300001002862286A20F0040002E0286A40F0CC
:101F400001002862E06841F2883B98B1FFF798FBF6
:101F500082460BE0286A40F004002862EEE700BFEA
:101F6000FFF78EFBA0EB0A0159455AD8286A800773
:101F7000F6D50CE0FFF784FB824605E0FFF780FB17
:101F8000A0EB0A0159454CD8286A8007F6D41FB146
:101F9000E86920F08050E861E06988B36968C1F3BE
:101FA0008101022944D00228C6F8608004D0FFF7DE
:101FB00067FB044638E034E0FFF762FB074604E0C5
:101FC000FFF75EFBC01B02282BD828688001F7D4DE
:101FD000206AB0F5803F05D16868A16820F4003020
:101FE00008436860D4E908010843696821F4741162
:101FF00008436860C6F86090FFF742FB044606E0BD
:1020000025E000BFFFF73CFB001B022809D8286829
:102010008001F7D51BE000BFFFF732FB001B022851
:1020200002D90320BDE8F88F28688001F4D40EE0BF
:102030000128F7D06868226A00F48031914204D107
:10204000616A00F47010884201D00120EAE70020A4
:10205000E8E70000001002400000424280044242D3
:10206000140000200070004070B5040009D0606AC0
:10207000002540B125616561A56294F8510040B129
:102080000CE0012070BD6068B0F5827FF4D0E5619E
:10209000F2E784F85050204600F040F8022084F81F
:1020A00051002068016821F040010160A088218969
:1020B00000F4827001F404410843A18901F4006135
:1020C0000843217C01F002010843217D01F0010158
:1020D0000843218B01F400710843217F01F038018E
:1020E000084394F8201001F080010843218D01F489
:1020F0000051084321680860A069042101EA1040EA
:10210000216848602068C16921F40061C16165658A
:10211000012084F85100002070BD000030B585B06A
:1021200000240094019402940394254D03682548EB
:1021300002210322AB421AD1836943F480538361A5
:10214000836903F480530493836943F00403836138
:1021500080691D4D00F004000490A020CDE900012D
:10216000039269462846FFF789F940201EE0174D83
:10217000AB4222D1C36943F48043C361C36903F412
:1021800080430493836943F0080383618069104DA1
:1021900000F0080004904FF42040CDE900010392C4
:1021A00069462846FFF76AF94FF48040CDE90004FC
:1021B000694628460294FFF761F905B030BD00007A
:1021C000003001400010024000080140003800408B
:1021D000000C01402DE9FF4F81B0044690F85000FB
:1021E00000260E9F1D4693464FF0010901280FD08F
:1021F0004FF0010A84F850A0FFF742FA804694F8A5
:102200005100616801280DD0B1F5827F08D103E04B
:10221000022005B0BDE8F08FA16809B9042801D0FB
:102220000226C9E00298002865D0BBF1000FFBD060
:10223000002DF9D094F85100042802D0052084F82C
:10224000510000206065C4F838B0E587A587029981
:102250002163E586A58620646064206801684906DC
:1022600003D4016841F040010160E068B0F5006FFF
:10227000606803D0F0B3012D47D081E008B1012D93
:102280003CD1206B21680088C860206B801C2063D3
:10229000E08E401EE08631E02068816889070FD516
:1022A000E18E69B1B9F1010F0AD1216B0988C160D2
:1022B000206B801C2063E08E401EE0864FF00009FA
:1022C00020688168C9070CD0E18F51B1C068A16B4B
:1022D0000880A06B801CA063E08F401EE0874FF059
:1022E0000109FFF7CDF9A0EB0800B84206D3781C2E
:1022F00004D001E009E05BE003265BE0E08E00280B
:10230000CAD1E08F0028C7D140E0206B2168007857
:102310000873206B401C2063E08E401EE0862FE097
:102320002068816889070FD5E18E69B1B9F1010F85
:102330000AD1216B09780173206B401C2063E08E69
:10234000401EE0864FF0000920688168C9070CD064
:10235000E18F51B1C068A16B0870A06B401CA063F5
:10236000E08F401EE0874FF00109FFF789F9A0EBED
:102370000800B84202D3781C02D0BAE7002FB8D0C8
:10238000E08E0028CCD1E08F0028C9D142463946E2
:10239000204601F09BF918B10126202060650BE072
:1023A000A06818B92068C16880680090606D08B1A5
:1023B000012601E084F851A0002084F85000304646
:1023C00027E77047704710B5040003D094F83D002C
:1023D00010B107E0012010BD002084F83C00204629
:1023E00000F01EF8022084F83D00211D206801F055
:1023F0003FFA012084F8460084F83E0084F83F004C
:1024000084F8400084F8410084F8420084F84300D6
:1024100084F8440084F8450084F83D00002010BD95
:102420007047000090F83D10012901D0012070474D
:10243000022180F83D100168CA6842F00102CA60BA
:1024400000680B49884208D0B0F1804F05D0094997
:10245000884202D00849884204D1816801F007010E
:10246000062903D0016841F0010101600020704796
:10247000002C01400004004000080040704770B587
:102480000446006801694FF00005C943890715D467
:10249000C168C943890711D4E91E01610120207771
:1024A000206880698007204602D0FFF7E7FF04E03C
:1024B00000F098F8204600F096F82577206801692A
:1024C000C943490717D4C168C943490713D46FF0FA
:1024D00004010161022020772068806910F4407FA8
:1024E000204602D0FFF7CAFF04E000F07BF8204648
:1024F00000F079F8257720680169C943090716D4E7
:10250000C168C943090712D46FF0080101610420B2
:1025100020772068C0698007204602D0FFF7AEFF11
:1025200004E000F05FF8204600F05DF825772068B1
:102530000169C943C90617D4C168C943C90613D480
:102540006FF010010161082020772068C06910F445
:10255000407F204602D0FFF791FF04E000F042F8F0
:10256000204600F040F8257720680169C943C90773
:1025700008D1C168C943C90704D1891E0161204639
:1025800000F032F820680169C943090609D4C1681E
:10259000C943090605D46FF0800101612046FFF7A9
:1025A00010FF20680169C943490609D4C168C943BD
:1025B000490605D46FF040010161204600F01EF885
:1025C00020680169C94389060BD4C168C9438906DB
:1025D00007D46FF0200101612046BDE87040FFF78D
:1025E000F1BE70BD7047704700680349884201D151
:1025F000FFF7E4B9704700000008004070477047DB
:1026000010B504460068406994F84110C0F3C0104A
:10261000212911D180B12068143050E8001F21F029
:10262000800140E80012002AF5D1A06B08B1FEF746
:1026300093FD204601F0F8F92068406994F84210B3
:10264000C0F38010222911D180B12068143050E8E5
:10265000001F21F0400140E80012002AF5D1E06B94
:1026600008B1FEF779FD204601F0B7F9002010BD52
:1026700070470000F8B5016804460868CA684B69ED
:1026800010F00F0F4FF0000559D003F0010602F4CF
:102690009077374365D0C10705D0D10503D5616C6C
:1026A00041F001016164410705D5D90703D0616C90
:1026B00041F002016164810705D5D90703D0616C3F
:1026C00041F004016164010707D502F020013143A4
:1026D00003D0616C41F008016164616C00293AD05B
:1026E000800604D5900602D5204601F0ABF920689B
:1026F0004069616CC0F38010090700D460B32046C4
:1027000001F06BF920684069400621D5206814303B
:1027100050E8001F21F0400140E80012002AF5D1E6
:10272000E06BA8B16D494163E06BFEF739FD00280D
:1027300011D0E06B416B01B0BDE8F0400847830663
:102740000FD593060DD52046BDE8F84001F07AB9C3
:102750002046FFF78DFFF8BD2046FFF789FF65642F
:10276000F8BD266B2023012E7CD1C6067AD5D6066D
:1027700078D508684868009048694FF0020640061E
:1027800040D5E16B086840680004000CE8D0A28DD9
:102790008242E5D9E085886920282DD020680C3058
:1027A00050E8001F21F4807140E80012002AF5D1A2
:1027B0002068143050E8001F21F0010140E80012A9
:1027C000002AF5D12068143050E8001F21F04001A4
:1027D00040E80012002AF5D184F8423025632068D1
:1027E0000C3050E8001F21F0100140E80012002AD0
:1027F000F5D1E06BFEF7B0FC6663A08DE18D401A69
:1028000081B22AE0A08DE18D401A81B2E08D0028CE
:10281000A6D00029A4D022680C3252E8000F20F480
:10282000907042E80007002FF5D12068143050E87E
:10283000002F22F0010240E80027002FF5D184F894
:102840004230256320680C3050E8002F22F010023F
:1028500040E80023002BF5D166632046FFF7CFFE4A
:10286000F8BDFFE705062BD5150629D594F84100DC
:102870002128F5D1A068B0F5805F01D12069B0B101
:10288000206A411C2162216800784860E08C401E6B
:102890000004000CE084E3D12068C16821F08001CD
:1028A000C1602068C16841F04001C160D8E7206A7A
:1028B0000088C0F308004860206A801C2062E5E7B9
:1028C0004006CDD55006CBD5CA68204622F040023E
:1028D000CA6084F8413000F08AF9C1E7DD380008A9
:1028E00070B5040004D094F84100002510B106E052
:1028F000012070BD84F84050204600F023F82420C9
:1029000084F841002068C16821F40051C16020466C
:1029100001F0FAF82068016921F490410161206812
:10292000416921F02A0141612068C16841F40051E8
:10293000C1606564202084F8410084F8420065632A
:10294000002070BDF0B585B000240094019402947D
:102950000394054602684548DFF80CC102210323B1
:10296000434E071562451AD1826942F48042826162
:10297000826902F480420492826942F00402826118
:102980008069039300F0040004900802CDE900017F
:1029900069463046FEF772FDCDE900741EE0DFF8AF
:1029A000D4C0624521D1C26942F40032C261C26919
:1029B00002F400320492826942F00402826180696A
:1029C000039300F0040004900420CDE9000169465F
:1029D0003046FEF753FD0820CDE900046946304635
:1029E0000294FEF74BFD05B0F0BD234EB242FAD182
:1029F000C26942F48022C261C26902F48022049258
:102A0000826942F0080282618069CDE9007100F0BC
:102A10000800CDE90330194E69463046FEF72EFD19
:102A2000F014CDE90004694630460294FEF726FD15
:102A3000144E1348C6E900048020C6E90240346100
:102A40007461B4613046F461FEF7A0FC08B1FEF792
:102A5000BBFAEE630022052127207562FFF746F8D6
:102A60002720FFF735F8BEE700380140001002408C
:102A7000000801400044004000480040000C0140B4
:102A8000300002402C0500202DE9F843044690F860
:102A90004200994616460D46202802D00220BDE885
:102AA000F883ADB1A6B100206064222184F8421001
:102AB0002063FEF7E5FDA6858046E685A0684FF415
:102AC0008057B84201D1206920B12E46002526E06A
:102AD0000120E4E7002622E0434600222021204690
:102AE000CDF8009001F0B4F808B10320D7E726B183
:102AF000A068B8421BD038B108E020684068C0F335
:102B0000080025F8020B07E0206980B120684068C2
:102B100000F07F0006F8010BE08D401EE085E08D9F
:102B20000028D9D1202084F842000020B7E720688F
:102B30004068EFE790F84230202B01D00220704728
:102B400021B11AB10023036301F03AB801207047A4
:102B5000704770472DE9F843044690F841001F463E
:102B600016460D46202802D00220BDE8F8837DB12C
:102B700076B100206064212084F84100FEF780FDDA
:102B8000A6848046E684A068B0F5805F02D003E0AA
:102B90000120EAE7206910B12E4600250EE000264C
:102BA0000CE08021204601F053F8A0B9AEB116F830
:102BB000010B21684860E08C401EE084E08C4346B5
:102BC0004FF0000200970028EBD14FF04001204663
:102BD00001F03EF830B10320C7E735F8020BC0F32F
:102BE0000800E6E7202084F841000020BDE7704798
:102BF000FEE700004FF47A7402F04EF800F07FFC1C
:102C0000012113A2084600F036FD2046FEF724FC01
:102C100012A20121022000F02EFD02E00120FEF7A9
:102C20001BFC00F0F5FA0028F8D110A201210320C6
:102C300000F021FDFEF762FA00F04EFC02F066FCA7
:102C4000002001F05BFF204601F0C2F8D4E700004D
:102C50004F4C45443A204F4B21000000322E344760
:102C600020496E69742E2E2E000000004E6F69738D
:102C7000656E20496E69742E2E2E000001684A6927
:102C8000D24352050FD46FF480624A61002140F8AC
:102C9000301F202242738173026942F004020261F4
:102CA000017301207047002070470000F8B504460A
:102CB000C06A1E460D461746082807D0012805D0D1
:102CC00010F5803F02D0206B122804D120680168E3
:102CD00041F480710160134600224FF0011120463B
:102CE000009600F05DF840B120680068C00502D58C
:102CF0004FF4007020640320F8BD2069B0F5804FC8
:102D00000ED00620216800EAD51040F0F0000861DE
:102D100033463A460B49204600F08AF878B902E07B
:102D200005F0FE0000E0E8B221680861054933467D
:102D30003A46891F204600F07BF80028DCD00120AD
:102D4000F8BD00000800010070B516460D460446A7
:102D50001EE02046FFF792FF08B1012070BD681CFD
:102D600016D0FEF78DFC801BA84200D885B92068DC
:102D70004069C04340070BD5002044F8300F2021A4
:102D80006173A073216941F0200121612073E4E7A0
:102D900020684069C0434007DBD4002070BD0000BC
:102DA0002DE9F047984617460D460446C1F30746FD
:102DB000DDF820902AE000BFB8F1FF3F26D0FEF7F3
:102DC0005FFCA0EB0901414502D8B8F1000F1DD10D
:102DD0002068012E16D0806925EA00000004000C4E
:102DE00012D00020B84211D1002044F8300F202129
:102DF0006173A073216941F02001216120730120DA
:102E0000BDE8F0874069E7E70120EBE72068012E85
:102E10000AD0806925EA00000004000C06D00020DA
:102E2000B842C9D00020EBE74069F3E70120F7E79B
:102E30002DE9F047984616460D4604464FF0000926
:102E40004FF0200AC1F3074723E020684069C043E0
:102E5000400515D42068016841F4007101602168C3
:102E60006FF480604861C4F8309084F83DA084F825
:102E70003E90216C41F00401216484F83C9021E0F3
:102E8000701C06D0FEF7FCFBA0EB0800B04203D894
:102E900016B1012F1FD021E02068012F15D08069C5
:102EA00025EA00000004000C18D000BF44F8309F51
:102EB00084F80DA084F80E90216941F02001216171
:102EC00084F80C900120BDE8F087406925EA0000F5
:102ED0000004000CEAD12068406901E020688069A4
:102EE00025EA00000004000CAFD1ECE770B51646EF
:102EF0000D4604461EE02046FFF7C0FE08B1012043
:102F000070BD681C16D0FEF7BBFB801BA84200D822
:102F100085B920684069C04300060BD5002044F8FD
:102F2000300F20216173A073216941F020012161DC
:102F30002073E4E720684069C0430006DBD400202A
:102F400070BD0000074D4FF4005400BF00F078FF43
:102F5000064621462846FEF786FB06F5FA7000F085
:102F600051FFF3E700100140094808B5416941F0FD
:102F7000010141614069002200F00100009005213B
:102F80000D20FEF7B3FDBDE808400D20FEF7A0BD03
:102F90000010024010B500F0B7FE044A00210448BA
:102FA00000F09EFF0349086010BD0000C4560008F1
:102FB000A5370008000000202DE9F04786B0002466
:102FC00031480094019402940394816941F0100106
:102FD0008161816901F010010491816941F0200152
:102FE0008161816901F020010491816941F004014E
:102FF0008161816901F004010491816941F0080156
:1030000081618069DFF8848000F008004FF400558A
:103010000490002229464046FEF72DFBDFF8709011
:10302000002210214846FEF726FBDFF868A04FF487
:103030008857002239465046FEF71DFB00950226B0
:1030400001250396CDE9015469464046FEF716FA7C
:103050001020CDE90005CDE9024669464846FEF755
:103060000DFACDE90054694650460295FEF706FA7E
:1030700000970396CDE9015469465046FEF7FEF9E4
:1030800006B0BDE8F08700000010024000100140CB
:1030900000080140000C01400D4810B50B490160CB
:1030A0000C49416000214FF480428160C0E9031265
:1030B00041618161C1610162FEF7E8FA002803D035
:1030C000BDE81040FDF780BF10BD00000054004077
:1030D00050030020A0860100104810B50E49016081
:1030E0004FF48271416000218160C1604FF4007231
:1030F0000161C0E905121022C0E907214162816225
:103100000A21C162FEF7B0FF002803D0BDE81040DD
:10311000FDF75ABF10BD000000300140A40300209D
:103120000F4810B50D4901604FF4827141600021D4
:103130008160C1604FF400720161C0E90512C16194
:103140000162416281620A21C162FEF78DFF00289F
:1031500003D0BDE81040FDF737BF10BD0038004078
:10316000FC0300200C4810B50A4901604FF4E1311E
:103170004160002181600C22C160C0E904128161BC
:10318000C161FFF7ADFB002803D0BDE81040FDF79B
:103190001BBF10BD00380140540400200C4810B57E
:1031A0000A4901604FF416514160002181600C22F0
:1031B000C160C0E904128161C161FFF791FB002881
:1031C00003D0BDE81040FDF7FFBE10BD0044004035
:1031D0009C0400200C4810B50A4901604FF4E1310D
:1031E0004160002181600C22C160C0E9041281614C
:1031F000C161FFF775FB002803D0BDE81040FDF763
:10320000E3BE10BD00480040E4040020FEE7FEE7F6
:103210001CB50FA10522D1E90001CDE900016946E5
:10322000302000F0BFF805226946102000F014F8A5
:10323000002069460A5CA52A03D1401CC0B20528BB
:10324000F8D3052801D001201CBD00201CBD0000C2
:10325000A5A5A5A5A50000002DE9F041DFF83C805B
:1032600015460F460446002210214046FEF703FA99
:10327000204600F01BFA0646002405E0FF2000F07F
:1032800015FA3855641CE4B2AC42F7D30122102180
:103290004046FEF7F0F93046BDE8F08100080140F5
:1032A00070B50A4D0446002210212846FEF7E3F9C6
:1032B000204600F0FBF9FF2000F0F8F90446012257
:1032C00010212846FEF7D7F9204670BD00080140BE
:1032D00070B5194D4FF48074002221462846FEF740
:1032E000CAF905221549302000F05CF8134905227F
:1032F000491D2A2000F056F80121212000F076F81F
:103300000121222000F072F81A21242000F06EF82A
:103310002821252000F06AF80F21262000F066F809
:103320000E21202000F062F821462846BDE87040BA
:103330000122FEF7A0B90000000C0140125700085E
:1033400070B5174C05464FF4807600223146204672
:10335000FEF791F920222946A02000F023F801224F
:1033600031462046FEF787F901212046FEF776F91F
:103370000028F9D10720FFF793FF044601462720D4
:1033800000F034F8E00605D5FF21E12000F02EF82A
:10339000102070BDA00601D5202070BDFF2070BD9B
:1033A000000C01402DE9F041DFF83C8016460D4647
:1033B0000446002210214046FEF75DF9204600F049
:1033C00075F90746002405E015F8010B00F06EF9C9
:1033D000641CE4B2B442F7D3012210214046FEF748
:1033E0004AF93846BDE8F0810008014070B50B4D40
:1033F0000E460446002210212846FEF73CF92046DE
:1034000000F054F90446304600F050F90122102132
:103410002846FEF730F9204670BD00000008014044
:10342000124C207848B900BFFDF72AFE0028FBD1D6
:103430002078401C2070FDF7C9FD0D4C00F000FD08
:103440000546FDF75BFEFFF743FF0948FFF778FFEE
:103450002079E178042300EB01220121032000F010
:10346000E9F805F5FA6000F0CDFCE7E7DF000020A1
:1034700090000020114E124D00F0E2FC04460120A5
:103480003070286880B101210E4A084600F0F3F838
:103490000D4A0121022000F0EEF80A230121042048
:1034A0002A6800F0C7F804E0012108A2084600F0ED
:1034B000E2F804F57A7000F0A5FCDDE7E0000020FA
:1034C000D4000020F03A0020043B00206C6F6361C0
:1034D00074696F6E2E2E2E0070B5002400212046D8
:1034E00000F062F80025002000F0DCF86D1CEDB261
:1034F000802DF8D3641CE4B2082CEFD370BD10B556
:103500004FF4FA70FDF7A8FFAE2000F0C7F8D52001
:1035100000F0C4F8802000F0C1F8A82000F0BEF848
:103520003F2000F0BBF8D32000F0B8F8002000F0F6
:10353000B5F8402000F0B2F8A12000F0AFF8C820A4
:1035400000F0ACF8DA2000F0A9F8122000F0A6F89C
:10355000812000F0A3F8CF2000F0A0F8D92000F0DF
:103560009DF8F12000F09AF8DB2000F097F8302069
:1035700000F094F8A42000F091F8A62000F08EF856
:103580008D2000F08BF8142000F088F8AF2000F0B8
:1035900085F8BDE81040FFF79FBF0246012000E01C
:1035A0005043491EFCD2704710B50C4640F0B000A5
:1035B00000F074F8102040EA141000F06FF804F0E6
:1035C0000F00BDE8104000F069B800002DE9F0419F
:1035D0000746CE004000083E801E15464FF0FF38DB
:1035E000F1B2C0B2FFF7E0FF1148002400EB05156F
:1035F0002819A0F5805090F8000E00F053F8641CD4
:10360000E4B2082CF4D308EB4700F1B2C0B2FFF7E4
:10361000CBFF00242819A0F5805090F8080E00F088
:1036200041F8641CE4B2082CF4D3BDE8F08100003A
:103630004B5700082DE9F04700241D4616468846E2
:1036400081460A2713E0291B0A20491EFFF7A5FF20
:10365000B6FBF0F0B0FBF7F107FB110208EB04003A
:10366000C1B248463032FFF7B1FF641CE4B2AC424D
:10367000E9D3BDE8F0872DE9F04115460E4607462F
:10368000002406E03019C1B23846FFF79FFF641CE2
:10369000E4B22A5D002AF5D1BDE8F08101460020A0
:1036A000FEF77CB901464020FEF778B901B582B03B
:1036B0004FF47A700090012301AA02A90248FEF794
:1036C00089FD9DF804000EBDA403002038B50B460B
:1036D000009204460022802100F008F8002804D05F
:1036E000606D40F020006065032038BD2DE9F8438F
:1036F0001E46914688460446089DFDF7C1FF401BC3
:10370000351AFDF7BDFF074625480068C0F3CB30EA
:10371000684338E0701C37D0FDF7B2FFC01BA842E9
:1037200003D215B1009860B32CE02068416821F005
:10373000E00141606068B0F5827F0BD1A068B0F510
:10374000004F02D0B0F5806F04D12068016821F0ED
:1037500040010160A06AB0F5005F09D120680168EE
:1037600021F4005101602068016841F400510160BA
:10377000012084F85100002084F850000320BDE8A7
:10378000F8830025401E00902068816838EA010017
:1037900004D000214945BDD10020F0E70121F9E71F
:1037A000140000204FF0FF34204600F011FBFBE72F
:1037B00010B5502080F31188BFF34F8FBFF36F8F88
:1037C00001F0C8FD18B104494FF080500860002096
:1037D00080F3118810BD000004ED00E030B58FB01B
:1037E00028216846FCF796FF14210AA8FCF792FFEF
:1037F00001210804CDE9001000240294022504915F
:10380000CDE907504FF4E01009906846FEF79CFAA6
:1038100008B172B6FEE70F20CDE90A054FF48060CB
:10382000CDE90C4002210AA80E94FEF791F9002878
:1038300001D072B6FEE70FB030BD7047094B30B40F
:103840001A6852B108490888441C0C80B0F57A7F88
:1038500003D900200880521C1A6030BC0348FEF7D0
:103860000EBE0000D40000200400002070050020DF
:10387000F0B50268164B174C174D4FF08047984231
:1038800005D0B84203D0A04201D0A84203D122F013
:1038900070064A683243984205D0B84203D0A0422D
:1038A00001D0A84203D122F44074CA6822434C6973
:1038B00022F08002224302608A68C2620A68826241
:1038C000984201D10969016301214161F0BD000005
:1038D000002C0140000400400008004010B5406A80
:1038E0000021C185C184FEF7C3FE10BD70B5446AD6
:1038F0002068406994F84110C0F3C01000252129C8
:1039000004D118B1E584204600F08EF820684069A3
:1039100094F84210C0F38010222904D118B1E58533
:10392000204600F05AF8606C40F0100060642046B9
:10393000FEF79EFE70BD10B50146406A0968096831
:103940004FF0000289062ED4C28501680C3151E87F
:10395000003F23F4807341E80034002CF5D1016866
:10396000143151E8003F23F0010341E80034002CFA
:10397000F5D10168143151E8003F23F0400341E8DC
:103980000034002CF5D1202180F84210016B012970
:1039900009D101680C3151E8003F23F0100341E8E0
:1039A0000034002CF5D14263016B012902D0FFF7EE
:1039B000CFF810BD818DFEF722FE10BD10B5406A14
:1039C00001214163016B012902D0FFF7C2F810BD4C
:1039D000818D4908FEF713FE10BD01680C3151E8D6
:1039E000002F22F4907241E80023002BF5D10168EA
:1039F000143151E8002F22F0010241E80023002B8E
:103A0000F5D1016B012909D101680C3151E8002F72
:103A100022F0100241E80023002BF5D1202180F88C
:103A2000421000210163704701680C3151E8002FFA
:103A300022F0C00241E80023002BF5D1202180F8BC
:103A40004110704708B590F84210222901D0022099
:103A500008BD82684FF480539A4201D1016921B1B7
:103A6000816A9A421BD04AB10AE00268816A5268B0
:103A7000C2F308020A80816A891C08E0026972B1F7
:103A80000268526802F07F020A70816A491C8162F2
:103A9000C18D491E0904090CC18503D01BE00268D1
:103AA0005268F1E70168CA6822F02002CA60016822
:103AB000CA6822F48072CA6001684A6922F0010271
:103AC0004A61202180F8421000214163026B012AE3
:103AD00003D0FFF73DF8002008BD016301680C31F9
:103AE00051E8002F22F0100241E80023002BF5D10D
:103AF00001680A68D20602D50A6849680091818D7A
:103B0000FEF77DFDE7E7000070B504460068016937
:103B1000E26821F44051114301612169A068084322
:103B2000616908432168CA6841F20C639A43024301
:103B3000CA6020684169A26921F440711143416162
:103B40001E492068884202D1FEF7C8F801E0FEF75E
:103B5000B5F800EBC00101EB001260686421800041
:103B6000B2FBF0F3B3FBF1F36FF018067343B2FB53
:103B7000F0F5B2FBF0F605EB8305322303EB0515F8
:103B8000B5FBF1F5B6FBF1F605F0F00505EB061512
:103B9000B2FBF0F6B2FBF0F0B0FBF1F06FF0180200
:103BA000504306EB800003EB0010B0FBF1F02168FE
:103BB00000F00F002844886070BD0000003801400C
:103BC00038B5816204468285002013466064222253
:103BD00084F84220E56B1B4AAA62E56B1A4AEA6246
:103BE000E56B1A4A2A63E26B50630A462168E06B70
:103BF000091DFDF7F9FB2068016840680090206905
:103C000048B120680C3050E8001F41F4807140E852
:103C10000012002AF5D12068143050E8001F41F04E
:103C2000010140E80012002AF5D12068143050E864
:103C3000001F41F0400140E80012002AF5D10020A9
:103C400038BD000037390008BD390008ED380008DC
:103C50002DE9F041984617460E460446069D27E09A
:103C6000681C25D02DB1FDF70BFDA0EB0800A84284
:103C70001ED920680C3050E8001F21F4D07140E8B4
:103C80000012002AF5D12068143050E8001F21F0FE
:103C9000010140E80012002AF5D1202084F84100FB
:103CA00084F84200002084F840000320BDE8F08141
:103CB0002068006836EA000004D00020B842CFD067
:103CC0000020F3E70120F9E710B50C4C20680068EC
:103CD000C043C0060DD4FDF71DF921686FF0100038
:103CE00008602046FEF78CFC642205492046FEF75A
:103CF00021FFBDE810400148FEF7BCBCE4040020F1
:103D00008C3A0020FEE7000010B50E4A00210E4854
:103D100000F0E6F80D4C0B4A0021206024320C48DC
:103D200000F0DEF8074A606048320021094800F0E0
:103D3000D7F8044AA0606C320021074800F0D0F8A0
:103D4000E06010BDDC5D0008F52B0008E4000020F9
:103D5000452F000821340008753400080907090EB2
:103D6000002804DB00F1E02080F80014704700F028
:103D70000F0000F1E02080F8141D7047FDF726FECB
:103D8000FFF72CFDFFF718F9FFF7EEF8FFF784F9BE
:103D9000FFF7A2F9FFF7C4F9FFF7E4F9FFF7FEF91F
:103DA000FFF718FA0A2208490848FEF7C3FE074839
:103DB0000068C16841F01001C16000F055F8FFF7DC
:103DC000E9F800F06DF8FEE78C3A0020E4040020EA
:103DD00010B5EFF3058149B9EFF3108131B9084906
:103DE0000968022905D1EFF3118111B16FF00504C3
:103DF00003E0002408B100F015FE204610BD0000CD
:103E00006800002038B50546EFF3058048B9EFF3A8
:103E1000108030B909480068022805D1EFF31180FD
:103E200010B16FF0050407E0002401F085FA291AAB
:103E30000090684600F01CFE204638BD6800002057
:103E4000EFF3058048B9EFF3108030B905480068FA
:103E5000022804D1EFF3118008B101F073BA01F028
:103E60006BBA000068000020EFF3058058B9EFF34B
:103E7000108040B909490868022801D030B109E032
:103E8000EFF3118030B16FF005007047012008603A
:103E9000002070474FF0FF3070470000680000209E
:103EA00010B5EFF3058060B9EFF3108048B90B4906
:103EB0000868022802D0012806D00BE0EFF3118039
:103EC00040B16FF0050010BD0220086000F0A0FEB8
:103ED000002010BD4FF0FF3010BD00006800002032
:103EE000F0B585B04FEA01034FF00004EFF3058110
:103EF0000394A1BBEFF3108189BB21490968022912
:103F000002D1EFF3118151BB48B3802618218DF8FF
:103F1000104004AD42B3176807B13D4697691FB121
:103F200039467F1E382F02D21779FF0702D00020B2
:103F300005B0F0BD576907B1BE08D2F808C0BCF1A2
:103F4000000F0DD0D4685C2C18D312693AB137B188
:103F50008DE806103246294601F0B5F903900DE0D0
:103F6000D7685FB912694AB903AACDE90012B2B2A3
:103F7000294601F07BF9012800D003940398D7E784
:103F8000680000202DE9F041134C0F460546666994
:103F90002068001D00F016FC681C07D137B12168AD
:103FA000BDE8F0410D48091D00F05CBC20683544B7
:103FB000B5424560216805D2A068BDE8F041091D01
:103FC00000F038BC6068091D00F034FC206B8542AD
:103FD00000D22563BDE8F08118000020A80A002067
:103FE0002DE9F041054600F049FC2D4C2069401CAC
:103FF000206120682B4F10B1E06930B32BE02560C1
:104000002069012827D1002606EB860007EB8000F7
:1040100000F002FC761C382EF6D3234800F0FCFB9F
:104020002148143000F0F8FB1F48283000F0F4FB62
:104030001D483C3000F0F0FB1B48503000F0ECFB1A
:10404000194860601430A06005E02068E96AC06A21
:10405000884200D82560E06A401CE0626864E86A33
:10406000A169884200D9A06100EB800007EB8000C5
:10407000291D00F0F7FB00F021FCE06900280CD0BE
:104080002068E96AC06A884207D208494FF0805028
:104090000860BFF34F8FBFF36F8FBDE8F081000062
:1040A00018000020F8050020580A002004ED00E068
:1040B00038B500F0E3FB104CA068C8B90F4800F019
:1040C000ABFB0E48143000F0A7FB0C482060143006
:1040D00060600A4B00202833009003F15002102149
:1040E0000A2000F067FEA06010B105A100F064FC9A
:1040F000BDE8384000F0E2BB54000020BC0A0020BC
:10410000546D72510000000030B4026C0B46002A5E
:104110000BD0C1681144C1604468A14201D3016859
:10412000C16030BC1846FCF786BA30BC70472DE938
:10413000F041856B174604460026026C82B1C7B178
:10414000E068FCF778FAE168206C091AE1602268FF
:10415000914202D26168081AE060022F16D017E07F
:104160002068A8B9606801F059F90646002060602F
:104170000EE0A068FCF75FFA216CA0680844A0601C
:104180006168884204D32068A06001E005B16D1E1B
:104190006D1CA5633046BDE8F08110B5044690F86B
:1041A000590058B101280CD002280FD0502080F3BC
:1041B0001188BFF34F8FBFF36F8FFEE7206B00F0C6
:1041C00091FB2046BDE8104000F08CBB10BD000004
:1041D00010484FF42051420706D0C01D0D4920F071
:1041E0000700411AC1F520510B4A00230144C2E9DE
:1041F00000030839103A21F0070111604B600B6091
:104200000B1AC0E9001393604FF000405360D06078
:10421000704700008C1200207C000020144E154CCA
:10422000A6F29C474FF08058DFF84C9012E000BF98
:1042300000F024FBF068C568281D00F0C3FA20696F
:10424000401E2061E068401EE06000F037FB284619
:10425000FFF7A3FFE0680028EAD138680128F9D900
:10426000C9F80080BFF34F8FBFF36F8FF2E70000F4
:10427000940A00201800002004ED00E070B51D46EF
:10428000049C51B1C4F80020C4E90F01012120466B
:1042900000F0C4FD84F84C5070BD2460F4E72DE9B3
:1042A000F0470E46DDE9098417468246910099469B
:1042B000089DA522206BFCF703FA6FF00301206B29
:1042C00001EB8701084420F00707780707D050204A
:1042D00080F31188BFF34F8FBFF36F8FFEE7221873
:1042E000315C82F83410315C11B1401C1028F6D3D7
:1042F000002684F84360382D00D33725E562C4E9F1
:104300001356201D00F093FA04F1180000F08FFA04
:104310002461C5F138006462A061666584F8586064
:104320004A465146384600F03BFA2060B8F1000F8B
:1043300001D0C8F80040BDE8F087000030B5114951
:1043400000E011460A688242FBD34B685C18844245
:1043500003D1406818444860084643681C189442DA
:1043600009D1084C103C2468A24209D052681A4472
:1043700042600A6812680260814200D0086030BD65
:104380000460F9E77C00002070B5002441600B4D0B
:104390000061914206D8D11A8269914206D2011D6C
:1043A000686807E09A4203D2994201D3012403E0EE
:1043B000011D286800F03EFA204670BD5400002020
:1043C00010B5044600F05AFAA06B28B15FF0000463
:1043D00000F074FA204610BD0124F9E730B589B029
:1043E000304D55E00498002806DADDE90601059A0B
:1043F0009047049800284BDB069C606910B1201D93
:1044000000F0E0F902A800F0B9F8024604980A2882
:104410003ED2DFE800F00505053D263705053D26BF
:104420000598A169034601442046FFF7ADFF00B39C
:10443000616A20468847E069012829D10020009060
:104440000598A169002342181946204601F0F0F8AA
:1044500078B9502080F31188BFF34F8FBFF36F8F6F
:10446000FEE70598A06128B1811813462046FFF7A2
:104470008BFF0DE0502080F31188BFF34F8FBFF307
:104480006F8FFEE794F82C0010B9204600F02AFA4E
:10449000002204A9A86800F013FE0028A2D109B0E8
:1044A00030BD0000540000202DE9FC410F460546B8
:1044B00000F0F2FB01A800F061F80446019818B181
:1044C00001F024F8BDE8FC81224EAFB170680068AD
:1044D000A8B30027291B3A46B06800F081FA01F022
:1044E00015F80028EED11C494FF080500860BFF34A
:1044F0004F8FBFF36F8FE5E7A542EBD801F006F8C9
:1045000030682746C068C468201D00F05BF9E06988
:10451000012810D1A0692B4641193A462046FFF7E1
:1045200033FF40B100200346014600902A46204652
:1045300001F07EF820B1616A20468847C2E707E0B3
:10454000502080F31188BFF34F8FBFF36F8FFEE7CA
:104550000127BFE75400002004ED00E00648416851
:10456000096829B14168C968C96849680163704729
:104570004FF0FF31FAE700001800002070B5054643
:1045800000F0DAFE064E04463069844203D200F0A1
:1045900009F8012000E0002028602046346170BD49
:1045A00054000020F8B5194D1FE0C068C4680668C3
:1045B000201D00F007F9616A20468847E06901285C
:1045C00013D1A0693044B04206D924616060211D36
:1045D000286800F02FF908E000200346014600900B
:1045E0003246204601F024F838B1286801680029D5
:1045F000DBD16968C5E90010F8BD502080F311884F
:10460000BFF34F8FBFF36F8FFEE700005400002011
:1046100008484068401C4FF0500080F3118804D0D7
:10462000BFF34F8FBFF36F8FFEE7BFF34F8FBFF323
:104630006F8FFEE784000020074C2068016841B1BD
:10464000C0680021D0F80000FFF72EFFFFF7C6FE7C
:10465000F3E701210020F7E7540000202DE9F041A5
:10466000044600F00BF994F9455004F1240609E0E2
:10467000606A48B1304600F011FF08B100F08EFAD0
:104680006D1E6DB2002DF3DC4FF0FF3684F84560EF
:1046900000F014F900F0F2F894F9445004F1100716
:1046A00009E0206948B1384600F0F8FE08B100F092
:1046B00075FA6D1E6DB2002DF3DC84F84460BDE820
:1046C000F04100F0FBB800002DE9F041054600275D
:1046D00000F0E2FA314E306808B9FFF779FDF06872
:1046E00005424BD1C5B3083568070ED005F0070069
:1046F000C0F108000544680707D0502080F31188F6
:10470000BFF34F8FBFF36F8FFEE72DB37068854205
:1047100034D82248103001460C6801E020460C468F
:104720006168A94202D221680029F7D131688C4220
:1047300024D007682168016060680837411B102990
:104740000FD96019420708D0502080F31188BFF3B9
:104750004F8FBFF36F8FFEE710E041606560FFF79A
:10476000EDFD61687068401A7060B268904200D2D6
:10477000B060F06801430020C4E9000100F0C6FE0B
:10478000780707D0502080F31188BFF34F8FBFF315
:104790006F8FFEE73846BDE8F08100006C00002016
:1047A00010B5031F4FF080741C601B1F21F0010126
:1047B0001960191F024B0B60143940380A6010BD94
:1047C00011460008D0E9013201699A60D0E901235D
:1047D0005A604A68824201D182684A6000220261BE
:1047E0000868401E0860086870470000034B0360BB
:1047F00003F15C000860802010607047D40B00203B
:10480000044B036003F15C0008604FF4807010609B
:1048100070470000300E002000F108014FF0FF3219
:10482000C0E90112C16001610021016070470021EF
:104830000161704730B50B685A1C02D000F10802C4
:1048400002E0026904E02246546825689D42FAD9D4
:1048500053684B6099608A60516008610168491C27
:10486000016030BD42684A6093688B60936859600C
:10487000916008610168491C01607047502080F315
:104880001188BFF34F8FBFF36F8F0A494868401CF0
:10489000486001280CD10848006810F0FF0F07D0CD
:1048A000502080F31188BFF34F8FBFF36F8FFEE767
:1048B000704700008400002004ED00E008494868CB
:1048C00028B1401E486001D180F311887047502004
:1048D00080F31188BFF34F8FBFF36F8FFEE70000A7
:1048E0008400002070B5002827D0144DA0F10804E2
:1048F0006168E868014207D1502080F31188BFF356
:104900004F8FBFF36F8FFEE722683AB1502080F3DC
:104910001188BFF34F8FBFF36F8FFEE78143616054
:1049200000F0BAF960686968084468602046FFF7DB
:1049300005FDBDE8704000F0E9BD70BD6C000020D1
:104940004FF0E02000210161816105494FF47A7246
:104950000968B1FBF2F1491E41610721016170470D
:104960001400002010B5FBF765FC114910280ED388
:1049700000F1E02090F8F0030A78904207D250202E
:1049800080F31188BFF34F8FBFF36F8FFEE70948A5
:104990000068896800F4E060884207D9502080F3FD
:1049A0001188BFF34F8FBFF36F8FFEE710BD00007C
:1049B000840000200CED00E010B5084B002200BF81
:1049C00053F832401CB1521C082AF9D310BD43F8E9
:1049D000321003EBC201486010BD0000B805002092
:1049E00070B515460E460446FFF748FF94F944108B
:1049F0000020491C01D184F8440094F94510491C59
:104A000001D184F84500FFF759FFA06B28B92A4669
:104A1000314604F1240000F0DFF82046BDE8704084
:104A2000FFF71CBE10B5020014D00F48806B38B1E0
:104A3000502080F31188BFF34F8FBFF36F8FFEE7D5
:104A400000F02AF900211046FFF79CFA00F05EFD05
:104A5000002807D105494FF080500860BFF34F8F01
:104A6000BFF36F8F10BD00001800002004ED00E0C0
:104A700070B50D4604000BD095B11E4A906BB8B1CD
:104A8000502080F31188BFF34F8FBFF36F8FFEE785
:104A9000502080F31188BFF34F8FBFF36F8FFEE775
:104AA000502080F31188BFF34F8FBFF36F8FFEE765
:104AB00000F0F2F8526923685919934204D98B42E5
:104AC0000AD9914202D807E08B42FAD9881A2160AC
:104AD0000021FFF757FA00E0216000F017FD0028E1
:104AE00007D105494FF080500860BFF34F8FBFF3E7
:104AF0006F8F70BD1800002004ED00E070B5054612
:104B0000FFF7BCFE1E4C05B92568281DFFF75AFEAD
:104B1000A86A18B105F11800FFF754FEE06A401CBE
:104B2000E0622068854207D1291D1648FFF79AFEEA
:104B3000E068401CE06007E02069401E20612846D4
:104B4000FFF72BFBFFF70AFDFFF7B8FEE06900282F
:104B500014D02068854211D1A06B38B1502080F369
:104B60001188BFF34F8FBFF36F8FFEE706494FF0F9
:104B700080500860BFF34F8FBFF36F8F70BD000090
:104B800018000020940A002004ED00E002498A6A1F
:104B90000260496941607047180000200149012006
:104BA000486270471800002010B50C4650B1094902
:104BB00009681831FFF73EFE2046BDE8104001218C
:104BC000FFF7E0B9502080F31188BFF34F8FBFF398
:104BD0006F8FFEE71800002070B514460D4668B1CF
:104BE0000A4909681831FFF73DFE0CB14FF0FF3557
:104BF00021462846BDE87040FFF7C4B9502080F335
:104C00001188BFF34F8FBFF36F8FFEE718000020AE
:104C100030B587B00024039405AA04A903A804941E
:104C2000FFF7E4FDDDE903010094CDE90110002365
:104C300015A11748059A00F046FB164D0028686339
:104C40001FD000F0C5FC012809D0401C19D150200C
:104C500080F31188BFF34F8FBFF36F8FFEE75020B3
:104C600080F31188BFF34F8FBFF36F8F4FF0FF308A
:104C700028630120E8616C6107B0BDE8304000F0B6
:104C800045B807B030BD000049444C450000000065
:104C90001D420008180000200248816B491C8163F6
:104CA0007047000018000020164810B5816B11B144
:104CB0000121416210BD002141628169124A01E077
:104CC000B9B1491E01EB810352F82330002BF7D014
:104CD00001EB810302EB830202F1080453685B6875
:104CE0005360A34201D15B685360DA68026081615E
:104CF00010BD502080F31188BFF34F8FBFF36F8F2B
:104D0000FEE7000018000020F80500201CB5264929
:104D100008780190FF20087008788DF800009DF851
:104D200000009DF8002000F0F000904207D05020D5
:104D300080F31188BFF34F8FBFF36F8FFEE79DF8AD
:104D400000001A4B00F0500018700720986005E032
:104D50009DF8002052008DF80020401E9DF8002094
:104D60001206F5D49860032807D0502080F31188EC
:104D7000BFF34F8FBFF36F8FFEE74FF44070986023
:104D8000019808700A48016841F4700101600168E7
:104D900041F070410160FFF7D3FD00205860FBF740
:104DA00013FA00201CBD000000E400E08400002095
:104DB00020ED00E038B5049D18B153B1CAB181B1FE
:104DC00020E0502080F31188BFF34F8FBFF36F8F27
:104DD000FEE7502080F31188BFF34F8FBFF36F8F32
:104DE000FEE7502080F31188BFF34F8FBFF36F8F22
:104DF000FEE739B1502080F31188BFF34F8FBFF326
:104E00006F8FFEE750241C46012384F846302B4662
:104E10000094FFF733FA204638BD000070B50D4608
:104E2000040025D0FFF72AFDD4E90F20216802FBFA
:104E3000001161600021A1632168A1600A46D4E9E4
:104E40000F01401E00FB0121E16021464FF0FF30C1
:104E500001F8440F487004F110008DB1FFF7DCFC3D
:104E600004F12400FFF7D8FCFFF728FD012070BDF6
:104E7000502080F31188BFF34F8FBFF36F8FFEE791
:104E800021690029F0D000F009FB0028ECD004498A
:104E90004FF080500860BFF34F8FBFF36F8FE3E791
:104EA00004ED00E02DE9FF4782B01D468A464FF031
:104EB0000008040003D0BAF1000F08D011E0502020
:104EC00080F31188BFF34F8FBFF36F8FFEE7206C25
:104ED00038B1502080F31188BFF34F8FBFF36F8F2D
:104EE000FEE7022D0AD1E06B012807D0502080F3A5
:104EF0001188BFF34F8FBFF36F8FFEE700F00EFAFC
:104F00003F4F4FF000094FF0805648B9049838B130
:104F1000502080F31188BFF34F8FBFF36F8FFEE7F0
:104F2000FFF7ACFCA06BE16B884207D3022D05D0E4
:104F30000498D0B1B8F1000F1AD01EE02A465146AD
:104F40002046FFF7F4F8616A19B104F1240000F07B
:104F5000A5FA20B13E60BFF34F8FBFF36F8FFFF70D
:104F6000ADFC012006B0BDE8F087FFF7A7FC22E00A
:104F70006846FFF70BFE4FF00108FFF79FFCFFF7B5
:104F80008BFEFFF77BFC94F94400401C01D184F8B0
:104F9000449094F94500401C01D184F84590FFF7F6
:104FA0008DFC04A9684600F027F930B12046FFF7D0
:104FB00055FB00F0ABFA0020D4E7FFF75FFCA06BD5
:104FC000E16B884213D1FFF779FC04F110000499DA
:104FD000FFF7EAFD2046FFF741FB00F097FA0028B3
:104FE0009ED13E60BFF34F8FBFF36F8F98E7FFF7FF
:104FF00065FC2046FFF732FB00F088FA90E70000DE
:1050000004ED00E02DE9F0471F4690468946040074
:1050100003D0B9F1000F08D011E0502080F31188BF
:10502000BFF34F8FBFF36F8FFEE7206C38B1502076
:1050300080F31188BFF34F8FBFF36F8FFEE7022F0E
:105040000AD1E06B012807D0502080F31188BFF30C
:105050004F8FBFF36F8FFEE7FFF784FC5020EFF315
:10506000118680F31188BFF34F8FBFF36F8FA06B52
:10507000E16B884206D3022F04D0002086F311880A
:10508000BDE8F08794F945503A4649462046FFF777
:105090004EF8681C04D06D1C84F845500120EDE7E3
:1050A000606A0028FAD004F1240000F0F7F9002823
:1050B000F4D0B8F1000FF1D00121C8F80010EDE7ED
:1050C0002DE9F747002683B08A46040003D0BAF1E1
:1050D000000F08D011E0502080F31188BFF34F8FEC
:1050E000BFF36F8FFEE7206C38B1502080F311883A
:1050F000BFF34F8FBFF36F8FFEE700F00FF9DFF8BC
:10510000F4804FF000094FF0805748B9059838B146
:10511000502080F31188BFF34F8FBFF36F8FFEE7EE
:10512000FFF7ACFBA56BC5B151462046FEF7ECFF7F
:105130006D1EA563206950B104F1100000F0AEF9B6
:1051400028B1C8F80070BFF34F8FBFF36F8FFFF720
:10515000B5FB012006B0BDE8F087059808B11EB187
:1051600006E0FFF7ABFB27E06846FFF70FFD0126DF
:10517000FFF7A4FBFFF790FDFFF780FB94F94400D5
:10518000401C01D184F8449094F94500401C01D1A1
:1051900084F84590FFF792FB05A9684600F02CF8CB
:1051A000002820460AD0FFF759FA00F0AFF9204650
:1051B000FFF706F90028B3D00020CBE7FFF700F98E
:1051C00090B104F124000599FFF7EEFC2046FFF7AB
:1051D00045FA00F09BF90028A2D1C8F80070BFF38F
:1051E0004F8FBFF36F8F9BE72046FFF737FA00F032
:1051F0008DF995E704ED00E02DE9F0410C4605003E
:1052000011D0C4B1FFF73AFB174B5A696E6820689A
:10521000911B471C17D02F689B6A9F4219D096425A
:1052200017D8012410E0502080F31188BFF34F8F6E
:10523000BFF36F8FFEE7502080F31188BFF34F8FCD
:10524000BFF36F8FFEE70024FFF738FB2046BDE871
:10525000F081884205D9401A20602846FFF796FC65
:10526000F1E700202060DCE7180000202DE9FF5F57
:105270008346DDE90E87994616468A469000FFF779
:1052800023FA05001CD05C20FFF71EFA040014D09E
:105290000020256384F85900CDE90240CDE900875C
:1052A0004B46324651465846FEF7F9FF2046FEF778
:1052B00097FE012004B0BDE8F09F2846FFF712FBDF
:1052C0004FF0FF30F6E7F0B585B0DDE90B640A9DDD
:1052D000A6B1DCB15C2700972663022684F85960EA
:1052E000002604AFCDE90246CDE90057FEF7D7FF0F
:1052F0002046FEF775FE049805B0F0BD502080F3FF
:105300001188BFF34F8FBFF36F8FFEE7502080F3FC
:105310001188BFF34F8FBFF36F8FFEE70548C16958
:1053200019B1806B18B1002070470120704702202E
:1053300070470000180000200148406970470000D5
:105340001800002010B5FFF70DFB0148406910BDA3
:10535000180000202DE9F0412E4C0027A06B40B131
:10536000206A401C2062606A00B101273846BDE80F
:10537000F0816669761C666113D16068006838B197
:10538000502080F31188BFF34F8FBFF36F8FFEE77C
:105390006068A1686160A060A06A401CA062FFF71D
:1053A000DDF8206BDFF87080864209D36068006802
:1053B00080B16068C068C568686886420DD22063A5
:1053C0002068C06A00EB800158F821000128CAD982
:1053D0000127C8E74FF0FF30F1E7281DFFF7F2F98A
:1053E000A86A18B105F11800FFF7ECF9E86AA1699D
:1053F000884200D9A06100EB800108EB8100291DE3
:10540000FFF730FAE86A2168C96A8842CED30127DB
:10541000CCE7000018000020F805002070B504005B
:105420004FF0000133D01B4D2868844207D0502034
:1054300080F31188BFF34F8FBFF36F8FFEE7206DAE
:1054400038B1401E2065E36CE26A9A421FD040B139
:105450001DE0502080F31188BFF34F8FBFF36F8F93
:10546000FEE7201DFFF7AEF9E06CE062C0F1380006
:10547000A061E06AA969884200D9A861064900EBE9
:10548000800001EB8000211DFFF7ECF901210846A7
:1054900070BD000018000020F805002070B5C0683D
:1054A000C46854B104F118000646FFF78BF9144D97
:1054B000A86B50B13146134815E0502080F3118895
:1054C000BFF34F8FBFF36F8FFEE7201DFFF77AF911
:1054D000E06AA969884200D9A8610B4900EB800005
:1054E00001EB8000211DFFF7BDF9E06A2968C96A58
:1054F000884202D90120686270BD002070BD0000A2
:1055000018000020800A0020F80500202DE9F0474F
:105510002C4D00242746A86B38B1FFF7AFF9A86BD4
:10552000401EA863A86B40B146E0502080F311886C
:10553000BFF34F8FBFF36F8FFEE72969224E012023
:10554000D1B3A6F5916980463068E0B1F068C468CF
:1055500004F11800FFF736F9201DFFF733F9E06A70
:10556000A969884200D9A86100EB800109EB81009C
:10557000211DFFF777F9E06A2968C96A8842E3D3F9
:10558000C5F82480E0E70CB1FEF7E8FF2C6A4CB1C7
:105590004FEA0806FFF7DEFE00B16E62641EF9D125
:1055A00000202862686A38B1084901273807086076
:1055B000BFF34F8FBFF36F8FFFF780F93846BDE819
:1055C000F087000018000020800A002004ED00E0B1
:1055D00010B586B0FEF76CFD114CA068B8B1002084
:1055E0000390049005AA04A903A8FFF709F9DDE9CF
:1055F000032102208DE8070000230AA10B48059A29
:10560000FFF761FEE06010B106B0012010BD502030
:1056100080F31188BFF34F8FBFF36F8FFEE7000059
:1056200054000020546D7220537663003946000800
:105630002DE9FF411E46134602000A9D4FF000006F
:1056400016D0144CA768002F0FD0CDE9001302929A
:10565000062917DAFFF762FE02284FF000030FD089
:1056600000226946A068FFF71DFC04B0BDE8F08188
:10567000502080F31188BFF34F8FBFF36F8FFEE789
:105680002A46EEE70023324669463846FFF7BAFC61
:10569000EBE700005400002010B500290AD008787C
:1056A000002807D005487844FBF7ECFB002801D020
:1056B000002010BD0248784410BD000036080000EC
:1056C0002E080000785E000800000000F4020020B0
:1056D0005C000000F4000020000200001800000040
:1056E000000000000000000001020203040506079C
:1056F00008090A0B0C0D0E0F10100000000000002E
:10570000000001020304060708090000000001026E
:1057100003043443101001344310100141540D0AA6
:105720000041542B53415042523D312C310D0A005F
:1057300041542B43495047534D4C4F433D312C313D
:105740000D0A00010300000001840A0000000000AF
:105750000000000000000000000000000000F80051
:10576000000000000000333000000000100C0610A4
:105770000C0600000000000000000040C07840C09F
:10578000784000043F04043F040400007088FC08D3
:10579000300000001820FF211E0000F008F000E09B
:1057A00018000000211C031E211E0000F008887054
:1057B0000000001E2123241927211010160E0000BE
:1057C0000000000000000000000000000000E018E1
:1057D000040200000000071820400000020418E046
:1057E0000000000040201807000000404080F080CA
:1057F0004040000202010F01020200000000F00020
:105800000000000101011F01010100000000000073
:1058100000000080B07000000000000000000000E8
:105820000000000001010101010101000000000071
:105830000000000030300000000000000000008088
:10584000601804006018060100000000E01008085D
:1058500010E000000F102020100F00001010F800C2
:105860000000000020203F202000000070080808F1
:1058700088700000302824222130000030088888F9
:105880004830000018202020110E000000C0201019
:10589000F8000000070424243F240000F80888884A
:1058A0000808000019212020110E0000E01088884F
:1058B000180000000F112020110E0000380808C841
:1058C0003808000000003F00000000007088080851
:1058D000887000001C222121221C0000E010080812
:1058E00010E0000000312222110F00000000C0C0B3
:1058F00000000000000030300000000000008000C8
:1059000000000000008060000000000000804020D7
:1059100010080000010204081020004040404040F0
:105920004040000404040404040400000810204063
:1059300080000000201008040201000070480808E0
:1059400008F0000000003036010000C030C828E830
:1059500010E0000718272423140B000000C038E0D3
:10596000000000203C23020227382008F88888889D
:10597000700000203F202020110E00C030080808D1
:10598000083800071820202010080008F808080828
:1059900010E000203F202020100F0008F88888E841
:1059A000081000203F20202320180008F88888E8ED
:1059B000081000203F200003000000C03008080845
:1059C00038000007182020221E020008F8080000F6
:1059D00008F808203F210101213F20000808F808AD
:1059E0000800000020203F2020000000000808F8E8
:1059F000080800C08080807F00000008F888C02868
:105A0000180800203F20012638200008F808000070
:105A1000000000203F20202020300008F8F800F887
:105A2000F80800203F003F003F200008F830C00089
:105A300008F808203F200007183F00E01008080879
:105A400010E0000F10202020100F0008F8080808B0
:105A500008F000203F210101010000E010080808C3
:105A600010E0000F18242438504F0008F888888868
:105A7000887000203F2000030C3020007088080848
:105A80000838000038202121221C00180808F808D6
:105A90000818000000203F2000000008F80800005F
:105AA00008F808001F202020201F00087888000028
:105AB000C83808000007380E010000F80800F80098
:105AC00008F800033C0700073C03000818688080C2
:105AD00068180820302C03032C30200838C800C870
