:020000040000FA
:1000000028030020650100007F010000750D00003D
:1000100000000000000000000000000000000000E0
:10002000000000000000000000000000830100004C
:1000300000000000000000008501000087010000B2
:10004000850D00008F0D0000990D0000A30D00002C
:100050008901000089010000AD0D0000B70D00000E
:10006000C10D000089010000CB0D000089010000D6
:10007000D50D000089010000DF0D0000E90D000032
:10008000F30D0000FD0D0000070E0000110E000032
:100090001B0E0000250E00002F0E0000390E000080
:1000A000430E0000890100004D0E0000570E0000B5
:1000B000610E0000890100006B0E0000750E00004B
:1000C00000F002F800F03EF80CA030C80838241800
:1000D0002D18A246671EAB4654465D46AC4201D180
:1000E00000F030F87E460F3E0FCCB6460126334274
:1000F00000D0FB1AA246AB4633431847401C000011
:10010000601C0000103A02D378C878C1FAD85207B0
:1001100001D330C830C101D504680C6070470000BD
:100120000023002400250026103A01D378C1FBD813
:10013000520700D330C100D50B6070471FB51FBDFB
:1001400010B510BD00F0ECF81146FFF7F7FF01F015
:100150006BFD00F004F903B4FFF7F2FF03BC01F0FC
:1001600029FB00000C480D4A002100A1814200D962
:1001700002440B4802600B4880470B480047FEE7EB
:10018000FEE7FEE7FEE7FEE7FEE700000748084956
:10019000084A094B704700000000002000000000E2
:1001A00008ED00E085120000C100000028010020D9
:1001B0002803002028020020280200207047002287
:1001C00003098B422CD3030A8B4211D300239C4694
:1001D0004EE003460B433CD4002243088B4231D30C
:1001E00003098B421CD3030A8B4201D394463FE0A0
:1001F000C3098B4201D3CB01C01A524183098B4200
:1002000001D38B01C01A524143098B4201D34B01E8
:10021000C01A524103098B4201D30B01C01A52414B
:10022000C3088B4201D3CB00C01A524183088B42D2
:1002300001D38B00C01A524143088B4201D34B00BB
:10024000C01A5241411A00D201465241104670472D
:100250005DE0CA0F00D04942031000D34042534032
:1002600000229C4603098B422DD3030A8B4212D3F2
:10027000FC22890112BA030A8B420CD38901921124
:100280008B4208D3890192118B4204D389013AD061
:10029000921100E08909C3098B4201D3CB01C01A36
:1002A000524183098B4201D38B01C01A5241430949
:1002B0008B4201D34B01C01A524103098B4201D337
:1002C0000B01C01A5241C3088B4201D3CB00C01AA4
:1002D000524183088B4201D38B00C01A5241D9D2BC
:1002E00043088B4201D34B00C01A5241411A00D23D
:1002F0000146634652415B10104601D34042002B39
:1003000000D54942704763465B1000D3404201B5B7
:100310000020C046C04602BD704770477047704716
:10032000754600F025F8AE46050069465346C008FC
:10033000C000854618B020B5FFF728FF60BC002735
:100340004908B6460026C0C5C0C5C0C5C0C5C0C5A1
:10035000C0C5C0C5C0C5403D49008D46704710B5F9
:100360000446C046C0462046FFF7F5FE10BD00001B
:1003700000487047C800002010B502460020002A3F
:1003800004D0012A0BD0022A1DD111E0104B1B68AA
:100390001B0C1B048CB223430D4C236015E00C4B4B
:1003A0001B6A1B0C1B048CB22343094C23620CE018
:1003B000074B40331B681B0C1B048CB22343044CBB
:1003C0004034236001E0012000BF00BF10BD0000E9
:1003D000000C004010B502460020002A04D0012A7B
:1003E0000BD0022A1DD111E0104B5B681B0C1B04C3
:1003F0008CB223430D4C636015E00C4B5B6A1B0C05
:100400001B048CB22343094C63620CE0074B40335E
:100410005B681B0C1B048CB22343044C40346360A8
:1004200001E0012000BF00BF10BD0000000C004033
:1004300030B502460020002A04D0012A4AD0022A00
:100440007ED191E0724BDB6801246402A3430C78F7
:10045000640201256D022C4023436D4CE36023466A
:10046000DB68A415A3434C7824026D102C40234371
:10047000674CE3602346DB687024A3438C78240137
:1004800070252C402343624CE3602346DB6808243C
:10049000A343CC78E40008252C4023435C4CE36064
:1004A0002346DB680424A3430C79A40004252C40D4
:1004B0002343574CE3602346DB680224A3434C7973
:1004C000640002252C402343514CE360514C8B685F
:1004D00023609AE04E4BDB6A01246402A3430C784C
:1004E000640201256D022C402343494CE3622346FC
:1004F000DB6AA415A3434C7824026D102C402343DF
:10050000434CE3622346DB6A7024A3438C782401C6
:1005100070252C4023433E4CE3622346DB6A0824CB
:10052000A343CC78E40008252C402343384CE362F5
:100530002346DB6A0424A3430C79A400042500E0CD
:1005400061E02C402343324CE3622346DB6A022401
:10055000A3434C79640002252C4023432C4CE362D6
:100560002D4CCB68236050E0294B4033DB680124DD
:100570006402A3430C78640201256D022C402343DE
:10058000234C4034E3602346DB68A415A3434C7836
:1005900024026D102C4023431D4C4034E36023465D
:1005A000DB687024A3438C78240170252C402343FE
:1005B000174C4034E3602346DB680824A343CC781F
:1005C000E40008252C402343114C4034E3602346CB
:1005D000DB680424A3430C79A40004252C402343A6
:1005E0000B4C4034E3602346DB680224A3434C7980
:1005F000640002252C402343054C4034E360074C43
:100600000B69236001E0012000BF00BF30BD000086
:10061000000C0040280000202C00002030000020AA
:1006200001460020002904D001290AD002291AD14C
:100630000FE00F4AD26852085200521C0C4BDA608D
:1006400013E00B4AD26A52085200521C084BDA627D
:100650000BE0074A4032D26852085200521C044B49
:100660004033DA6001E0012000BF00BF70470000A6
:10067000000C0040024803498860034888607047C6
:100680005A5A000000200040A5A500000348006859
:100690000F21C902884301490860704700200040CB
:1006A000F8B505460C460027FFF7E4FF002C01D003
:1006B000012000E0002004464348066A002D70D067
:1006C000012D3BD0022D2ED0032D74D1006A0121C3
:1006D0000907884340183C4908623C48C06810211B
:1006E000884321011022114008433849C860084658
:1006F000C06820218843610120221140084333490A
:10070000C86031488069000900010F302E498861B6
:100710000846006808218843E10008221140084388
:10072000294908604BE02848006804218843A1005B
:100730000422114008432449086040E02248006A2E
:1007400001210907884340181F4908621F484038A3
:10075000C0680221884361000222114008431B49FE
:100760004039C8600846C06804218843A1000422BB
:100770001140084315494039C86013480069000911
:1007800000010F30104908610846006802218843C3
:1007900061000222114008430B4908600FE000E0AD
:1007A00009E00948006840084000E107C90F084314
:1007B0000549086003E0FFF769FF042700BF00BF99
:1007C000014806623846F8BD00200040400D024056
:1007D0001EB50020002122A31B680293214C18CCD7
:1007E00001940093204B1B689B069A0F002A06D0A9
:1007F000012A25D0022A19D0032A26D122E01A4B39
:10080000DB680324640223405B0A02ACE05C174B04
:100810005843174B984208D1164B5988124BDB6846
:100820005B055B0D8B4200D1134810E00E4B5B69FA
:100830000124640223405B0A9B006C46E05806E0FA
:100840000E4804E00120C00301E0002000BF00BF0B
:10085000054B1B68DB055C0F0346E34018461EBDD5
:1008600004081018281D00000020004040420F001E
:1008700000366E01000C1000408651010048E8016E
:1008800010B50024FFF7A4FF0446044800684005A3
:10089000810F2046C8400446204610BD002000407D
:1008A00010B502460020002901D0012300E00023FA
:1008B0001946002907D0084B1B6A012494402343A2
:1008C000054C236206E0044B1B6A01249440A343B9
:1008D000014C236210BD00000020004010B501460D
:1008E00000208A1E130000F097FE0504101C283417
:1008F0004000204B1B895A05520D1F4BDB68DB0A59
:10090000DB0213431C4CE36031E01A4BDB885A05D1
:10091000520D194BDB68DB0ADB021343164CE36014
:1009200025E0144B9B885A05520D134BDB68DB0AFC
:10093000DB021343104CE36019E00E4B5B885A0551
:10094000520D0D4BDB68DB0ADB0213430A4CE360FC
:100950000DE0084B1B885A05520D074BDB68DB0A7C
:10096000DB021343044CE36001E0042000BF00BF3E
:1009700010BD0000000C10000020004010B504461F
:10098000002C01D1042010BD2B48006A012109066A
:1009900088434018284908622078002806D001289A
:1009A0001AD002280DD0032827D11EE02248406B20
:1009B0000321890688430121C90640181E4948635E
:1009C0001DE01D48406B03218906884301218906EB
:1009D00040181949486312E01748406B0321890603
:1009E000884340181449486309E01348406B0321C9
:1009F000890688431049486301E00420C3E700BF2B
:100A00000D48406B0121490688436178490601225F
:100A1000520611400843084948636068401E074970
:100A200048610321081F00F011FE0020034988617E
:100A3000012008610020A6E70020004000E000E05F
:100A4000F8B505460F4616466CB22046002805DB71
:100A5000C206D20E01219140144A116000BF3946EE
:100A6000204600F02FFE012E0ED12046002809DB83
:100A700000BF00BFC206D20E012191400C4A116096
:100A800000BF00BF00BF0FE0204600280ADBC206FF
:100A9000D20E01219140064A80321160BFF34F8F80
:100AA000BFF36F8F00BF00BFF8BD000080E200E021
:100AB00000E100E002469001034BC0184068C840C6
:100AC000C007C00F70470000000D024070B504461B
:100AD0000D4616462948006A012109078843401837
:100AE0002649086200222946204600F0FFF800212E
:100AF000A001234A8018001FAA008150002E0DD0AB
:100B0000A0011F49FC31401800680121A940084399
:100B1000A1011B4AFC32891808600CE0A0011849A9
:100B2000FC31401800680121A9408843A101144A02
:100B3000FC3289180860A0011149FC314018006A94
:100B40000121A9408843A1010D4AFC32891808629D
:100B5000A00111464018406A0121A9408843A10123
:100B600089184862A00111464018C16A0120A840B6
:100B70008143A0018018C162002070BD00200040A8
:100B8000040C0240F0B504460D4616461F46554873
:100B9000006A01210907884340185249086200226F
:100BA0002946204600F0A2F80021A0014E4A8018F4
:100BB000001FAA008150002E0DD0A0014A49FC312F
:100BC000401800680121A9400843A101464AFC32AF
:100BD000891808600CE0A0014349FC314018006806
:100BE0000121A9408843A1013F4AFC3289180860CD
:100BF000079800280DD0A0013B49FC314018C0697E
:100C00000121A9400843A101374AFC328918C86173
:100C10000CE0A0013449FC314018C0690121A94011
:100C20008843A101304AFC328918C861002F0DD0D9
:100C3000A0012D49FC314018006A0121A940084358
:100C4000A101294AFC32891808620CE0A00126495A
:100C5000FC314018006A0121A9408843A101224AC1
:100C6000FC3289180862059800280DD0A0011E49A1
:100C7000FC314018406A0121A9400843A1011A4AE9
:100C8000FC32891848620CE0A0011749FC31401879
:100C9000406A0121A9408843A101134AFC32891806
:100CA0004862069800280DD0A0010F49FC31401879
:100CB000C06A0121A9400843A1010B4AFC328918EE
:100CC000C8620CE0A0010849FC314018C06A01214B
:100CD000A9408843A101044AFC328918C862002057
:100CE000F0BD000000200040040C024030B5034677
:100CF000002A0BD098010C4C0019C06801248C40CC
:100D000020439C01084D6419E0600AE09801064CFC
:100D10000019C06801248C40A0439C01024D641955
:100D2000E060002030BD0000000D024030B5002A18
:100D300001D0012300E000231A46002A0BD08301D2
:100D40000B4C1B199B6801248C4023438401084DE4
:100D50006419A3600AE08301054C1B199C680123F8
:100D60008B409C438301024D5B199C6030BD0000A9
:100D7000000D024008B50020009000BF0098002838
:100D8000FCD008BD10B50020C046C04610BD10B54F
:100D90000120C046C04610BD10B50220C046C04666
:100DA00010BD10B50320C046C04610BD10B50020D0
:100DB000C046C04610BD10B50120C046C04610BD9B
:100DC00010B50020C046C04610BD10B50020C0467A
:100DD000C04610BD10B50020C046C04610BD10B5BD
:100DE0000020C046C04610BD10B50120C046C04618
:100DF00010BD10B50220C046C04610BD10B5002081
:100E0000C046C04610BD10B50420C046C04610BD47
:100E100010B50520C046C04610BD10B50620C0461E
:100E2000C04610BD10B50020C046C04610BD10B56C
:100E30000020C046C04610BD10B50020C046C046C8
:100E400010BD10B50020C046C04610BD10B5002032
:100E5000C046C04610BD10B50120C046C04610BDFA
:100E600010B50020C046C04610BD10B50020C046D9
:100E7000C04610BD10B50020C046C04610BD0000E1
:100E800070B5044600257020044000F087F8054640
:100E9000002204210120FFF749FF00200A49486091
:100EA000272000F0E3FD21462943084600F0DEFD3F
:100EB000012204211046FFF739FF01200249486052
:100EC00000F06CF870BD0000000800400EB5002076
:100ED0000090019001230246062102900220FFF7B4
:100EE00051FE0020012100900B460A46019102901C
:100EF00002210320FFF746FE002206210220FFF711
:100F000015FF012204211046FFF710FF01200149BF
:100F100048600EBD00080040F8B504460E4617466E
:100F2000002204210120FFF701FF00200B49486047
:100F3000204600F09BFD002505E0FF2000F096FD17
:100F40007055681CC5B2BD42F7DB01220421104672
:100F5000FFF7ECFE012001494860F8BD00080040A1
:100F600070B50446002204210120FFF7DFFE0020B7
:100F700009494860204600F079FDFF2000F076FD29
:100F80000546012204211046FFF7D0FE0120024948
:100F90004860284670BD00000008004010B50022DF
:100FA00004210120FFF7C2FE002008494860072005
:100FB00000F05CFD0446012204211046FFF7B6FE56
:100FC000012002494860204610BD00000008004092
:100FD00070B504460E461546052D01DD052000E0DE
:100FE00028460546052C01DD052000E02046044684
:100FF00021460A31C8B22A46314600F06FF870BD6A
:1010000070B505460C46052C01DD052000E02046A4
:10101000044622462946102000F060F870BD00000A
:10102000F8B505460E4600240027002204210120C1
:10103000FFF77CFE002028494860E12000F016FD03
:10104000012204211046FFF771FE01202249486069
:10105000002206210220FFF769FE32462946A02021
:1010600000F03CF8012206210220FFF75FFE11E0AC
:10107000012000F0B1FB3846791C8FB2FF21F53119
:10108000884207D1FFF722FF00F098F8002000F017
:10109000DBF805E002210320FFF70CFD0028E7D173
:1010A00000BF0720FFF75CFF04462146072000F041
:1010B0003BF810202040002805D0FF21E12000F05F
:1010C00033F81020F8BD20202040002801D0202037
:1010D000F8E7FF20F6E7000000080040F8B50546F5
:1010E0000E461746002204210120FFF71FFE0020B4
:1010F0000C49486020212943084600F0B7FC002431
:1011000004E0305D00F0B2FC601CC4B2BC42F8DB0D
:10111000012204211046FFF709FE01200149486021
:10112000F8BD00000008004070B504460D460022DE
:1011300004210120FFF7FAFD002009494860202121
:101140002143084600F092FC284600F08FFC012263
:1011500004211046FFF7EAFD01200149486070BDF7
:10116000000800401FB513A103C90391029000209D
:10117000009001901AE0052202A91020FFF7AEFFAF
:10118000052269461020FFF7C7FE002409E002A8E7
:10119000005D6946095D884201D000BFFEE7601C22
:1011A000C4B2052CF3DB00BF00D100E0E3E700BFD1
:1011B0001FBD0000A5A5A5A5A50000001CB520A188
:1011C00003C901910090012206210220FFF7AEFD24
:1011D0007020FFF755FE01211C20FFF7A5FF072116
:1011E0001D20FFF7A1FF1C20FFF7BAFE1D20FFF70F
:1011F000B7FE0A210020FFF797FF01210846FFF7FD
:1012000093FF01210220FFF78FFF03210846FFF71C
:101210008BFFFF210420FFF787FF3C210520FFF70C
:1012200083FF26210620FFF77FFF05216846FFF791
:10123000E7FE052269460020FFF7CAFE1CBD00003C
:10124000344310100100000070B504460025002052
:10125000FFF786FE0546002C02D16D086D0003E005
:10126000012C01D10120054329460020FFF75CFF36
:1012700070BD704710B5FFF7ABFA0149086010BDAB
:101280005C0000201CB50220FFF728FB0121002094
:10129000FFF706FAFFF7EEFF00F0BDF908216846F8
:1012A00000F08AFA012069464870034801906846B8
:1012B000FFF764FB1CBD0000FFFFFF0070B5054693
:1012C000A81D44B2204600F0B5F90321204600F0E5
:1012D00035FA2046002809DBC206D20E01219140D2
:1012E000034A1160BFF34F8FBFF36F8F00BF70BD14
:1012F00080E100E010B502460020002100BF0BE0B5
:1013000014234B43064CE358934203D114234B431D
:10131000181903E04B1CD9B20229F1D300BF10BD4C
:101320003400002070B50546A81D44B2204600F0E8
:1013300081F90321204600F001FA2046002809DB4C
:1013400000BF00BFC206D20E01219140024A1160C7
:1013500000BF00BF00BF70BD00E100E070B50646F1
:101360000D4600243046FFF7C5FF0446002C01D18E
:10137000042070BD002D04D0012D09D0022D15D1FF
:101380000DE06068406904218843616848610FE0AE
:1013900060684069400840006168486108E0606832
:1013A0004069022188436168486101E00420E0E768
:1013B00000BF0020DDE770B506460D46002430462C
:1013C000FFF798FF0446002C01D1042070BD60682F
:1013D00040681021884329011022114008436168A8
:1013E00048600020F2E770B506460D4600243046FE
:1013F000FFF780FF0446002C01D1042070BD002DB2
:1014000002D0012D10D107E06068406802218843B6
:10141000801C6168486009E06068406840084000DE
:10142000401C6168486001E00420E7E700BF00203D
:10143000E4E7F8B506460D46002700243046FFF7DE
:1014400059FF0446002C01D10420F8BD002D04D022
:10145000012D0BD0022D1BD111E0606800694007FF
:10146000C00F012148404840074612E0606800690B
:10147000C007C00F012148404840074609E06068A6
:1014800000698007C00F012148404840074600E03E
:1014900000BF00BF3846D8E7F8B506460C4601271E
:1014A00000253046FFF726FF0546002D01D1042018
:1014B000F8BD002C01D10420FAE72178304600F075
:1014C0006EF807466068002804D03046616800F076
:1014D0007EF80746A068002808D0A0684168E96047
:1014E000A06881682961A0680068A860207B012845
:1014F00003D13046FFF716FF02E03046FFF7DEFE6D
:1015000000273846D4E770B5054600242846FFF783
:10151000F1FE0446002C01D1042070BD6068006813
:10152000C0B2FAE7F8B507460E4614460020009010
:1015300000253846FFF7DEFE0546002D01D0002CC1
:1015400001D10020F8BD6868406801214902884344
:1015500061784902012252021140084369684860DB
:101560002078002806D0012806D0022803D00328BE
:1015700011D102E000BF0FE000BF62685101627844
:10158000521C72431046FEF71AFE01210904081A84
:1015900080B2009000E000BF00BF0098D2E770B5B5
:1015A00006460D4600243046FFF7A4FE0446002CF4
:1015B00001D1042070BD60684068C0218843A90142
:1015C000C02211400843616848600020F2E770B50E
:1015D00006460C4600253046FFF78CFE0546002DDA
:1015E00001D1042070BD002C13D068684068202110
:1015F00088432178490120221140084369684860E6
:101600002078012805D1607869688860A0786968C9
:10161000C8600020E6E7704730B47446641E257841
:10162000641CAB4204D3635D5B00E31830BC184715
:101630001D46F8E7002805DBC206D20E01219140C5
:10164000014A11607047000080E200E010B50028F8
:1016500019DB1A4A03231B02D21883089B00D258B5
:101660008307DC0EFF23A3409A438B071B0E8407DE
:10167000E40EA3401A43114B032424021B198408CF
:10168000A4001A5118E00E4A03071B0F083B9B08E1
:101690009B00D2588307DC0EFF23A3409A438B079D
:1016A0001B0E8407E40EA3401A43054B0407240FC6
:1016B000083CA408A4001A5110BD000000E100E09D
:1016C0001CED00E010B5002819DB1A4A03231B02A9
:1016D000D21883089B00D2588307DC0EFF23A34057
:1016E0009A438B071B0E8407E40EA3401A43114B49
:1016F000032424021B198408A4001A5118E00E4A7E
:1017000003071B0F083B9B089B00D2588307DC0E86
:10171000FF23A3409A438B071B0E8407E40EA340CC
:101720001A43054B0407240F083CA408A4001A51CF
:1017300010BD000000E100E01CED00E010B5002845
:1017400019DB1A4A03231B02D21883089B00D258C4
:101750008307DC0EFF23A3409A438B071B0E8407ED
:10176000E40EA3401A43114B032424021B198408DE
:10177000A4001A5118E00E4A03071B0F083B9B08F0
:101780009B00D2588307DC0EFF23A3409A438B07AC
:101790001B0E8407E40EA3401A43054B0407240FD5
:1017A000083CA408A4001A5110BD000000E100E0AC
:1017B0001CED00E000BF704710B50A460146002945
:1017C00000D110BD02E000230B70491C1346521ECD
:1017D000002BF8D100BFF4E770B5054610E00020FB
:1017E0000A4988617D21C90009480068FEF7E7FCC5
:1017F000012109060C1A00BF04488069A042FBD8E9
:1018000028466D1E0028EAD170BD000000E000E00F
:101810005C00002010B503210846FFF74BF90028B3
:101820000AD11420FFF7D8FF03210846FFF742F939
:10183000002801D1012010BD0020FCE710B50122D5
:1018400003210846FFF742F9012203210846FFF76A
:101850006DFA10BD10B50446002C15D1154800785E
:10186000002808D101201349087001220421032017
:10187000FFF75CFA1DE000200E49087000220421E9
:101880000320FFF753FA14E00B480078002808D132
:10189000012009490870012205210320FFF746FABB
:1018A00007E0002004490870002205210320FFF70B
:1018B0003DFA10BD60000020610000200EB5002040
:1018C0000090019001230246042102900320FFF7BB
:1018D00059F9002000900190012302460521029051
:1018E0000320FFF74FF9002204210320FFF71EFA1F
:1018F000002205210320FFF719FA00200249087091
:10190000024908700EBD0000600000206100002048
:1019100010B50446002C07D10849087000220421A4
:101920000320FFF703FA07E00020044908700022B3
:1019300005210320FFF7FAF910BD00006000002028
:101940000EB501210620FEF7ABFF00200122019019
:10195000034600920290024604210120FFF712F98B
:1019600000BF3E48C068082188433C49C8603C48E5
:10197000C068C008C000401D3949C86037480068C9
:101980000821884308303549086000BF00BF084679
:10199000C068102188433149C86031480069C008D7
:1019A000C000401D2E4908612C4800681021884362
:1019B0002A4908602B484068012149038843294986
:1019C000486000BF00BF2548C068202188432349E4
:1019D000C86023484069C008C000401C20494861D5
:1019E0001E480068202188431C49086000BF01226E
:1019F00004211046FFF79AF901201B494860002096
:101A000008600846006810218843103016490860B5
:101A100008460068082188431349086008460068A2
:101A200004218843104908600846006880218843E3
:101A300080300D4908600846006808600020886012
:101A4000084600684021884340300749086000226A
:101A500003210A20FEF7F4FF0EBD0000800D0240B6
:101A6000800C0240000F02400008004001460A4A74
:101A70000A48C16006E0094880680006C00F0028D7
:101A800000D003E01046521E0028F4D100BF0348E6
:101A9000C068C0B270470000FFFF000000080040AF
:101AA00070B592B00446002500260C210BA8FFF764
:101AB00083FE03210AA8FFF77FFE082108A8FFF78D
:101AC0007BFE142103A8FFF777FE00200090019011
:101AD0000123024619460290FFF754F800200090B7
:101AE000019001231A4602210290FFF74BF800BF34
:101AF0003A48C068022188433849C860384840687D
:101B0000C008C000C01C3649486034480068022143
:101B100088433249086000BF00BF0846C0680421FE
:101B200088432E49C8602E488068C008C000C01C89
:101B30002B498860294800680421884327490860A8
:101B400000BF01210820FEF7ABFE01210846FEF789
:101B5000A7FE24480D9000200B900C900BA810902D
:101B6000002110A80171012108A80176002101724D
:101B70000AA80F9008A84170099401210170FEF78E
:101B80007FFE064608AA31460120FFF7CBFC05463A
:101B90000121684641740021017403A90120FEF768
:101BA00047FC29460120FEF7E7FB29460120FEF706
:101BB00011FC0120FEF734FD0EA90120FFF76CFC9B
:101BC00001210846FFF70FFC01210846FFF7C6FB7D
:101BD00001210846FFF7EFFB12B070BD000D024077
:101BE000000C02407312000070B5044600250D4E33
:101BF00010E001210846FFF71CFC01280AD1FFF77D
:101C000082FC207001210846FFF7A8FB641C681CB9
:101C1000C5B2044E3046711E8EB20028E9D1284666
:101C200070BD0000FF0F000000244B20C001FFF733
:101C300037FFFFF743FEFFF783FEFFF747F9FFF794
:101C400091FAFFF7BBFA0020FFF762FE0120FFF7D1
:101C50005FFE00BF0BE00020FFF7FCFD0120FFF757
:101C6000F9FDFF20F530FFF7B7FD601CC4B2062C6C
:101C7000F1DBFFF7E3FD0020FFF7E6FA4CE0FFF7AA
:101C8000C9FD01282AD1254800780121081A2349D5
:101C900008700120FFF73CFE0020FFF739FE1F48C7
:101CA000007800280DD1002408E00020FFF7D2FDC5
:101CB000FF20F530FFF790FD601CC4B2062CF4DB6A
:101CC0000CE0002408E00120FFF7C4FDFF20F53000
:101CD000FFF782FD601CC4B2062CF4DB0F480078CD
:101CE00000280CD108210E480068FFF799F97D20E3
:101CF000C000FFF771FD0020FFF7ACFD0CE00948C4
:101D0000FFF772FF0446002C06D021460548FFF776
:101D100087F90020FFF79EFDB1E7000004000020D6
:101D200000000020640000200080000000960000F9
:101D3000617368696E696E67000000005C1D0000D9
:101D4000000000206400000004010000C01D00002D
:101D500064000020C402000020010000301D0000CB
:101D60000000010203040506070809000000000046
:101D70000000000000000000000000000000000063
:101D80000000000000000000000000000000000053
:101D90000000000000000040000000000000000003
:101DA00000000000010000000001004000000000F1
:101DB000000000000000000000093D0000000000DD
:04000005000000C136
:00000001FF
